{"abi":[{"type":"function","name":"balances","inputs":[{"name":"","type":"address","internalType":"address"}],"outputs":[{"name":"","type":"uint256","internalType":"uint256"}],"stateMutability":"view"},{"type":"function","name":"deposit","inputs":[],"outputs":[],"stateMutability":"payable"},{"type":"function","name":"withdraw","inputs":[{"name":"amount","type":"uint256","internalType":"uint256"}],"outputs":[],"stateMutability":"nonpayable"}],"bytecode":{"object":"0x608060405234801561000f575f80fd5b5060015f81905550610655806100245f395ff3fe608060405260043610610033575f3560e01c806327e235e3146100375780632e1a7d4d14610073578063d0e30db01461009b575b5f80fd5b348015610042575f80fd5b5061005d60048036038101906100589190610352565b6100a5565b60405161006a9190610395565b60405180910390f35b34801561007e575f80fd5b50610099600480360381019061009491906103d8565b6100ba565b005b6100a3610249565b005b6001602052805f5260405f205f915090505481565b6100c261029e565b8060015f3373ffffffffffffffffffffffffffffffffffffffff1673ffffffffffffffffffffffffffffffffffffffff1681526020019081526020015f20541015610142576040517f08c379a00000000000000000000000000000000000000000000000000000000081526004016101399061045d565b60405180910390fd5b8060015f3373ffffffffffffffffffffffffffffffffffffffff1673ffffffffffffffffffffffffffffffffffffffff1681526020019081526020015f205f82825461018e91906104a8565b925050819055505f3373ffffffffffffffffffffffffffffffffffffffff16826040516101ba90610508565b5f6040518083038185875af1925050503d805f81146101f4576040519150601f19603f3d011682016040523d82523d5f602084013e6101f9565b606091505b505090508061023d576040517f08c379a000000000000000000000000000000000000000000000000000000000815260040161023490610566565b60405180910390fd5b506102466102eb565b50565b3460015f3373ffffffffffffffffffffffffffffffffffffffff1673ffffffffffffffffffffffffffffffffffffffff1681526020019081526020015f205f8282546102959190610584565b92505081905550565b60025f54036102e2576040517f08c379a00000000000000000000000000000000000000000000000000000000081526004016102d990610601565b60405180910390fd5b60025f81905550565b60015f81905550565b5f80fd5b5f73ffffffffffffffffffffffffffffffffffffffff82169050919050565b5f610321826102f8565b9050919050565b61033181610317565b811461033b575f80fd5b50565b5f8135905061034c81610328565b92915050565b5f60208284031215610367576103666102f4565b5b5f6103748482850161033e565b91505092915050565b5f819050919050565b61038f8161037d565b82525050565b5f6020820190506103a85f830184610386565b92915050565b6103b78161037d565b81146103c1575f80fd5b50565b5f813590506103d2816103ae565b92915050565b5f602082840312156103ed576103ec6102f4565b5b5f6103fa848285016103c4565b91505092915050565b5f82825260208201905092915050565b7f496e73756666696369656e742062616c616e63652e00000000000000000000005f82015250565b5f610447601583610403565b915061045282610413565b602082019050919050565b5f6020820190508181035f8301526104748161043b565b9050919050565b7f4e487b71000000000000000000000000000000000000000000000000000000005f52601160045260245ffd5b5f6104b28261037d565b91506104bd8361037d565b92508282039050818111156104d5576104d461047b565b5b92915050565b5f81905092915050565b50565b5f6104f35f836104db565b91506104fe826104e5565b5f82019050919050565b5f610512826104e8565b9150819050919050565b7f5472616e73666572206661696c65642e000000000000000000000000000000005f82015250565b5f610550601083610403565b915061055b8261051c565b602082019050919050565b5f6020820190508181035f83015261057d81610544565b9050919050565b5f61058e8261037d565b91506105998361037d565b92508282019050808211156105b1576105b061047b565b5b92915050565b7f5265656e7472616e637947756172643a207265656e7472616e742063616c6c005f82015250565b5f6105eb601f83610403565b91506105f6826105b7565b602082019050919050565b5f6020820190508181035f830152610618816105df565b905091905056fea2646970667358221220351c6b39b8c09f82060ae0541926ebc6ae01a402cf4ec41867318606172d49d164736f6c63430008140033","linkReferences":{}},"methodIdentifiers":{"balances(address)":"27e235e3","deposit()":"d0e30db0","withdraw(uint256)":"2e1a7d4d"},"id":17}