{
  "_format": "hh-sol-artifact-1",
  "contractName": "SimpleDEX",
  "sourceName": "contracts/SimpleDEX.sol",
  "abi": [
    {
      "inputs": [
        {
          "internalType": "address",
          "name": "_token1",
          "type": "address"
        },
        {
          "internalType": "address",
          "name": "_token2",
          "type": "address"
        }
      ],
      "stateMutability": "nonpayable",
      "type": "constructor"
    },
    {
      "inputs": [
        {
          "internalType": "uint256",
          "name": "amount1",
          "type": "uint256"
        },
        {
          "internalType": "uint256",
          "name": "amount2",
          "type": "uint256"
        }
      ],
      "name": "addLiquidity",
      "outputs": [],
      "stateMutability": "nonpayable",
      "type": "function"
    },
    {
      "inputs": [
        {
          "internalType": "contract IERC20",
          "name": "token",
          "type": "address"
        }
      ],
      "name": "getReserve",
      "outputs": [
        {
          "internalType": "uint256",
          "name": "",
          "type": "uint256"
        }
      ],
      "stateMutability": "view",
      "type": "function"
    },
    {
      "inputs": [
        {
          "internalType": "contract IERC20",
          "name": "from",
          "type": "address"
        },
        {
          "internalType": "contract IERC20",
          "name": "to",
          "type": "address"
        },
        {
          "internalType": "uint256",
          "name": "amount",
          "type": "uint256"
        }
      ],
      "name": "getSwapAmount",
      "outputs": [
        {
          "internalType": "uint256",
          "name": "",
          "type": "uint256"
        }
      ],
      "stateMutability": "view",
      "type": "function"
    },
    {
      "inputs": [
        {
          "internalType": "contract IERC20",
          "name": "from",
          "type": "address"
        },
        {
          "internalType": "contract IERC20",
          "name": "to",
          "type": "address"
        },
        {
          "internalType": "uint256",
          "name": "amount",
          "type": "uint256"
        }
      ],
      "name": "swap",
      "outputs": [],
      "stateMutability": "nonpayable",
      "type": "function"
    },
    {
      "inputs": [],
      "name": "token1",
      "outputs": [
        {
          "internalType": "contract IERC20",
          "name": "",
          "type": "address"
        }
      ],
      "stateMutability": "view",
      "type": "function"
    },
    {
      "inputs": [],
      "name": "token2",
      "outputs": [
        {
          "internalType": "contract IERC20",
          "name": "",
          "type": "address"
        }
      ],
      "stateMutability": "view",
      "type": "function"
    }
  ],
  "bytecode": "0x608060405234801561001057600080fd5b50604051610c5d380380610c5d8339818101604052810190610032919061011d565b816000806101000a81548173ffffffffffffffffffffffffffffffffffffffff021916908373ffffffffffffffffffffffffffffffffffffffff16021790555080600160006101000a81548173ffffffffffffffffffffffffffffffffffffffff021916908373ffffffffffffffffffffffffffffffffffffffff160217905550505061015d565b600080fd5b600073ffffffffffffffffffffffffffffffffffffffff82169050919050565b60006100ea826100bf565b9050919050565b6100fa816100df565b811461010557600080fd5b50565b600081519050610117816100f1565b92915050565b60008060408385031215610134576101336100ba565b5b600061014285828601610108565b925050602061015385828601610108565b9150509250929050565b610af18061016c6000396000f3fe608060405234801561001057600080fd5b50600436106100625760003560e01c806325be124e14610067578063635bc0c2146100855780639cd441da146100b5578063c9a396e9146100d1578063d21220a714610101578063df791e501461011f575b600080fd5b61006f61013b565b60405161007c91906106ac565b60405180910390f35b61009f600480360381019061009a9190610752565b610161565b6040516100ac91906107b4565b60405180910390f35b6100cf60048036038101906100ca91906107cf565b610193565b005b6100eb60048036038101906100e6919061080f565b6102db565b6040516100f891906107b4565b60405180910390f35b61010961035e565b60405161011691906106ac565b60405180910390f35b61013960048036038101906101349190610752565b610382565b005b600160009054906101000a900473ffffffffffffffffffffffffffffffffffffffff1681565b600061016c846102db565b610175846102db565b83610180919061086b565b61018a91906108dc565b90509392505050565b60008054906101000a900473ffffffffffffffffffffffffffffffffffffffff1673ffffffffffffffffffffffffffffffffffffffff166323b872dd3330856040518463ffffffff1660e01b81526004016101f09392919061091c565b6020604051808303816000875af115801561020f573d6000803e3d6000fd5b505050506040513d601f19601f82011682018060405250810190610233919061098b565b50600160009054906101000a900473ffffffffffffffffffffffffffffffffffffffff1673ffffffffffffffffffffffffffffffffffffffff166323b872dd3330846040518463ffffffff1660e01b81526004016102939392919061091c565b6020604051808303816000875af11580156102b2573d6000803e3d6000fd5b505050506040513d601f19601f820116820180604052508101906102d6919061098b565b505050565b60008173ffffffffffffffffffffffffffffffffffffffff166370a08231306040518263ffffffff1660e01b815260040161031691906109b8565b602060405180830381865afa158015610333573d6000803e3d6000fd5b505050506040513d601f19601f8201168201806040525081019061035791906109e8565b9050919050565b60008054906101000a900473ffffffffffffffffffffffffffffffffffffffff1681565b60008054906101000a900473ffffffffffffffffffffffffffffffffffffffff1673ffffffffffffffffffffffffffffffffffffffff168373ffffffffffffffffffffffffffffffffffffffff1614801561042a5750600160009054906101000a900473ffffffffffffffffffffffffffffffffffffffff1673ffffffffffffffffffffffffffffffffffffffff168273ffffffffffffffffffffffffffffffffffffffff16145b806104d95750600160009054906101000a900473ffffffffffffffffffffffffffffffffffffffff1673ffffffffffffffffffffffffffffffffffffffff168373ffffffffffffffffffffffffffffffffffffffff161480156104d8575060008054906101000a900473ffffffffffffffffffffffffffffffffffffffff1673ffffffffffffffffffffffffffffffffffffffff168273ffffffffffffffffffffffffffffffffffffffff16145b5b610518576040517f08c379a000000000000000000000000000000000000000000000000000000000815260040161050f90610a72565b60405180910390fd5b6000610525848484610161565b90508373ffffffffffffffffffffffffffffffffffffffff166323b872dd3330856040518463ffffffff1660e01b81526004016105649392919061091c565b6020604051808303816000875af1158015610583573d6000803e3d6000fd5b505050506040513d601f19601f820116820180604052508101906105a7919061098b565b508273ffffffffffffffffffffffffffffffffffffffff1663a9059cbb33836040518363ffffffff1660e01b81526004016105e3929190610a92565b6020604051808303816000875af1158015610602573d6000803e3d6000fd5b505050506040513d601f19601f82011682018060405250810190610626919061098b565b5050505050565b600073ffffffffffffffffffffffffffffffffffffffff82169050919050565b6000819050919050565b600061067261066d6106688461062d565b61064d565b61062d565b9050919050565b600061068482610657565b9050919050565b600061069682610679565b9050919050565b6106a68161068b565b82525050565b60006020820190506106c1600083018461069d565b92915050565b600080fd5b60006106d78261062d565b9050919050565b60006106e9826106cc565b9050919050565b6106f9816106de565b811461070457600080fd5b50565b600081359050610716816106f0565b92915050565b6000819050919050565b61072f8161071c565b811461073a57600080fd5b50565b60008135905061074c81610726565b92915050565b60008060006060848603121561076b5761076a6106c7565b5b600061077986828701610707565b935050602061078a86828701610707565b925050604061079b8682870161073d565b9150509250925092565b6107ae8161071c565b82525050565b60006020820190506107c960008301846107a5565b92915050565b600080604083850312156107e6576107e56106c7565b5b60006107f48582860161073d565b92505060206108058582860161073d565b9150509250929050565b600060208284031215610825576108246106c7565b5b600061083384828501610707565b91505092915050565b7f4e487b7100000000000000000000000000000000000000000000000000000000600052601160045260246000fd5b60006108768261071c565b91506108818361071c565b925082820261088f8161071c565b915082820484148315176108a6576108a561083c565b5b5092915050565b7f4e487b7100000000000000000000000000000000000000000000000000000000600052601260045260246000fd5b60006108e78261071c565b91506108f28361071c565b925082610902576109016108ad565b5b828204905092915050565b610916816106cc565b82525050565b6000606082019050610931600083018661090d565b61093e602083018561090d565b61094b60408301846107a5565b949350505050565b60008115159050919050565b61096881610953565b811461097357600080fd5b50565b6000815190506109858161095f565b92915050565b6000602082840312156109a1576109a06106c7565b5b60006109af84828501610976565b91505092915050565b60006020820190506109cd600083018461090d565b92915050565b6000815190506109e281610726565b92915050565b6000602082840312156109fe576109fd6106c7565b5b6000610a0c848285016109d3565b91505092915050565b600082825260208201905092915050565b7f496e76616c696420746f6b656e732e0000000000000000000000000000000000600082015250565b6000610a5c600f83610a15565b9150610a6782610a26565b602082019050919050565b60006020820190508181036000830152610a8b81610a4f565b9050919050565b6000604082019050610aa7600083018561090d565b610ab460208301846107a5565b939250505056fea2646970667358221220a1b75ff2a23ce8fa37746f7b5887084312fcbe3c0a245cbc7fcee72cc542484564736f6c63430008140033",
  "linkReferences": {},
  "deployedLinkReferences": {}
}