{"abi":[{"type":"function","name":"increment","inputs":[],"outputs":[],"stateMutability":"nonpayable"},{"type":"function","name":"initialize","inputs":[{"name":"_value","type":"uint256","internalType":"uint256"}],"outputs":[],"stateMutability":"nonpayable"},{"type":"function","name":"owner","inputs":[],"outputs":[{"name":"","type":"address","internalType":"address"}],"stateMutability":"view"},{"type":"function","name":"proxiableUUID","inputs":[],"outputs":[{"name":"","type":"bytes32","internalType":"bytes32"}],"stateMutability":"view"},{"type":"function","name":"renounceOwnership","inputs":[],"outputs":[],"stateMutability":"nonpayable"},{"type":"function","name":"transferOwnership","inputs":[{"name":"newOwner","type":"address","internalType":"address"}],"outputs":[],"stateMutability":"nonpayable"},{"type":"function","name":"upgradeTo","inputs":[{"name":"newImplementation","type":"address","internalType":"address"}],"outputs":[],"stateMutability":"nonpayable"},{"type":"function","name":"upgradeToAndCall","inputs":[{"name":"newImplementation","type":"address","internalType":"address"},{"name":"data","type":"bytes","internalType":"bytes"}],"outputs":[],"stateMutability":"payable"},{"type":"function","name":"value","inputs":[],"outputs":[{"name":"","type":"uint256","internalType":"uint256"}],"stateMutability":"view"},{"type":"event","name":"AdminChanged","inputs":[{"name":"previousAdmin","type":"address","indexed":false,"internalType":"address"},{"name":"newAdmin","type":"address","indexed":false,"internalType":"address"}],"anonymous":false},{"type":"event","name":"BeaconUpgraded","inputs":[{"name":"beacon","type":"address","indexed":true,"internalType":"address"}],"anonymous":false},{"type":"event","name":"Initialized","inputs":[{"name":"version","type":"uint8","indexed":false,"internalType":"uint8"}],"anonymous":false},{"type":"event","name":"OwnershipTransferred","inputs":[{"name":"previousOwner","type":"address","indexed":true,"internalType":"address"},{"name":"newOwner","type":"address","indexed":true,"internalType":"address"}],"anonymous":false},{"type":"event","name":"Upgraded","inputs":[{"name":"implementation","type":"address","indexed":true,"internalType":"address"}],"anonymous":false}],"bytecode":{"object":"0x60a06040523073ffffffffffffffffffffffffffffffffffffffff1660809073ffffffffffffffffffffffffffffffffffffffff1681525034801562000043575f80fd5b50620000546200005a60201b60201c565b620001f9565b5f60019054906101000a900460ff1615620000ac576040517f08c379a0000000000000000000000000000000000000000000000000000000008152600401620000a390620001a1565b60405180910390fd5b60ff80165f8054906101000a900460ff1660ff16146200011b5760ff5f806101000a81548160ff021916908360ff1602179055507f7f26b83ff96e1f2b6a682f133852f6798a09c465da95921460cefb384740249860ff604051620001129190620001de565b60405180910390a15b565b5f82825260208201905092915050565b7f496e697469616c697a61626c653a20636f6e747261637420697320696e6974695f8201527f616c697a696e6700000000000000000000000000000000000000000000000000602082015250565b5f620001896027836200011d565b915062000196826200012d565b604082019050919050565b5f6020820190508181035f830152620001ba816200017b565b9050919050565b5f60ff82169050919050565b620001d881620001c1565b82525050565b5f602082019050620001f35f830184620001cd565b92915050565b60805161193e6200022e5f395f81816101c90152818161025701528181610355015281816103e30152610492015261193e5ff3fe608060405260043610610085575f3560e01c8063715018a611610058578063715018a6146101215780638da5cb5b14610137578063d09de08a14610161578063f2fde38b14610177578063fe4b84df1461019f57610085565b80633659cfe6146100895780633fa4f245146100b15780634f1ef286146100db57806352d1902d146100f7575b5f80fd5b348015610094575f80fd5b506100af60048036038101906100aa9190610e63565b6101c7565b005b3480156100bc575f80fd5b506100c561034d565b6040516100d29190610ea6565b60405180910390f35b6100f560048036038101906100f09190610ffb565b610353565b005b348015610102575f80fd5b5061010b61048f565b604051610118919061106d565b60405180910390f35b34801561012c575f80fd5b50610135610546565b005b348015610142575f80fd5b5061014b610559565b6040516101589190611095565b60405180910390f35b34801561016c575f80fd5b50610175610581565b005b348015610182575f80fd5b5061019d60048036038101906101989190610e63565b610598565b005b3480156101aa575f80fd5b506101c560048036038101906101c091906110d8565b61061a565b005b7f000000000000000000000000000000000000000000000000000000000000000073ffffffffffffffffffffffffffffffffffffffff163073ffffffffffffffffffffffffffffffffffffffff1603610255576040517f08c379a000000000000000000000000000000000000000000000000000000000815260040161024c90611183565b60405180910390fd5b7f000000000000000000000000000000000000000000000000000000000000000073ffffffffffffffffffffffffffffffffffffffff1661029461075a565b73ffffffffffffffffffffffffffffffffffffffff16146102ea576040517f08c379a00000000000000000000000000000000000000000000000000000000081526004016102e190611211565b60405180910390fd5b6102f3816107ad565b61034a815f67ffffffffffffffff81111561031157610310610ed7565b5b6040519080825280601f01601f1916602001820160405280156103435781602001600182028036833780820191505090505b505f6107b8565b50565b60c95481565b7f000000000000000000000000000000000000000000000000000000000000000073ffffffffffffffffffffffffffffffffffffffff163073ffffffffffffffffffffffffffffffffffffffff16036103e1576040517f08c379a00000000000000000000000000000000000000000000000000000000081526004016103d890611183565b60405180910390fd5b7f000000000000000000000000000000000000000000000000000000000000000073ffffffffffffffffffffffffffffffffffffffff1661042061075a565b73ffffffffffffffffffffffffffffffffffffffff1614610476576040517f08c379a000000000000000000000000000000000000000000000000000000000815260040161046d90611211565b60405180910390fd5b61047f826107ad565b61048b828260016107b8565b5050565b5f7f000000000000000000000000000000000000000000000000000000000000000073ffffffffffffffffffffffffffffffffffffffff163073ffffffffffffffffffffffffffffffffffffffff161461051e576040517f08c379a00000000000000000000000000000000000000000000000000000000081526004016105159061129f565b60405180910390fd5b7f360894a13ba1a3210667c828492db98dca3e2076cc3735a920a3ca505d382bbc5f1b905090565b61054e610922565b6105575f6109a0565b565b5f60975f9054906101000a900473ffffffffffffffffffffffffffffffffffffffff16905090565b600160c95461059091906112ea565b60c981905550565b6105a0610922565b5f73ffffffffffffffffffffffffffffffffffffffff168173ffffffffffffffffffffffffffffffffffffffff160361060e576040517f08c379a00000000000000000000000000000000000000000000000000000000081526004016106059061138d565b60405180910390fd5b610617816109a0565b50565b5f8060019054906101000a900460ff16159050808015610649575060015f8054906101000a900460ff1660ff16105b80610675575061065830610a63565b158015610674575060015f8054906101000a900460ff1660ff16145b5b6106b4576040517f08c379a00000000000000000000000000000000000000000000000000000000081526004016106ab9061141b565b60405180910390fd5b60015f806101000a81548160ff021916908360ff16021790555080156106ef5760015f60016101000a81548160ff0219169083151502179055505b8160c9819055506106fe610a85565b8015610756575f8060016101000a81548160ff0219169083151502179055507f7f26b83ff96e1f2b6a682f133852f6798a09c465da95921460cefb3847402498600160405161074d9190611487565b60405180910390a15b5050565b5f6107867f360894a13ba1a3210667c828492db98dca3e2076cc3735a920a3ca505d382bbc5f1b610add565b5f015f9054906101000a900473ffffffffffffffffffffffffffffffffffffffff16905090565b6107b5610922565b50565b6107e37f4910fdfa16fed3260ed0e7147f7cc6da11a60208b5b9406d12a635614ffd91435f1b610ae6565b5f015f9054906101000a900460ff16156108055761080083610aef565b61091d565b8273ffffffffffffffffffffffffffffffffffffffff166352d1902d6040518163ffffffff1660e01b8152600401602060405180830381865afa92505050801561086d57506040513d601f19601f8201168201806040525081019061086a91906114ca565b60015b6108ac576040517f08c379a00000000000000000000000000000000000000000000000000000000081526004016108a390611565565b60405180910390fd5b7f360894a13ba1a3210667c828492db98dca3e2076cc3735a920a3ca505d382bbc5f1b8114610910576040517f08c379a0000000000000000000000000000000000000000000000000000000008152600401610907906115f3565b60405180910390fd5b5061091c838383610ba5565b5b505050565b61092a610bd0565b73ffffffffffffffffffffffffffffffffffffffff16610948610559565b73ffffffffffffffffffffffffffffffffffffffff161461099e576040517f08c379a00000000000000000000000000000000000000000000000000000000081526004016109959061165b565b60405180910390fd5b565b5f60975f9054906101000a900473ffffffffffffffffffffffffffffffffffffffff1690508160975f6101000a81548173ffffffffffffffffffffffffffffffffffffffff021916908373ffffffffffffffffffffffffffffffffffffffff1602179055508173ffffffffffffffffffffffffffffffffffffffff168173ffffffffffffffffffffffffffffffffffffffff167f8be0079c531659141344cd1fd0a4f28419497f9722a3daafe3b4186f6b6457e060405160405180910390a35050565b5f808273ffffffffffffffffffffffffffffffffffffffff163b119050919050565b5f60019054906101000a900460ff16610ad3576040517f08c379a0000000000000000000000000000000000000000000000000000000008152600401610aca906116e9565b60405180910390fd5b610adb610bd7565b565b5f819050919050565b5f819050919050565b610af881610a63565b610b37576040517f08c379a0000000000000000000000000000000000000000000000000000000008152600401610b2e90611777565b60405180910390fd5b80610b637f360894a13ba1a3210667c828492db98dca3e2076cc3735a920a3ca505d382bbc5f1b610add565b5f015f6101000a81548173ffffffffffffffffffffffffffffffffffffffff021916908373ffffffffffffffffffffffffffffffffffffffff16021790555050565b610bae83610c37565b5f82511180610bba5750805b15610bcb57610bc98383610c86565b505b505050565b5f33905090565b5f60019054906101000a900460ff16610c25576040517f08c379a0000000000000000000000000000000000000000000000000000000008152600401610c1c906116e9565b60405180910390fd5b610c35610c30610bd0565b6109a0565b565b610c4081610aef565b8073ffffffffffffffffffffffffffffffffffffffff167fbc7cd75a20ee27fd9adebab32041f755214dbc6bffa90cc0225b39da2e5c2d3b60405160405180910390a250565b6060610cab83836040518060600160405280602781526020016118e260279139610cb3565b905092915050565b60605f808573ffffffffffffffffffffffffffffffffffffffff1685604051610cdc9190611801565b5f60405180830381855af49150503d805f8114610d14576040519150601f19603f3d011682016040523d82523d5f602084013e610d19565b606091505b5091509150610d2a86838387610d35565b925050509392505050565b60608315610d96575f835103610d8e57610d4e85610a63565b610d8d576040517f08c379a0000000000000000000000000000000000000000000000000000000008152600401610d8490611861565b60405180910390fd5b5b829050610da1565b610da08383610da9565b5b949350505050565b5f82511115610dbb5781518083602001fd5b806040517f08c379a0000000000000000000000000000000000000000000000000000000008152600401610def91906118c1565b60405180910390fd5b5f604051905090565b5f80fd5b5f80fd5b5f73ffffffffffffffffffffffffffffffffffffffff82169050919050565b5f610e3282610e09565b9050919050565b610e4281610e28565b8114610e4c575f80fd5b50565b5f81359050610e5d81610e39565b92915050565b5f60208284031215610e7857610e77610e01565b5b5f610e8584828501610e4f565b91505092915050565b5f819050919050565b610ea081610e8e565b82525050565b5f602082019050610eb95f830184610e97565b92915050565b5f80fd5b5f80fd5b5f601f19601f8301169050919050565b7f4e487b71000000000000000000000000000000000000000000000000000000005f52604160045260245ffd5b610f0d82610ec7565b810181811067ffffffffffffffff82111715610f2c57610f2b610ed7565b5b80604052505050565b5f610f3e610df8565b9050610f4a8282610f04565b919050565b5f67ffffffffffffffff821115610f6957610f68610ed7565b5b610f7282610ec7565b9050602081019050919050565b828183375f83830152505050565b5f610f9f610f9a84610f4f565b610f35565b905082815260208101848484011115610fbb57610fba610ec3565b5b610fc6848285610f7f565b509392505050565b5f82601f830112610fe257610fe1610ebf565b5b8135610ff2848260208601610f8d565b91505092915050565b5f806040838503121561101157611010610e01565b5b5f61101e85828601610e4f565b925050602083013567ffffffffffffffff81111561103f5761103e610e05565b5b61104b85828601610fce565b9150509250929050565b5f819050919050565b61106781611055565b82525050565b5f6020820190506110805f83018461105e565b92915050565b61108f81610e28565b82525050565b5f6020820190506110a85f830184611086565b92915050565b6110b781610e8e565b81146110c1575f80fd5b50565b5f813590506110d2816110ae565b92915050565b5f602082840312156110ed576110ec610e01565b5b5f6110fa848285016110c4565b91505092915050565b5f82825260208201905092915050565b7f46756e6374696f6e206d7573742062652063616c6c6564207468726f756768205f8201527f64656c656761746563616c6c0000000000000000000000000000000000000000602082015250565b5f61116d602c83611103565b915061117882611113565b604082019050919050565b5f6020820190508181035f83015261119a81611161565b9050919050565b7f46756e6374696f6e206d7573742062652063616c6c6564207468726f756768205f8201527f6163746976652070726f78790000000000000000000000000000000000000000602082015250565b5f6111fb602c83611103565b9150611206826111a1565b604082019050919050565b5f6020820190508181035f830152611228816111ef565b9050919050565b7f555550535570677261646561626c653a206d757374206e6f742062652063616c5f8201527f6c6564207468726f7567682064656c656761746563616c6c0000000000000000602082015250565b5f611289603883611103565b91506112948261122f565b604082019050919050565b5f6020820190508181035f8301526112b68161127d565b9050919050565b7f4e487b71000000000000000000000000000000000000000000000000000000005f52601160045260245ffd5b5f6112f482610e8e565b91506112ff83610e8e565b9250828201905080821115611317576113166112bd565b5b92915050565b7f4f776e61626c653a206e6577206f776e657220697320746865207a65726f20615f8201527f6464726573730000000000000000000000000000000000000000000000000000602082015250565b5f611377602683611103565b91506113828261131d565b604082019050919050565b5f6020820190508181035f8301526113a48161136b565b9050919050565b7f496e697469616c697a61626c653a20636f6e747261637420697320616c7265615f8201527f647920696e697469616c697a6564000000000000000000000000000000000000602082015250565b5f611405602e83611103565b9150611410826113ab565b604082019050919050565b5f6020820190508181035f830152611432816113f9565b9050919050565b5f819050919050565b5f60ff82169050919050565b5f819050919050565b5f61147161146c61146784611439565b61144e565b611442565b9050919050565b61148181611457565b82525050565b5f60208201905061149a5f830184611478565b92915050565b6114a981611055565b81146114b3575f80fd5b50565b5f815190506114c4816114a0565b92915050565b5f602082840312156114df576114de610e01565b5b5f6114ec848285016114b6565b91505092915050565b7f45524331393637557067726164653a206e657720696d706c656d656e746174695f8201527f6f6e206973206e6f742055555053000000000000000000000000000000000000602082015250565b5f61154f602e83611103565b915061155a826114f5565b604082019050919050565b5f6020820190508181035f83015261157c81611543565b9050919050565b7f45524331393637557067726164653a20756e737570706f727465642070726f785f8201527f6961626c65555549440000000000000000000000000000000000000000000000602082015250565b5f6115dd602983611103565b91506115e882611583565b604082019050919050565b5f6020820190508181035f83015261160a816115d1565b9050919050565b7f4f776e61626c653a2063616c6c6572206973206e6f7420746865206f776e65725f82015250565b5f611645602083611103565b915061165082611611565b602082019050919050565b5f6020820190508181035f83015261167281611639565b9050919050565b7f496e697469616c697a61626c653a20636f6e7472616374206973206e6f7420695f8201527f6e697469616c697a696e67000000000000000000000000000000000000000000602082015250565b5f6116d3602b83611103565b91506116de82611679565b604082019050919050565b5f6020820190508181035f830152611700816116c7565b9050919050565b7f455243313936373a206e657720696d706c656d656e746174696f6e206973206e5f8201527f6f74206120636f6e747261637400000000000000000000000000000000000000602082015250565b5f611761602d83611103565b915061176c82611707565b604082019050919050565b5f6020820190508181035f83015261178e81611755565b9050919050565b5f81519050919050565b5f81905092915050565b5f5b838110156117c65780820151818401526020810190506117ab565b5f8484015250505050565b5f6117db82611795565b6117e5818561179f565b93506117f58185602086016117a9565b80840191505092915050565b5f61180c82846117d1565b915081905092915050565b7f416464726573733a2063616c6c20746f206e6f6e2d636f6e74726163740000005f82015250565b5f61184b601d83611103565b915061185682611817565b602082019050919050565b5f6020820190508181035f8301526118788161183f565b9050919050565b5f81519050919050565b5f6118938261187f565b61189d8185611103565b93506118ad8185602086016117a9565b6118b681610ec7565b840191505092915050565b5f6020820190508181035f8301526118d98184611889565b90509291505056fe416464726573733a206c6f772d6c6576656c2064656c65676174652063616c6c206661696c6564a264697066735822122088dac7f4169cf76d58f6b50d2c7c6d9880d46ae90c7c162eb7970bf52be4b9ab64736f6c63430008140033","linkReferences":{}},"methodIdentifiers":{"increment()":"d09de08a","initialize(uint256)":"fe4b84df","owner()":"8da5cb5b","proxiableUUID()":"52d1902d","renounceOwnership()":"715018a6","transferOwnership(address)":"f2fde38b","upgradeTo(address)":"3659cfe6","upgradeToAndCall(address,bytes)":"4f1ef286","value()":"3fa4f245"},"id":1}