{"abi":[{"type":"constructor","inputs":[{"name":"value","type":"uint256","internalType":"uint256"}],"stateMutability":"nonpayable"},{"type":"function","name":"increment","inputs":[],"outputs":[],"stateMutability":"nonpayable"},{"type":"function","name":"owner","inputs":[],"outputs":[{"name":"","type":"address","internalType":"address"}],"stateMutability":"view"},{"type":"function","name":"renounceOwnership","inputs":[],"outputs":[],"stateMutability":"nonpayable"},{"type":"function","name":"retrieve","inputs":[],"outputs":[{"name":"","type":"uint256","internalType":"uint256"}],"stateMutability":"view"},{"type":"function","name":"store","inputs":[{"name":"value","type":"uint256","internalType":"uint256"}],"outputs":[],"stateMutability":"nonpayable"},{"type":"function","name":"transferOwnership","inputs":[{"name":"newOwner","type":"address","internalType":"address"}],"outputs":[],"stateMutability":"nonpayable"},{"type":"event","name":"OwnershipTransferred","inputs":[{"name":"previousOwner","type":"address","indexed":true,"internalType":"address"},{"name":"newOwner","type":"address","indexed":true,"internalType":"address"}],"anonymous":false},{"type":"event","name":"ValueChanged","inputs":[{"name":"newValue","type":"uint256","indexed":false,"internalType":"uint256"}],"anonymous":false}],"bytecode":{"object":"0x608060405234801561000f575f5ffd5b506040516107bc3803806107bc8339818101604052810190610031919061015b565b8061004e61004361005c60201b60201c565b61006360201b60201c565b806001819055505050610186565b5f33905090565b5f5f5f9054906101000a900473ffffffffffffffffffffffffffffffffffffffff169050815f5f6101000a81548173ffffffffffffffffffffffffffffffffffffffff021916908373ffffffffffffffffffffffffffffffffffffffff1602179055508173ffffffffffffffffffffffffffffffffffffffff168173ffffffffffffffffffffffffffffffffffffffff167f8be0079c531659141344cd1fd0a4f28419497f9722a3daafe3b4186f6b6457e060405160405180910390a35050565b5f5ffd5b5f819050919050565b61013a81610128565b8114610144575f5ffd5b50565b5f8151905061015581610131565b92915050565b5f602082840312156101705761016f610124565b5b5f61017d84828501610147565b91505092915050565b610629806101935f395ff3fe608060405234801561000f575f5ffd5b5060043610610060575f3560e01c80632e64cec1146100645780636057361d14610082578063715018a61461009e5780638da5cb5b146100a8578063d09de08a146100c6578063f2fde38b146100d0575b5f5ffd5b61006c6100ec565b604051610079919061036e565b60405180910390f35b61009c600480360381019061009791906103b5565b6100f5565b005b6100a661013e565b005b6100b0610151565b6040516100bd919061041f565b60405180910390f35b6100ce610178565b005b6100ea60048036038101906100e59190610462565b61018e565b005b5f600154905090565b6100fd610210565b806001819055507f93fe6d397c74fdf1402a8b72e47b68512f0510d7b98a4bc4cbdf6ac7108b3c5981604051610133919061036e565b60405180910390a150565b610146610210565b61014f5f61028e565b565b5f5f5f9054906101000a900473ffffffffffffffffffffffffffffffffffffffff16905090565b6001805461018691906104ba565b600181905550565b610196610210565b5f73ffffffffffffffffffffffffffffffffffffffff168173ffffffffffffffffffffffffffffffffffffffff1603610204576040517f08c379a00000000000000000000000000000000000000000000000000000000081526004016101fb9061056d565b60405180910390fd5b61020d8161028e565b50565b61021861034f565b73ffffffffffffffffffffffffffffffffffffffff16610236610151565b73ffffffffffffffffffffffffffffffffffffffff161461028c576040517f08c379a0000000000000000000000000000000000000000000000000000000008152600401610283906105d5565b60405180910390fd5b565b5f5f5f9054906101000a900473ffffffffffffffffffffffffffffffffffffffff169050815f5f6101000a81548173ffffffffffffffffffffffffffffffffffffffff021916908373ffffffffffffffffffffffffffffffffffffffff1602179055508173ffffffffffffffffffffffffffffffffffffffff168173ffffffffffffffffffffffffffffffffffffffff167f8be0079c531659141344cd1fd0a4f28419497f9722a3daafe3b4186f6b6457e060405160405180910390a35050565b5f33905090565b5f819050919050565b61036881610356565b82525050565b5f6020820190506103815f83018461035f565b92915050565b5f5ffd5b61039481610356565b811461039e575f5ffd5b50565b5f813590506103af8161038b565b92915050565b5f602082840312156103ca576103c9610387565b5b5f6103d7848285016103a1565b91505092915050565b5f73ffffffffffffffffffffffffffffffffffffffff82169050919050565b5f610409826103e0565b9050919050565b610419816103ff565b82525050565b5f6020820190506104325f830184610410565b92915050565b610441816103ff565b811461044b575f5ffd5b50565b5f8135905061045c81610438565b92915050565b5f6020828403121561047757610476610387565b5b5f6104848482850161044e565b91505092915050565b7f4e487b71000000000000000000000000000000000000000000000000000000005f52601160045260245ffd5b5f6104c482610356565b91506104cf83610356565b92508282019050808211156104e7576104e661048d565b5b92915050565b5f82825260208201905092915050565b7f4f776e61626c653a206e6577206f776e657220697320746865207a65726f20615f8201527f6464726573730000000000000000000000000000000000000000000000000000602082015250565b5f6105576026836104ed565b9150610562826104fd565b604082019050919050565b5f6020820190508181035f8301526105848161054b565b9050919050565b7f4f776e61626c653a2063616c6c6572206973206e6f7420746865206f776e65725f82015250565b5f6105bf6020836104ed565b91506105ca8261058b565b602082019050919050565b5f6020820190508181035f8301526105ec816105b3565b905091905056fea26469706673582212209a6ce5712534f86f6caff37db2c3a93549c68a61075326dbc87cb1ec374c4abb64736f6c634300081e0033","linkReferences":{}},"methodIdentifiers":{"increment()":"d09de08a","owner()":"8da5cb5b","renounceOwnership()":"715018a6","retrieve()":"2e64cec1","store(uint256)":"6057361d","transferOwnership(address)":"f2fde38b"},"id":1}