{"abi":[{"type":"function","name":"increment","inputs":[],"outputs":[],"stateMutability":"nonpayable"},{"type":"function","name":"initialize","inputs":[{"name":"value","type":"uint256","internalType":"uint256"}],"outputs":[],"stateMutability":"nonpayable"},{"type":"function","name":"owner","inputs":[],"outputs":[{"name":"","type":"address","internalType":"address"}],"stateMutability":"view"},{"type":"function","name":"proxiableUUID","inputs":[],"outputs":[{"name":"","type":"bytes32","internalType":"bytes32"}],"stateMutability":"view"},{"type":"function","name":"renounceOwnership","inputs":[],"outputs":[],"stateMutability":"nonpayable"},{"type":"function","name":"retrieve","inputs":[],"outputs":[{"name":"","type":"uint256","internalType":"uint256"}],"stateMutability":"view"},{"type":"function","name":"store","inputs":[{"name":"value","type":"uint256","internalType":"uint256"}],"outputs":[],"stateMutability":"nonpayable"},{"type":"function","name":"transferOwnership","inputs":[{"name":"newOwner","type":"address","internalType":"address"}],"outputs":[],"stateMutability":"nonpayable"},{"type":"function","name":"upgradeTo","inputs":[{"name":"newImplementation","type":"address","internalType":"address"}],"outputs":[],"stateMutability":"nonpayable"},{"type":"function","name":"upgradeToAndCall","inputs":[{"name":"newImplementation","type":"address","internalType":"address"},{"name":"data","type":"bytes","internalType":"bytes"}],"outputs":[],"stateMutability":"payable"},{"type":"event","name":"AdminChanged","inputs":[{"name":"previousAdmin","type":"address","indexed":false,"internalType":"address"},{"name":"newAdmin","type":"address","indexed":false,"internalType":"address"}],"anonymous":false},{"type":"event","name":"BeaconUpgraded","inputs":[{"name":"beacon","type":"address","indexed":true,"internalType":"address"}],"anonymous":false},{"type":"event","name":"Initialized","inputs":[{"name":"version","type":"uint8","indexed":false,"internalType":"uint8"}],"anonymous":false},{"type":"event","name":"OwnershipTransferred","inputs":[{"name":"previousOwner","type":"address","indexed":true,"internalType":"address"},{"name":"newOwner","type":"address","indexed":true,"internalType":"address"}],"anonymous":false},{"type":"event","name":"Upgraded","inputs":[{"name":"implementation","type":"address","indexed":true,"internalType":"address"}],"anonymous":false},{"type":"event","name":"ValueChanged","inputs":[{"name":"newValue","type":"uint256","indexed":false,"internalType":"uint256"}],"anonymous":false}],"bytecode":{"object":"0x60a06040523073ffffffffffffffffffffffffffffffffffffffff1660809073ffffffffffffffffffffffffffffffffffffffff16815250348015610042575f5ffd5b506080516119fd6100775f395f8181610205015281816102930152818161038b0152818161041901526104c801526119fd5ff3fe608060405260043610610090575f3560e01c8063715018a611610058578063715018a6146101545780638da5cb5b1461016a578063d09de08a14610194578063f2fde38b146101aa578063fe4b84df146101d257610090565b80632e64cec1146100945780633659cfe6146100be5780634f1ef286146100e657806352d1902d146101025780636057361d1461012c575b5f5ffd5b34801561009f575f5ffd5b506100a86101fa565b6040516100b59190610ee9565b60405180910390f35b3480156100c9575f5ffd5b506100e460048036038101906100df9190610f6d565b610203565b005b61010060048036038101906100fb91906110d4565b610389565b005b34801561010d575f5ffd5b506101166104c5565b6040516101239190611146565b60405180910390f35b348015610137575f5ffd5b50610152600480360381019061014d9190611189565b61057c565b005b34801561015f575f5ffd5b506101686105c5565b005b348015610175575f5ffd5b5061017e6105d8565b60405161018b91906111c3565b60405180910390f35b34801561019f575f5ffd5b506101a8610600565b005b3480156101b5575f5ffd5b506101d060048036038101906101cb9190610f6d565b610617565b005b3480156101dd575f5ffd5b506101f860048036038101906101f39190611189565b610699565b005b5f60c954905090565b7f000000000000000000000000000000000000000000000000000000000000000073ffffffffffffffffffffffffffffffffffffffff163073ffffffffffffffffffffffffffffffffffffffff1603610291576040517f08c379a00000000000000000000000000000000000000000000000000000000081526004016102889061125c565b60405180910390fd5b7f000000000000000000000000000000000000000000000000000000000000000073ffffffffffffffffffffffffffffffffffffffff166102d06107e3565b73ffffffffffffffffffffffffffffffffffffffff1614610326576040517f08c379a000000000000000000000000000000000000000000000000000000000815260040161031d906112ea565b60405180910390fd5b61032f81610836565b610386815f67ffffffffffffffff81111561034d5761034c610fb0565b5b6040519080825280601f01601f19166020018201604052801561037f5781602001600182028036833780820191505090505b505f610841565b50565b7f000000000000000000000000000000000000000000000000000000000000000073ffffffffffffffffffffffffffffffffffffffff163073ffffffffffffffffffffffffffffffffffffffff1603610417576040517f08c379a000000000000000000000000000000000000000000000000000000000815260040161040e9061125c565b60405180910390fd5b7f000000000000000000000000000000000000000000000000000000000000000073ffffffffffffffffffffffffffffffffffffffff166104566107e3565b73ffffffffffffffffffffffffffffffffffffffff16146104ac576040517f08c379a00000000000000000000000000000000000000000000000000000000081526004016104a3906112ea565b60405180910390fd5b6104b582610836565b6104c182826001610841565b5050565b5f7f000000000000000000000000000000000000000000000000000000000000000073ffffffffffffffffffffffffffffffffffffffff163073ffffffffffffffffffffffffffffffffffffffff1614610554576040517f08c379a000000000000000000000000000000000000000000000000000000000815260040161054b90611378565b60405180910390fd5b7f360894a13ba1a3210667c828492db98dca3e2076cc3735a920a3ca505d382bbc5f1b905090565b6105846109ab565b8060c9819055507f93fe6d397c74fdf1402a8b72e47b68512f0510d7b98a4bc4cbdf6ac7108b3c59816040516105ba9190610ee9565b60405180910390a150565b6105cd6109ab565b6105d65f610a29565b565b5f60975f9054906101000a900473ffffffffffffffffffffffffffffffffffffffff16905090565b600160c95461060f91906113c3565b60c981905550565b61061f6109ab565b5f73ffffffffffffffffffffffffffffffffffffffff168173ffffffffffffffffffffffffffffffffffffffff160361068d576040517f08c379a000000000000000000000000000000000000000000000000000000000815260040161068490611466565b60405180910390fd5b61069681610a29565b50565b5f5f60019054906101000a900460ff161590508080156106c9575060015f5f9054906101000a900460ff1660ff16105b806106f657506106d830610aec565b1580156106f5575060015f5f9054906101000a900460ff1660ff16145b5b610735576040517f08c379a000000000000000000000000000000000000000000000000000000000815260040161072c906114f4565b60405180910390fd5b60015f5f6101000a81548160ff021916908360ff16021790555080156107705760015f60016101000a81548160ff0219169083151502179055505b610778610b0e565b610780610b66565b8160c98190555080156107df575f5f60016101000a81548160ff0219169083151502179055507f7f26b83ff96e1f2b6a682f133852f6798a09c465da95921460cefb384740249860016040516107d69190611560565b60405180910390a15b5050565b5f61080f7f360894a13ba1a3210667c828492db98dca3e2076cc3735a920a3ca505d382bbc5f1b610bb6565b5f015f9054906101000a900473ffffffffffffffffffffffffffffffffffffffff16905090565b61083e6109ab565b50565b61086c7f4910fdfa16fed3260ed0e7147f7cc6da11a60208b5b9406d12a635614ffd91435f1b610bbf565b5f015f9054906101000a900460ff161561088e5761088983610bc8565b6109a6565b8273ffffffffffffffffffffffffffffffffffffffff166352d1902d6040518163ffffffff1660e01b8152600401602060405180830381865afa9250505080156108f657506040513d601f19601f820116820180604052508101906108f391906115a3565b60015b610935576040517f08c379a000000000000000000000000000000000000000000000000000000000815260040161092c9061163e565b60405180910390fd5b7f360894a13ba1a3210667c828492db98dca3e2076cc3735a920a3ca505d382bbc5f1b8114610999576040517f08c379a0000000000000000000000000000000000000000000000000000000008152600401610990906116cc565b60405180910390fd5b506109a5838383610c7e565b5b505050565b6109b3610ca9565b73ffffffffffffffffffffffffffffffffffffffff166109d16105d8565b73ffffffffffffffffffffffffffffffffffffffff1614610a27576040517f08c379a0000000000000000000000000000000000000000000000000000000008152600401610a1e90611734565b60405180910390fd5b565b5f60975f9054906101000a900473ffffffffffffffffffffffffffffffffffffffff1690508160975f6101000a81548173ffffffffffffffffffffffffffffffffffffffff021916908373ffffffffffffffffffffffffffffffffffffffff1602179055508173ffffffffffffffffffffffffffffffffffffffff168173ffffffffffffffffffffffffffffffffffffffff167f8be0079c531659141344cd1fd0a4f28419497f9722a3daafe3b4186f6b6457e060405160405180910390a35050565b5f5f8273ffffffffffffffffffffffffffffffffffffffff163b119050919050565b5f60019054906101000a900460ff16610b5c576040517f08c379a0000000000000000000000000000000000000000000000000000000008152600401610b53906117c2565b60405180910390fd5b610b64610cb0565b565b5f60019054906101000a900460ff16610bb4576040517f08c379a0000000000000000000000000000000000000000000000000000000008152600401610bab906117c2565b60405180910390fd5b565b5f819050919050565b5f819050919050565b610bd181610aec565b610c10576040517f08c379a0000000000000000000000000000000000000000000000000000000008152600401610c0790611850565b60405180910390fd5b80610c3c7f360894a13ba1a3210667c828492db98dca3e2076cc3735a920a3ca505d382bbc5f1b610bb6565b5f015f6101000a81548173ffffffffffffffffffffffffffffffffffffffff021916908373ffffffffffffffffffffffffffffffffffffffff16021790555050565b610c8783610d10565b5f82511180610c935750805b15610ca457610ca28383610d5f565b505b505050565b5f33905090565b5f60019054906101000a900460ff16610cfe576040517f08c379a0000000000000000000000000000000000000000000000000000000008152600401610cf5906117c2565b60405180910390fd5b610d0e610d09610ca9565b610a29565b565b610d1981610bc8565b8073ffffffffffffffffffffffffffffffffffffffff167fbc7cd75a20ee27fd9adebab32041f755214dbc6bffa90cc0225b39da2e5c2d3b60405160405180910390a250565b6060610d8483836040518060600160405280602781526020016119a160279139610d8c565b905092915050565b60605f5f8573ffffffffffffffffffffffffffffffffffffffff1685604051610db591906118c0565b5f60405180830381855af49150503d805f8114610ded576040519150601f19603f3d011682016040523d82523d5f602084013e610df2565b606091505b5091509150610e0386838387610e0e565b925050509392505050565b60608315610e6f575f835103610e6757610e2785610aec565b610e66576040517f08c379a0000000000000000000000000000000000000000000000000000000008152600401610e5d90611920565b60405180910390fd5b5b829050610e7a565b610e798383610e82565b5b949350505050565b5f82511115610e945781518083602001fd5b806040517f08c379a0000000000000000000000000000000000000000000000000000000008152600401610ec89190611980565b60405180910390fd5b5f819050919050565b610ee381610ed1565b82525050565b5f602082019050610efc5f830184610eda565b92915050565b5f604051905090565b5f5ffd5b5f5ffd5b5f73ffffffffffffffffffffffffffffffffffffffff82169050919050565b5f610f3c82610f13565b9050919050565b610f4c81610f32565b8114610f56575f5ffd5b50565b5f81359050610f6781610f43565b92915050565b5f60208284031215610f8257610f81610f0b565b5b5f610f8f84828501610f59565b91505092915050565b5f5ffd5b5f5ffd5b5f601f19601f8301169050919050565b7f4e487b71000000000000000000000000000000000000000000000000000000005f52604160045260245ffd5b610fe682610fa0565b810181811067ffffffffffffffff8211171561100557611004610fb0565b5b80604052505050565b5f611017610f02565b90506110238282610fdd565b919050565b5f67ffffffffffffffff82111561104257611041610fb0565b5b61104b82610fa0565b9050602081019050919050565b828183375f83830152505050565b5f61107861107384611028565b61100e565b90508281526020810184848401111561109457611093610f9c565b5b61109f848285611058565b509392505050565b5f82601f8301126110bb576110ba610f98565b5b81356110cb848260208601611066565b91505092915050565b5f5f604083850312156110ea576110e9610f0b565b5b5f6110f785828601610f59565b925050602083013567ffffffffffffffff81111561111857611117610f0f565b5b611124858286016110a7565b9150509250929050565b5f819050919050565b6111408161112e565b82525050565b5f6020820190506111595f830184611137565b92915050565b61116881610ed1565b8114611172575f5ffd5b50565b5f813590506111838161115f565b92915050565b5f6020828403121561119e5761119d610f0b565b5b5f6111ab84828501611175565b91505092915050565b6111bd81610f32565b82525050565b5f6020820190506111d65f8301846111b4565b92915050565b5f82825260208201905092915050565b7f46756e6374696f6e206d7573742062652063616c6c6564207468726f756768205f8201527f64656c656761746563616c6c0000000000000000000000000000000000000000602082015250565b5f611246602c836111dc565b9150611251826111ec565b604082019050919050565b5f6020820190508181035f8301526112738161123a565b9050919050565b7f46756e6374696f6e206d7573742062652063616c6c6564207468726f756768205f8201527f6163746976652070726f78790000000000000000000000000000000000000000602082015250565b5f6112d4602c836111dc565b91506112df8261127a565b604082019050919050565b5f6020820190508181035f830152611301816112c8565b9050919050565b7f555550535570677261646561626c653a206d757374206e6f742062652063616c5f8201527f6c6564207468726f7567682064656c656761746563616c6c0000000000000000602082015250565b5f6113626038836111dc565b915061136d82611308565b604082019050919050565b5f6020820190508181035f83015261138f81611356565b9050919050565b7f4e487b71000000000000000000000000000000000000000000000000000000005f52601160045260245ffd5b5f6113cd82610ed1565b91506113d883610ed1565b92508282019050808211156113f0576113ef611396565b5b92915050565b7f4f776e61626c653a206e6577206f776e657220697320746865207a65726f20615f8201527f6464726573730000000000000000000000000000000000000000000000000000602082015250565b5f6114506026836111dc565b915061145b826113f6565b604082019050919050565b5f6020820190508181035f83015261147d81611444565b9050919050565b7f496e697469616c697a61626c653a20636f6e747261637420697320616c7265615f8201527f647920696e697469616c697a6564000000000000000000000000000000000000602082015250565b5f6114de602e836111dc565b91506114e982611484565b604082019050919050565b5f6020820190508181035f83015261150b816114d2565b9050919050565b5f819050919050565b5f60ff82169050919050565b5f819050919050565b5f61154a61154561154084611512565b611527565b61151b565b9050919050565b61155a81611530565b82525050565b5f6020820190506115735f830184611551565b92915050565b6115828161112e565b811461158c575f5ffd5b50565b5f8151905061159d81611579565b92915050565b5f602082840312156115b8576115b7610f0b565b5b5f6115c58482850161158f565b91505092915050565b7f45524331393637557067726164653a206e657720696d706c656d656e746174695f8201527f6f6e206973206e6f742055555053000000000000000000000000000000000000602082015250565b5f611628602e836111dc565b9150611633826115ce565b604082019050919050565b5f6020820190508181035f8301526116558161161c565b9050919050565b7f45524331393637557067726164653a20756e737570706f727465642070726f785f8201527f6961626c65555549440000000000000000000000000000000000000000000000602082015250565b5f6116b66029836111dc565b91506116c18261165c565b604082019050919050565b5f6020820190508181035f8301526116e3816116aa565b9050919050565b7f4f776e61626c653a2063616c6c6572206973206e6f7420746865206f776e65725f82015250565b5f61171e6020836111dc565b9150611729826116ea565b602082019050919050565b5f6020820190508181035f83015261174b81611712565b9050919050565b7f496e697469616c697a61626c653a20636f6e7472616374206973206e6f7420695f8201527f6e697469616c697a696e67000000000000000000000000000000000000000000602082015250565b5f6117ac602b836111dc565b91506117b782611752565b604082019050919050565b5f6020820190508181035f8301526117d9816117a0565b9050919050565b7f455243313936373a206e657720696d706c656d656e746174696f6e206973206e5f8201527f6f74206120636f6e747261637400000000000000000000000000000000000000602082015250565b5f61183a602d836111dc565b9150611845826117e0565b604082019050919050565b5f6020820190508181035f8301526118678161182e565b9050919050565b5f81519050919050565b5f81905092915050565b8281835e5f83830152505050565b5f61189a8261186e565b6118a48185611878565b93506118b4818560208601611882565b80840191505092915050565b5f6118cb8284611890565b915081905092915050565b7f416464726573733a2063616c6c20746f206e6f6e2d636f6e74726163740000005f82015250565b5f61190a601d836111dc565b9150611915826118d6565b602082019050919050565b5f6020820190508181035f830152611937816118fe565b9050919050565b5f81519050919050565b5f6119528261193e565b61195c81856111dc565b935061196c818560208601611882565b61197581610fa0565b840191505092915050565b5f6020820190508181035f8301526119988184611948565b90509291505056fe416464726573733a206c6f772d6c6576656c2064656c65676174652063616c6c206661696c6564a264697066735822122018c0a996d02178d3521a592989db9eb7a7ce02f24642f5f798cc450c5862bbcb64736f6c634300081e0033","linkReferences":{}},"methodIdentifiers":{"increment()":"d09de08a","initialize(uint256)":"fe4b84df","owner()":"8da5cb5b","proxiableUUID()":"52d1902d","renounceOwnership()":"715018a6","retrieve()":"2e64cec1","store(uint256)":"6057361d","transferOwnership(address)":"f2fde38b","upgradeTo(address)":"3659cfe6","upgradeToAndCall(address,bytes)":"4f1ef286"},"id":1}