{"abi":[{"type":"constructor","inputs":[{"name":"_collateralToken","type":"address","internalType":"address"},{"name":"_borrowToken","type":"address","internalType":"address"},{"name":"_collateralRatio","type":"uint256","internalType":"uint256"},{"name":"_liquidationThreshold","type":"uint256","internalType":"uint256"}],"stateMutability":"nonpayable"},{"type":"function","name":"addBorrowTokenLiquidity","inputs":[{"name":"amount","type":"uint256","internalType":"uint256"}],"outputs":[],"stateMutability":"nonpayable"},{"type":"function","name":"borrow","inputs":[{"name":"amount","type":"uint256","internalType":"uint256"}],"outputs":[],"stateMutability":"nonpayable"},{"type":"function","name":"borrowToken","inputs":[],"outputs":[{"name":"","type":"address","internalType":"contract IERC20"}],"stateMutability":"view"},{"type":"function","name":"borrowedAmount","inputs":[{"name":"","type":"address","internalType":"address"}],"outputs":[{"name":"","type":"uint256","internalType":"uint256"}],"stateMutability":"view"},{"type":"function","name":"collateralRatio","inputs":[],"outputs":[{"name":"","type":"uint256","internalType":"uint256"}],"stateMutability":"view"},{"type":"function","name":"collateralToken","inputs":[],"outputs":[{"name":"","type":"address","internalType":"contract IERC20"}],"stateMutability":"view"},{"type":"function","name":"depositCollateral","inputs":[{"name":"amount","type":"uint256","internalType":"uint256"}],"outputs":[],"stateMutability":"nonpayable"},{"type":"function","name":"depositedCollateral","inputs":[{"name":"","type":"address","internalType":"address"}],"outputs":[{"name":"","type":"uint256","internalType":"uint256"}],"stateMutability":"view"},{"type":"function","name":"liquidate","inputs":[{"name":"borrower","type":"address","internalType":"address"}],"outputs":[],"stateMutability":"nonpayable"},{"type":"function","name":"liquidationThreshold","inputs":[],"outputs":[{"name":"","type":"uint256","internalType":"uint256"}],"stateMutability":"view"},{"type":"function","name":"owner","inputs":[],"outputs":[{"name":"","type":"address","internalType":"address"}],"stateMutability":"view"},{"type":"function","name":"renounceOwnership","inputs":[],"outputs":[],"stateMutability":"nonpayable"},{"type":"function","name":"repay","inputs":[{"name":"amount","type":"uint256","internalType":"uint256"}],"outputs":[],"stateMutability":"nonpayable"},{"type":"function","name":"setCollateralRatio","inputs":[{"name":"_collateralRatio","type":"uint256","internalType":"uint256"}],"outputs":[],"stateMutability":"nonpayable"},{"type":"function","name":"setLiquidationThreshold","inputs":[{"name":"_liquidationThreshold","type":"uint256","internalType":"uint256"}],"outputs":[],"stateMutability":"nonpayable"},{"type":"function","name":"transferOwnership","inputs":[{"name":"newOwner","type":"address","internalType":"address"}],"outputs":[],"stateMutability":"nonpayable"},{"type":"function","name":"withdrawCollateral","inputs":[{"name":"amount","type":"uint256","internalType":"uint256"}],"outputs":[],"stateMutability":"nonpayable"},{"type":"event","name":"CollateralDeposited","inputs":[{"name":"user","type":"address","indexed":true,"internalType":"address"},{"name":"amount","type":"uint256","indexed":false,"internalType":"uint256"}],"anonymous":false},{"type":"event","name":"CollateralWithdrawn","inputs":[{"name":"user","type":"address","indexed":true,"internalType":"address"},{"name":"amount","type":"uint256","indexed":false,"internalType":"uint256"}],"anonymous":false},{"type":"event","name":"LoanLiquidated","inputs":[{"name":"liquidator","type":"address","indexed":true,"internalType":"address"},{"name":"borrower","type":"address","indexed":true,"internalType":"address"},{"name":"collateralSeized","type":"uint256","indexed":false,"internalType":"uint256"},{"name":"debtCovered","type":"uint256","indexed":false,"internalType":"uint256"}],"anonymous":false},{"type":"event","name":"LoanRepaid","inputs":[{"name":"user","type":"address","indexed":true,"internalType":"address"},{"name":"amount","type":"uint256","indexed":false,"internalType":"uint256"}],"anonymous":false},{"type":"event","name":"OwnershipTransferred","inputs":[{"name":"previousOwner","type":"address","indexed":true,"internalType":"address"},{"name":"newOwner","type":"address","indexed":true,"internalType":"address"}],"anonymous":false},{"type":"event","name":"TokensBorrowed","inputs":[{"name":"user","type":"address","indexed":true,"internalType":"address"},{"name":"amount","type":"uint256","indexed":false,"internalType":"uint256"}],"anonymous":false}],"bytecode":{"object":"0x608060405234801562000010575f80fd5b506040516200266a3803806200266a8339818101604052810190620000369190620003cd565b620000566200004a6200026860201b60201c565b6200026f60201b60201c565b5f73ffffffffffffffffffffffffffffffffffffffff168473ffffffffffffffffffffffffffffffffffffffff1603620000c7576040517f08c379a0000000000000000000000000000000000000000000000000000000008152600401620000be90620004c0565b60405180910390fd5b5f73ffffffffffffffffffffffffffffffffffffffff168373ffffffffffffffffffffffffffffffffffffffff160362000138576040517f08c379a00000000000000000000000000000000000000000000000000000000081526004016200012f9062000554565b60405180910390fd5b606482116200017e576040517f08c379a00000000000000000000000000000000000000000000000000000000081526004016200017590620005e8565b60405180910390fd5b6064811180156200018e57508181105b620001d0576040517f08c379a0000000000000000000000000000000000000000000000000000000008152600401620001c7906200067c565b60405180910390fd5b8360015f6101000a81548173ffffffffffffffffffffffffffffffffffffffff021916908373ffffffffffffffffffffffffffffffffffffffff1602179055508260025f6101000a81548173ffffffffffffffffffffffffffffffffffffffff021916908373ffffffffffffffffffffffffffffffffffffffff1602179055508160038190555080600481905550505050506200069c565b5f33905090565b5f805f9054906101000a900473ffffffffffffffffffffffffffffffffffffffff169050815f806101000a81548173ffffffffffffffffffffffffffffffffffffffff021916908373ffffffffffffffffffffffffffffffffffffffff1602179055508173ffffffffffffffffffffffffffffffffffffffff168173ffffffffffffffffffffffffffffffffffffffff167f8be0079c531659141344cd1fd0a4f28419497f9722a3daafe3b4186f6b6457e060405160405180910390a35050565b5f80fd5b5f73ffffffffffffffffffffffffffffffffffffffff82169050919050565b5f6200035f8262000334565b9050919050565b620003718162000353565b81146200037c575f80fd5b50565b5f815190506200038f8162000366565b92915050565b5f819050919050565b620003a98162000395565b8114620003b4575f80fd5b50565b5f81519050620003c7816200039e565b92915050565b5f805f8060808587031215620003e857620003e762000330565b5b5f620003f7878288016200037f565b94505060206200040a878288016200037f565b93505060406200041d87828801620003b7565b92505060606200043087828801620003b7565b91505092959194509250565b5f82825260208201905092915050565b7f4c656e64696e67426f72726f77696e673a20636f6c6c61746572616c20746f6b5f8201527f656e206973207a65726f20616464726573730000000000000000000000000000602082015250565b5f620004a86032836200043c565b9150620004b5826200044c565b604082019050919050565b5f6020820190508181035f830152620004d9816200049a565b9050919050565b7f4c656e64696e67426f72726f77696e673a20626f72726f7720746f6b656e20695f8201527f73207a65726f2061646472657373000000000000000000000000000000000000602082015250565b5f6200053c602e836200043c565b91506200054982620004e0565b604082019050919050565b5f6020820190508181035f8301526200056d816200052e565b9050919050565b7f4c656e64696e67426f72726f77696e673a20636f6c6c61746572616c207261745f8201527f696f206d757374206265203e2031303025000000000000000000000000000000602082015250565b5f620005d06031836200043c565b9150620005dd8262000574565b604082019050919050565b5f6020820190508181035f8301526200060181620005c2565b9050919050565b7f4c656e64696e67426f72726f77696e673a20696e76616c6964206c69717569645f8201527f6174696f6e207468726573686f6c640000000000000000000000000000000000602082015250565b5f62000664602f836200043c565b9150620006718262000608565b604082019050919050565b5f6020820190508181035f830152620006958162000656565b9050919050565b611fc080620006aa5f395ff3fe608060405234801561000f575f80fd5b5060043610610109575f3560e01c806390bd0518116100a0578063bad4a01f1161006f578063bad4a01f14610269578063be34c5b914610285578063c5ebeaec146102b5578063d0b0c816146102d1578063f2fde38b146102ed57610109565b806390bd0518146101e1578063948adb8f146101fd578063b2016bd41461022d578063b4eae1cb1461024b57610109565b80636060663e116100dc5780636060663e146101815780636112fe2e1461019d578063715018a6146101b95780638da5cb5b146101c357610109565b80632f8655681461010d578063371fd8e6146101295780634031234c14610145578063456dc17a14610163575b5f80fd5b610127600480360381019061012291906114de565b610309565b005b610143600480360381019061013e919061153c565b6106d8565b005b61014d6108dd565b60405161015a9190611576565b60405180910390f35b61016b6108e3565b60405161017891906115ea565b60405180910390f35b61019b6004803603810190610196919061153c565b610908565b005b6101b760048036038101906101b2919061153c565b61095d565b005b6101c1610c54565b005b6101cb610c67565b6040516101d89190611612565b60405180910390f35b6101fb60048036038101906101f6919061153c565b610c8e565b005b610217600480360381019061021291906114de565b610d38565b6040516102249190611576565b60405180910390f35b610235610d4d565b60405161024291906115ea565b60405180910390f35b610253610d72565b6040516102609190611576565b60405180910390f35b610283600480360381019061027e919061153c565b610d78565b005b61029f600480360381019061029a91906114de565b610efd565b6040516102ac9190611576565b60405180910390f35b6102cf60048036038101906102ca919061153c565b610f12565b005b6102eb60048036038101906102e6919061153c565b611256565b005b610307600480360381019061030291906114de565b6112b8565b005b5f60055f8373ffffffffffffffffffffffffffffffffffffffff1673ffffffffffffffffffffffffffffffffffffffff1681526020019081526020015f205490505f60065f8473ffffffffffffffffffffffffffffffffffffffff1673ffffffffffffffffffffffffffffffffffffffff1681526020019081526020015f205490505f81116103cd576040517f08c379a00000000000000000000000000000000000000000000000000000000081526004016103c490611685565b60405180910390fd5b600454816103db91906116d0565b6064836103e891906116d0565b10610428576040517f08c379a000000000000000000000000000000000000000000000000000000000815260040161041f9061175b565b60405180910390fd5b5f60055f8573ffffffffffffffffffffffffffffffffffffffff1673ffffffffffffffffffffffffffffffffffffffff1681526020019081526020015f205490505f60065f8673ffffffffffffffffffffffffffffffffffffffff1673ffffffffffffffffffffffffffffffffffffffff1681526020019081526020015f205490505f60055f8773ffffffffffffffffffffffffffffffffffffffff1673ffffffffffffffffffffffffffffffffffffffff1681526020019081526020015f20819055505f60065f8773ffffffffffffffffffffffffffffffffffffffff1673ffffffffffffffffffffffffffffffffffffffff1681526020019081526020015f208190555060015f9054906101000a900473ffffffffffffffffffffffffffffffffffffffff1673ffffffffffffffffffffffffffffffffffffffff1663a9059cbb33846040518363ffffffff1660e01b815260040161058a929190611779565b6020604051808303815f875af11580156105a6573d5f803e3d5ffd5b505050506040513d601f19601f820116820180604052508101906105ca91906117d5565b5060025f9054906101000a900473ffffffffffffffffffffffffffffffffffffffff1673ffffffffffffffffffffffffffffffffffffffff166323b872dd3330846040518463ffffffff1660e01b815260040161062993929190611800565b6020604051808303815f875af1158015610645573d5f803e3d5ffd5b505050506040513d601f19601f8201168201806040525081019061066991906117d5565b508473ffffffffffffffffffffffffffffffffffffffff163373ffffffffffffffffffffffffffffffffffffffff167fb7573cbea2f79c8c9a890488d2511453963a8be78fb185cc5803146d6b10982c84846040516106c9929190611835565b60405180910390a35050505050565b5f811161071a576040517f08c379a0000000000000000000000000000000000000000000000000000000008152600401610711906118a6565b60405180910390fd5b8060065f3373ffffffffffffffffffffffffffffffffffffffff1673ffffffffffffffffffffffffffffffffffffffff1681526020019081526020015f2054101561079a576040517f08c379a000000000000000000000000000000000000000000000000000000000815260040161079190611934565b60405180910390fd5b60025f9054906101000a900473ffffffffffffffffffffffffffffffffffffffff1673ffffffffffffffffffffffffffffffffffffffff166323b872dd3330846040518463ffffffff1660e01b81526004016107f893929190611800565b6020604051808303815f875af1158015610814573d5f803e3d5ffd5b505050506040513d601f19601f8201168201806040525081019061083891906117d5565b508060065f3373ffffffffffffffffffffffffffffffffffffffff1673ffffffffffffffffffffffffffffffffffffffff1681526020019081526020015f205f8282546108859190611952565b925050819055503373ffffffffffffffffffffffffffffffffffffffff167fc200a1f31dd659e356e0f112c82558e25f49f7b0f84438691cd96f5cb3558823826040516108d29190611576565b60405180910390a250565b60045481565b60025f9054906101000a900473ffffffffffffffffffffffffffffffffffffffff1681565b61091061133a565b60648111610953576040517f08c379a000000000000000000000000000000000000000000000000000000000815260040161094a906119f5565b60405180910390fd5b8060038190555050565b5f811161099f576040517f08c379a000000000000000000000000000000000000000000000000000000000815260040161099690611a5d565b60405180910390fd5b8060055f3373ffffffffffffffffffffffffffffffffffffffff1673ffffffffffffffffffffffffffffffffffffffff1681526020019081526020015f20541015610a1f576040517f08c379a0000000000000000000000000000000000000000000000000000000008152600401610a1690611ac5565b60405180910390fd5b5f8160055f3373ffffffffffffffffffffffffffffffffffffffff1673ffffffffffffffffffffffffffffffffffffffff1681526020019081526020015f2054610a699190611952565b90505f60065f3373ffffffffffffffffffffffffffffffffffffffff1673ffffffffffffffffffffffffffffffffffffffff1681526020019081526020015f205490505f811115610b115760045481610ac291906116d0565b606483610acf91906116d0565b1015610b10576040517f08c379a0000000000000000000000000000000000000000000000000000000008152600401610b0790611b53565b60405180910390fd5b5b8260055f3373ffffffffffffffffffffffffffffffffffffffff1673ffffffffffffffffffffffffffffffffffffffff1681526020019081526020015f205f828254610b5d9190611952565b9250508190555060015f9054906101000a900473ffffffffffffffffffffffffffffffffffffffff1673ffffffffffffffffffffffffffffffffffffffff1663a9059cbb33856040518363ffffffff1660e01b8152600401610bc0929190611779565b6020604051808303815f875af1158015610bdc573d5f803e3d5ffd5b505050506040513d601f19601f82011682018060405250810190610c0091906117d5565b503373ffffffffffffffffffffffffffffffffffffffff167fc30fcfbcaac9e0deffa719714eaa82396ff506a0d0d0eebe170830177288715d84604051610c479190611576565b60405180910390a2505050565b610c5c61133a565b610c655f6113b8565b565b5f805f9054906101000a900473ffffffffffffffffffffffffffffffffffffffff16905090565b610c9661133a565b60025f9054906101000a900473ffffffffffffffffffffffffffffffffffffffff1673ffffffffffffffffffffffffffffffffffffffff166323b872dd3330846040518463ffffffff1660e01b8152600401610cf493929190611800565b6020604051808303815f875af1158015610d10573d5f803e3d5ffd5b505050506040513d601f19601f82011682018060405250810190610d3491906117d5565b5050565b6006602052805f5260405f205f915090505481565b60015f9054906101000a900473ffffffffffffffffffffffffffffffffffffffff1681565b60035481565b5f8111610dba576040517f08c379a0000000000000000000000000000000000000000000000000000000008152600401610db190611bbb565b60405180910390fd5b60015f9054906101000a900473ffffffffffffffffffffffffffffffffffffffff1673ffffffffffffffffffffffffffffffffffffffff166323b872dd3330846040518463ffffffff1660e01b8152600401610e1893929190611800565b6020604051808303815f875af1158015610e34573d5f803e3d5ffd5b505050506040513d601f19601f82011682018060405250810190610e5891906117d5565b508060055f3373ffffffffffffffffffffffffffffffffffffffff1673ffffffffffffffffffffffffffffffffffffffff1681526020019081526020015f205f828254610ea59190611bd9565b925050819055503373ffffffffffffffffffffffffffffffffffffffff167fd7243f6f8212d5188fd054141cf6ea89cfc0d91facb8c3afe2f88a135848014282604051610ef29190611576565b60405180910390a250565b6005602052805f5260405f205f915090505481565b5f8111610f54576040517f08c379a0000000000000000000000000000000000000000000000000000000008152600401610f4b90611c56565b60405180910390fd5b8060025f9054906101000a900473ffffffffffffffffffffffffffffffffffffffff1673ffffffffffffffffffffffffffffffffffffffff166370a08231306040518263ffffffff1660e01b8152600401610faf9190611612565b602060405180830381865afa158015610fca573d5f803e3d5ffd5b505050506040513d601f19601f82011682018060405250810190610fee9190611c88565b101561102f576040517f08c379a000000000000000000000000000000000000000000000000000000000815260040161102690611d23565b60405180910390fd5b5f600354606460055f3373ffffffffffffffffffffffffffffffffffffffff1673ffffffffffffffffffffffffffffffffffffffff1681526020019081526020015f205461107d91906116d0565b6110879190611d6e565b9050808260065f3373ffffffffffffffffffffffffffffffffffffffff1673ffffffffffffffffffffffffffffffffffffffff1681526020019081526020015f20546110d39190611bd9565b1115611114576040517f08c379a000000000000000000000000000000000000000000000000000000000815260040161110b90611de8565b60405180910390fd5b8160065f3373ffffffffffffffffffffffffffffffffffffffff1673ffffffffffffffffffffffffffffffffffffffff1681526020019081526020015f205f8282546111609190611bd9565b9250508190555060025f9054906101000a900473ffffffffffffffffffffffffffffffffffffffff1673ffffffffffffffffffffffffffffffffffffffff1663a9059cbb33846040518363ffffffff1660e01b81526004016111c3929190611779565b6020604051808303815f875af11580156111df573d5f803e3d5ffd5b505050506040513d601f19601f8201168201806040525081019061120391906117d5565b503373ffffffffffffffffffffffffffffffffffffffff167f8412c29da21aa433ef5a58b426e1a0a97689471947dd559e72c5a8953bd5e9f58360405161124a9190611576565b60405180910390a25050565b61125e61133a565b60648111801561126f575060035481105b6112ae576040517f08c379a00000000000000000000000000000000000000000000000000000000081526004016112a590611e76565b60405180910390fd5b8060048190555050565b6112c061133a565b5f73ffffffffffffffffffffffffffffffffffffffff168173ffffffffffffffffffffffffffffffffffffffff160361132e576040517f08c379a000000000000000000000000000000000000000000000000000000000815260040161132590611f04565b60405180910390fd5b611337816113b8565b50565b611342611479565b73ffffffffffffffffffffffffffffffffffffffff16611360610c67565b73ffffffffffffffffffffffffffffffffffffffff16146113b6576040517f08c379a00000000000000000000000000000000000000000000000000000000081526004016113ad90611f6c565b60405180910390fd5b565b5f805f9054906101000a900473ffffffffffffffffffffffffffffffffffffffff169050815f806101000a81548173ffffffffffffffffffffffffffffffffffffffff021916908373ffffffffffffffffffffffffffffffffffffffff1602179055508173ffffffffffffffffffffffffffffffffffffffff168173ffffffffffffffffffffffffffffffffffffffff167f8be0079c531659141344cd1fd0a4f28419497f9722a3daafe3b4186f6b6457e060405160405180910390a35050565b5f33905090565b5f80fd5b5f73ffffffffffffffffffffffffffffffffffffffff82169050919050565b5f6114ad82611484565b9050919050565b6114bd816114a3565b81146114c7575f80fd5b50565b5f813590506114d8816114b4565b92915050565b5f602082840312156114f3576114f2611480565b5b5f611500848285016114ca565b91505092915050565b5f819050919050565b61151b81611509565b8114611525575f80fd5b50565b5f8135905061153681611512565b92915050565b5f6020828403121561155157611550611480565b5b5f61155e84828501611528565b91505092915050565b61157081611509565b82525050565b5f6020820190506115895f830184611567565b92915050565b5f819050919050565b5f6115b26115ad6115a884611484565b61158f565b611484565b9050919050565b5f6115c382611598565b9050919050565b5f6115d4826115b9565b9050919050565b6115e4816115ca565b82525050565b5f6020820190506115fd5f8301846115db565b92915050565b61160c816114a3565b82525050565b5f6020820190506116255f830184611603565b92915050565b5f82825260208201905092915050565b7f426f72726f77657220686173206e6f20616374697665206c6f616e00000000005f82015250565b5f61166f601b8361162b565b915061167a8261163b565b602082019050919050565b5f6020820190508181035f83015261169c81611663565b9050919050565b7f4e487b71000000000000000000000000000000000000000000000000000000005f52601160045260245ffd5b5f6116da82611509565b91506116e583611509565b92508282026116f381611509565b9150828204841483151761170a576117096116a3565b5b5092915050565b7f4c6f616e206973206e6f7420756e646572636f6c6c61746572616c697a6564005f82015250565b5f611745601f8361162b565b915061175082611711565b602082019050919050565b5f6020820190508181035f83015261177281611739565b9050919050565b5f60408201905061178c5f830185611603565b6117996020830184611567565b9392505050565b5f8115159050919050565b6117b4816117a0565b81146117be575f80fd5b50565b5f815190506117cf816117ab565b92915050565b5f602082840312156117ea576117e9611480565b5b5f6117f7848285016117c1565b91505092915050565b5f6060820190506118135f830186611603565b6118206020830185611603565b61182d6040830184611567565b949350505050565b5f6040820190506118485f830185611567565b6118556020830184611567565b9392505050565b7f43616e6e6f7420726570617920300000000000000000000000000000000000005f82015250565b5f611890600e8361162b565b915061189b8261185c565b602082019050919050565b5f6020820190508181035f8301526118bd81611884565b9050919050565b7f526570617920616d6f756e74206578636565647320626f72726f77656420616d5f8201527f6f756e7400000000000000000000000000000000000000000000000000000000602082015250565b5f61191e60248361162b565b9150611929826118c4565b604082019050919050565b5f6020820190508181035f83015261194b81611912565b9050919050565b5f61195c82611509565b915061196783611509565b925082820390508181111561197f5761197e6116a3565b5b92915050565b7f4c656e64696e67426f72726f77696e673a20636f6c6c61746572616c207261745f8201527f696f206d757374206265203e2031303025000000000000000000000000000000602082015250565b5f6119df60318361162b565b91506119ea82611985565b604082019050919050565b5f6020820190508181035f830152611a0c816119d3565b9050919050565b7f43616e6e6f7420776974686472617720300000000000000000000000000000005f82015250565b5f611a4760118361162b565b9150611a5282611a13565b602082019050919050565b5f6020820190508181035f830152611a7481611a3b565b9050919050565b7f496e73756666696369656e7420636f6c6c61746572616c0000000000000000005f82015250565b5f611aaf60178361162b565b9150611aba82611a7b565b602082019050919050565b5f6020820190508181035f830152611adc81611aa3565b9050919050565b7f5769746864726177616c20776f756c6420756e646572636f6c6c61746572616c5f8201527f697a65206c6f616e000000000000000000000000000000000000000000000000602082015250565b5f611b3d60288361162b565b9150611b4882611ae3565b604082019050919050565b5f6020820190508181035f830152611b6a81611b31565b9050919050565b7f43616e6e6f74206465706f7369742030000000000000000000000000000000005f82015250565b5f611ba560108361162b565b9150611bb082611b71565b602082019050919050565b5f6020820190508181035f830152611bd281611b99565b9050919050565b5f611be382611509565b9150611bee83611509565b9250828201905080821115611c0657611c056116a3565b5b92915050565b7f43616e6e6f7420626f72726f77203000000000000000000000000000000000005f82015250565b5f611c40600f8361162b565b9150611c4b82611c0c565b602082019050919050565b5f6020820190508181035f830152611c6d81611c34565b9050919050565b5f81519050611c8281611512565b92915050565b5f60208284031215611c9d57611c9c611480565b5b5f611caa84828501611c74565b91505092915050565b7f496e73756666696369656e7420626f72726f7720746f6b656e206c69717569645f8201527f6974790000000000000000000000000000000000000000000000000000000000602082015250565b5f611d0d60238361162b565b9150611d1882611cb3565b604082019050919050565b5f6020820190508181035f830152611d3a81611d01565b9050919050565b7f4e487b71000000000000000000000000000000000000000000000000000000005f52601260045260245ffd5b5f611d7882611509565b9150611d8383611509565b925082611d9357611d92611d41565b5b828204905092915050565b7f45786365656473206d617820626f72726f7761626c6520616d6f756e740000005f82015250565b5f611dd2601d8361162b565b9150611ddd82611d9e565b602082019050919050565b5f6020820190508181035f830152611dff81611dc6565b9050919050565b7f4c656e64696e67426f72726f77696e673a20696e76616c6964206c69717569645f8201527f6174696f6e207468726573686f6c640000000000000000000000000000000000602082015250565b5f611e60602f8361162b565b9150611e6b82611e06565b604082019050919050565b5f6020820190508181035f830152611e8d81611e54565b9050919050565b7f4f776e61626c653a206e6577206f776e657220697320746865207a65726f20615f8201527f6464726573730000000000000000000000000000000000000000000000000000602082015250565b5f611eee60268361162b565b9150611ef982611e94565b604082019050919050565b5f6020820190508181035f830152611f1b81611ee2565b9050919050565b7f4f776e61626c653a2063616c6c6572206973206e6f7420746865206f776e65725f82015250565b5f611f5660208361162b565b9150611f6182611f22565b602082019050919050565b5f6020820190508181035f830152611f8381611f4a565b905091905056fea2646970667358221220b526043fd30560212ac5987b757a8d3fa0348c01265952917000f8e34e8274e164736f6c63430008140033","linkReferences":{}},"methodIdentifiers":{"addBorrowTokenLiquidity(uint256)":"90bd0518","borrow(uint256)":"c5ebeaec","borrowToken()":"456dc17a","borrowedAmount(address)":"948adb8f","collateralRatio()":"b4eae1cb","collateralToken()":"b2016bd4","depositCollateral(uint256)":"bad4a01f","depositedCollateral(address)":"be34c5b9","liquidate(address)":"2f865568","liquidationThreshold()":"4031234c","owner()":"8da5cb5b","renounceOwnership()":"715018a6","repay(uint256)":"371fd8e6","setCollateralRatio(uint256)":"6060663e","setLiquidationThreshold(uint256)":"d0b0c816","transferOwnership(address)":"f2fde38b","withdrawCollateral(uint256)":"6112fe2e"},"id":7}