{"abi":[{"type":"function","name":"count","inputs":[],"outputs":[{"name":"","type":"uint256","internalType":"uint256"}],"stateMutability":"view"},{"type":"function","name":"decrement","inputs":[],"outputs":[],"stateMutability":"nonpayable"},{"type":"function","name":"getCount","inputs":[],"outputs":[{"name":"","type":"uint256","internalType":"uint256"}],"stateMutability":"view"},{"type":"function","name":"increment","inputs":[],"outputs":[],"stateMutability":"nonpayable"},{"type":"function","name":"setCount","inputs":[{"name":"_count","type":"uint256","internalType":"uint256"}],"outputs":[],"stateMutability":"nonpayable"}],"bytecode":{"object":"0x608060405234801561000f575f80fd5b506102628061001d5f395ff3fe608060405234801561000f575f80fd5b5060043610610055575f3560e01c806306661abd146100595780632baeceb714610077578063a87d942c14610081578063d09de08a1461009f578063d14e62b8146100a9575b5f80fd5b6100616100c5565b60405161006e9190610127565b60405180910390f35b61007f6100ca565b005b6100896100e4565b6040516100969190610127565b60405180910390f35b6100a76100ec565b005b6100c360048036038101906100be919061016e565b610106565b005b5f5481565b60015f808282546100db91906101c6565b92505081905550565b5f8054905090565b60015f808282546100fd91906101f9565b92505081905550565b805f8190555050565b5f819050919050565b6101218161010f565b82525050565b5f60208201905061013a5f830184610118565b92915050565b5f80fd5b61014d8161010f565b8114610157575f80fd5b50565b5f8135905061016881610144565b92915050565b5f6020828403121561018357610182610140565b5b5f6101908482850161015a565b91505092915050565b7f4e487b71000000000000000000000000000000000000000000000000000000005f52601160045260245ffd5b5f6101d08261010f565b91506101db8361010f565b92508282039050818111156101f3576101f2610199565b5b92915050565b5f6102038261010f565b915061020e8361010f565b925082820190508082111561022657610225610199565b5b9291505056fea264697066735822122016dfc8d6ec66b57da63249e15decbbcca4039d30da23e8b2779e05f67effc35a64736f6c63430008140033","linkReferences":{}},"methodIdentifiers":{"count()":"06661abd","decrement()":"2baeceb7","getCount()":"a87d942c","increment()":"d09de08a","setCount(uint256)":"d14e62b8"},"id":2}