{"abi":[{"type":"function","name":"initialize","inputs":[{"name":"value","type":"uint256","internalType":"uint256"}],"outputs":[],"stateMutability":"nonpayable"},{"type":"function","name":"owner","inputs":[],"outputs":[{"name":"","type":"address","internalType":"address"}],"stateMutability":"view"},{"type":"function","name":"proxiableUUID","inputs":[],"outputs":[{"name":"","type":"bytes32","internalType":"bytes32"}],"stateMutability":"view"},{"type":"function","name":"renounceOwnership","inputs":[],"outputs":[],"stateMutability":"nonpayable"},{"type":"function","name":"retrieve","inputs":[],"outputs":[{"name":"","type":"uint256","internalType":"uint256"}],"stateMutability":"view"},{"type":"function","name":"store","inputs":[{"name":"value","type":"uint256","internalType":"uint256"}],"outputs":[],"stateMutability":"nonpayable"},{"type":"function","name":"transferOwnership","inputs":[{"name":"newOwner","type":"address","internalType":"address"}],"outputs":[],"stateMutability":"nonpayable"},{"type":"function","name":"upgradeTo","inputs":[{"name":"newImplementation","type":"address","internalType":"address"}],"outputs":[],"stateMutability":"nonpayable"},{"type":"function","name":"upgradeToAndCall","inputs":[{"name":"newImplementation","type":"address","internalType":"address"},{"name":"data","type":"bytes","internalType":"bytes"}],"outputs":[],"stateMutability":"payable"},{"type":"event","name":"AdminChanged","inputs":[{"name":"previousAdmin","type":"address","indexed":false,"internalType":"address"},{"name":"newAdmin","type":"address","indexed":false,"internalType":"address"}],"anonymous":false},{"type":"event","name":"BeaconUpgraded","inputs":[{"name":"beacon","type":"address","indexed":true,"internalType":"address"}],"anonymous":false},{"type":"event","name":"Initialized","inputs":[{"name":"version","type":"uint8","indexed":false,"internalType":"uint8"}],"anonymous":false},{"type":"event","name":"OwnershipTransferred","inputs":[{"name":"previousOwner","type":"address","indexed":true,"internalType":"address"},{"name":"newOwner","type":"address","indexed":true,"internalType":"address"}],"anonymous":false},{"type":"event","name":"Upgraded","inputs":[{"name":"implementation","type":"address","indexed":true,"internalType":"address"}],"anonymous":false},{"type":"event","name":"ValueChanged","inputs":[{"name":"newValue","type":"uint256","indexed":false,"internalType":"uint256"}],"anonymous":false}],"bytecode":{"object":"0x60a06040523073ffffffffffffffffffffffffffffffffffffffff1660809073ffffffffffffffffffffffffffffffffffffffff16815250348015610042575f5ffd5b506080516119656100775f395f81816101e4015281816102720152818161036a015281816103f801526104a701526119655ff3fe608060405260043610610085575f3560e01c80636057361d116100585780636057361d14610121578063715018a6146101495780638da5cb5b1461015f578063f2fde38b14610189578063fe4b84df146101b157610085565b80632e64cec1146100895780633659cfe6146100b35780634f1ef286146100db57806352d1902d146100f7575b5f5ffd5b348015610094575f5ffd5b5061009d6101d9565b6040516100aa9190610eb1565b60405180910390f35b3480156100be575f5ffd5b506100d960048036038101906100d49190610f35565b6101e2565b005b6100f560048036038101906100f0919061109c565b610368565b005b348015610102575f5ffd5b5061010b6104a4565b604051610118919061110e565b60405180910390f35b34801561012c575f5ffd5b5061014760048036038101906101429190611151565b61055b565b005b348015610154575f5ffd5b5061015d6105a4565b005b34801561016a575f5ffd5b506101736105b7565b604051610180919061118b565b60405180910390f35b348015610194575f5ffd5b506101af60048036038101906101aa9190610f35565b6105df565b005b3480156101bc575f5ffd5b506101d760048036038101906101d29190611151565b610661565b005b5f60c954905090565b7f000000000000000000000000000000000000000000000000000000000000000073ffffffffffffffffffffffffffffffffffffffff163073ffffffffffffffffffffffffffffffffffffffff1603610270576040517f08c379a000000000000000000000000000000000000000000000000000000000815260040161026790611224565b60405180910390fd5b7f000000000000000000000000000000000000000000000000000000000000000073ffffffffffffffffffffffffffffffffffffffff166102af6107ab565b73ffffffffffffffffffffffffffffffffffffffff1614610305576040517f08c379a00000000000000000000000000000000000000000000000000000000081526004016102fc906112b2565b60405180910390fd5b61030e816107fe565b610365815f67ffffffffffffffff81111561032c5761032b610f78565b5b6040519080825280601f01601f19166020018201604052801561035e5781602001600182028036833780820191505090505b505f610809565b50565b7f000000000000000000000000000000000000000000000000000000000000000073ffffffffffffffffffffffffffffffffffffffff163073ffffffffffffffffffffffffffffffffffffffff16036103f6576040517f08c379a00000000000000000000000000000000000000000000000000000000081526004016103ed90611224565b60405180910390fd5b7f000000000000000000000000000000000000000000000000000000000000000073ffffffffffffffffffffffffffffffffffffffff166104356107ab565b73ffffffffffffffffffffffffffffffffffffffff161461048b576040517f08c379a0000000000000000000000000000000000000000000000000000000008152600401610482906112b2565b60405180910390fd5b610494826107fe565b6104a082826001610809565b5050565b5f7f000000000000000000000000000000000000000000000000000000000000000073ffffffffffffffffffffffffffffffffffffffff163073ffffffffffffffffffffffffffffffffffffffff1614610533576040517f08c379a000000000000000000000000000000000000000000000000000000000815260040161052a90611340565b60405180910390fd5b7f360894a13ba1a3210667c828492db98dca3e2076cc3735a920a3ca505d382bbc5f1b905090565b610563610973565b8060c9819055507f93fe6d397c74fdf1402a8b72e47b68512f0510d7b98a4bc4cbdf6ac7108b3c59816040516105999190610eb1565b60405180910390a150565b6105ac610973565b6105b55f6109f1565b565b5f60975f9054906101000a900473ffffffffffffffffffffffffffffffffffffffff16905090565b6105e7610973565b5f73ffffffffffffffffffffffffffffffffffffffff168173ffffffffffffffffffffffffffffffffffffffff1603610655576040517f08c379a000000000000000000000000000000000000000000000000000000000815260040161064c906113ce565b60405180910390fd5b61065e816109f1565b50565b5f5f60019054906101000a900460ff16159050808015610691575060015f5f9054906101000a900460ff1660ff16105b806106be57506106a030610ab4565b1580156106bd575060015f5f9054906101000a900460ff1660ff16145b5b6106fd576040517f08c379a00000000000000000000000000000000000000000000000000000000081526004016106f49061145c565b60405180910390fd5b60015f5f6101000a81548160ff021916908360ff16021790555080156107385760015f60016101000a81548160ff0219169083151502179055505b610740610ad6565b610748610b2e565b8160c98190555080156107a7575f5f60016101000a81548160ff0219169083151502179055507f7f26b83ff96e1f2b6a682f133852f6798a09c465da95921460cefb3847402498600160405161079e91906114c8565b60405180910390a15b5050565b5f6107d77f360894a13ba1a3210667c828492db98dca3e2076cc3735a920a3ca505d382bbc5f1b610b7e565b5f015f9054906101000a900473ffffffffffffffffffffffffffffffffffffffff16905090565b610806610973565b50565b6108347f4910fdfa16fed3260ed0e7147f7cc6da11a60208b5b9406d12a635614ffd91435f1b610b87565b5f015f9054906101000a900460ff16156108565761085183610b90565b61096e565b8273ffffffffffffffffffffffffffffffffffffffff166352d1902d6040518163ffffffff1660e01b8152600401602060405180830381865afa9250505080156108be57506040513d601f19601f820116820180604052508101906108bb919061150b565b60015b6108fd576040517f08c379a00000000000000000000000000000000000000000000000000000000081526004016108f4906115a6565b60405180910390fd5b7f360894a13ba1a3210667c828492db98dca3e2076cc3735a920a3ca505d382bbc5f1b8114610961576040517f08c379a000000000000000000000000000000000000000000000000000000000815260040161095890611634565b60405180910390fd5b5061096d838383610c46565b5b505050565b61097b610c71565b73ffffffffffffffffffffffffffffffffffffffff166109996105b7565b73ffffffffffffffffffffffffffffffffffffffff16146109ef576040517f08c379a00000000000000000000000000000000000000000000000000000000081526004016109e69061169c565b60405180910390fd5b565b5f60975f9054906101000a900473ffffffffffffffffffffffffffffffffffffffff1690508160975f6101000a81548173ffffffffffffffffffffffffffffffffffffffff021916908373ffffffffffffffffffffffffffffffffffffffff1602179055508173ffffffffffffffffffffffffffffffffffffffff168173ffffffffffffffffffffffffffffffffffffffff167f8be0079c531659141344cd1fd0a4f28419497f9722a3daafe3b4186f6b6457e060405160405180910390a35050565b5f5f8273ffffffffffffffffffffffffffffffffffffffff163b119050919050565b5f60019054906101000a900460ff16610b24576040517f08c379a0000000000000000000000000000000000000000000000000000000008152600401610b1b9061172a565b60405180910390fd5b610b2c610c78565b565b5f60019054906101000a900460ff16610b7c576040517f08c379a0000000000000000000000000000000000000000000000000000000008152600401610b739061172a565b60405180910390fd5b565b5f819050919050565b5f819050919050565b610b9981610ab4565b610bd8576040517f08c379a0000000000000000000000000000000000000000000000000000000008152600401610bcf906117b8565b60405180910390fd5b80610c047f360894a13ba1a3210667c828492db98dca3e2076cc3735a920a3ca505d382bbc5f1b610b7e565b5f015f6101000a81548173ffffffffffffffffffffffffffffffffffffffff021916908373ffffffffffffffffffffffffffffffffffffffff16021790555050565b610c4f83610cd8565b5f82511180610c5b5750805b15610c6c57610c6a8383610d27565b505b505050565b5f33905090565b5f60019054906101000a900460ff16610cc6576040517f08c379a0000000000000000000000000000000000000000000000000000000008152600401610cbd9061172a565b60405180910390fd5b610cd6610cd1610c71565b6109f1565b565b610ce181610b90565b8073ffffffffffffffffffffffffffffffffffffffff167fbc7cd75a20ee27fd9adebab32041f755214dbc6bffa90cc0225b39da2e5c2d3b60405160405180910390a250565b6060610d4c838360405180606001604052806027815260200161190960279139610d54565b905092915050565b60605f5f8573ffffffffffffffffffffffffffffffffffffffff1685604051610d7d9190611828565b5f60405180830381855af49150503d805f8114610db5576040519150601f19603f3d011682016040523d82523d5f602084013e610dba565b606091505b5091509150610dcb86838387610dd6565b925050509392505050565b60608315610e37575f835103610e2f57610def85610ab4565b610e2e576040517f08c379a0000000000000000000000000000000000000000000000000000000008152600401610e2590611888565b60405180910390fd5b5b829050610e42565b610e418383610e4a565b5b949350505050565b5f82511115610e5c5781518083602001fd5b806040517f08c379a0000000000000000000000000000000000000000000000000000000008152600401610e9091906118e8565b60405180910390fd5b5f819050919050565b610eab81610e99565b82525050565b5f602082019050610ec45f830184610ea2565b92915050565b5f604051905090565b5f5ffd5b5f5ffd5b5f73ffffffffffffffffffffffffffffffffffffffff82169050919050565b5f610f0482610edb565b9050919050565b610f1481610efa565b8114610f1e575f5ffd5b50565b5f81359050610f2f81610f0b565b92915050565b5f60208284031215610f4a57610f49610ed3565b5b5f610f5784828501610f21565b91505092915050565b5f5ffd5b5f5ffd5b5f601f19601f8301169050919050565b7f4e487b71000000000000000000000000000000000000000000000000000000005f52604160045260245ffd5b610fae82610f68565b810181811067ffffffffffffffff82111715610fcd57610fcc610f78565b5b80604052505050565b5f610fdf610eca565b9050610feb8282610fa5565b919050565b5f67ffffffffffffffff82111561100a57611009610f78565b5b61101382610f68565b9050602081019050919050565b828183375f83830152505050565b5f61104061103b84610ff0565b610fd6565b90508281526020810184848401111561105c5761105b610f64565b5b611067848285611020565b509392505050565b5f82601f83011261108357611082610f60565b5b813561109384826020860161102e565b91505092915050565b5f5f604083850312156110b2576110b1610ed3565b5b5f6110bf85828601610f21565b925050602083013567ffffffffffffffff8111156110e0576110df610ed7565b5b6110ec8582860161106f565b9150509250929050565b5f819050919050565b611108816110f6565b82525050565b5f6020820190506111215f8301846110ff565b92915050565b61113081610e99565b811461113a575f5ffd5b50565b5f8135905061114b81611127565b92915050565b5f6020828403121561116657611165610ed3565b5b5f6111738482850161113d565b91505092915050565b61118581610efa565b82525050565b5f60208201905061119e5f83018461117c565b92915050565b5f82825260208201905092915050565b7f46756e6374696f6e206d7573742062652063616c6c6564207468726f756768205f8201527f64656c656761746563616c6c0000000000000000000000000000000000000000602082015250565b5f61120e602c836111a4565b9150611219826111b4565b604082019050919050565b5f6020820190508181035f83015261123b81611202565b9050919050565b7f46756e6374696f6e206d7573742062652063616c6c6564207468726f756768205f8201527f6163746976652070726f78790000000000000000000000000000000000000000602082015250565b5f61129c602c836111a4565b91506112a782611242565b604082019050919050565b5f6020820190508181035f8301526112c981611290565b9050919050565b7f555550535570677261646561626c653a206d757374206e6f742062652063616c5f8201527f6c6564207468726f7567682064656c656761746563616c6c0000000000000000602082015250565b5f61132a6038836111a4565b9150611335826112d0565b604082019050919050565b5f6020820190508181035f8301526113578161131e565b9050919050565b7f4f776e61626c653a206e6577206f776e657220697320746865207a65726f20615f8201527f6464726573730000000000000000000000000000000000000000000000000000602082015250565b5f6113b86026836111a4565b91506113c38261135e565b604082019050919050565b5f6020820190508181035f8301526113e5816113ac565b9050919050565b7f496e697469616c697a61626c653a20636f6e747261637420697320616c7265615f8201527f647920696e697469616c697a6564000000000000000000000000000000000000602082015250565b5f611446602e836111a4565b9150611451826113ec565b604082019050919050565b5f6020820190508181035f8301526114738161143a565b9050919050565b5f819050919050565b5f60ff82169050919050565b5f819050919050565b5f6114b26114ad6114a88461147a565b61148f565b611483565b9050919050565b6114c281611498565b82525050565b5f6020820190506114db5f8301846114b9565b92915050565b6114ea816110f6565b81146114f4575f5ffd5b50565b5f81519050611505816114e1565b92915050565b5f602082840312156115205761151f610ed3565b5b5f61152d848285016114f7565b91505092915050565b7f45524331393637557067726164653a206e657720696d706c656d656e746174695f8201527f6f6e206973206e6f742055555053000000000000000000000000000000000000602082015250565b5f611590602e836111a4565b915061159b82611536565b604082019050919050565b5f6020820190508181035f8301526115bd81611584565b9050919050565b7f45524331393637557067726164653a20756e737570706f727465642070726f785f8201527f6961626c65555549440000000000000000000000000000000000000000000000602082015250565b5f61161e6029836111a4565b9150611629826115c4565b604082019050919050565b5f6020820190508181035f83015261164b81611612565b9050919050565b7f4f776e61626c653a2063616c6c6572206973206e6f7420746865206f776e65725f82015250565b5f6116866020836111a4565b915061169182611652565b602082019050919050565b5f6020820190508181035f8301526116b38161167a565b9050919050565b7f496e697469616c697a61626c653a20636f6e7472616374206973206e6f7420695f8201527f6e697469616c697a696e67000000000000000000000000000000000000000000602082015250565b5f611714602b836111a4565b915061171f826116ba565b604082019050919050565b5f6020820190508181035f83015261174181611708565b9050919050565b7f455243313936373a206e657720696d706c656d656e746174696f6e206973206e5f8201527f6f74206120636f6e747261637400000000000000000000000000000000000000602082015250565b5f6117a2602d836111a4565b91506117ad82611748565b604082019050919050565b5f6020820190508181035f8301526117cf81611796565b9050919050565b5f81519050919050565b5f81905092915050565b8281835e5f83830152505050565b5f611802826117d6565b61180c81856117e0565b935061181c8185602086016117ea565b80840191505092915050565b5f61183382846117f8565b915081905092915050565b7f416464726573733a2063616c6c20746f206e6f6e2d636f6e74726163740000005f82015250565b5f611872601d836111a4565b915061187d8261183e565b602082019050919050565b5f6020820190508181035f83015261189f81611866565b9050919050565b5f81519050919050565b5f6118ba826118a6565b6118c481856111a4565b93506118d48185602086016117ea565b6118dd81610f68565b840191505092915050565b5f6020820190508181035f83015261190081846118b0565b90509291505056fe416464726573733a206c6f772d6c6576656c2064656c65676174652063616c6c206661696c6564a26469706673582212208a8fb9803846e29d7ae26ad25552db344f6de83d8ea84bd12d8bb846689dc3d264736f6c634300081e0033","linkReferences":{}},"methodIdentifiers":{"initialize(uint256)":"fe4b84df","owner()":"8da5cb5b","proxiableUUID()":"52d1902d","renounceOwnership()":"715018a6","retrieve()":"2e64cec1","store(uint256)":"6057361d","transferOwnership(address)":"f2fde38b","upgradeTo(address)":"3659cfe6","upgradeToAndCall(address,bytes)":"4f1ef286"},"id":0}