{"abi":[{"type":"constructor","inputs":[],"stateMutability":"nonpayable"},{"type":"function","name":"initialize","inputs":[{"name":"_value","type":"uint256","internalType":"uint256"}],"outputs":[],"stateMutability":"nonpayable"},{"type":"function","name":"owner","inputs":[],"outputs":[{"name":"","type":"address","internalType":"address"}],"stateMutability":"view"},{"type":"function","name":"proxiableUUID","inputs":[],"outputs":[{"name":"","type":"bytes32","internalType":"bytes32"}],"stateMutability":"view"},{"type":"function","name":"renounceOwnership","inputs":[],"outputs":[],"stateMutability":"nonpayable"},{"type":"function","name":"transferOwnership","inputs":[{"name":"newOwner","type":"address","internalType":"address"}],"outputs":[],"stateMutability":"nonpayable"},{"type":"function","name":"upgradeTo","inputs":[{"name":"newImplementation","type":"address","internalType":"address"}],"outputs":[],"stateMutability":"nonpayable"},{"type":"function","name":"upgradeToAndCall","inputs":[{"name":"newImplementation","type":"address","internalType":"address"},{"name":"data","type":"bytes","internalType":"bytes"}],"outputs":[],"stateMutability":"payable"},{"type":"function","name":"value","inputs":[],"outputs":[{"name":"","type":"uint256","internalType":"uint256"}],"stateMutability":"view"},{"type":"event","name":"AdminChanged","inputs":[{"name":"previousAdmin","type":"address","indexed":false,"internalType":"address"},{"name":"newAdmin","type":"address","indexed":false,"internalType":"address"}],"anonymous":false},{"type":"event","name":"BeaconUpgraded","inputs":[{"name":"beacon","type":"address","indexed":true,"internalType":"address"}],"anonymous":false},{"type":"event","name":"Initialized","inputs":[{"name":"version","type":"uint8","indexed":false,"internalType":"uint8"}],"anonymous":false},{"type":"event","name":"OwnershipTransferred","inputs":[{"name":"previousOwner","type":"address","indexed":true,"internalType":"address"},{"name":"newOwner","type":"address","indexed":true,"internalType":"address"}],"anonymous":false},{"type":"event","name":"Upgraded","inputs":[{"name":"implementation","type":"address","indexed":true,"internalType":"address"}],"anonymous":false}],"bytecode":{"object":"0x60a06040523073ffffffffffffffffffffffffffffffffffffffff1660809073ffffffffffffffffffffffffffffffffffffffff1681525034801562000043575f80fd5b50620000546200005a60201b60201c565b620001f9565b5f60019054906101000a900460ff1615620000ac576040517f08c379a0000000000000000000000000000000000000000000000000000000008152600401620000a390620001a1565b60405180910390fd5b60ff80165f8054906101000a900460ff1660ff16146200011b5760ff5f806101000a81548160ff021916908360ff1602179055507f7f26b83ff96e1f2b6a682f133852f6798a09c465da95921460cefb384740249860ff604051620001129190620001de565b60405180910390a15b565b5f82825260208201905092915050565b7f496e697469616c697a61626c653a20636f6e747261637420697320696e6974695f8201527f616c697a696e6700000000000000000000000000000000000000000000000000602082015250565b5f620001896027836200011d565b915062000196826200012d565b604082019050919050565b5f6020820190508181035f830152620001ba816200017b565b9050919050565b5f60ff82169050919050565b620001d881620001c1565b82525050565b5f602082019050620001f35f830184620001cd565b92915050565b6080516118a66200022e5f395f81816101a80152818161023601528181610334015281816103c2015261047101526118a65ff3fe60806040526004361061007a575f3560e01c8063715018a61161004d578063715018a6146101165780638da5cb5b1461012c578063f2fde38b14610156578063fe4b84df1461017e5761007a565b80633659cfe61461007e5780633fa4f245146100a65780634f1ef286146100d057806352d1902d146100ec575b5f80fd5b348015610089575f80fd5b506100a4600480360381019061009f9190610e2b565b6101a6565b005b3480156100b1575f80fd5b506100ba61032c565b6040516100c79190610e6e565b60405180910390f35b6100ea60048036038101906100e59190610fc3565b610332565b005b3480156100f7575f80fd5b5061010061046e565b60405161010d9190611035565b60405180910390f35b348015610121575f80fd5b5061012a610525565b005b348015610137575f80fd5b50610140610538565b60405161014d919061105d565b60405180910390f35b348015610161575f80fd5b5061017c60048036038101906101779190610e2b565b610560565b005b348015610189575f80fd5b506101a4600480360381019061019f91906110a0565b6105e2565b005b7f000000000000000000000000000000000000000000000000000000000000000073ffffffffffffffffffffffffffffffffffffffff163073ffffffffffffffffffffffffffffffffffffffff1603610234576040517f08c379a000000000000000000000000000000000000000000000000000000000815260040161022b9061114b565b60405180910390fd5b7f000000000000000000000000000000000000000000000000000000000000000073ffffffffffffffffffffffffffffffffffffffff16610273610722565b73ffffffffffffffffffffffffffffffffffffffff16146102c9576040517f08c379a00000000000000000000000000000000000000000000000000000000081526004016102c0906111d9565b60405180910390fd5b6102d281610775565b610329815f67ffffffffffffffff8111156102f0576102ef610e9f565b5b6040519080825280601f01601f1916602001820160405280156103225781602001600182028036833780820191505090505b505f610780565b50565b60c95481565b7f000000000000000000000000000000000000000000000000000000000000000073ffffffffffffffffffffffffffffffffffffffff163073ffffffffffffffffffffffffffffffffffffffff16036103c0576040517f08c379a00000000000000000000000000000000000000000000000000000000081526004016103b79061114b565b60405180910390fd5b7f000000000000000000000000000000000000000000000000000000000000000073ffffffffffffffffffffffffffffffffffffffff166103ff610722565b73ffffffffffffffffffffffffffffffffffffffff1614610455576040517f08c379a000000000000000000000000000000000000000000000000000000000815260040161044c906111d9565b60405180910390fd5b61045e82610775565b61046a82826001610780565b5050565b5f7f000000000000000000000000000000000000000000000000000000000000000073ffffffffffffffffffffffffffffffffffffffff163073ffffffffffffffffffffffffffffffffffffffff16146104fd576040517f08c379a00000000000000000000000000000000000000000000000000000000081526004016104f490611267565b60405180910390fd5b7f360894a13ba1a3210667c828492db98dca3e2076cc3735a920a3ca505d382bbc5f1b905090565b61052d6108ea565b6105365f610968565b565b5f60975f9054906101000a900473ffffffffffffffffffffffffffffffffffffffff16905090565b6105686108ea565b5f73ffffffffffffffffffffffffffffffffffffffff168173ffffffffffffffffffffffffffffffffffffffff16036105d6576040517f08c379a00000000000000000000000000000000000000000000000000000000081526004016105cd906112f5565b60405180910390fd5b6105df81610968565b50565b5f8060019054906101000a900460ff16159050808015610611575060015f8054906101000a900460ff1660ff16105b8061063d575061062030610a2b565b15801561063c575060015f8054906101000a900460ff1660ff16145b5b61067c576040517f08c379a000000000000000000000000000000000000000000000000000000000815260040161067390611383565b60405180910390fd5b60015f806101000a81548160ff021916908360ff16021790555080156106b75760015f60016101000a81548160ff0219169083151502179055505b8160c9819055506106c6610a4d565b801561071e575f8060016101000a81548160ff0219169083151502179055507f7f26b83ff96e1f2b6a682f133852f6798a09c465da95921460cefb3847402498600160405161071591906113ef565b60405180910390a15b5050565b5f61074e7f360894a13ba1a3210667c828492db98dca3e2076cc3735a920a3ca505d382bbc5f1b610aa5565b5f015f9054906101000a900473ffffffffffffffffffffffffffffffffffffffff16905090565b61077d6108ea565b50565b6107ab7f4910fdfa16fed3260ed0e7147f7cc6da11a60208b5b9406d12a635614ffd91435f1b610aae565b5f015f9054906101000a900460ff16156107cd576107c883610ab7565b6108e5565b8273ffffffffffffffffffffffffffffffffffffffff166352d1902d6040518163ffffffff1660e01b8152600401602060405180830381865afa92505050801561083557506040513d601f19601f820116820180604052508101906108329190611432565b60015b610874576040517f08c379a000000000000000000000000000000000000000000000000000000000815260040161086b906114cd565b60405180910390fd5b7f360894a13ba1a3210667c828492db98dca3e2076cc3735a920a3ca505d382bbc5f1b81146108d8576040517f08c379a00000000000000000000000000000000000000000000000000000000081526004016108cf9061155b565b60405180910390fd5b506108e4838383610b6d565b5b505050565b6108f2610b98565b73ffffffffffffffffffffffffffffffffffffffff16610910610538565b73ffffffffffffffffffffffffffffffffffffffff1614610966576040517f08c379a000000000000000000000000000000000000000000000000000000000815260040161095d906115c3565b60405180910390fd5b565b5f60975f9054906101000a900473ffffffffffffffffffffffffffffffffffffffff1690508160975f6101000a81548173ffffffffffffffffffffffffffffffffffffffff021916908373ffffffffffffffffffffffffffffffffffffffff1602179055508173ffffffffffffffffffffffffffffffffffffffff168173ffffffffffffffffffffffffffffffffffffffff167f8be0079c531659141344cd1fd0a4f28419497f9722a3daafe3b4186f6b6457e060405160405180910390a35050565b5f808273ffffffffffffffffffffffffffffffffffffffff163b119050919050565b5f60019054906101000a900460ff16610a9b576040517f08c379a0000000000000000000000000000000000000000000000000000000008152600401610a9290611651565b60405180910390fd5b610aa3610b9f565b565b5f819050919050565b5f819050919050565b610ac081610a2b565b610aff576040517f08c379a0000000000000000000000000000000000000000000000000000000008152600401610af6906116df565b60405180910390fd5b80610b2b7f360894a13ba1a3210667c828492db98dca3e2076cc3735a920a3ca505d382bbc5f1b610aa5565b5f015f6101000a81548173ffffffffffffffffffffffffffffffffffffffff021916908373ffffffffffffffffffffffffffffffffffffffff16021790555050565b610b7683610bff565b5f82511180610b825750805b15610b9357610b918383610c4e565b505b505050565b5f33905090565b5f60019054906101000a900460ff16610bed576040517f08c379a0000000000000000000000000000000000000000000000000000000008152600401610be490611651565b60405180910390fd5b610bfd610bf8610b98565b610968565b565b610c0881610ab7565b8073ffffffffffffffffffffffffffffffffffffffff167fbc7cd75a20ee27fd9adebab32041f755214dbc6bffa90cc0225b39da2e5c2d3b60405160405180910390a250565b6060610c73838360405180606001604052806027815260200161184a60279139610c7b565b905092915050565b60605f808573ffffffffffffffffffffffffffffffffffffffff1685604051610ca49190611769565b5f60405180830381855af49150503d805f8114610cdc576040519150601f19603f3d011682016040523d82523d5f602084013e610ce1565b606091505b5091509150610cf286838387610cfd565b925050509392505050565b60608315610d5e575f835103610d5657610d1685610a2b565b610d55576040517f08c379a0000000000000000000000000000000000000000000000000000000008152600401610d4c906117c9565b60405180910390fd5b5b829050610d69565b610d688383610d71565b5b949350505050565b5f82511115610d835781518083602001fd5b806040517f08c379a0000000000000000000000000000000000000000000000000000000008152600401610db79190611829565b60405180910390fd5b5f604051905090565b5f80fd5b5f80fd5b5f73ffffffffffffffffffffffffffffffffffffffff82169050919050565b5f610dfa82610dd1565b9050919050565b610e0a81610df0565b8114610e14575f80fd5b50565b5f81359050610e2581610e01565b92915050565b5f60208284031215610e4057610e3f610dc9565b5b5f610e4d84828501610e17565b91505092915050565b5f819050919050565b610e6881610e56565b82525050565b5f602082019050610e815f830184610e5f565b92915050565b5f80fd5b5f80fd5b5f601f19601f8301169050919050565b7f4e487b71000000000000000000000000000000000000000000000000000000005f52604160045260245ffd5b610ed582610e8f565b810181811067ffffffffffffffff82111715610ef457610ef3610e9f565b5b80604052505050565b5f610f06610dc0565b9050610f128282610ecc565b919050565b5f67ffffffffffffffff821115610f3157610f30610e9f565b5b610f3a82610e8f565b9050602081019050919050565b828183375f83830152505050565b5f610f67610f6284610f17565b610efd565b905082815260208101848484011115610f8357610f82610e8b565b5b610f8e848285610f47565b509392505050565b5f82601f830112610faa57610fa9610e87565b5b8135610fba848260208601610f55565b91505092915050565b5f8060408385031215610fd957610fd8610dc9565b5b5f610fe685828601610e17565b925050602083013567ffffffffffffffff81111561100757611006610dcd565b5b61101385828601610f96565b9150509250929050565b5f819050919050565b61102f8161101d565b82525050565b5f6020820190506110485f830184611026565b92915050565b61105781610df0565b82525050565b5f6020820190506110705f83018461104e565b92915050565b61107f81610e56565b8114611089575f80fd5b50565b5f8135905061109a81611076565b92915050565b5f602082840312156110b5576110b4610dc9565b5b5f6110c28482850161108c565b91505092915050565b5f82825260208201905092915050565b7f46756e6374696f6e206d7573742062652063616c6c6564207468726f756768205f8201527f64656c656761746563616c6c0000000000000000000000000000000000000000602082015250565b5f611135602c836110cb565b9150611140826110db565b604082019050919050565b5f6020820190508181035f83015261116281611129565b9050919050565b7f46756e6374696f6e206d7573742062652063616c6c6564207468726f756768205f8201527f6163746976652070726f78790000000000000000000000000000000000000000602082015250565b5f6111c3602c836110cb565b91506111ce82611169565b604082019050919050565b5f6020820190508181035f8301526111f0816111b7565b9050919050565b7f555550535570677261646561626c653a206d757374206e6f742062652063616c5f8201527f6c6564207468726f7567682064656c656761746563616c6c0000000000000000602082015250565b5f6112516038836110cb565b915061125c826111f7565b604082019050919050565b5f6020820190508181035f83015261127e81611245565b9050919050565b7f4f776e61626c653a206e6577206f776e657220697320746865207a65726f20615f8201527f6464726573730000000000000000000000000000000000000000000000000000602082015250565b5f6112df6026836110cb565b91506112ea82611285565b604082019050919050565b5f6020820190508181035f83015261130c816112d3565b9050919050565b7f496e697469616c697a61626c653a20636f6e747261637420697320616c7265615f8201527f647920696e697469616c697a6564000000000000000000000000000000000000602082015250565b5f61136d602e836110cb565b915061137882611313565b604082019050919050565b5f6020820190508181035f83015261139a81611361565b9050919050565b5f819050919050565b5f60ff82169050919050565b5f819050919050565b5f6113d96113d46113cf846113a1565b6113b6565b6113aa565b9050919050565b6113e9816113bf565b82525050565b5f6020820190506114025f8301846113e0565b92915050565b6114118161101d565b811461141b575f80fd5b50565b5f8151905061142c81611408565b92915050565b5f6020828403121561144757611446610dc9565b5b5f6114548482850161141e565b91505092915050565b7f45524331393637557067726164653a206e657720696d706c656d656e746174695f8201527f6f6e206973206e6f742055555053000000000000000000000000000000000000602082015250565b5f6114b7602e836110cb565b91506114c28261145d565b604082019050919050565b5f6020820190508181035f8301526114e4816114ab565b9050919050565b7f45524331393637557067726164653a20756e737570706f727465642070726f785f8201527f6961626c65555549440000000000000000000000000000000000000000000000602082015250565b5f6115456029836110cb565b9150611550826114eb565b604082019050919050565b5f6020820190508181035f83015261157281611539565b9050919050565b7f4f776e61626c653a2063616c6c6572206973206e6f7420746865206f776e65725f82015250565b5f6115ad6020836110cb565b91506115b882611579565b602082019050919050565b5f6020820190508181035f8301526115da816115a1565b9050919050565b7f496e697469616c697a61626c653a20636f6e7472616374206973206e6f7420695f8201527f6e697469616c697a696e67000000000000000000000000000000000000000000602082015250565b5f61163b602b836110cb565b9150611646826115e1565b604082019050919050565b5f6020820190508181035f8301526116688161162f565b9050919050565b7f455243313936373a206e657720696d706c656d656e746174696f6e206973206e5f8201527f6f74206120636f6e747261637400000000000000000000000000000000000000602082015250565b5f6116c9602d836110cb565b91506116d48261166f565b604082019050919050565b5f6020820190508181035f8301526116f6816116bd565b9050919050565b5f81519050919050565b5f81905092915050565b5f5b8381101561172e578082015181840152602081019050611713565b5f8484015250505050565b5f611743826116fd565b61174d8185611707565b935061175d818560208601611711565b80840191505092915050565b5f6117748284611739565b915081905092915050565b7f416464726573733a2063616c6c20746f206e6f6e2d636f6e74726163740000005f82015250565b5f6117b3601d836110cb565b91506117be8261177f565b602082019050919050565b5f6020820190508181035f8301526117e0816117a7565b9050919050565b5f81519050919050565b5f6117fb826117e7565b61180581856110cb565b9350611815818560208601611711565b61181e81610e8f565b840191505092915050565b5f6020820190508181035f83015261184181846117f1565b90509291505056fe416464726573733a206c6f772d6c6576656c2064656c65676174652063616c6c206661696c6564a2646970667358221220810fe55d2c05f59b163db9e9a4da42586eec328efa3da7570f1867433422a48264736f6c63430008140033","linkReferences":{}},"methodIdentifiers":{"initialize(uint256)":"fe4b84df","owner()":"8da5cb5b","proxiableUUID()":"52d1902d","renounceOwnership()":"715018a6","transferOwnership(address)":"f2fde38b","upgradeTo(address)":"3659cfe6","upgradeToAndCall(address,bytes)":"4f1ef286","value()":"3fa4f245"},"id":0}