{
  "_format": "hh-sol-artifact-1",
  "contractName": "MultiSigWallet",
  "sourceName": "contracts/MultiSigWallet.sol",
  "abi": [
    {
      "inputs": [
        {
          "internalType": "address[]",
          "name": "_owners",
          "type": "address[]"
        },
        {
          "internalType": "uint256",
          "name": "_required",
          "type": "uint256"
        }
      ],
      "stateMutability": "nonpayable",
      "type": "constructor"
    },
    {
      "anonymous": false,
      "inputs": [
        {
          "indexed": true,
          "internalType": "address",
          "name": "sender",
          "type": "address"
        },
        {
          "indexed": true,
          "internalType": "uint256",
          "name": "transactionId",
          "type": "uint256"
        }
      ],
      "name": "Confirmation",
      "type": "event"
    },
    {
      "anonymous": false,
      "inputs": [
        {
          "indexed": true,
          "internalType": "uint256",
          "name": "transactionId",
          "type": "uint256"
        }
      ],
      "name": "Execution",
      "type": "event"
    },
    {
      "anonymous": false,
      "inputs": [
        {
          "indexed": true,
          "internalType": "uint256",
          "name": "transactionId",
          "type": "uint256"
        }
      ],
      "name": "ExecutionFailure",
      "type": "event"
    },
    {
      "anonymous": false,
      "inputs": [
        {
          "indexed": true,
          "internalType": "uint256",
          "name": "transactionId",
          "type": "uint256"
        }
      ],
      "name": "Submission",
      "type": "event"
    },
    {
      "inputs": [
        {
          "internalType": "uint256",
          "name": "transactionId",
          "type": "uint256"
        }
      ],
      "name": "confirmTransaction",
      "outputs": [],
      "stateMutability": "nonpayable",
      "type": "function"
    },
    {
      "inputs": [
        {
          "internalType": "uint256",
          "name": "",
          "type": "uint256"
        },
        {
          "internalType": "address",
          "name": "",
          "type": "address"
        }
      ],
      "name": "confirmations",
      "outputs": [
        {
          "internalType": "bool",
          "name": "",
          "type": "bool"
        }
      ],
      "stateMutability": "view",
      "type": "function"
    },
    {
      "inputs": [
        {
          "internalType": "uint256",
          "name": "transactionId",
          "type": "uint256"
        }
      ],
      "name": "executeTransaction",
      "outputs": [],
      "stateMutability": "nonpayable",
      "type": "function"
    },
    {
      "inputs": [
        {
          "internalType": "uint256",
          "name": "transactionId",
          "type": "uint256"
        }
      ],
      "name": "getConfirmationCount",
      "outputs": [
        {
          "internalType": "uint256",
          "name": "count",
          "type": "uint256"
        }
      ],
      "stateMutability": "view",
      "type": "function"
    },
    {
      "inputs": [],
      "name": "getOwners",
      "outputs": [
        {
          "internalType": "address[]",
          "name": "",
          "type": "address[]"
        }
      ],
      "stateMutability": "view",
      "type": "function"
    },
    {
      "inputs": [
        {
          "internalType": "uint256",
          "name": "transactionId",
          "type": "uint256"
        }
      ],
      "name": "isConfirmed",
      "outputs": [
        {
          "internalType": "bool",
          "name": "",
          "type": "bool"
        }
      ],
      "stateMutability": "view",
      "type": "function"
    },
    {
      "inputs": [
        {
          "internalType": "address",
          "name": "",
          "type": "address"
        }
      ],
      "name": "isOwner",
      "outputs": [
        {
          "internalType": "bool",
          "name": "",
          "type": "bool"
        }
      ],
      "stateMutability": "view",
      "type": "function"
    },
    {
      "inputs": [
        {
          "internalType": "uint256",
          "name": "",
          "type": "uint256"
        }
      ],
      "name": "owners",
      "outputs": [
        {
          "internalType": "address",
          "name": "",
          "type": "address"
        }
      ],
      "stateMutability": "view",
      "type": "function"
    },
    {
      "inputs": [],
      "name": "required",
      "outputs": [
        {
          "internalType": "uint256",
          "name": "",
          "type": "uint256"
        }
      ],
      "stateMutability": "view",
      "type": "function"
    },
    {
      "inputs": [
        {
          "internalType": "address",
          "name": "destination",
          "type": "address"
        },
        {
          "internalType": "uint256",
          "name": "value",
          "type": "uint256"
        },
        {
          "internalType": "bytes",
          "name": "data",
          "type": "bytes"
        }
      ],
      "name": "submitTransaction",
      "outputs": [
        {
          "internalType": "uint256",
          "name": "transactionId",
          "type": "uint256"
        }
      ],
      "stateMutability": "nonpayable",
      "type": "function"
    },
    {
      "inputs": [
        {
          "internalType": "uint256",
          "name": "",
          "type": "uint256"
        }
      ],
      "name": "transactions",
      "outputs": [
        {
          "internalType": "address",
          "name": "destination",
          "type": "address"
        },
        {
          "internalType": "uint256",
          "name": "value",
          "type": "uint256"
        },
        {
          "internalType": "bytes",
          "name": "data",
          "type": "bytes"
        },
        {
          "internalType": "bool",
          "name": "executed",
          "type": "bool"
        }
      ],
      "stateMutability": "view",
      "type": "function"
    },
    {
      "stateMutability": "payable",
      "type": "receive"
    }
  ],
  "bytecode": "0x60806040523480156200001157600080fd5b506040516200214d3803806200214d833981810160405281019062000037919062000516565b60008251116200007e576040517f08c379a00000000000000000000000000000000000000000000000000000000081526004016200007590620005dd565b60405180910390fd5b60008111801562000090575081518111155b620000d2576040517f08c379a0000000000000000000000000000000000000000000000000000000008152600401620000c99062000675565b60405180910390fd5b60005b8251811015620002165760016000848381518110620000f957620000f862000697565b5b602002602001015173ffffffffffffffffffffffffffffffffffffffff1673ffffffffffffffffffffffffffffffffffffffff16815260200190815260200160002060009054906101000a900460ff16156200018c576040517f08c379a0000000000000000000000000000000000000000000000000000000008152600401620001839062000716565b60405180910390fd5b6001806000858481518110620001a757620001a662000697565b5b602002602001015173ffffffffffffffffffffffffffffffffffffffff1673ffffffffffffffffffffffffffffffffffffffff16815260200190815260200160002060006101000a81548160ff02191690831515021790555080806200020d9062000767565b915050620000d5565b5081600090805190602001906200022f9291906200023f565b50806002819055505050620007b4565b828054828255906000526020600020908101928215620002bb579160200282015b82811115620002ba5782518260006101000a81548173ffffffffffffffffffffffffffffffffffffffff021916908373ffffffffffffffffffffffffffffffffffffffff1602179055509160200191906001019062000260565b5b509050620002ca9190620002ce565b5090565b5b80821115620002e9576000816000905550600101620002cf565b5090565b6000604051905090565b600080fd5b600080fd5b600080fd5b6000601f19601f8301169050919050565b7f4e487b7100000000000000000000000000000000000000000000000000000000600052604160045260246000fd5b620003518262000306565b810181811067ffffffffffffffff8211171562000373576200037262000317565b5b80604052505050565b600062000388620002ed565b905062000396828262000346565b919050565b600067ffffffffffffffff821115620003b957620003b862000317565b5b602082029050602081019050919050565b600080fd5b600073ffffffffffffffffffffffffffffffffffffffff82169050919050565b6000620003fc82620003cf565b9050919050565b6200040e81620003ef565b81146200041a57600080fd5b50565b6000815190506200042e8162000403565b92915050565b60006200044b62000445846200039b565b6200037c565b90508083825260208201905060208402830185811115620004715762000470620003ca565b5b835b818110156200049e57806200048988826200041d565b84526020840193505060208101905062000473565b5050509392505050565b600082601f830112620004c057620004bf62000301565b5b8151620004d284826020860162000434565b91505092915050565b6000819050919050565b620004f081620004db565b8114620004fc57600080fd5b50565b6000815190506200051081620004e5565b92915050565b6000806040838503121562000530576200052f620002f7565b5b600083015167ffffffffffffffff811115620005515762000550620002fc565b5b6200055f85828601620004a8565b92505060206200057285828601620004ff565b9150509250929050565b600082825260208201905092915050565b7f4f776e6572732072657175697265642e00000000000000000000000000000000600082015250565b6000620005c56010836200057c565b9150620005d2826200058d565b602082019050919050565b60006020820190508181036000830152620005f881620005b6565b9050919050565b7f496e76616c6964207265717569726564206e756d626572206f66206f776e657260008201527f732e000000000000000000000000000000000000000000000000000000000000602082015250565b60006200065d6022836200057c565b91506200066a82620005ff565b604082019050919050565b6000602082019050818103600083015262000690816200064e565b9050919050565b7f4e487b7100000000000000000000000000000000000000000000000000000000600052603260045260246000fd5b7f4475706c6963617465206f776e65722e00000000000000000000000000000000600082015250565b6000620006fe6010836200057c565b91506200070b82620006c6565b602082019050919050565b600060208201905081810360008301526200073181620006ef565b9050919050565b7f4e487b7100000000000000000000000000000000000000000000000000000000600052601160045260246000fd5b60006200077482620004db565b91507fffffffffffffffffffffffffffffffffffffffffffffffffffffffffffffffff8203620007a957620007a862000738565b5b600182019050919050565b61198980620007c46000396000f3fe6080604052600436106100a05760003560e01c80639ace38c2116100645780639ace38c2146101dd578063a0e67e2b1461021d578063c01a8c8414610248578063c642747414610271578063dc8452cd146102ae578063ee22610b146102d9576100a7565b8063025e7c27146100ac5780632f54bf6e146100e95780633411c81c14610126578063784547a7146101635780638b51d13f146101a0576100a7565b366100a757005b600080fd5b3480156100b857600080fd5b506100d360048036038101906100ce9190610e53565b610302565b6040516100e09190610ec1565b60405180910390f35b3480156100f557600080fd5b50610110600480360381019061010b9190610f08565b610341565b60405161011d9190610f50565b60405180910390f35b34801561013257600080fd5b5061014d60048036038101906101489190610f6b565b610361565b60405161015a9190610f50565b60405180910390f35b34801561016f57600080fd5b5061018a60048036038101906101859190610e53565b610390565b6040516101979190610f50565b60405180910390f35b3480156101ac57600080fd5b506101c760048036038101906101c29190610e53565b61048a565b6040516101d49190610fba565b60405180910390f35b3480156101e957600080fd5b5061020460048036038101906101ff9190610e53565b610568565b6040516102149493929190611065565b60405180910390f35b34801561022957600080fd5b5061023261065d565b60405161023f919061116f565b60405180910390f35b34801561025457600080fd5b5061026f600480360381019061026a9190610e53565b6106eb565b005b34801561027d57600080fd5b50610298600480360381019061029391906112c6565b61098e565b6040516102a59190610fba565b60405180910390f35b3480156102ba57600080fd5b506102c3610b46565b6040516102d09190610fba565b60405180910390f35b3480156102e557600080fd5b5061030060048036038101906102fb9190610e53565b610b4c565b005b6000818154811061031257600080fd5b906000526020600020016000915054906101000a900473ffffffffffffffffffffffffffffffffffffffff1681565b60016020528060005260406000206000915054906101000a900460ff1681565b60046020528160005260406000206020528060005260406000206000915091509054906101000a900460ff1681565b6000806000905060005b60008054905081101561047e576004600085815260200190815260200160002060008083815481106103cf576103ce611335565b5b9060005260206000200160009054906101000a900473ffffffffffffffffffffffffffffffffffffffff1673ffffffffffffffffffffffffffffffffffffffff1673ffffffffffffffffffffffffffffffffffffffff16815260200190815260200160002060009054906101000a900460ff1615610457576001826104549190611393565b91505b600254820361046b57600192505050610485565b8080610476906113c7565b91505061039a565b5060009150505b919050565b600080600090505b600080549050811015610562576004600084815260200190815260200160002060008083815481106104c7576104c6611335565b5b9060005260206000200160009054906101000a900473ffffffffffffffffffffffffffffffffffffffff1673ffffffffffffffffffffffffffffffffffffffff1673ffffffffffffffffffffffffffffffffffffffff16815260200190815260200160002060009054906101000a900460ff161561054f5760018261054c9190611393565b91505b808061055a906113c7565b915050610492565b50919050565b6003818154811061057857600080fd5b90600052602060002090600402016000915090508060000160009054906101000a900473ffffffffffffffffffffffffffffffffffffffff16908060010154908060020180546105c79061143e565b80601f01602080910402602001604051908101604052809291908181526020018280546105f39061143e565b80156106405780601f1061061557610100808354040283529160200191610640565b820191906000526020600020905b81548152906001019060200180831161062357829003601f168201915b5050505050908060030160009054906101000a900460ff16905084565b606060008054806020026020016040519081016040528092919081815260200182805480156106e157602002820191906000526020600020905b8160009054906101000a900473ffffffffffffffffffffffffffffffffffffffff1673ffffffffffffffffffffffffffffffffffffffff1681526020019060010190808311610697575b5050505050905090565b600160003373ffffffffffffffffffffffffffffffffffffffff1673ffffffffffffffffffffffffffffffffffffffff16815260200190815260200160002060009054906101000a900460ff16610777576040517f08c379a000000000000000000000000000000000000000000000000000000000815260040161076e906114cc565b60405180910390fd5b8060038054905081106107bf576040517f08c379a00000000000000000000000000000000000000000000000000000000081526004016107b690611538565b60405180910390fd5b81600381815481106107d4576107d3611335565b5b906000526020600020906004020160030160009054906101000a900460ff1615610833576040517f08c379a000000000000000000000000000000000000000000000000000000000815260040161082a906115a4565b60405180910390fd5b826004600082815260200190815260200160002060003373ffffffffffffffffffffffffffffffffffffffff1673ffffffffffffffffffffffffffffffffffffffff16815260200190815260200160002060009054906101000a900460ff16156108d2576040517f08c379a00000000000000000000000000000000000000000000000000000000081526004016108c990611610565b60405180910390fd5b60016004600086815260200190815260200160002060003373ffffffffffffffffffffffffffffffffffffffff1673ffffffffffffffffffffffffffffffffffffffff16815260200190815260200160002060006101000a81548160ff021916908315150217905550833373ffffffffffffffffffffffffffffffffffffffff167f4a504a94899432a9846e1aa406dceb1bcfd538bb839071d49d1e5e23f5be30ef60405160405180910390a361098884610b4c565b50505050565b6000600160003373ffffffffffffffffffffffffffffffffffffffff1673ffffffffffffffffffffffffffffffffffffffff16815260200190815260200160002060009054906101000a900460ff16610a1c576040517f08c379a0000000000000000000000000000000000000000000000000000000008152600401610a13906114cc565b60405180910390fd5b6003805490509050600360405180608001604052808673ffffffffffffffffffffffffffffffffffffffff16815260200185815260200184815260200160001515815250908060018154018082558091505060019003906000526020600020906004020160009091909190915060008201518160000160006101000a81548173ffffffffffffffffffffffffffffffffffffffff021916908373ffffffffffffffffffffffffffffffffffffffff160217905550602082015181600101556040820151816002019081610aef91906117dc565b5060608201518160030160006101000a81548160ff0219169083151502179055505050807fc0ba8fe4b176c1714197d43b9cc6bcf797a4a7461c5fe8d0ef6e184ae7601e5160405160405180910390a29392505050565b60025481565b600160003373ffffffffffffffffffffffffffffffffffffffff1673ffffffffffffffffffffffffffffffffffffffff16815260200190815260200160002060009054906101000a900460ff16610bd8576040517f08c379a0000000000000000000000000000000000000000000000000000000008152600401610bcf906114cc565b60405180910390fd5b806003805490508110610c20576040517f08c379a0000000000000000000000000000000000000000000000000000000008152600401610c1790611538565b60405180910390fd5b8160038181548110610c3557610c34611335565b5b906000526020600020906004020160030160009054906101000a900460ff1615610c94576040517f08c379a0000000000000000000000000000000000000000000000000000000008152600401610c8b906115a4565b60405180910390fd5b610c9d83610390565b15610e0457600060038481548110610cb857610cb7611335565b5b9060005260206000209060040201905060018160030160006101000a81548160ff02191690831515021790555060008160000160009054906101000a900473ffffffffffffffffffffffffffffffffffffffff1673ffffffffffffffffffffffffffffffffffffffff16826001015483600201604051610d38919061193c565b60006040518083038185875af1925050503d8060008114610d75576040519150601f19603f3d011682016040523d82523d6000602084013e610d7a565b606091505b505090508015610db657847f33e13ecb54c3076d8e8bb8c2881800a4d972b792045ffae98fdf46df365fed7560405160405180910390a2610e01565b847f526441bb6c1aba3c9a4a6ca1d6545da9c2333c8c48343ef398eb858d72b7923660405160405180910390a260008260030160006101000a81548160ff0219169083151502179055505b50505b505050565b6000604051905090565b600080fd5b600080fd5b6000819050919050565b610e3081610e1d565b8114610e3b57600080fd5b50565b600081359050610e4d81610e27565b92915050565b600060208284031215610e6957610e68610e13565b5b6000610e7784828501610e3e565b91505092915050565b600073ffffffffffffffffffffffffffffffffffffffff82169050919050565b6000610eab82610e80565b9050919050565b610ebb81610ea0565b82525050565b6000602082019050610ed66000830184610eb2565b92915050565b610ee581610ea0565b8114610ef057600080fd5b50565b600081359050610f0281610edc565b92915050565b600060208284031215610f1e57610f1d610e13565b5b6000610f2c84828501610ef3565b91505092915050565b60008115159050919050565b610f4a81610f35565b82525050565b6000602082019050610f656000830184610f41565b92915050565b60008060408385031215610f8257610f81610e13565b5b6000610f9085828601610e3e565b9250506020610fa185828601610ef3565b9150509250929050565b610fb481610e1d565b82525050565b6000602082019050610fcf6000830184610fab565b92915050565b600081519050919050565b600082825260208201905092915050565b60005b8381101561100f578082015181840152602081019050610ff4565b60008484015250505050565b6000601f19601f8301169050919050565b600061103782610fd5565b6110418185610fe0565b9350611051818560208601610ff1565b61105a8161101b565b840191505092915050565b600060808201905061107a6000830187610eb2565b6110876020830186610fab565b8181036040830152611099818561102c565b90506110a86060830184610f41565b95945050505050565b600081519050919050565b600082825260208201905092915050565b6000819050602082019050919050565b6110e681610ea0565b82525050565b60006110f883836110dd565b60208301905092915050565b6000602082019050919050565b600061111c826110b1565b61112681856110bc565b9350611131836110cd565b8060005b8381101561116257815161114988826110ec565b975061115483611104565b925050600181019050611135565b5085935050505092915050565b600060208201905081810360008301526111898184611111565b905092915050565b600080fd5b600080fd5b7f4e487b7100000000000000000000000000000000000000000000000000000000600052604160045260246000fd5b6111d38261101b565b810181811067ffffffffffffffff821117156111f2576111f161119b565b5b80604052505050565b6000611205610e09565b905061121182826111ca565b919050565b600067ffffffffffffffff8211156112315761123061119b565b5b61123a8261101b565b9050602081019050919050565b82818337600083830152505050565b600061126961126484611216565b6111fb565b90508281526020810184848401111561128557611284611196565b5b611290848285611247565b509392505050565b600082601f8301126112ad576112ac611191565b5b81356112bd848260208601611256565b91505092915050565b6000806000606084860312156112df576112de610e13565b5b60006112ed86828701610ef3565b93505060206112fe86828701610e3e565b925050604084013567ffffffffffffffff81111561131f5761131e610e18565b5b61132b86828701611298565b9150509250925092565b7f4e487b7100000000000000000000000000000000000000000000000000000000600052603260045260246000fd5b7f4e487b7100000000000000000000000000000000000000000000000000000000600052601160045260246000fd5b600061139e82610e1d565b91506113a983610e1d565b92508282019050808211156113c1576113c0611364565b5b92915050565b60006113d282610e1d565b91507fffffffffffffffffffffffffffffffffffffffffffffffffffffffffffffffff820361140457611403611364565b5b600182019050919050565b7f4e487b7100000000000000000000000000000000000000000000000000000000600052602260045260246000fd5b6000600282049050600182168061145657607f821691505b6020821081036114695761146861140f565b5b50919050565b600082825260208201905092915050565b7f4e6f7420616e206f776e65722e00000000000000000000000000000000000000600082015250565b60006114b6600d8361146f565b91506114c182611480565b602082019050919050565b600060208201905081810360008301526114e5816114a9565b9050919050565b7f5472616e73616374696f6e20646f6573206e6f742065786973742e0000000000600082015250565b6000611522601b8361146f565b915061152d826114ec565b602082019050919050565b6000602082019050818103600083015261155181611515565b9050919050565b7f5472616e73616374696f6e20616c72656164792065786563757465642e000000600082015250565b600061158e601d8361146f565b915061159982611558565b602082019050919050565b600060208201905081810360008301526115bd81611581565b9050919050565b7f5472616e73616374696f6e20616c726561647920636f6e6669726d65642e0000600082015250565b60006115fa601e8361146f565b9150611605826115c4565b602082019050919050565b60006020820190508181036000830152611629816115ed565b9050919050565b60008190508160005260206000209050919050565b60006020601f8301049050919050565b600082821b905092915050565b6000600883026116927fffffffffffffffffffffffffffffffffffffffffffffffffffffffffffffffff82611655565b61169c8683611655565b95508019841693508086168417925050509392505050565b6000819050919050565b60006116d96116d46116cf84610e1d565b6116b4565b610e1d565b9050919050565b6000819050919050565b6116f3836116be565b6117076116ff826116e0565b848454611662565b825550505050565b600090565b61171c61170f565b6117278184846116ea565b505050565b5b8181101561174b57611740600082611714565b60018101905061172d565b5050565b601f8211156117905761176181611630565b61176a84611645565b81016020851015611779578190505b61178d61178585611645565b83018261172c565b50505b505050565b600082821c905092915050565b60006117b360001984600802611795565b1980831691505092915050565b60006117cc83836117a2565b9150826002028217905092915050565b6117e582610fd5565b67ffffffffffffffff8111156117fe576117fd61119b565b5b611808825461143e565b61181382828561174f565b600060209050601f8311600181146118465760008415611834578287015190505b61183e85826117c0565b8655506118a6565b601f19841661185486611630565b60005b8281101561187c57848901518255600182019150602085019450602081019050611857565b868310156118995784890151611895601f8916826117a2565b8355505b6001600288020188555050505b505050505050565b600081905092915050565b600081546118c68161143e565b6118d081866118ae565b945060018216600081146118eb576001811461190057611933565b60ff1983168652811515820286019350611933565b61190985611630565b60005b8381101561192b5781548189015260018201915060208101905061190c565b838801955050505b50505092915050565b600061194882846118b9565b91508190509291505056fea2646970667358221220ea0093ea71f8a610f72e399f757ba3e462cee2a297128ebf7bf23e73e554e35c64736f6c63430008140033",
  "linkReferences": {},
  "deployedLinkReferences": {}
}