{
  "_format": "hh-sol-artifact-1",
  "contractName": "MultiSigWallet",
  "sourceName": "contracts/MultiSigWallet.sol",
  "abi": [
    {
      "inputs": [
        {
          "internalType": "address[]",
          "name": "_owners",
          "type": "address[]"
        },
        {
          "internalType": "uint256",
          "name": "_required",
          "type": "uint256"
        }
      ],
      "stateMutability": "nonpayable",
      "type": "constructor"
    },
    {
      "anonymous": false,
      "inputs": [
        {
          "indexed": true,
          "internalType": "address",
          "name": "sender",
          "type": "address"
        },
        {
          "indexed": true,
          "internalType": "uint256",
          "name": "transactionId",
          "type": "uint256"
        }
      ],
      "name": "Confirmation",
      "type": "event"
    },
    {
      "anonymous": false,
      "inputs": [
        {
          "indexed": true,
          "internalType": "uint256",
          "name": "transactionId",
          "type": "uint256"
        }
      ],
      "name": "Execution",
      "type": "event"
    },
    {
      "anonymous": false,
      "inputs": [
        {
          "indexed": true,
          "internalType": "uint256",
          "name": "transactionId",
          "type": "uint256"
        }
      ],
      "name": "ExecutionFailure",
      "type": "event"
    },
    {
      "anonymous": false,
      "inputs": [
        {
          "indexed": true,
          "internalType": "uint256",
          "name": "transactionId",
          "type": "uint256"
        }
      ],
      "name": "Submission",
      "type": "event"
    },
    {
      "inputs": [
        {
          "internalType": "uint256",
          "name": "transactionId",
          "type": "uint256"
        }
      ],
      "name": "confirmTransaction",
      "outputs": [],
      "stateMutability": "nonpayable",
      "type": "function"
    },
    {
      "inputs": [
        {
          "internalType": "uint256",
          "name": "",
          "type": "uint256"
        },
        {
          "internalType": "address",
          "name": "",
          "type": "address"
        }
      ],
      "name": "confirmations",
      "outputs": [
        {
          "internalType": "bool",
          "name": "",
          "type": "bool"
        }
      ],
      "stateMutability": "view",
      "type": "function"
    },
    {
      "inputs": [
        {
          "internalType": "uint256",
          "name": "transactionId",
          "type": "uint256"
        }
      ],
      "name": "executeTransaction",
      "outputs": [],
      "stateMutability": "nonpayable",
      "type": "function"
    },
    {
      "inputs": [
        {
          "internalType": "uint256",
          "name": "transactionId",
          "type": "uint256"
        }
      ],
      "name": "isConfirmed",
      "outputs": [
        {
          "internalType": "bool",
          "name": "",
          "type": "bool"
        }
      ],
      "stateMutability": "view",
      "type": "function"
    },
    {
      "inputs": [
        {
          "internalType": "address",
          "name": "",
          "type": "address"
        }
      ],
      "name": "isOwner",
      "outputs": [
        {
          "internalType": "bool",
          "name": "",
          "type": "bool"
        }
      ],
      "stateMutability": "view",
      "type": "function"
    },
    {
      "inputs": [
        {
          "internalType": "uint256",
          "name": "",
          "type": "uint256"
        }
      ],
      "name": "owners",
      "outputs": [
        {
          "internalType": "address",
          "name": "",
          "type": "address"
        }
      ],
      "stateMutability": "view",
      "type": "function"
    },
    {
      "inputs": [],
      "name": "required",
      "outputs": [
        {
          "internalType": "uint256",
          "name": "",
          "type": "uint256"
        }
      ],
      "stateMutability": "view",
      "type": "function"
    },
    {
      "inputs": [
        {
          "internalType": "address",
          "name": "destination",
          "type": "address"
        },
        {
          "internalType": "uint256",
          "name": "value",
          "type": "uint256"
        },
        {
          "internalType": "bytes",
          "name": "data",
          "type": "bytes"
        }
      ],
      "name": "submitTransaction",
      "outputs": [
        {
          "internalType": "uint256",
          "name": "transactionId",
          "type": "uint256"
        }
      ],
      "stateMutability": "nonpayable",
      "type": "function"
    },
    {
      "inputs": [
        {
          "internalType": "uint256",
          "name": "",
          "type": "uint256"
        }
      ],
      "name": "transactions",
      "outputs": [
        {
          "internalType": "address",
          "name": "destination",
          "type": "address"
        },
        {
          "internalType": "uint256",
          "name": "value",
          "type": "uint256"
        },
        {
          "internalType": "bytes",
          "name": "data",
          "type": "bytes"
        },
        {
          "internalType": "bool",
          "name": "executed",
          "type": "bool"
        }
      ],
      "stateMutability": "view",
      "type": "function"
    },
    {
      "stateMutability": "payable",
      "type": "receive"
    }
  ],
  "bytecode": "0x60806040523480156200001157600080fd5b5060405162001e8338038062001e83833981810160405281019062000037919062000516565b60008251116200007e576040517f08c379a00000000000000000000000000000000000000000000000000000000081526004016200007590620005dd565b60405180910390fd5b60008111801562000090575081518111155b620000d2576040517f08c379a0000000000000000000000000000000000000000000000000000000008152600401620000c99062000675565b60405180910390fd5b60005b8251811015620002165760016000848381518110620000f957620000f862000697565b5b602002602001015173ffffffffffffffffffffffffffffffffffffffff1673ffffffffffffffffffffffffffffffffffffffff16815260200190815260200160002060009054906101000a900460ff16156200018c576040517f08c379a0000000000000000000000000000000000000000000000000000000008152600401620001839062000716565b60405180910390fd5b6001806000858481518110620001a757620001a662000697565b5b602002602001015173ffffffffffffffffffffffffffffffffffffffff1673ffffffffffffffffffffffffffffffffffffffff16815260200190815260200160002060006101000a81548160ff02191690831515021790555080806200020d9062000767565b915050620000d5565b5081600090805190602001906200022f9291906200023f565b50806002819055505050620007b4565b828054828255906000526020600020908101928215620002bb579160200282015b82811115620002ba5782518260006101000a81548173ffffffffffffffffffffffffffffffffffffffff021916908373ffffffffffffffffffffffffffffffffffffffff1602179055509160200191906001019062000260565b5b509050620002ca9190620002ce565b5090565b5b80821115620002e9576000816000905550600101620002cf565b5090565b6000604051905090565b600080fd5b600080fd5b600080fd5b6000601f19601f8301169050919050565b7f4e487b7100000000000000000000000000000000000000000000000000000000600052604160045260246000fd5b620003518262000306565b810181811067ffffffffffffffff8211171562000373576200037262000317565b5b80604052505050565b600062000388620002ed565b905062000396828262000346565b919050565b600067ffffffffffffffff821115620003b957620003b862000317565b5b602082029050602081019050919050565b600080fd5b600073ffffffffffffffffffffffffffffffffffffffff82169050919050565b6000620003fc82620003cf565b9050919050565b6200040e81620003ef565b81146200041a57600080fd5b50565b6000815190506200042e8162000403565b92915050565b60006200044b62000445846200039b565b6200037c565b90508083825260208201905060208402830185811115620004715762000470620003ca565b5b835b818110156200049e57806200048988826200041d565b84526020840193505060208101905062000473565b5050509392505050565b600082601f830112620004c057620004bf62000301565b5b8151620004d284826020860162000434565b91505092915050565b6000819050919050565b620004f081620004db565b8114620004fc57600080fd5b50565b6000815190506200051081620004e5565b92915050565b6000806040838503121562000530576200052f620002f7565b5b600083015167ffffffffffffffff811115620005515762000550620002fc565b5b6200055f85828601620004a8565b92505060206200057285828601620004ff565b9150509250929050565b600082825260208201905092915050565b7f4f776e6572732072657175697265642e00000000000000000000000000000000600082015250565b6000620005c56010836200057c565b9150620005d2826200058d565b602082019050919050565b60006020820190508181036000830152620005f881620005b6565b9050919050565b7f496e76616c6964207265717569726564206e756d626572206f66206f776e657260008201527f732e000000000000000000000000000000000000000000000000000000000000602082015250565b60006200065d6022836200057c565b91506200066a82620005ff565b604082019050919050565b6000602082019050818103600083015262000690816200064e565b9050919050565b7f4e487b7100000000000000000000000000000000000000000000000000000000600052603260045260246000fd5b7f4475706c6963617465206f776e65722e00000000000000000000000000000000600082015250565b6000620006fe6010836200057c565b91506200070b82620006c6565b602082019050919050565b600060208201905081810360008301526200073181620006ef565b9050919050565b7f4e487b7100000000000000000000000000000000000000000000000000000000600052601160045260246000fd5b60006200077482620004db565b91507fffffffffffffffffffffffffffffffffffffffffffffffffffffffffffffffff8203620007a957620007a862000738565b5b600182019050919050565b6116bf80620007c46000396000f3fe60806040526004361061008a5760003560e01c80639ace38c2116100595780639ace38c21461018a578063c01a8c84146101ca578063c6427474146101f3578063dc8452cd14610230578063ee22610b1461025b57610091565b8063025e7c27146100965780632f54bf6e146100d35780633411c81c14610110578063784547a71461014d57610091565b3661009157005b600080fd5b3480156100a257600080fd5b506100bd60048036038101906100b89190610c69565b610284565b6040516100ca9190610cd7565b60405180910390f35b3480156100df57600080fd5b506100fa60048036038101906100f59190610d1e565b6102c3565b6040516101079190610d66565b60405180910390f35b34801561011c57600080fd5b5061013760048036038101906101329190610d81565b6102e3565b6040516101449190610d66565b60405180910390f35b34801561015957600080fd5b50610174600480360381019061016f9190610c69565b610312565b6040516101819190610d66565b60405180910390f35b34801561019657600080fd5b506101b160048036038101906101ac9190610c69565b61040c565b6040516101c19493929190610e60565b60405180910390f35b3480156101d657600080fd5b506101f160048036038101906101ec9190610c69565b610501565b005b3480156101ff57600080fd5b5061021a60048036038101906102159190610fe1565b6107a4565b6040516102279190611050565b60405180910390f35b34801561023c57600080fd5b5061024561095c565b6040516102529190611050565b60405180910390f35b34801561026757600080fd5b50610282600480360381019061027d9190610c69565b610962565b005b6000818154811061029457600080fd5b906000526020600020016000915054906101000a900473ffffffffffffffffffffffffffffffffffffffff1681565b60016020528060005260406000206000915054906101000a900460ff1681565b60046020528160005260406000206020528060005260406000206000915091509054906101000a900460ff1681565b6000806000905060005b600080549050811015610400576004600085815260200190815260200160002060008083815481106103515761035061106b565b5b9060005260206000200160009054906101000a900473ffffffffffffffffffffffffffffffffffffffff1673ffffffffffffffffffffffffffffffffffffffff1673ffffffffffffffffffffffffffffffffffffffff16815260200190815260200160002060009054906101000a900460ff16156103d9576001826103d691906110c9565b91505b60025482036103ed57600192505050610407565b80806103f8906110fd565b91505061031c565b5060009150505b919050565b6003818154811061041c57600080fd5b90600052602060002090600402016000915090508060000160009054906101000a900473ffffffffffffffffffffffffffffffffffffffff169080600101549080600201805461046b90611174565b80601f016020809104026020016040519081016040528092919081815260200182805461049790611174565b80156104e45780601f106104b9576101008083540402835291602001916104e4565b820191906000526020600020905b8154815290600101906020018083116104c757829003601f168201915b5050505050908060030160009054906101000a900460ff16905084565b600160003373ffffffffffffffffffffffffffffffffffffffff1673ffffffffffffffffffffffffffffffffffffffff16815260200190815260200160002060009054906101000a900460ff1661058d576040517f08c379a000000000000000000000000000000000000000000000000000000000815260040161058490611202565b60405180910390fd5b8060038054905081106105d5576040517f08c379a00000000000000000000000000000000000000000000000000000000081526004016105cc9061126e565b60405180910390fd5b81600381815481106105ea576105e961106b565b5b906000526020600020906004020160030160009054906101000a900460ff1615610649576040517f08c379a0000000000000000000000000000000000000000000000000000000008152600401610640906112da565b60405180910390fd5b826004600082815260200190815260200160002060003373ffffffffffffffffffffffffffffffffffffffff1673ffffffffffffffffffffffffffffffffffffffff16815260200190815260200160002060009054906101000a900460ff16156106e8576040517f08c379a00000000000000000000000000000000000000000000000000000000081526004016106df90611346565b60405180910390fd5b60016004600086815260200190815260200160002060003373ffffffffffffffffffffffffffffffffffffffff1673ffffffffffffffffffffffffffffffffffffffff16815260200190815260200160002060006101000a81548160ff021916908315150217905550833373ffffffffffffffffffffffffffffffffffffffff167f4a504a94899432a9846e1aa406dceb1bcfd538bb839071d49d1e5e23f5be30ef60405160405180910390a361079e84610962565b50505050565b6000600160003373ffffffffffffffffffffffffffffffffffffffff1673ffffffffffffffffffffffffffffffffffffffff16815260200190815260200160002060009054906101000a900460ff16610832576040517f08c379a000000000000000000000000000000000000000000000000000000000815260040161082990611202565b60405180910390fd5b6003805490509050600360405180608001604052808673ffffffffffffffffffffffffffffffffffffffff16815260200185815260200184815260200160001515815250908060018154018082558091505060019003906000526020600020906004020160009091909190915060008201518160000160006101000a81548173ffffffffffffffffffffffffffffffffffffffff021916908373ffffffffffffffffffffffffffffffffffffffff1602179055506020820151816001015560408201518160020190816109059190611512565b5060608201518160030160006101000a81548160ff0219169083151502179055505050807fc0ba8fe4b176c1714197d43b9cc6bcf797a4a7461c5fe8d0ef6e184ae7601e5160405160405180910390a29392505050565b60025481565b600160003373ffffffffffffffffffffffffffffffffffffffff1673ffffffffffffffffffffffffffffffffffffffff16815260200190815260200160002060009054906101000a900460ff166109ee576040517f08c379a00000000000000000000000000000000000000000000000000000000081526004016109e590611202565b60405180910390fd5b806003805490508110610a36576040517f08c379a0000000000000000000000000000000000000000000000000000000008152600401610a2d9061126e565b60405180910390fd5b8160038181548110610a4b57610a4a61106b565b5b906000526020600020906004020160030160009054906101000a900460ff1615610aaa576040517f08c379a0000000000000000000000000000000000000000000000000000000008152600401610aa1906112da565b60405180910390fd5b610ab383610312565b15610c1a57600060038481548110610ace57610acd61106b565b5b9060005260206000209060040201905060018160030160006101000a81548160ff02191690831515021790555060008160000160009054906101000a900473ffffffffffffffffffffffffffffffffffffffff1673ffffffffffffffffffffffffffffffffffffffff16826001015483600201604051610b4e9190611672565b60006040518083038185875af1925050503d8060008114610b8b576040519150601f19603f3d011682016040523d82523d6000602084013e610b90565b606091505b505090508015610bcc57847f33e13ecb54c3076d8e8bb8c2881800a4d972b792045ffae98fdf46df365fed7560405160405180910390a2610c17565b847f526441bb6c1aba3c9a4a6ca1d6545da9c2333c8c48343ef398eb858d72b7923660405160405180910390a260008260030160006101000a81548160ff0219169083151502179055505b50505b505050565b6000604051905090565b600080fd5b600080fd5b6000819050919050565b610c4681610c33565b8114610c5157600080fd5b50565b600081359050610c6381610c3d565b92915050565b600060208284031215610c7f57610c7e610c29565b5b6000610c8d84828501610c54565b91505092915050565b600073ffffffffffffffffffffffffffffffffffffffff82169050919050565b6000610cc182610c96565b9050919050565b610cd181610cb6565b82525050565b6000602082019050610cec6000830184610cc8565b92915050565b610cfb81610cb6565b8114610d0657600080fd5b50565b600081359050610d1881610cf2565b92915050565b600060208284031215610d3457610d33610c29565b5b6000610d4284828501610d09565b91505092915050565b60008115159050919050565b610d6081610d4b565b82525050565b6000602082019050610d7b6000830184610d57565b92915050565b60008060408385031215610d9857610d97610c29565b5b6000610da685828601610c54565b9250506020610db785828601610d09565b9150509250929050565b610dca81610c33565b82525050565b600081519050919050565b600082825260208201905092915050565b60005b83811015610e0a578082015181840152602081019050610def565b60008484015250505050565b6000601f19601f8301169050919050565b6000610e3282610dd0565b610e3c8185610ddb565b9350610e4c818560208601610dec565b610e5581610e16565b840191505092915050565b6000608082019050610e756000830187610cc8565b610e826020830186610dc1565b8181036040830152610e948185610e27565b9050610ea36060830184610d57565b95945050505050565b600080fd5b600080fd5b7f4e487b7100000000000000000000000000000000000000000000000000000000600052604160045260246000fd5b610eee82610e16565b810181811067ffffffffffffffff82111715610f0d57610f0c610eb6565b5b80604052505050565b6000610f20610c1f565b9050610f2c8282610ee5565b919050565b600067ffffffffffffffff821115610f4c57610f4b610eb6565b5b610f5582610e16565b9050602081019050919050565b82818337600083830152505050565b6000610f84610f7f84610f31565b610f16565b905082815260208101848484011115610fa057610f9f610eb1565b5b610fab848285610f62565b509392505050565b600082601f830112610fc857610fc7610eac565b5b8135610fd8848260208601610f71565b91505092915050565b600080600060608486031215610ffa57610ff9610c29565b5b600061100886828701610d09565b935050602061101986828701610c54565b925050604084013567ffffffffffffffff81111561103a57611039610c2e565b5b61104686828701610fb3565b9150509250925092565b60006020820190506110656000830184610dc1565b92915050565b7f4e487b7100000000000000000000000000000000000000000000000000000000600052603260045260246000fd5b7f4e487b7100000000000000000000000000000000000000000000000000000000600052601160045260246000fd5b60006110d482610c33565b91506110df83610c33565b92508282019050808211156110f7576110f661109a565b5b92915050565b600061110882610c33565b91507fffffffffffffffffffffffffffffffffffffffffffffffffffffffffffffffff820361113a5761113961109a565b5b600182019050919050565b7f4e487b7100000000000000000000000000000000000000000000000000000000600052602260045260246000fd5b6000600282049050600182168061118c57607f821691505b60208210810361119f5761119e611145565b5b50919050565b600082825260208201905092915050565b7f4e6f7420616e206f776e65722e00000000000000000000000000000000000000600082015250565b60006111ec600d836111a5565b91506111f7826111b6565b602082019050919050565b6000602082019050818103600083015261121b816111df565b9050919050565b7f5472616e73616374696f6e20646f6573206e6f742065786973742e0000000000600082015250565b6000611258601b836111a5565b915061126382611222565b602082019050919050565b600060208201905081810360008301526112878161124b565b9050919050565b7f5472616e73616374696f6e20616c72656164792065786563757465642e000000600082015250565b60006112c4601d836111a5565b91506112cf8261128e565b602082019050919050565b600060208201905081810360008301526112f3816112b7565b9050919050565b7f5472616e73616374696f6e20616c726561647920636f6e6669726d65642e0000600082015250565b6000611330601e836111a5565b915061133b826112fa565b602082019050919050565b6000602082019050818103600083015261135f81611323565b9050919050565b60008190508160005260206000209050919050565b60006020601f8301049050919050565b600082821b905092915050565b6000600883026113c87fffffffffffffffffffffffffffffffffffffffffffffffffffffffffffffffff8261138b565b6113d2868361138b565b95508019841693508086168417925050509392505050565b6000819050919050565b600061140f61140a61140584610c33565b6113ea565b610c33565b9050919050565b6000819050919050565b611429836113f4565b61143d61143582611416565b848454611398565b825550505050565b600090565b611452611445565b61145d818484611420565b505050565b5b818110156114815761147660008261144a565b600181019050611463565b5050565b601f8211156114c65761149781611366565b6114a08461137b565b810160208510156114af578190505b6114c36114bb8561137b565b830182611462565b50505b505050565b600082821c905092915050565b60006114e9600019846008026114cb565b1980831691505092915050565b600061150283836114d8565b9150826002028217905092915050565b61151b82610dd0565b67ffffffffffffffff81111561153457611533610eb6565b5b61153e8254611174565b611549828285611485565b600060209050601f83116001811461157c576000841561156a578287015190505b61157485826114f6565b8655506115dc565b601f19841661158a86611366565b60005b828110156115b25784890151825560018201915060208501945060208101905061158d565b868310156115cf57848901516115cb601f8916826114d8565b8355505b6001600288020188555050505b505050505050565b600081905092915050565b600081546115fc81611174565b61160681866115e4565b94506001821660008114611621576001811461163657611669565b60ff1983168652811515820286019350611669565b61163f85611366565b60005b8381101561166157815481890152600182019150602081019050611642565b838801955050505b50505092915050565b600061167e82846115ef565b91508190509291505056fea2646970667358221220666d096ee161651f5d834fc8b58e2faaebc28476e71d365d7d8b660d9cd89f6964736f6c63430008140033",
  "linkReferences": {},
  "deployedLinkReferences": {}
}