{"abi":[{"type":"constructor","inputs":[{"name":"tokenAddress","type":"address","internalType":"address"},{"name":"_withdrawalAmount","type":"uint256","internalType":"uint256"}],"stateMutability":"nonpayable"},{"type":"receive","stateMutability":"payable"},{"type":"function","name":"nextAccessTime","inputs":[{"name":"","type":"address","internalType":"address"}],"outputs":[{"name":"","type":"uint256","internalType":"uint256"}],"stateMutability":"view"},{"type":"function","name":"owner","inputs":[],"outputs":[{"name":"","type":"address","internalType":"address"}],"stateMutability":"view"},{"type":"function","name":"requestTokens","inputs":[],"outputs":[],"stateMutability":"nonpayable"},{"type":"function","name":"setWithdrawalAmount","inputs":[{"name":"newAmount","type":"uint256","internalType":"uint256"}],"outputs":[],"stateMutability":"nonpayable"},{"type":"function","name":"token","inputs":[],"outputs":[{"name":"","type":"address","internalType":"contract IERC20"}],"stateMutability":"view"},{"type":"function","name":"transferOwnership","inputs":[{"name":"newOwner","type":"address","internalType":"address"}],"outputs":[],"stateMutability":"nonpayable"},{"type":"function","name":"withdrawEther","inputs":[],"outputs":[],"stateMutability":"nonpayable"},{"type":"function","name":"withdrawTokens","inputs":[],"outputs":[],"stateMutability":"nonpayable"},{"type":"function","name":"withdrawalAmount","inputs":[],"outputs":[{"name":"","type":"uint256","internalType":"uint256"}],"stateMutability":"view"}],"bytecode":{"object":"0x608060405234801562000010575f80fd5b5060405162000f8038038062000f80833981810160405281019062000036919062000161565b335f806101000a81548173ffffffffffffffffffffffffffffffffffffffff021916908373ffffffffffffffffffffffffffffffffffffffff1602179055508160015f6101000a81548173ffffffffffffffffffffffffffffffffffffffff021916908373ffffffffffffffffffffffffffffffffffffffff160217905550806002819055505050620001a6565b5f80fd5b5f73ffffffffffffffffffffffffffffffffffffffff82169050919050565b5f620000f382620000c8565b9050919050565b6200010581620000e7565b811462000110575f80fd5b50565b5f815190506200012381620000fa565b92915050565b5f819050919050565b6200013d8162000129565b811462000148575f80fd5b50565b5f815190506200015b8162000132565b92915050565b5f80604083850312156200017a5762000179620000c4565b5b5f620001898582860162000113565b92505060206200019c858286016200014b565b9150509250929050565b610dcc80620001b45f395ff3fe608060405260043610610089575f3560e01c80638d8f2adb116100585780638d8f2adb146101245780638da5cb5b1461013a578063e6e268f414610164578063f2fde38b1461018e578063fc0c546a146101b657610090565b8063168ee33a14610094578063359cf2b7146100bc578063516fad0a146100d25780637362377b1461010e57610090565b3661009057005b5f80fd5b34801561009f575f80fd5b506100ba60048036038101906100b59190610826565b6101e0565b005b3480156100c7575f80fd5b506100d0610277565b005b3480156100dd575f80fd5b506100f860048036038101906100f391906108ab565b6103e8565b60405161010591906108e5565b60405180910390f35b348015610119575f80fd5b506101226103fd565b005b34801561012f575f80fd5b506101386104ef565b005b348015610145575f80fd5b5061014e6106d2565b60405161015b919061090d565b60405180910390f35b34801561016f575f80fd5b506101786106f5565b60405161018591906108e5565b60405180910390f35b348015610199575f80fd5b506101b460048036038101906101af91906108ab565b6106fb565b005b3480156101c1575f80fd5b506101ca6107ca565b6040516101d79190610981565b60405180910390f35b5f8054906101000a900473ffffffffffffffffffffffffffffffffffffffff1673ffffffffffffffffffffffffffffffffffffffff163373ffffffffffffffffffffffffffffffffffffffff161461026d576040517f08c379a000000000000000000000000000000000000000000000000000000000815260040161026490610a1a565b60405180910390fd5b8060028190555050565b60035f3373ffffffffffffffffffffffffffffffffffffffff1673ffffffffffffffffffffffffffffffffffffffff1681526020019081526020015f20544210156102f7576040517f08c379a00000000000000000000000000000000000000000000000000000000081526004016102ee90610aa8565b60405180910390fd5b60015f9054906101000a900473ffffffffffffffffffffffffffffffffffffffff1673ffffffffffffffffffffffffffffffffffffffff1663a9059cbb336002546040518363ffffffff1660e01b8152600401610355929190610ac6565b6020604051808303815f875af1158015610371573d5f803e3d5ffd5b505050506040513d601f19601f820116820180604052508101906103959190610b22565b5062015180426103a59190610b7a565b60035f3373ffffffffffffffffffffffffffffffffffffffff1673ffffffffffffffffffffffffffffffffffffffff1681526020019081526020015f2081905550565b6003602052805f5260405f205f915090505481565b5f8054906101000a900473ffffffffffffffffffffffffffffffffffffffff1673ffffffffffffffffffffffffffffffffffffffff163373ffffffffffffffffffffffffffffffffffffffff161461048a576040517f08c379a000000000000000000000000000000000000000000000000000000000815260040161048190610c1d565b60405180910390fd5b5f8054906101000a900473ffffffffffffffffffffffffffffffffffffffff1673ffffffffffffffffffffffffffffffffffffffff166108fc4790811502906040515f60405180830381858888f193505050501580156104ec573d5f803e3d5ffd5b50565b5f8054906101000a900473ffffffffffffffffffffffffffffffffffffffff1673ffffffffffffffffffffffffffffffffffffffff163373ffffffffffffffffffffffffffffffffffffffff161461057c576040517f08c379a000000000000000000000000000000000000000000000000000000000815260040161057390610cab565b60405180910390fd5b60015f9054906101000a900473ffffffffffffffffffffffffffffffffffffffff1673ffffffffffffffffffffffffffffffffffffffff1663a9059cbb5f8054906101000a900473ffffffffffffffffffffffffffffffffffffffff1660015f9054906101000a900473ffffffffffffffffffffffffffffffffffffffff1673ffffffffffffffffffffffffffffffffffffffff166370a08231306040518263ffffffff1660e01b8152600401610633919061090d565b602060405180830381865afa15801561064e573d5f803e3d5ffd5b505050506040513d601f19601f820116820180604052508101906106729190610cdd565b6040518363ffffffff1660e01b815260040161068f929190610ac6565b6020604051808303815f875af11580156106ab573d5f803e3d5ffd5b505050506040513d601f19601f820116820180604052508101906106cf9190610b22565b50565b5f8054906101000a900473ffffffffffffffffffffffffffffffffffffffff1681565b60025481565b5f8054906101000a900473ffffffffffffffffffffffffffffffffffffffff1673ffffffffffffffffffffffffffffffffffffffff163373ffffffffffffffffffffffffffffffffffffffff1614610788576040517f08c379a000000000000000000000000000000000000000000000000000000000815260040161077f90610d78565b60405180910390fd5b805f806101000a81548173ffffffffffffffffffffffffffffffffffffffff021916908373ffffffffffffffffffffffffffffffffffffffff16021790555050565b60015f9054906101000a900473ffffffffffffffffffffffffffffffffffffffff1681565b5f80fd5b5f819050919050565b610805816107f3565b811461080f575f80fd5b50565b5f81359050610820816107fc565b92915050565b5f6020828403121561083b5761083a6107ef565b5b5f61084884828501610812565b91505092915050565b5f73ffffffffffffffffffffffffffffffffffffffff82169050919050565b5f61087a82610851565b9050919050565b61088a81610870565b8114610894575f80fd5b50565b5f813590506108a581610881565b92915050565b5f602082840312156108c0576108bf6107ef565b5b5f6108cd84828501610897565b91505092915050565b6108df816107f3565b82525050565b5f6020820190506108f85f8301846108d6565b92915050565b61090781610870565b82525050565b5f6020820190506109205f8301846108fe565b92915050565b5f819050919050565b5f61094961094461093f84610851565b610926565b610851565b9050919050565b5f61095a8261092f565b9050919050565b5f61096b82610950565b9050919050565b61097b81610961565b82525050565b5f6020820190506109945f830184610972565b92915050565b5f82825260208201905092915050565b7f4f6e6c7920746865206f776e65722063616e20736574207468652077697468645f8201527f726177616c20616d6f756e742e00000000000000000000000000000000000000602082015250565b5f610a04602d8361099a565b9150610a0f826109aa565b604082019050919050565b5f6020820190508181035f830152610a31816109f8565b9050919050565b7f596f75206861766520616c72656164792072657175657374656420746f6b656e5f8201527f7320726563656e746c792e000000000000000000000000000000000000000000602082015250565b5f610a92602b8361099a565b9150610a9d82610a38565b604082019050919050565b5f6020820190508181035f830152610abf81610a86565b9050919050565b5f604082019050610ad95f8301856108fe565b610ae660208301846108d6565b9392505050565b5f8115159050919050565b610b0181610aed565b8114610b0b575f80fd5b50565b5f81519050610b1c81610af8565b92915050565b5f60208284031215610b3757610b366107ef565b5b5f610b4484828501610b0e565b91505092915050565b7f4e487b71000000000000000000000000000000000000000000000000000000005f52601160045260245ffd5b5f610b84826107f3565b9150610b8f836107f3565b9250828201905080821115610ba757610ba6610b4d565b5b92915050565b7f4f6e6c7920746865206f776e65722063616e20776974686472617720657468655f8201527f722e000000000000000000000000000000000000000000000000000000000000602082015250565b5f610c0760228361099a565b9150610c1282610bad565b604082019050919050565b5f6020820190508181035f830152610c3481610bfb565b9050919050565b7f4f6e6c7920746865206f776e65722063616e20776974686472617720746865205f8201527f72656d61696e696e6720746f6b656e732e000000000000000000000000000000602082015250565b5f610c9560318361099a565b9150610ca082610c3b565b604082019050919050565b5f6020820190508181035f830152610cc281610c89565b9050919050565b5f81519050610cd7816107fc565b92915050565b5f60208284031215610cf257610cf16107ef565b5b5f610cff84828501610cc9565b91505092915050565b7f4f6e6c7920746865206f776e65722063616e207472616e73666572206f776e655f8201527f72736869702e0000000000000000000000000000000000000000000000000000602082015250565b5f610d6260268361099a565b9150610d6d82610d08565b604082019050919050565b5f6020820190508181035f830152610d8f81610d56565b905091905056fea26469706673582212202c9f1499d88fb50979b140ecaaa3ea0ca42fee373064eefce65045be240f900464736f6c63430008140033","linkReferences":{}},"methodIdentifiers":{"nextAccessTime(address)":"516fad0a","owner()":"8da5cb5b","requestTokens()":"359cf2b7","setWithdrawalAmount(uint256)":"168ee33a","token()":"fc0c546a","transferOwnership(address)":"f2fde38b","withdrawEther()":"7362377b","withdrawTokens()":"8d8f2adb","withdrawalAmount()":"e6e268f4"},"id":5}