{"abi":[{"type":"constructor","inputs":[{"name":"payees","type":"address[]","internalType":"address[]"},{"name":"shares_","type":"uint256[]","internalType":"uint256[]"}],"stateMutability":"payable"},{"type":"receive","stateMutability":"payable"},{"type":"function","name":"payee","inputs":[{"name":"index","type":"uint256","internalType":"uint256"}],"outputs":[{"name":"","type":"address","internalType":"address"}],"stateMutability":"view"},{"type":"function","name":"releasable","inputs":[{"name":"account","type":"address","internalType":"address"}],"outputs":[{"name":"","type":"uint256","internalType":"uint256"}],"stateMutability":"view"},{"type":"function","name":"releasable","inputs":[{"name":"token","type":"address","internalType":"contract IERC20"},{"name":"account","type":"address","internalType":"address"}],"outputs":[{"name":"","type":"uint256","internalType":"uint256"}],"stateMutability":"view"},{"type":"function","name":"release","inputs":[{"name":"account","type":"address","internalType":"address payable"}],"outputs":[],"stateMutability":"nonpayable"},{"type":"function","name":"release","inputs":[{"name":"token","type":"address","internalType":"contract IERC20"},{"name":"account","type":"address","internalType":"address"}],"outputs":[],"stateMutability":"nonpayable"},{"type":"function","name":"released","inputs":[{"name":"token","type":"address","internalType":"contract IERC20"},{"name":"account","type":"address","internalType":"address"}],"outputs":[{"name":"","type":"uint256","internalType":"uint256"}],"stateMutability":"view"},{"type":"function","name":"released","inputs":[{"name":"account","type":"address","internalType":"address"}],"outputs":[{"name":"","type":"uint256","internalType":"uint256"}],"stateMutability":"view"},{"type":"function","name":"shares","inputs":[{"name":"account","type":"address","internalType":"address"}],"outputs":[{"name":"","type":"uint256","internalType":"uint256"}],"stateMutability":"view"},{"type":"function","name":"totalReleased","inputs":[{"name":"token","type":"address","internalType":"contract IERC20"}],"outputs":[{"name":"","type":"uint256","internalType":"uint256"}],"stateMutability":"view"},{"type":"function","name":"totalReleased","inputs":[],"outputs":[{"name":"","type":"uint256","internalType":"uint256"}],"stateMutability":"view"},{"type":"function","name":"totalShares","inputs":[],"outputs":[{"name":"","type":"uint256","internalType":"uint256"}],"stateMutability":"view"},{"type":"event","name":"ERC20PaymentReleased","inputs":[{"name":"token","type":"address","indexed":true,"internalType":"contract IERC20"},{"name":"to","type":"address","indexed":false,"internalType":"address"},{"name":"amount","type":"uint256","indexed":false,"internalType":"uint256"}],"anonymous":false},{"type":"event","name":"PayeeAdded","inputs":[{"name":"account","type":"address","indexed":false,"internalType":"address"},{"name":"shares","type":"uint256","indexed":false,"internalType":"uint256"}],"anonymous":false},{"type":"event","name":"PaymentReceived","inputs":[{"name":"from","type":"address","indexed":false,"internalType":"address"},{"name":"amount","type":"uint256","indexed":false,"internalType":"uint256"}],"anonymous":false},{"type":"event","name":"PaymentReleased","inputs":[{"name":"to","type":"address","indexed":false,"internalType":"address"},{"name":"amount","type":"uint256","indexed":false,"internalType":"uint256"}],"anonymous":false}],"bytecode":{"object":"0x608060405260405161213b38038061213b833981810160405281019061002591906105e1565b8051825114610069576040517f08c379a0000000000000000000000000000000000000000000000000000000008152600401610060906106d7565b60405180910390fd5b5f8251116100ac576040517f08c379a00000000000000000000000000000000000000000000000000000000081526004016100a39061073f565b60405180910390fd5b5f5f90505b825181101561010b576100fe8382815181106100d0576100cf61075d565b5b60200260200101518383815181106100eb576100ea61075d565b5b602002602001015161011360201b60201c565b80806001019150506100b1565b5050506109b3565b5f73ffffffffffffffffffffffffffffffffffffffff168273ffffffffffffffffffffffffffffffffffffffff1603610181576040517f08c379a0000000000000000000000000000000000000000000000000000000008152600401610178906107fa565b60405180910390fd5b5f81116101c3576040517f08c379a00000000000000000000000000000000000000000000000000000000081526004016101ba90610862565b60405180910390fd5b5f60025f8473ffffffffffffffffffffffffffffffffffffffff1673ffffffffffffffffffffffffffffffffffffffff1681526020019081526020015f205414610242576040517f08c379a0000000000000000000000000000000000000000000000000000000008152600401610239906108f0565b60405180910390fd5b600482908060018154018082558091505060019003905f5260205f20015f9091909190916101000a81548173ffffffffffffffffffffffffffffffffffffffff021916908373ffffffffffffffffffffffffffffffffffffffff1602179055508060025f8473ffffffffffffffffffffffffffffffffffffffff1673ffffffffffffffffffffffffffffffffffffffff1681526020019081526020015f2081905550805f546102f1919061093b565b5f819055507f40c340f65e17194d14ddddb073d3c9f888e3cb52b5aae0c6c7706b4fbc905fac828260405161032792919061098c565b60405180910390a15050565b5f604051905090565b5f5ffd5b5f5ffd5b5f5ffd5b5f601f19601f8301169050919050565b7f4e487b71000000000000000000000000000000000000000000000000000000005f52604160045260245ffd5b61038e82610348565b810181811067ffffffffffffffff821117156103ad576103ac610358565b5b80604052505050565b5f6103bf610333565b90506103cb8282610385565b919050565b5f67ffffffffffffffff8211156103ea576103e9610358565b5b602082029050602081019050919050565b5f5ffd5b5f73ffffffffffffffffffffffffffffffffffffffff82169050919050565b5f610428826103ff565b9050919050565b6104388161041e565b8114610442575f5ffd5b50565b5f815190506104538161042f565b92915050565b5f61046b610466846103d0565b6103b6565b9050808382526020820190506020840283018581111561048e5761048d6103fb565b5b835b818110156104b757806104a38882610445565b845260208401935050602081019050610490565b5050509392505050565b5f82601f8301126104d5576104d4610344565b5b81516104e5848260208601610459565b91505092915050565b5f67ffffffffffffffff82111561050857610507610358565b5b602082029050602081019050919050565b5f819050919050565b61052b81610519565b8114610535575f5ffd5b50565b5f8151905061054681610522565b92915050565b5f61055e610559846104ee565b6103b6565b90508083825260208201905060208402830185811115610581576105806103fb565b5b835b818110156105aa57806105968882610538565b845260208401935050602081019050610583565b5050509392505050565b5f82601f8301126105c8576105c7610344565b5b81516105d884826020860161054c565b91505092915050565b5f5f604083850312156105f7576105f661033c565b5b5f83015167ffffffffffffffff81111561061457610613610340565b5b610620858286016104c1565b925050602083015167ffffffffffffffff81111561064157610640610340565b5b61064d858286016105b4565b9150509250929050565b5f82825260208201905092915050565b7f5061796d656e7453706c69747465723a2070617965657320616e6420736861725f8201527f6573206c656e677468206d69736d617463680000000000000000000000000000602082015250565b5f6106c1603283610657565b91506106cc82610667565b604082019050919050565b5f6020820190508181035f8301526106ee816106b5565b9050919050565b7f5061796d656e7453706c69747465723a206e6f207061796565730000000000005f82015250565b5f610729601a83610657565b9150610734826106f5565b602082019050919050565b5f6020820190508181035f8301526107568161071d565b9050919050565b7f4e487b71000000000000000000000000000000000000000000000000000000005f52603260045260245ffd5b7f5061796d656e7453706c69747465723a206163636f756e7420697320746865205f8201527f7a65726f20616464726573730000000000000000000000000000000000000000602082015250565b5f6107e4602c83610657565b91506107ef8261078a565b604082019050919050565b5f6020820190508181035f830152610811816107d8565b9050919050565b7f5061796d656e7453706c69747465723a207368617265732061726520300000005f82015250565b5f61084c601d83610657565b915061085782610818565b602082019050919050565b5f6020820190508181035f83015261087981610840565b9050919050565b7f5061796d656e7453706c69747465723a206163636f756e7420616c72656164795f8201527f2068617320736861726573000000000000000000000000000000000000000000602082015250565b5f6108da602b83610657565b91506108e582610880565b604082019050919050565b5f6020820190508181035f830152610907816108ce565b9050919050565b7f4e487b71000000000000000000000000000000000000000000000000000000005f52601160045260245ffd5b5f61094582610519565b915061095083610519565b92508282019050808211156109685761096761090e565b5b92915050565b6109778161041e565b82525050565b61098681610519565b82525050565b5f60408201905061099f5f83018561096e565b6109ac602083018461097d565b9392505050565b61177b806109c05f395ff3fe60806040526004361061009f575f3560e01c80639852595c116100635780639852595c146101dc578063a3f8eace14610218578063c45ac05014610254578063ce7c2ac214610290578063d79779b2146102cc578063e33b7de314610308576100e6565b806319165587146100ea5780633a98ef3914610112578063406072a91461013c57806348b75044146101785780638b83209b146101a0576100e6565b366100e6577f6ef95f06320e7a25a04a175ca677b7052bdd97131872c2192525a629f51be7706100cd610332565b346040516100dc929190610dfe565b60405180910390a1005b5f5ffd5b3480156100f5575f5ffd5b50610110600480360381019061010b9190610e64565b610339565b005b34801561011d575f5ffd5b506101266104af565b6040516101339190610e8f565b60405180910390f35b348015610147575f5ffd5b50610162600480360381019061015d9190610f0d565b6104b7565b60405161016f9190610e8f565b60405180910390f35b348015610183575f5ffd5b5061019e60048036038101906101999190610f0d565b610539565b005b3480156101ab575f5ffd5b506101c660048036038101906101c19190610f75565b61073f565b6040516101d39190610fa0565b60405180910390f35b3480156101e7575f5ffd5b5061020260048036038101906101fd9190610fb9565b610783565b60405161020f9190610e8f565b60405180910390f35b348015610223575f5ffd5b5061023e60048036038101906102399190610fb9565b6107c9565b60405161024b9190610e8f565b60405180910390f35b34801561025f575f5ffd5b5061027a60048036038101906102759190610f0d565b6107fb565b6040516102879190610e8f565b60405180910390f35b34801561029b575f5ffd5b506102b660048036038101906102b19190610fb9565b6108a7565b6040516102c39190610e8f565b60405180910390f35b3480156102d7575f5ffd5b506102f260048036038101906102ed9190610fe4565b6108ed565b6040516102ff9190610e8f565b60405180910390f35b348015610313575f5ffd5b5061031c610933565b6040516103299190610e8f565b60405180910390f35b5f33905090565b5f60025f8373ffffffffffffffffffffffffffffffffffffffff1673ffffffffffffffffffffffffffffffffffffffff1681526020019081526020015f2054116103b8576040517f08c379a00000000000000000000000000000000000000000000000000000000081526004016103af9061108f565b60405180910390fd5b5f6103c2826107c9565b90505f8103610406576040517f08c379a00000000000000000000000000000000000000000000000000000000081526004016103fd9061111d565b60405180910390fd5b8060015f8282546104179190611168565b925050819055508060035f8473ffffffffffffffffffffffffffffffffffffffff1673ffffffffffffffffffffffffffffffffffffffff1681526020019081526020015f205f8282540192505081905550610472828261093c565b7fdf20fd1e76bc69d672e4814fafb2c449bba3a5369d8359adf9e05e6fde87b05682826040516104a39291906111f6565b60405180910390a15050565b5f5f54905090565b5f60065f8473ffffffffffffffffffffffffffffffffffffffff1673ffffffffffffffffffffffffffffffffffffffff1681526020019081526020015f205f8373ffffffffffffffffffffffffffffffffffffffff1673ffffffffffffffffffffffffffffffffffffffff1681526020019081526020015f2054905092915050565b5f60025f8373ffffffffffffffffffffffffffffffffffffffff1673ffffffffffffffffffffffffffffffffffffffff1681526020019081526020015f2054116105b8576040517f08c379a00000000000000000000000000000000000000000000000000000000081526004016105af9061108f565b60405180910390fd5b5f6105c383836107fb565b90505f8103610607576040517f08c379a00000000000000000000000000000000000000000000000000000000081526004016105fe9061111d565b60405180910390fd5b8060055f8573ffffffffffffffffffffffffffffffffffffffff1673ffffffffffffffffffffffffffffffffffffffff1681526020019081526020015f205f8282546106539190611168565b925050819055508060065f8573ffffffffffffffffffffffffffffffffffffffff1673ffffffffffffffffffffffffffffffffffffffff1681526020019081526020015f205f8473ffffffffffffffffffffffffffffffffffffffff1673ffffffffffffffffffffffffffffffffffffffff1681526020019081526020015f205f82825401925050819055506106ea838383610a2c565b8273ffffffffffffffffffffffffffffffffffffffff167f3be5b7a71e84ed12875d241991c70855ac5817d847039e17a9d895c1ceb0f18a8383604051610732929190610dfe565b60405180910390a2505050565b5f600482815481106107545761075361121d565b5b905f5260205f20015f9054906101000a900473ffffffffffffffffffffffffffffffffffffffff169050919050565b5f60035f8373ffffffffffffffffffffffffffffffffffffffff1673ffffffffffffffffffffffffffffffffffffffff1681526020019081526020015f20549050919050565b5f5f6107d3610933565b476107de9190611168565b90506107f383826107ee86610783565b610ab2565b915050919050565b5f5f610806846108ed565b8473ffffffffffffffffffffffffffffffffffffffff166370a08231306040518263ffffffff1660e01b815260040161083f9190610fa0565b602060405180830381865afa15801561085a573d5f5f3e3d5ffd5b505050506040513d601f19601f8201168201806040525081019061087e919061125e565b6108889190611168565b905061089e838261089987876104b7565b610ab2565b91505092915050565b5f60025f8373ffffffffffffffffffffffffffffffffffffffff1673ffffffffffffffffffffffffffffffffffffffff1681526020019081526020015f20549050919050565b5f60055f8373ffffffffffffffffffffffffffffffffffffffff1673ffffffffffffffffffffffffffffffffffffffff1681526020019081526020015f20549050919050565b5f600154905090565b8047101561097f576040517f08c379a0000000000000000000000000000000000000000000000000000000008152600401610976906112d3565b60405180910390fd5b5f8273ffffffffffffffffffffffffffffffffffffffff16826040516109a49061131e565b5f6040518083038185875af1925050503d805f81146109de576040519150601f19603f3d011682016040523d82523d5f602084013e6109e3565b606091505b5050905080610a27576040517f08c379a0000000000000000000000000000000000000000000000000000000008152600401610a1e906113a2565b60405180910390fd5b505050565b610aad8363a9059cbb60e01b8484604051602401610a4b929190610dfe565b604051602081830303815290604052907bffffffffffffffffffffffffffffffffffffffffffffffffffffffff19166020820180517bffffffffffffffffffffffffffffffffffffffffffffffffffffffff8381831617835250505050610b1c565b505050565b5f815f5460025f8773ffffffffffffffffffffffffffffffffffffffff1673ffffffffffffffffffffffffffffffffffffffff1681526020019081526020015f205485610aff91906113c0565b610b09919061142e565b610b13919061145e565b90509392505050565b5f610b7d826040518060400160405280602081526020017f5361666545524332303a206c6f772d6c6576656c2063616c6c206661696c65648152508573ffffffffffffffffffffffffffffffffffffffff16610be29092919063ffffffff16565b90505f81511480610b9e575080806020019051810190610b9d91906114c6565b5b610bdd576040517f08c379a0000000000000000000000000000000000000000000000000000000008152600401610bd490611561565b60405180910390fd5b505050565b6060610bf084845f85610bf9565b90509392505050565b606082471015610c3e576040517f08c379a0000000000000000000000000000000000000000000000000000000008152600401610c35906115ef565b60405180910390fd5b5f5f8673ffffffffffffffffffffffffffffffffffffffff168587604051610c669190611655565b5f6040518083038185875af1925050503d805f8114610ca0576040519150601f19603f3d011682016040523d82523d5f602084013e610ca5565b606091505b5091509150610cb687838387610cc2565b92505050949350505050565b60608315610d23575f835103610d1b57610cdb85610d36565b610d1a576040517f08c379a0000000000000000000000000000000000000000000000000000000008152600401610d11906116b5565b60405180910390fd5b5b829050610d2e565b610d2d8383610d58565b5b949350505050565b5f5f8273ffffffffffffffffffffffffffffffffffffffff163b119050919050565b5f82511115610d6a5781518083602001fd5b806040517f08c379a0000000000000000000000000000000000000000000000000000000008152600401610d9e9190611725565b60405180910390fd5b5f73ffffffffffffffffffffffffffffffffffffffff82169050919050565b5f610dd082610da7565b9050919050565b610de081610dc6565b82525050565b5f819050919050565b610df881610de6565b82525050565b5f604082019050610e115f830185610dd7565b610e1e6020830184610def565b9392505050565b5f5ffd5b5f610e3382610da7565b9050919050565b610e4381610e29565b8114610e4d575f5ffd5b50565b5f81359050610e5e81610e3a565b92915050565b5f60208284031215610e7957610e78610e25565b5b5f610e8684828501610e50565b91505092915050565b5f602082019050610ea25f830184610def565b92915050565b5f610eb282610dc6565b9050919050565b610ec281610ea8565b8114610ecc575f5ffd5b50565b5f81359050610edd81610eb9565b92915050565b610eec81610dc6565b8114610ef6575f5ffd5b50565b5f81359050610f0781610ee3565b92915050565b5f5f60408385031215610f2357610f22610e25565b5b5f610f3085828601610ecf565b9250506020610f4185828601610ef9565b9150509250929050565b610f5481610de6565b8114610f5e575f5ffd5b50565b5f81359050610f6f81610f4b565b92915050565b5f60208284031215610f8a57610f89610e25565b5b5f610f9784828501610f61565b91505092915050565b5f602082019050610fb35f830184610dd7565b92915050565b5f60208284031215610fce57610fcd610e25565b5b5f610fdb84828501610ef9565b91505092915050565b5f60208284031215610ff957610ff8610e25565b5b5f61100684828501610ecf565b91505092915050565b5f82825260208201905092915050565b7f5061796d656e7453706c69747465723a206163636f756e7420686173206e6f205f8201527f7368617265730000000000000000000000000000000000000000000000000000602082015250565b5f61107960268361100f565b91506110848261101f565b604082019050919050565b5f6020820190508181035f8301526110a68161106d565b9050919050565b7f5061796d656e7453706c69747465723a206163636f756e74206973206e6f74205f8201527f647565207061796d656e74000000000000000000000000000000000000000000602082015250565b5f611107602b8361100f565b9150611112826110ad565b604082019050919050565b5f6020820190508181035f830152611134816110fb565b9050919050565b7f4e487b71000000000000000000000000000000000000000000000000000000005f52601160045260245ffd5b5f61117282610de6565b915061117d83610de6565b92508282019050808211156111955761119461113b565b5b92915050565b5f819050919050565b5f6111be6111b96111b484610da7565b61119b565b610da7565b9050919050565b5f6111cf826111a4565b9050919050565b5f6111e0826111c5565b9050919050565b6111f0816111d6565b82525050565b5f6040820190506112095f8301856111e7565b6112166020830184610def565b9392505050565b7f4e487b71000000000000000000000000000000000000000000000000000000005f52603260045260245ffd5b5f8151905061125881610f4b565b92915050565b5f6020828403121561127357611272610e25565b5b5f6112808482850161124a565b91505092915050565b7f416464726573733a20696e73756666696369656e742062616c616e63650000005f82015250565b5f6112bd601d8361100f565b91506112c882611289565b602082019050919050565b5f6020820190508181035f8301526112ea816112b1565b9050919050565b5f81905092915050565b50565b5f6113095f836112f1565b9150611314826112fb565b5f82019050919050565b5f611328826112fe565b9150819050919050565b7f416464726573733a20756e61626c6520746f2073656e642076616c75652c20725f8201527f6563697069656e74206d61792068617665207265766572746564000000000000602082015250565b5f61138c603a8361100f565b915061139782611332565b604082019050919050565b5f6020820190508181035f8301526113b981611380565b9050919050565b5f6113ca82610de6565b91506113d583610de6565b92508282026113e381610de6565b915082820484148315176113fa576113f961113b565b5b5092915050565b7f4e487b71000000000000000000000000000000000000000000000000000000005f52601260045260245ffd5b5f61143882610de6565b915061144383610de6565b92508261145357611452611401565b5b828204905092915050565b5f61146882610de6565b915061147383610de6565b925082820390508181111561148b5761148a61113b565b5b92915050565b5f8115159050919050565b6114a581611491565b81146114af575f5ffd5b50565b5f815190506114c08161149c565b92915050565b5f602082840312156114db576114da610e25565b5b5f6114e8848285016114b2565b91505092915050565b7f5361666545524332303a204552433230206f7065726174696f6e20646964206e5f8201527f6f74207375636365656400000000000000000000000000000000000000000000602082015250565b5f61154b602a8361100f565b9150611556826114f1565b604082019050919050565b5f6020820190508181035f8301526115788161153f565b9050919050565b7f416464726573733a20696e73756666696369656e742062616c616e636520666f5f8201527f722063616c6c0000000000000000000000000000000000000000000000000000602082015250565b5f6115d960268361100f565b91506115e48261157f565b604082019050919050565b5f6020820190508181035f830152611606816115cd565b9050919050565b5f81519050919050565b8281835e5f83830152505050565b5f61162f8261160d565b61163981856112f1565b9350611649818560208601611617565b80840191505092915050565b5f6116608284611625565b915081905092915050565b7f416464726573733a2063616c6c20746f206e6f6e2d636f6e74726163740000005f82015250565b5f61169f601d8361100f565b91506116aa8261166b565b602082019050919050565b5f6020820190508181035f8301526116cc81611693565b9050919050565b5f81519050919050565b5f601f19601f8301169050919050565b5f6116f7826116d3565b611701818561100f565b9350611711818560208601611617565b61171a816116dd565b840191505092915050565b5f6020820190508181035f83015261173d81846116ed565b90509291505056fea2646970667358221220d0e33b1f1c5a2337732774be5929833130050814f8116a8e84437022c24e5ab464736f6c634300081e0033","linkReferences":{}},"methodIdentifiers":{"payee(uint256)":"8b83209b","releasable(address)":"a3f8eace","releasable(address,address)":"c45ac050","release(address)":"19165587","release(address,address)":"48b75044","released(address)":"9852595c","released(address,address)":"406072a9","shares(address)":"ce7c2ac2","totalReleased()":"e33b7de3","totalReleased(address)":"d79779b2","totalShares()":"3a98ef39"},"id":49}