{"abi":[{"type":"constructor","inputs":[],"stateMutability":"nonpayable"},{"type":"function","name":"deposit","inputs":[],"outputs":[],"stateMutability":"payable"},{"type":"function","name":"depositERC20","inputs":[{"name":"_token","type":"address","internalType":"address"},{"name":"_amount","type":"uint256","internalType":"uint256"}],"outputs":[],"stateMutability":"nonpayable"},{"type":"function","name":"lockedAmounts","inputs":[{"name":"","type":"address","internalType":"address"}],"outputs":[{"name":"","type":"uint256","internalType":"uint256"}],"stateMutability":"view"},{"type":"function","name":"owner","inputs":[],"outputs":[{"name":"","type":"address","internalType":"address"}],"stateMutability":"view"},{"type":"function","name":"renounceOwnership","inputs":[],"outputs":[],"stateMutability":"nonpayable"},{"type":"function","name":"setUnlockTime","inputs":[{"name":"_user","type":"address","internalType":"address"},{"name":"_newUnlockTime","type":"uint256","internalType":"uint256"}],"outputs":[],"stateMutability":"nonpayable"},{"type":"function","name":"transferOwnership","inputs":[{"name":"newOwner","type":"address","internalType":"address"}],"outputs":[],"stateMutability":"nonpayable"},{"type":"function","name":"unlockTimes","inputs":[{"name":"","type":"address","internalType":"address"}],"outputs":[{"name":"","type":"uint256","internalType":"uint256"}],"stateMutability":"view"},{"type":"function","name":"withdraw","inputs":[],"outputs":[],"stateMutability":"nonpayable"},{"type":"function","name":"withdrawERC20","inputs":[{"name":"_token","type":"address","internalType":"address"}],"outputs":[],"stateMutability":"nonpayable"},{"type":"event","name":"FundsDeposited","inputs":[{"name":"depositor","type":"address","indexed":true,"internalType":"address"},{"name":"amount","type":"uint256","indexed":false,"internalType":"uint256"},{"name":"unlockTime","type":"uint256","indexed":false,"internalType":"uint256"}],"anonymous":false},{"type":"event","name":"FundsWithdrawn","inputs":[{"name":"beneficiary","type":"address","indexed":true,"internalType":"address"},{"name":"amount","type":"uint256","indexed":false,"internalType":"uint256"}],"anonymous":false},{"type":"event","name":"OwnershipTransferred","inputs":[{"name":"previousOwner","type":"address","indexed":true,"internalType":"address"},{"name":"newOwner","type":"address","indexed":true,"internalType":"address"}],"anonymous":false}],"bytecode":{"object":"0x608060405234801561000f575f80fd5b5061002c61002161003160201b60201c565b61003860201b60201c565b6100f9565b5f33905090565b5f805f9054906101000a900473ffffffffffffffffffffffffffffffffffffffff169050815f806101000a81548173ffffffffffffffffffffffffffffffffffffffff021916908373ffffffffffffffffffffffffffffffffffffffff1602179055508173ffffffffffffffffffffffffffffffffffffffff168173ffffffffffffffffffffffffffffffffffffffff167f8be0079c531659141344cd1fd0a4f28419497f9722a3daafe3b4186f6b6457e060405160405180910390a35050565b6114cc806101065f395ff3fe608060405260043610610090575f3560e01c80639f5c863f116100585780639f5c863f1461014e578063a8c7a08a14610176578063d0e30db0146101b2578063f2fde38b146101bc578063f4f3b200146101e457610090565b80633ccfd60b146100945780636bf807fc146100aa578063715018a6146100e65780638da5cb5b146100fc57806397feb92614610126575b5f80fd5b34801561009f575f80fd5b506100a861020c565b005b3480156100b5575f80fd5b506100d060048036038101906100cb9190610e64565b6104ca565b6040516100dd9190610ea7565b60405180910390f35b3480156100f1575f80fd5b506100fa6104df565b005b348015610107575f80fd5b506101106104f2565b60405161011d9190610ecf565b60405180910390f35b348015610131575f80fd5b5061014c60048036038101906101479190610f12565b610519565b005b348015610159575f80fd5b50610174600480360381019061016f9190610f12565b610750565b005b348015610181575f80fd5b5061019c60048036038101906101979190610e64565b6107e0565b6040516101a99190610ea7565b60405180910390f35b6101ba6107f5565b005b3480156101c7575f80fd5b506101e260048036038101906101dd9190610e64565b610969565b005b3480156101ef575f80fd5b5061020a60048036038101906102059190610e64565b6109eb565b005b5f60015f3373ffffffffffffffffffffffffffffffffffffffff1673ffffffffffffffffffffffffffffffffffffffff1681526020019081526020015f20541161028b576040517f08c379a000000000000000000000000000000000000000000000000000000000815260040161028290610faa565b60405180910390fd5b60025f3373ffffffffffffffffffffffffffffffffffffffff1673ffffffffffffffffffffffffffffffffffffffff1681526020019081526020015f205442101561030b576040517f08c379a000000000000000000000000000000000000000000000000000000000815260040161030290611012565b60405180910390fd5b5f60015f3373ffffffffffffffffffffffffffffffffffffffff1673ffffffffffffffffffffffffffffffffffffffff1681526020019081526020015f205490505f60015f3373ffffffffffffffffffffffffffffffffffffffff1673ffffffffffffffffffffffffffffffffffffffff1681526020019081526020015f20819055505f60025f3373ffffffffffffffffffffffffffffffffffffffff1673ffffffffffffffffffffffffffffffffffffffff1681526020019081526020015f20819055505f3373ffffffffffffffffffffffffffffffffffffffff16826040516103f59061105d565b5f6040518083038185875af1925050503d805f811461042f576040519150601f19603f3d011682016040523d82523d5f602084013e610434565b606091505b5050905080610478576040517f08c379a000000000000000000000000000000000000000000000000000000000815260040161046f906110bb565b60405180910390fd5b3373ffffffffffffffffffffffffffffffffffffffff167feaff4b37086828766ad3268786972c0cd24259d4c87a80f9d3963a3c3d999b0d836040516104be9190610ea7565b60405180910390a25050565b6002602052805f5260405f205f915090505481565b6104e7610cc0565b6104f05f610d3e565b565b5f805f9054906101000a900473ffffffffffffffffffffffffffffffffffffffff16905090565b5f811161055b576040517f08c379a000000000000000000000000000000000000000000000000000000000815260040161055290611149565b60405180910390fd5b5f8290508073ffffffffffffffffffffffffffffffffffffffff166323b872dd3330856040518463ffffffff1660e01b815260040161059c93929190611167565b6020604051808303815f875af11580156105b8573d5f803e3d5ffd5b505050506040513d601f19601f820116820180604052508101906105dc91906111d1565b61061b576040517f08c379a000000000000000000000000000000000000000000000000000000000815260040161061290611246565b60405180910390fd5b8160015f3373ffffffffffffffffffffffffffffffffffffffff1673ffffffffffffffffffffffffffffffffffffffff1681526020019081526020015f205f8282546106679190611291565b9250508190555062093a804261067d9190611291565b60025f3373ffffffffffffffffffffffffffffffffffffffff1673ffffffffffffffffffffffffffffffffffffffff1681526020019081526020015f20819055503373ffffffffffffffffffffffffffffffffffffffff167fbee4fe3675934fca827426c793623996a3079255089bda3a717019ffc5db27658360025f3373ffffffffffffffffffffffffffffffffffffffff1673ffffffffffffffffffffffffffffffffffffffff1681526020019081526020015f20546040516107439291906112c4565b60405180910390a2505050565b610758610cc0565b42811161079a576040517f08c379a00000000000000000000000000000000000000000000000000000000081526004016107919061135b565b60405180910390fd5b8060025f8473ffffffffffffffffffffffffffffffffffffffff1673ffffffffffffffffffffffffffffffffffffffff1681526020019081526020015f20819055505050565b6001602052805f5260405f205f915090505481565b5f3411610837576040517f08c379a000000000000000000000000000000000000000000000000000000000815260040161082e90611149565b60405180910390fd5b3460015f3373ffffffffffffffffffffffffffffffffffffffff1673ffffffffffffffffffffffffffffffffffffffff1681526020019081526020015f205f8282546108839190611291565b9250508190555062093a80426108999190611291565b60025f3373ffffffffffffffffffffffffffffffffffffffff1673ffffffffffffffffffffffffffffffffffffffff1681526020019081526020015f20819055503373ffffffffffffffffffffffffffffffffffffffff167fbee4fe3675934fca827426c793623996a3079255089bda3a717019ffc5db27653460025f3373ffffffffffffffffffffffffffffffffffffffff1673ffffffffffffffffffffffffffffffffffffffff1681526020019081526020015f205460405161095f9291906112c4565b60405180910390a2565b610971610cc0565b5f73ffffffffffffffffffffffffffffffffffffffff168173ffffffffffffffffffffffffffffffffffffffff16036109df576040517f08c379a00000000000000000000000000000000000000000000000000000000081526004016109d6906113e9565b60405180910390fd5b6109e881610d3e565b50565b5f60015f3373ffffffffffffffffffffffffffffffffffffffff1673ffffffffffffffffffffffffffffffffffffffff1681526020019081526020015f205411610a6a576040517f08c379a0000000000000000000000000000000000000000000000000000000008152600401610a6190610faa565b60405180910390fd5b60025f3373ffffffffffffffffffffffffffffffffffffffff1673ffffffffffffffffffffffffffffffffffffffff1681526020019081526020015f2054421015610aea576040517f08c379a0000000000000000000000000000000000000000000000000000000008152600401610ae190611012565b60405180910390fd5b5f60015f3373ffffffffffffffffffffffffffffffffffffffff1673ffffffffffffffffffffffffffffffffffffffff1681526020019081526020015f205490505f60015f3373ffffffffffffffffffffffffffffffffffffffff1673ffffffffffffffffffffffffffffffffffffffff1681526020019081526020015f20819055505f60025f3373ffffffffffffffffffffffffffffffffffffffff1673ffffffffffffffffffffffffffffffffffffffff1681526020019081526020015f20819055505f8290508073ffffffffffffffffffffffffffffffffffffffff1663a9059cbb33846040518363ffffffff1660e01b8152600401610bee929190611407565b6020604051808303815f875af1158015610c0a573d5f803e3d5ffd5b505050506040513d601f19601f82011682018060405250810190610c2e91906111d1565b610c6d576040517f08c379a0000000000000000000000000000000000000000000000000000000008152600401610c6490611246565b60405180910390fd5b3373ffffffffffffffffffffffffffffffffffffffff167feaff4b37086828766ad3268786972c0cd24259d4c87a80f9d3963a3c3d999b0d83604051610cb39190610ea7565b60405180910390a2505050565b610cc8610dff565b73ffffffffffffffffffffffffffffffffffffffff16610ce66104f2565b73ffffffffffffffffffffffffffffffffffffffff1614610d3c576040517f08c379a0000000000000000000000000000000000000000000000000000000008152600401610d3390611478565b60405180910390fd5b565b5f805f9054906101000a900473ffffffffffffffffffffffffffffffffffffffff169050815f806101000a81548173ffffffffffffffffffffffffffffffffffffffff021916908373ffffffffffffffffffffffffffffffffffffffff1602179055508173ffffffffffffffffffffffffffffffffffffffff168173ffffffffffffffffffffffffffffffffffffffff167f8be0079c531659141344cd1fd0a4f28419497f9722a3daafe3b4186f6b6457e060405160405180910390a35050565b5f33905090565b5f80fd5b5f73ffffffffffffffffffffffffffffffffffffffff82169050919050565b5f610e3382610e0a565b9050919050565b610e4381610e29565b8114610e4d575f80fd5b50565b5f81359050610e5e81610e3a565b92915050565b5f60208284031215610e7957610e78610e06565b5b5f610e8684828501610e50565b91505092915050565b5f819050919050565b610ea181610e8f565b82525050565b5f602082019050610eba5f830184610e98565b92915050565b610ec981610e29565b82525050565b5f602082019050610ee25f830184610ec0565b92915050565b610ef181610e8f565b8114610efb575f80fd5b50565b5f81359050610f0c81610ee8565b92915050565b5f8060408385031215610f2857610f27610e06565b5b5f610f3585828601610e50565b9250506020610f4685828601610efe565b9150509250929050565b5f82825260208201905092915050565b7f4e6f2066756e647320746f2077697468647261772e00000000000000000000005f82015250565b5f610f94601583610f50565b9150610f9f82610f60565b602082019050919050565b5f6020820190508181035f830152610fc181610f88565b9050919050565b7f46756e647320617265207374696c6c206c6f636b65642e0000000000000000005f82015250565b5f610ffc601783610f50565b915061100782610fc8565b602082019050919050565b5f6020820190508181035f83015261102981610ff0565b9050919050565b5f81905092915050565b50565b5f6110485f83611030565b91506110538261103a565b5f82019050919050565b5f6110678261103d565b9150819050919050565b7f455448207472616e73666572206661696c65642e0000000000000000000000005f82015250565b5f6110a5601483610f50565b91506110b082611071565b602082019050919050565b5f6020820190508181035f8301526110d281611099565b9050919050565b7f4465706f73697420616d6f756e74206d757374206265206772656174657220745f8201527f68616e207a65726f2e0000000000000000000000000000000000000000000000602082015250565b5f611133602983610f50565b915061113e826110d9565b604082019050919050565b5f6020820190508181035f83015261116081611127565b9050919050565b5f60608201905061117a5f830186610ec0565b6111876020830185610ec0565b6111946040830184610e98565b949350505050565b5f8115159050919050565b6111b08161119c565b81146111ba575f80fd5b50565b5f815190506111cb816111a7565b92915050565b5f602082840312156111e6576111e5610e06565b5b5f6111f3848285016111bd565b91505092915050565b7f546f6b656e207472616e73666572206661696c65642e000000000000000000005f82015250565b5f611230601683610f50565b915061123b826111fc565b602082019050919050565b5f6020820190508181035f83015261125d81611224565b9050919050565b7f4e487b71000000000000000000000000000000000000000000000000000000005f52601160045260245ffd5b5f61129b82610e8f565b91506112a683610e8f565b92508282019050808211156112be576112bd611264565b5b92915050565b5f6040820190506112d75f830185610e98565b6112e46020830184610e98565b9392505050565b7f556e6c6f636b2074696d65206d75737420626520696e207468652066757475725f8201527f652e000000000000000000000000000000000000000000000000000000000000602082015250565b5f611345602283610f50565b9150611350826112eb565b604082019050919050565b5f6020820190508181035f83015261137281611339565b9050919050565b7f4f776e61626c653a206e6577206f776e657220697320746865207a65726f20615f8201527f6464726573730000000000000000000000000000000000000000000000000000602082015250565b5f6113d3602683610f50565b91506113de82611379565b604082019050919050565b5f6020820190508181035f830152611400816113c7565b9050919050565b5f60408201905061141a5f830185610ec0565b6114276020830184610e98565b9392505050565b7f4f776e61626c653a2063616c6c6572206973206e6f7420746865206f776e65725f82015250565b5f611462602083610f50565b915061146d8261142e565b602082019050919050565b5f6020820190508181035f83015261148f81611456565b905091905056fea2646970667358221220f56972adc0cba81de2d97040a512ff0feb1f2b3f62d1eeb348d54c2df27f4a4f64736f6c63430008140033","linkReferences":{}},"methodIdentifiers":{"deposit()":"d0e30db0","depositERC20(address,uint256)":"97feb926","lockedAmounts(address)":"a8c7a08a","owner()":"8da5cb5b","renounceOwnership()":"715018a6","setUnlockTime(address,uint256)":"9f5c863f","transferOwnership(address)":"f2fde38b","unlockTimes(address)":"6bf807fc","withdraw()":"3ccfd60b","withdrawERC20(address)":"f4f3b200"},"id":0}