{"abi":[{"type":"constructor","inputs":[],"stateMutability":"nonpayable"},{"type":"function","name":"getValue","inputs":[],"outputs":[{"name":"","type":"uint256","internalType":"uint256"}],"stateMutability":"view"},{"type":"function","name":"owner","inputs":[],"outputs":[{"name":"","type":"address","internalType":"address"}],"stateMutability":"view"},{"type":"function","name":"pause","inputs":[],"outputs":[],"stateMutability":"nonpayable"},{"type":"function","name":"paused","inputs":[],"outputs":[{"name":"","type":"bool","internalType":"bool"}],"stateMutability":"view"},{"type":"function","name":"renounceOwnership","inputs":[],"outputs":[],"stateMutability":"nonpayable"},{"type":"function","name":"setValue","inputs":[{"name":"_newValue","type":"uint256","internalType":"uint256"}],"outputs":[],"stateMutability":"nonpayable"},{"type":"function","name":"transferOwnership","inputs":[{"name":"newOwner","type":"address","internalType":"address"}],"outputs":[],"stateMutability":"nonpayable"},{"type":"function","name":"unpause","inputs":[],"outputs":[],"stateMutability":"nonpayable"},{"type":"function","name":"value","inputs":[],"outputs":[{"name":"","type":"uint256","internalType":"uint256"}],"stateMutability":"view"},{"type":"event","name":"OwnershipTransferred","inputs":[{"name":"previousOwner","type":"address","indexed":true,"internalType":"address"},{"name":"newOwner","type":"address","indexed":true,"internalType":"address"}],"anonymous":false},{"type":"event","name":"Paused","inputs":[{"name":"account","type":"address","indexed":false,"internalType":"address"}],"anonymous":false},{"type":"event","name":"Unpaused","inputs":[{"name":"account","type":"address","indexed":false,"internalType":"address"}],"anonymous":false}],"bytecode":{"object":"0x608060405234801561000f575f80fd5b505f805f6101000a81548160ff02191690831515021790555061004461003961004960201b60201c565b61005060201b60201c565b610113565b5f33905090565b5f8060019054906101000a900473ffffffffffffffffffffffffffffffffffffffff169050815f60016101000a81548173ffffffffffffffffffffffffffffffffffffffff021916908373ffffffffffffffffffffffffffffffffffffffff1602179055508173ffffffffffffffffffffffffffffffffffffffff168173ffffffffffffffffffffffffffffffffffffffff167f8be0079c531659141344cd1fd0a4f28419497f9722a3daafe3b4186f6b6457e060405160405180910390a35050565b6108a3806101205f395ff3fe608060405234801561000f575f80fd5b5060043610610091575f3560e01c80635c975abb116100645780635c975abb146100f7578063715018a6146101155780638456cb591461011f5780638da5cb5b14610129578063f2fde38b1461014757610091565b806320965255146100955780633f4ba83a146100b35780633fa4f245146100bd57806355241077146100db575b5f80fd5b61009d610163565b6040516100aa9190610545565b60405180910390f35b6100bb61016c565b005b6100c5610186565b6040516100d29190610545565b60405180910390f35b6100f560048036038101906100f0919061058c565b61018c565b005b6100ff6101a6565b60405161010c91906105d1565b60405180910390f35b61011d6101ba565b005b6101276101cd565b005b6101316101e7565b60405161013e9190610629565b60405180910390f35b610161600480360381019061015c919061066c565b61020f565b005b5f600154905090565b610174610291565b61017c61030f565b610184610358565b565b60015481565b6101946103b8565b61019c610291565b8060018190555050565b5f805f9054906101000a900460ff16905090565b6101c2610291565b6101cb5f610402565b565b6101d5610291565b6101dd6103b8565b6101e56104c5565b565b5f8060019054906101000a900473ffffffffffffffffffffffffffffffffffffffff16905090565b610217610291565b5f73ffffffffffffffffffffffffffffffffffffffff168173ffffffffffffffffffffffffffffffffffffffff1603610285576040517f08c379a000000000000000000000000000000000000000000000000000000000815260040161027c90610717565b60405180910390fd5b61028e81610402565b50565b610299610526565b73ffffffffffffffffffffffffffffffffffffffff166102b76101e7565b73ffffffffffffffffffffffffffffffffffffffff161461030d576040517f08c379a00000000000000000000000000000000000000000000000000000000081526004016103049061077f565b60405180910390fd5b565b6103176101a6565b610356576040517f08c379a000000000000000000000000000000000000000000000000000000000815260040161034d906107e7565b60405180910390fd5b565b61036061030f565b5f805f6101000a81548160ff0219169083151502179055507f5db9ee0a495bf2e6ff9c91a7834c1ba4fdd244a5e8aa4e537bd38aeae4b073aa6103a1610526565b6040516103ae9190610629565b60405180910390a1565b6103c06101a6565b15610400576040517f08c379a00000000000000000000000000000000000000000000000000000000081526004016103f79061084f565b60405180910390fd5b565b5f8060019054906101000a900473ffffffffffffffffffffffffffffffffffffffff169050815f60016101000a81548173ffffffffffffffffffffffffffffffffffffffff021916908373ffffffffffffffffffffffffffffffffffffffff1602179055508173ffffffffffffffffffffffffffffffffffffffff168173ffffffffffffffffffffffffffffffffffffffff167f8be0079c531659141344cd1fd0a4f28419497f9722a3daafe3b4186f6b6457e060405160405180910390a35050565b6104cd6103b8565b60015f806101000a81548160ff0219169083151502179055507f62e78cea01bee320cd4e420270b5ea74000d11b0c9f74754ebdbfc544b05a25861050f610526565b60405161051c9190610629565b60405180910390a1565b5f33905090565b5f819050919050565b61053f8161052d565b82525050565b5f6020820190506105585f830184610536565b92915050565b5f80fd5b61056b8161052d565b8114610575575f80fd5b50565b5f8135905061058681610562565b92915050565b5f602082840312156105a1576105a061055e565b5b5f6105ae84828501610578565b91505092915050565b5f8115159050919050565b6105cb816105b7565b82525050565b5f6020820190506105e45f8301846105c2565b92915050565b5f73ffffffffffffffffffffffffffffffffffffffff82169050919050565b5f610613826105ea565b9050919050565b61062381610609565b82525050565b5f60208201905061063c5f83018461061a565b92915050565b61064b81610609565b8114610655575f80fd5b50565b5f8135905061066681610642565b92915050565b5f602082840312156106815761068061055e565b5b5f61068e84828501610658565b91505092915050565b5f82825260208201905092915050565b7f4f776e61626c653a206e6577206f776e657220697320746865207a65726f20615f8201527f6464726573730000000000000000000000000000000000000000000000000000602082015250565b5f610701602683610697565b915061070c826106a7565b604082019050919050565b5f6020820190508181035f83015261072e816106f5565b9050919050565b7f4f776e61626c653a2063616c6c6572206973206e6f7420746865206f776e65725f82015250565b5f610769602083610697565b915061077482610735565b602082019050919050565b5f6020820190508181035f8301526107968161075d565b9050919050565b7f5061757361626c653a206e6f74207061757365640000000000000000000000005f82015250565b5f6107d1601483610697565b91506107dc8261079d565b602082019050919050565b5f6020820190508181035f8301526107fe816107c5565b9050919050565b7f5061757361626c653a20706175736564000000000000000000000000000000005f82015250565b5f610839601083610697565b915061084482610805565b602082019050919050565b5f6020820190508181035f8301526108668161082d565b905091905056fea2646970667358221220b36729e2ee15b80c97f6cfdfc64e066f127576779e4f047489c13175374eaf0964736f6c63430008140033","linkReferences":{}},"methodIdentifiers":{"getValue()":"20965255","owner()":"8da5cb5b","pause()":"8456cb59","paused()":"5c975abb","renounceOwnership()":"715018a6","setValue(uint256)":"55241077","transferOwnership(address)":"f2fde38b","unpause()":"3f4ba83a","value()":"3fa4f245"},"id":13}