{
  "_format": "hh-sol-artifact-1",
  "contractName": "Box",
  "sourceName": "contracts/Box.sol",
  "abi": [
    {
      "inputs": [],
      "stateMutability": "nonpayable",
      "type": "constructor"
    },
    {
      "anonymous": false,
      "inputs": [
        {
          "indexed": false,
          "internalType": "address",
          "name": "previousAdmin",
          "type": "address"
        },
        {
          "indexed": false,
          "internalType": "address",
          "name": "newAdmin",
          "type": "address"
        }
      ],
      "name": "AdminChanged",
      "type": "event"
    },
    {
      "anonymous": false,
      "inputs": [
        {
          "indexed": true,
          "internalType": "address",
          "name": "beacon",
          "type": "address"
        }
      ],
      "name": "BeaconUpgraded",
      "type": "event"
    },
    {
      "anonymous": false,
      "inputs": [
        {
          "indexed": false,
          "internalType": "uint8",
          "name": "version",
          "type": "uint8"
        }
      ],
      "name": "Initialized",
      "type": "event"
    },
    {
      "anonymous": false,
      "inputs": [
        {
          "indexed": true,
          "internalType": "address",
          "name": "previousOwner",
          "type": "address"
        },
        {
          "indexed": true,
          "internalType": "address",
          "name": "newOwner",
          "type": "address"
        }
      ],
      "name": "OwnershipTransferred",
      "type": "event"
    },
    {
      "anonymous": false,
      "inputs": [
        {
          "indexed": true,
          "internalType": "address",
          "name": "implementation",
          "type": "address"
        }
      ],
      "name": "Upgraded",
      "type": "event"
    },
    {
      "inputs": [
        {
          "internalType": "uint256",
          "name": "_value",
          "type": "uint256"
        }
      ],
      "name": "initialize",
      "outputs": [],
      "stateMutability": "nonpayable",
      "type": "function"
    },
    {
      "inputs": [],
      "name": "owner",
      "outputs": [
        {
          "internalType": "address",
          "name": "",
          "type": "address"
        }
      ],
      "stateMutability": "view",
      "type": "function"
    },
    {
      "inputs": [],
      "name": "proxiableUUID",
      "outputs": [
        {
          "internalType": "bytes32",
          "name": "",
          "type": "bytes32"
        }
      ],
      "stateMutability": "view",
      "type": "function"
    },
    {
      "inputs": [],
      "name": "renounceOwnership",
      "outputs": [],
      "stateMutability": "nonpayable",
      "type": "function"
    },
    {
      "inputs": [
        {
          "internalType": "address",
          "name": "newOwner",
          "type": "address"
        }
      ],
      "name": "transferOwnership",
      "outputs": [],
      "stateMutability": "nonpayable",
      "type": "function"
    },
    {
      "inputs": [
        {
          "internalType": "address",
          "name": "newImplementation",
          "type": "address"
        }
      ],
      "name": "upgradeTo",
      "outputs": [],
      "stateMutability": "nonpayable",
      "type": "function"
    },
    {
      "inputs": [
        {
          "internalType": "address",
          "name": "newImplementation",
          "type": "address"
        },
        {
          "internalType": "bytes",
          "name": "data",
          "type": "bytes"
        }
      ],
      "name": "upgradeToAndCall",
      "outputs": [],
      "stateMutability": "payable",
      "type": "function"
    },
    {
      "inputs": [],
      "name": "value",
      "outputs": [
        {
          "internalType": "uint256",
          "name": "",
          "type": "uint256"
        }
      ],
      "stateMutability": "view",
      "type": "function"
    }
  ],
  "bytecode": "0x60a06040523073ffffffffffffffffffffffffffffffffffffffff1660809073ffffffffffffffffffffffffffffffffffffffff168152503480156200004457600080fd5b50620000556200005b60201b60201c565b62000205565b600060019054906101000a900460ff1615620000ae576040517f08c379a0000000000000000000000000000000000000000000000000000000008152600401620000a590620001a8565b60405180910390fd5b60ff801660008054906101000a900460ff1660ff16146200011f5760ff6000806101000a81548160ff021916908360ff1602179055507f7f26b83ff96e1f2b6a682f133852f6798a09c465da95921460cefb384740249860ff604051620001169190620001e8565b60405180910390a15b565b600082825260208201905092915050565b7f496e697469616c697a61626c653a20636f6e747261637420697320696e69746960008201527f616c697a696e6700000000000000000000000000000000000000000000000000602082015250565b60006200019060278362000121565b91506200019d8262000132565b604082019050919050565b60006020820190508181036000830152620001c38162000181565b9050919050565b600060ff82169050919050565b620001e281620001ca565b82525050565b6000602082019050620001ff6000830184620001d7565b92915050565b60805161193a6200023d600039600081816101b10152818161023f0152818161033f015281816103cd015261047d015261193a6000f3fe60806040526004361061007b5760003560e01c8063715018a61161004e578063715018a61461011b5780638da5cb5b14610132578063f2fde38b1461015d578063fe4b84df146101865761007b565b80633659cfe6146100805780633fa4f245146100a95780634f1ef286146100d457806352d1902d146100f0575b600080fd5b34801561008c57600080fd5b506100a760048036038101906100a29190610e64565b6101af565b005b3480156100b557600080fd5b506100be610337565b6040516100cb9190610eaa565b60405180910390f35b6100ee60048036038101906100e9919061100b565b61033d565b005b3480156100fc57600080fd5b50610105610479565b6040516101129190611080565b60405180910390f35b34801561012757600080fd5b50610130610532565b005b34801561013e57600080fd5b50610147610546565b60405161015491906110aa565b60405180910390f35b34801561016957600080fd5b50610184600480360381019061017f9190610e64565b610570565b005b34801561019257600080fd5b506101ad60048036038101906101a891906110f1565b6105f3565b005b7f000000000000000000000000000000000000000000000000000000000000000073ffffffffffffffffffffffffffffffffffffffff163073ffffffffffffffffffffffffffffffffffffffff160361023d576040517f08c379a0000000000000000000000000000000000000000000000000000000008152600401610234906111a1565b60405180910390fd5b7f000000000000000000000000000000000000000000000000000000000000000073ffffffffffffffffffffffffffffffffffffffff1661027c610739565b73ffffffffffffffffffffffffffffffffffffffff16146102d2576040517f08c379a00000000000000000000000000000000000000000000000000000000081526004016102c990611233565b60405180910390fd5b6102db81610790565b61033481600067ffffffffffffffff8111156102fa576102f9610ee0565b5b6040519080825280601f01601f19166020018201604052801561032c5781602001600182028036833780820191505090505b50600061079b565b50565b60c95481565b7f000000000000000000000000000000000000000000000000000000000000000073ffffffffffffffffffffffffffffffffffffffff163073ffffffffffffffffffffffffffffffffffffffff16036103cb576040517f08c379a00000000000000000000000000000000000000000000000000000000081526004016103c2906111a1565b60405180910390fd5b7f000000000000000000000000000000000000000000000000000000000000000073ffffffffffffffffffffffffffffffffffffffff1661040a610739565b73ffffffffffffffffffffffffffffffffffffffff1614610460576040517f08c379a000000000000000000000000000000000000000000000000000000000815260040161045790611233565b60405180910390fd5b61046982610790565b6104758282600161079b565b5050565b60007f000000000000000000000000000000000000000000000000000000000000000073ffffffffffffffffffffffffffffffffffffffff163073ffffffffffffffffffffffffffffffffffffffff1614610509576040517f08c379a0000000000000000000000000000000000000000000000000000000008152600401610500906112c5565b60405180910390fd5b7f360894a13ba1a3210667c828492db98dca3e2076cc3735a920a3ca505d382bbc60001b905090565b61053a610909565b6105446000610987565b565b6000609760009054906101000a900473ffffffffffffffffffffffffffffffffffffffff16905090565b610578610909565b600073ffffffffffffffffffffffffffffffffffffffff168173ffffffffffffffffffffffffffffffffffffffff16036105e7576040517f08c379a00000000000000000000000000000000000000000000000000000000081526004016105de90611357565b60405180910390fd5b6105f081610987565b50565b60008060019054906101000a900460ff161590508080156106245750600160008054906101000a900460ff1660ff16105b80610651575061063330610a4d565b1580156106505750600160008054906101000a900460ff1660ff16145b5b610690576040517f08c379a0000000000000000000000000000000000000000000000000000000008152600401610687906113e9565b60405180910390fd5b60016000806101000a81548160ff021916908360ff16021790555080156106cd576001600060016101000a81548160ff0219169083151502179055505b8160c9819055506106dc610a70565b80156107355760008060016101000a81548160ff0219169083151502179055507f7f26b83ff96e1f2b6a682f133852f6798a09c465da95921460cefb3847402498600160405161072c919061145b565b60405180910390a15b5050565b60006107677f360894a13ba1a3210667c828492db98dca3e2076cc3735a920a3ca505d382bbc60001b610ac9565b60000160009054906101000a900473ffffffffffffffffffffffffffffffffffffffff16905090565b610798610909565b50565b6107c77f4910fdfa16fed3260ed0e7147f7cc6da11a60208b5b9406d12a635614ffd914360001b610ad3565b60000160009054906101000a900460ff16156107eb576107e683610add565b610904565b8273ffffffffffffffffffffffffffffffffffffffff166352d1902d6040518163ffffffff1660e01b8152600401602060405180830381865afa92505050801561085357506040513d601f19601f8201168201806040525081019061085091906114a2565b60015b610892576040517f08c379a000000000000000000000000000000000000000000000000000000000815260040161088990611541565b60405180910390fd5b7f360894a13ba1a3210667c828492db98dca3e2076cc3735a920a3ca505d382bbc60001b81146108f7576040517f08c379a00000000000000000000000000000000000000000000000000000000081526004016108ee906115d3565b60405180910390fd5b50610903838383610b96565b5b505050565b610911610bc2565b73ffffffffffffffffffffffffffffffffffffffff1661092f610546565b73ffffffffffffffffffffffffffffffffffffffff1614610985576040517f08c379a000000000000000000000000000000000000000000000000000000000815260040161097c9061163f565b60405180910390fd5b565b6000609760009054906101000a900473ffffffffffffffffffffffffffffffffffffffff16905081609760006101000a81548173ffffffffffffffffffffffffffffffffffffffff021916908373ffffffffffffffffffffffffffffffffffffffff1602179055508173ffffffffffffffffffffffffffffffffffffffff168173ffffffffffffffffffffffffffffffffffffffff167f8be0079c531659141344cd1fd0a4f28419497f9722a3daafe3b4186f6b6457e060405160405180910390a35050565b6000808273ffffffffffffffffffffffffffffffffffffffff163b119050919050565b600060019054906101000a900460ff16610abf576040517f08c379a0000000000000000000000000000000000000000000000000000000008152600401610ab6906116d1565b60405180910390fd5b610ac7610bca565b565b6000819050919050565b6000819050919050565b610ae681610a4d565b610b25576040517f08c379a0000000000000000000000000000000000000000000000000000000008152600401610b1c90611763565b60405180910390fd5b80610b527f360894a13ba1a3210667c828492db98dca3e2076cc3735a920a3ca505d382bbc60001b610ac9565b60000160006101000a81548173ffffffffffffffffffffffffffffffffffffffff021916908373ffffffffffffffffffffffffffffffffffffffff16021790555050565b610b9f83610c2b565b600082511180610bac5750805b15610bbd57610bbb8383610c7a565b505b505050565b600033905090565b600060019054906101000a900460ff16610c19576040517f08c379a0000000000000000000000000000000000000000000000000000000008152600401610c10906116d1565b60405180910390fd5b610c29610c24610bc2565b610987565b565b610c3481610add565b8073ffffffffffffffffffffffffffffffffffffffff167fbc7cd75a20ee27fd9adebab32041f755214dbc6bffa90cc0225b39da2e5c2d3b60405160405180910390a250565b6060610c9f83836040518060600160405280602781526020016118de60279139610ca7565b905092915050565b60606000808573ffffffffffffffffffffffffffffffffffffffff1685604051610cd191906117f4565b600060405180830381855af49150503d8060008114610d0c576040519150601f19603f3d011682016040523d82523d6000602084013e610d11565b606091505b5091509150610d2286838387610d2d565b925050509392505050565b60608315610d8f576000835103610d8757610d4785610a4d565b610d86576040517f08c379a0000000000000000000000000000000000000000000000000000000008152600401610d7d90611857565b60405180910390fd5b5b829050610d9a565b610d998383610da2565b5b949350505050565b600082511115610db55781518083602001fd5b806040517f08c379a0000000000000000000000000000000000000000000000000000000008152600401610de991906118bb565b60405180910390fd5b6000604051905090565b600080fd5b600080fd5b600073ffffffffffffffffffffffffffffffffffffffff82169050919050565b6000610e3182610e06565b9050919050565b610e4181610e26565b8114610e4c57600080fd5b50565b600081359050610e5e81610e38565b92915050565b600060208284031215610e7a57610e79610dfc565b5b6000610e8884828501610e4f565b91505092915050565b6000819050919050565b610ea481610e91565b82525050565b6000602082019050610ebf6000830184610e9b565b92915050565b600080fd5b600080fd5b6000601f19601f8301169050919050565b7f4e487b7100000000000000000000000000000000000000000000000000000000600052604160045260246000fd5b610f1882610ecf565b810181811067ffffffffffffffff82111715610f3757610f36610ee0565b5b80604052505050565b6000610f4a610df2565b9050610f568282610f0f565b919050565b600067ffffffffffffffff821115610f7657610f75610ee0565b5b610f7f82610ecf565b9050602081019050919050565b82818337600083830152505050565b6000610fae610fa984610f5b565b610f40565b905082815260208101848484011115610fca57610fc9610eca565b5b610fd5848285610f8c565b509392505050565b600082601f830112610ff257610ff1610ec5565b5b8135611002848260208601610f9b565b91505092915050565b6000806040838503121561102257611021610dfc565b5b600061103085828601610e4f565b925050602083013567ffffffffffffffff81111561105157611050610e01565b5b61105d85828601610fdd565b9150509250929050565b6000819050919050565b61107a81611067565b82525050565b60006020820190506110956000830184611071565b92915050565b6110a481610e26565b82525050565b60006020820190506110bf600083018461109b565b92915050565b6110ce81610e91565b81146110d957600080fd5b50565b6000813590506110eb816110c5565b92915050565b60006020828403121561110757611106610dfc565b5b6000611115848285016110dc565b91505092915050565b600082825260208201905092915050565b7f46756e6374696f6e206d7573742062652063616c6c6564207468726f7567682060008201527f64656c656761746563616c6c0000000000000000000000000000000000000000602082015250565b600061118b602c8361111e565b91506111968261112f565b604082019050919050565b600060208201905081810360008301526111ba8161117e565b9050919050565b7f46756e6374696f6e206d7573742062652063616c6c6564207468726f7567682060008201527f6163746976652070726f78790000000000000000000000000000000000000000602082015250565b600061121d602c8361111e565b9150611228826111c1565b604082019050919050565b6000602082019050818103600083015261124c81611210565b9050919050565b7f555550535570677261646561626c653a206d757374206e6f742062652063616c60008201527f6c6564207468726f7567682064656c656761746563616c6c0000000000000000602082015250565b60006112af60388361111e565b91506112ba82611253565b604082019050919050565b600060208201905081810360008301526112de816112a2565b9050919050565b7f4f776e61626c653a206e6577206f776e657220697320746865207a65726f206160008201527f6464726573730000000000000000000000000000000000000000000000000000602082015250565b600061134160268361111e565b915061134c826112e5565b604082019050919050565b6000602082019050818103600083015261137081611334565b9050919050565b7f496e697469616c697a61626c653a20636f6e747261637420697320616c72656160008201527f647920696e697469616c697a6564000000000000000000000000000000000000602082015250565b60006113d3602e8361111e565b91506113de82611377565b604082019050919050565b60006020820190508181036000830152611402816113c6565b9050919050565b6000819050919050565b600060ff82169050919050565b6000819050919050565b600061144561144061143b84611409565b611420565b611413565b9050919050565b6114558161142a565b82525050565b6000602082019050611470600083018461144c565b92915050565b61147f81611067565b811461148a57600080fd5b50565b60008151905061149c81611476565b92915050565b6000602082840312156114b8576114b7610dfc565b5b60006114c68482850161148d565b91505092915050565b7f45524331393637557067726164653a206e657720696d706c656d656e7461746960008201527f6f6e206973206e6f742055555053000000000000000000000000000000000000602082015250565b600061152b602e8361111e565b9150611536826114cf565b604082019050919050565b6000602082019050818103600083015261155a8161151e565b9050919050565b7f45524331393637557067726164653a20756e737570706f727465642070726f7860008201527f6961626c65555549440000000000000000000000000000000000000000000000602082015250565b60006115bd60298361111e565b91506115c882611561565b604082019050919050565b600060208201905081810360008301526115ec816115b0565b9050919050565b7f4f776e61626c653a2063616c6c6572206973206e6f7420746865206f776e6572600082015250565b600061162960208361111e565b9150611634826115f3565b602082019050919050565b600060208201905081810360008301526116588161161c565b9050919050565b7f496e697469616c697a61626c653a20636f6e7472616374206973206e6f74206960008201527f6e697469616c697a696e67000000000000000000000000000000000000000000602082015250565b60006116bb602b8361111e565b91506116c68261165f565b604082019050919050565b600060208201905081810360008301526116ea816116ae565b9050919050565b7f455243313936373a206e657720696d706c656d656e746174696f6e206973206e60008201527f6f74206120636f6e747261637400000000000000000000000000000000000000602082015250565b600061174d602d8361111e565b9150611758826116f1565b604082019050919050565b6000602082019050818103600083015261177c81611740565b9050919050565b600081519050919050565b600081905092915050565b60005b838110156117b757808201518184015260208101905061179c565b60008484015250505050565b60006117ce82611783565b6117d8818561178e565b93506117e8818560208601611799565b80840191505092915050565b600061180082846117c3565b915081905092915050565b7f416464726573733a2063616c6c20746f206e6f6e2d636f6e7472616374000000600082015250565b6000611841601d8361111e565b915061184c8261180b565b602082019050919050565b6000602082019050818103600083015261187081611834565b9050919050565b600081519050919050565b600061188d82611877565b611897818561111e565b93506118a7818560208601611799565b6118b081610ecf565b840191505092915050565b600060208201905081810360008301526118d58184611882565b90509291505056fe416464726573733a206c6f772d6c6576656c2064656c65676174652063616c6c206661696c6564a2646970667358221220b274eac9ce62354424e8e1fa1dddc74ad87582031a3d5c06d54c496cead3e1e564736f6c63430008140033",
  "linkReferences": {},
  "deployedLinkReferences": {}
}