{
  "_format": "hh-sol-artifact-1",
  "contractName": "TodoList",
  "sourceName": "contracts/TodoList.sol",
  "abi": [
    {
      "inputs": [
        {
          "internalType": "string",
          "name": "_text",
          "type": "string"
        }
      ],
      "name": "create",
      "outputs": [],
      "stateMutability": "nonpayable",
      "type": "function"
    },
    {
      "inputs": [
        {
          "internalType": "uint256",
          "name": "",
          "type": "uint256"
        }
      ],
      "name": "todos",
      "outputs": [
        {
          "internalType": "string",
          "name": "text",
          "type": "string"
        },
        {
          "internalType": "bool",
          "name": "completed",
          "type": "bool"
        }
      ],
      "stateMutability": "view",
      "type": "function"
    },
    {
      "inputs": [
        {
          "internalType": "uint256",
          "name": "_index",
          "type": "uint256"
        }
      ],
      "name": "toggleCompleted",
      "outputs": [],
      "stateMutability": "nonpayable",
      "type": "function"
    }
  ],
  "bytecode": "0x608060405234801561001057600080fd5b5061087c806100206000396000f3fe608060405234801561001057600080fd5b50600436106100415760003560e01c8063455f502414610046578063b6a46b3b14610062578063bc8bc2b41461007e575b600080fd5b610060600480360381019061005b91906102b3565b6100af565b005b61007c60048036038101906100779190610426565b610122565b005b610098600480360381019061009391906102b3565b6101a0565b6040516100a6929190610509565b60405180910390f35b600081815481106100c3576100c2610539565b5b906000526020600020906002020160010160009054906101000a900460ff1615600082815481106100f7576100f6610539565b5b906000526020600020906002020160010160006101000a81548160ff02191690831515021790555050565b60006040518060400160405280838152602001600015158152509080600181540180825580915050600190039060005260206000209060020201600090919091909150600082015181600001908161017a9190610774565b5060208201518160010160006101000a81548160ff021916908315150217905550505050565b600081815481106101b057600080fd5b90600052602060002090600202016000915090508060000180546101d390610597565b80601f01602080910402602001604051908101604052809291908181526020018280546101ff90610597565b801561024c5780601f106102215761010080835404028352916020019161024c565b820191906000526020600020905b81548152906001019060200180831161022f57829003601f168201915b5050505050908060010160009054906101000a900460ff16905082565b6000604051905090565b600080fd5b600080fd5b6000819050919050565b6102908161027d565b811461029b57600080fd5b50565b6000813590506102ad81610287565b92915050565b6000602082840312156102c9576102c8610273565b5b60006102d78482850161029e565b91505092915050565b600080fd5b600080fd5b6000601f19601f8301169050919050565b7f4e487b7100000000000000000000000000000000000000000000000000000000600052604160045260246000fd5b610333826102ea565b810181811067ffffffffffffffff82111715610352576103516102fb565b5b80604052505050565b6000610365610269565b9050610371828261032a565b919050565b600067ffffffffffffffff821115610391576103906102fb565b5b61039a826102ea565b9050602081019050919050565b82818337600083830152505050565b60006103c96103c484610376565b61035b565b9050828152602081018484840111156103e5576103e46102e5565b5b6103f08482856103a7565b509392505050565b600082601f83011261040d5761040c6102e0565b5b813561041d8482602086016103b6565b91505092915050565b60006020828403121561043c5761043b610273565b5b600082013567ffffffffffffffff81111561045a57610459610278565b5b610466848285016103f8565b91505092915050565b600081519050919050565b600082825260208201905092915050565b60005b838110156104a957808201518184015260208101905061048e565b60008484015250505050565b60006104c08261046f565b6104ca818561047a565b93506104da81856020860161048b565b6104e3816102ea565b840191505092915050565b60008115159050919050565b610503816104ee565b82525050565b6000604082019050818103600083015261052381856104b5565b905061053260208301846104fa565b9392505050565b7f4e487b7100000000000000000000000000000000000000000000000000000000600052603260045260246000fd5b7f4e487b7100000000000000000000000000000000000000000000000000000000600052602260045260246000fd5b600060028204905060018216806105af57607f821691505b6020821081036105c2576105c1610568565b5b50919050565b60008190508160005260206000209050919050565b60006020601f8301049050919050565b600082821b905092915050565b60006008830261062a7fffffffffffffffffffffffffffffffffffffffffffffffffffffffffffffffff826105ed565b61063486836105ed565b95508019841693508086168417925050509392505050565b6000819050919050565b600061067161066c6106678461027d565b61064c565b61027d565b9050919050565b6000819050919050565b61068b83610656565b61069f61069782610678565b8484546105fa565b825550505050565b600090565b6106b46106a7565b6106bf818484610682565b505050565b5b818110156106e3576106d86000826106ac565b6001810190506106c5565b5050565b601f821115610728576106f9816105c8565b610702846105dd565b81016020851015610711578190505b61072561071d856105dd565b8301826106c4565b50505b505050565b600082821c905092915050565b600061074b6000198460080261072d565b1980831691505092915050565b6000610764838361073a565b9150826002028217905092915050565b61077d8261046f565b67ffffffffffffffff811115610796576107956102fb565b5b6107a08254610597565b6107ab8282856106e7565b600060209050601f8311600181146107de57600084156107cc578287015190505b6107d68582610758565b86555061083e565b601f1984166107ec866105c8565b60005b82811015610814578489015182556001820191506020850194506020810190506107ef565b86831015610831578489015161082d601f89168261073a565b8355505b6001600288020188555050505b50505050505056fea2646970667358221220c4b73f258e2749f80afaa065aebd58b61204d5d5449643f780e8ff37a820a7c964736f6c63430008140033",
  "linkReferences": {},
  "deployedLinkReferences": {}
}