{
  "_format": "hh-sol-artifact-1",
  "contractName": "TodoList",
  "sourceName": "contracts/TodoList.sol",
  "abi": [
    {
      "inputs": [
        {
          "internalType": "string",
          "name": "_text",
          "type": "string"
        }
      ],
      "name": "create",
      "outputs": [],
      "stateMutability": "nonpayable",
      "type": "function"
    },
    {
      "inputs": [
        {
          "internalType": "uint256",
          "name": "_index",
          "type": "uint256"
        }
      ],
      "name": "getTodo",
      "outputs": [
        {
          "internalType": "string",
          "name": "",
          "type": "string"
        },
        {
          "internalType": "bool",
          "name": "",
          "type": "bool"
        }
      ],
      "stateMutability": "view",
      "type": "function"
    },
    {
      "inputs": [],
      "name": "getTodoCount",
      "outputs": [
        {
          "internalType": "uint256",
          "name": "",
          "type": "uint256"
        }
      ],
      "stateMutability": "view",
      "type": "function"
    },
    {
      "inputs": [
        {
          "internalType": "uint256",
          "name": "",
          "type": "uint256"
        }
      ],
      "name": "todos",
      "outputs": [
        {
          "internalType": "string",
          "name": "text",
          "type": "string"
        },
        {
          "internalType": "bool",
          "name": "completed",
          "type": "bool"
        }
      ],
      "stateMutability": "view",
      "type": "function"
    },
    {
      "inputs": [
        {
          "internalType": "uint256",
          "name": "_index",
          "type": "uint256"
        }
      ],
      "name": "toggleCompleted",
      "outputs": [],
      "stateMutability": "nonpayable",
      "type": "function"
    }
  ],
  "bytecode": "0x608060405234801561001057600080fd5b50610a07806100206000396000f3fe608060405234801561001057600080fd5b50600436106100575760003560e01c8063104a7cd81461005c578063455f50241461007a578063b6a46b3b14610096578063bc8bc2b4146100b2578063dd68afb6146100e3575b600080fd5b610064610114565b60405161007191906103e3565b60405180910390f35b610094600480360381019061008f919061043e565b610120565b005b6100b060048036038101906100ab91906105b1565b610193565b005b6100cc60048036038101906100c7919061043e565b610211565b6040516100da929190610694565b60405180910390f35b6100fd60048036038101906100f8919061043e565b6102da565b60405161010b929190610694565b60405180910390f35b60008080549050905090565b60008181548110610134576101336106c4565b5b906000526020600020906002020160010160009054906101000a900460ff161560008281548110610168576101676106c4565b5b906000526020600020906002020160010160006101000a81548160ff02191690831515021790555050565b6000604051806040016040528083815260200160001515815250908060018154018082558091505060019003906000526020600020906002020160009091909190915060008201518160000190816101eb91906108ff565b5060208201518160010160006101000a81548160ff021916908315150217905550505050565b6000818154811061022157600080fd5b906000526020600020906002020160009150905080600001805461024490610722565b80601f016020809104026020016040519081016040528092919081815260200182805461027090610722565b80156102bd5780601f10610292576101008083540402835291602001916102bd565b820191906000526020600020905b8154815290600101906020018083116102a057829003601f168201915b5050505050908060010160009054906101000a900460ff16905082565b606060008083815481106102f1576102f06106c4565b5b906000526020600020906002020160000160008481548110610316576103156106c4565b5b906000526020600020906002020160010160009054906101000a900460ff1681805461034190610722565b80601f016020809104026020016040519081016040528092919081815260200182805461036d90610722565b80156103ba5780601f1061038f576101008083540402835291602001916103ba565b820191906000526020600020905b81548152906001019060200180831161039d57829003601f168201915b5050505050915091509150915091565b6000819050919050565b6103dd816103ca565b82525050565b60006020820190506103f860008301846103d4565b92915050565b6000604051905090565b600080fd5b600080fd5b61041b816103ca565b811461042657600080fd5b50565b60008135905061043881610412565b92915050565b60006020828403121561045457610453610408565b5b600061046284828501610429565b91505092915050565b600080fd5b600080fd5b6000601f19601f8301169050919050565b7f4e487b7100000000000000000000000000000000000000000000000000000000600052604160045260246000fd5b6104be82610475565b810181811067ffffffffffffffff821117156104dd576104dc610486565b5b80604052505050565b60006104f06103fe565b90506104fc82826104b5565b919050565b600067ffffffffffffffff82111561051c5761051b610486565b5b61052582610475565b9050602081019050919050565b82818337600083830152505050565b600061055461054f84610501565b6104e6565b9050828152602081018484840111156105705761056f610470565b5b61057b848285610532565b509392505050565b600082601f8301126105985761059761046b565b5b81356105a8848260208601610541565b91505092915050565b6000602082840312156105c7576105c6610408565b5b600082013567ffffffffffffffff8111156105e5576105e461040d565b5b6105f184828501610583565b91505092915050565b600081519050919050565b600082825260208201905092915050565b60005b83811015610634578082015181840152602081019050610619565b60008484015250505050565b600061064b826105fa565b6106558185610605565b9350610665818560208601610616565b61066e81610475565b840191505092915050565b60008115159050919050565b61068e81610679565b82525050565b600060408201905081810360008301526106ae8185610640565b90506106bd6020830184610685565b9392505050565b7f4e487b7100000000000000000000000000000000000000000000000000000000600052603260045260246000fd5b7f4e487b7100000000000000000000000000000000000000000000000000000000600052602260045260246000fd5b6000600282049050600182168061073a57607f821691505b60208210810361074d5761074c6106f3565b5b50919050565b60008190508160005260206000209050919050565b60006020601f8301049050919050565b600082821b905092915050565b6000600883026107b57fffffffffffffffffffffffffffffffffffffffffffffffffffffffffffffffff82610778565b6107bf8683610778565b95508019841693508086168417925050509392505050565b6000819050919050565b60006107fc6107f76107f2846103ca565b6107d7565b6103ca565b9050919050565b6000819050919050565b610816836107e1565b61082a61082282610803565b848454610785565b825550505050565b600090565b61083f610832565b61084a81848461080d565b505050565b5b8181101561086e57610863600082610837565b600181019050610850565b5050565b601f8211156108b35761088481610753565b61088d84610768565b8101602085101561089c578190505b6108b06108a885610768565b83018261084f565b50505b505050565b600082821c905092915050565b60006108d6600019846008026108b8565b1980831691505092915050565b60006108ef83836108c5565b9150826002028217905092915050565b610908826105fa565b67ffffffffffffffff81111561092157610920610486565b5b61092b8254610722565b610936828285610872565b600060209050601f8311600181146109695760008415610957578287015190505b61096185826108e3565b8655506109c9565b601f19841661097786610753565b60005b8281101561099f5784890151825560018201915060208501945060208101905061097a565b868310156109bc57848901516109b8601f8916826108c5565b8355505b6001600288020188555050505b50505050505056fea2646970667358221220e4eb9556a2289c51e16fc1bea2cb6248996af4bd95d17729bc96ff0ddedbc82f64736f6c63430008140033",
  "linkReferences": {},
  "deployedLinkReferences": {}
}