{"abi":[{"type":"constructor","inputs":[{"name":"_token1","type":"address","internalType":"address"},{"name":"_token2","type":"address","internalType":"address"}],"stateMutability":"nonpayable"},{"type":"function","name":"addLiquidity","inputs":[{"name":"amount1","type":"uint256","internalType":"uint256"},{"name":"amount2","type":"uint256","internalType":"uint256"}],"outputs":[],"stateMutability":"nonpayable"},{"type":"function","name":"getReserve","inputs":[{"name":"token","type":"address","internalType":"contract IERC20"}],"outputs":[{"name":"","type":"uint256","internalType":"uint256"}],"stateMutability":"view"},{"type":"function","name":"getSwapAmount","inputs":[{"name":"from","type":"address","internalType":"contract IERC20"},{"name":"to","type":"address","internalType":"contract IERC20"},{"name":"amount","type":"uint256","internalType":"uint256"}],"outputs":[{"name":"","type":"uint256","internalType":"uint256"}],"stateMutability":"view"},{"type":"function","name":"swap","inputs":[{"name":"from","type":"address","internalType":"contract IERC20"},{"name":"to","type":"address","internalType":"contract IERC20"},{"name":"amount","type":"uint256","internalType":"uint256"}],"outputs":[],"stateMutability":"nonpayable"},{"type":"function","name":"token1","inputs":[],"outputs":[{"name":"","type":"address","internalType":"contract IERC20"}],"stateMutability":"view"},{"type":"function","name":"token2","inputs":[],"outputs":[{"name":"","type":"address","internalType":"contract IERC20"}],"stateMutability":"view"}],"bytecode":{"object":"0x608060405234801561000f575f80fd5b50604051610c04380380610c0483398181016040528101906100319190610115565b815f806101000a81548173ffffffffffffffffffffffffffffffffffffffff021916908373ffffffffffffffffffffffffffffffffffffffff1602179055508060015f6101000a81548173ffffffffffffffffffffffffffffffffffffffff021916908373ffffffffffffffffffffffffffffffffffffffff1602179055505050610153565b5f80fd5b5f73ffffffffffffffffffffffffffffffffffffffff82169050919050565b5f6100e4826100bb565b9050919050565b6100f4816100da565b81146100fe575f80fd5b50565b5f8151905061010f816100eb565b92915050565b5f806040838503121561012b5761012a6100b7565b5b5f61013885828601610101565b925050602061014985828601610101565b9150509250929050565b610aa4806101605f395ff3fe608060405234801561000f575f80fd5b5060043610610060575f3560e01c806325be124e14610064578063635bc0c2146100825780639cd441da146100b2578063c9a396e9146100ce578063d21220a7146100fe578063df791e501461011c575b5f80fd5b61006c610138565b604051610079919061068b565b60405180910390f35b61009c60048036038101906100979190610727565b61015d565b6040516100a99190610786565b60405180910390f35b6100cc60048036038101906100c7919061079f565b61018e565b005b6100e860048036038101906100e391906107dd565b6102ce565b6040516100f59190610786565b60405180910390f35b61010661034e565b604051610113919061068b565b60405180910390f35b61013660048036038101906101319190610727565b610371565b005b60015f9054906101000a900473ffffffffffffffffffffffffffffffffffffffff1681565b5f610167846102ce565b610170846102ce565b8361017b9190610835565b61018591906108a3565b90509392505050565b5f8054906101000a900473ffffffffffffffffffffffffffffffffffffffff1673ffffffffffffffffffffffffffffffffffffffff166323b872dd3330856040518463ffffffff1660e01b81526004016101ea939291906108e2565b6020604051808303815f875af1158015610206573d5f803e3d5ffd5b505050506040513d601f19601f8201168201806040525081019061022a919061094c565b5060015f9054906101000a900473ffffffffffffffffffffffffffffffffffffffff1673ffffffffffffffffffffffffffffffffffffffff166323b872dd3330846040518463ffffffff1660e01b8152600401610289939291906108e2565b6020604051808303815f875af11580156102a5573d5f803e3d5ffd5b505050506040513d601f19601f820116820180604052508101906102c9919061094c565b505050565b5f8173ffffffffffffffffffffffffffffffffffffffff166370a08231306040518263ffffffff1660e01b81526004016103089190610977565b602060405180830381865afa158015610323573d5f803e3d5ffd5b505050506040513d601f19601f8201168201806040525081019061034791906109a4565b9050919050565b5f8054906101000a900473ffffffffffffffffffffffffffffffffffffffff1681565b5f8054906101000a900473ffffffffffffffffffffffffffffffffffffffff1673ffffffffffffffffffffffffffffffffffffffff168373ffffffffffffffffffffffffffffffffffffffff16148015610417575060015f9054906101000a900473ffffffffffffffffffffffffffffffffffffffff1673ffffffffffffffffffffffffffffffffffffffff168273ffffffffffffffffffffffffffffffffffffffff16145b806104c4575060015f9054906101000a900473ffffffffffffffffffffffffffffffffffffffff1673ffffffffffffffffffffffffffffffffffffffff168373ffffffffffffffffffffffffffffffffffffffff161480156104c357505f8054906101000a900473ffffffffffffffffffffffffffffffffffffffff1673ffffffffffffffffffffffffffffffffffffffff168273ffffffffffffffffffffffffffffffffffffffff16145b5b610503576040517f08c379a00000000000000000000000000000000000000000000000000000000081526004016104fa90610a29565b60405180910390fd5b5f61050f84848461015d565b90508373ffffffffffffffffffffffffffffffffffffffff166323b872dd3330856040518463ffffffff1660e01b815260040161054e939291906108e2565b6020604051808303815f875af115801561056a573d5f803e3d5ffd5b505050506040513d601f19601f8201168201806040525081019061058e919061094c565b508273ffffffffffffffffffffffffffffffffffffffff1663a9059cbb33836040518363ffffffff1660e01b81526004016105ca929190610a47565b6020604051808303815f875af11580156105e6573d5f803e3d5ffd5b505050506040513d601f19601f8201168201806040525081019061060a919061094c565b5050505050565b5f73ffffffffffffffffffffffffffffffffffffffff82169050919050565b5f819050919050565b5f61065361064e61064984610611565b610630565b610611565b9050919050565b5f61066482610639565b9050919050565b5f6106758261065a565b9050919050565b6106858161066b565b82525050565b5f60208201905061069e5f83018461067c565b92915050565b5f80fd5b5f6106b282610611565b9050919050565b5f6106c3826106a8565b9050919050565b6106d3816106b9565b81146106dd575f80fd5b50565b5f813590506106ee816106ca565b92915050565b5f819050919050565b610706816106f4565b8114610710575f80fd5b50565b5f81359050610721816106fd565b92915050565b5f805f6060848603121561073e5761073d6106a4565b5b5f61074b868287016106e0565b935050602061075c868287016106e0565b925050604061076d86828701610713565b9150509250925092565b610780816106f4565b82525050565b5f6020820190506107995f830184610777565b92915050565b5f80604083850312156107b5576107b46106a4565b5b5f6107c285828601610713565b92505060206107d385828601610713565b9150509250929050565b5f602082840312156107f2576107f16106a4565b5b5f6107ff848285016106e0565b91505092915050565b7f4e487b71000000000000000000000000000000000000000000000000000000005f52601160045260245ffd5b5f61083f826106f4565b915061084a836106f4565b9250828202610858816106f4565b9150828204841483151761086f5761086e610808565b5b5092915050565b7f4e487b71000000000000000000000000000000000000000000000000000000005f52601260045260245ffd5b5f6108ad826106f4565b91506108b8836106f4565b9250826108c8576108c7610876565b5b828204905092915050565b6108dc816106a8565b82525050565b5f6060820190506108f55f8301866108d3565b61090260208301856108d3565b61090f6040830184610777565b949350505050565b5f8115159050919050565b61092b81610917565b8114610935575f80fd5b50565b5f8151905061094681610922565b92915050565b5f60208284031215610961576109606106a4565b5b5f61096e84828501610938565b91505092915050565b5f60208201905061098a5f8301846108d3565b92915050565b5f8151905061099e816106fd565b92915050565b5f602082840312156109b9576109b86106a4565b5b5f6109c684828501610990565b91505092915050565b5f82825260208201905092915050565b7f496e76616c696420746f6b656e732e00000000000000000000000000000000005f82015250565b5f610a13600f836109cf565b9150610a1e826109df565b602082019050919050565b5f6020820190508181035f830152610a4081610a07565b9050919050565b5f604082019050610a5a5f8301856108d3565b610a676020830184610777565b939250505056fea264697066735822122041136d7b7acae24833898ee624687ea7a384f14b75ac22c4e4eb78c3c44ed04764736f6c63430008140033","linkReferences":{}},"methodIdentifiers":{"addLiquidity(uint256,uint256)":"9cd441da","getReserve(address)":"c9a396e9","getSwapAmount(address,address,uint256)":"635bc0c2","swap(address,address,uint256)":"df791e50","token1()":"d21220a7","token2()":"25be124e"},"id":14}