{"abi":[{"type":"constructor","inputs":[{"name":"_beneficiary","type":"address","internalType":"address"},{"name":"_deadline","type":"uint256","internalType":"uint256"}],"stateMutability":"payable"},{"type":"function","name":"amount","inputs":[],"outputs":[{"name":"","type":"uint256","internalType":"uint256"}],"stateMutability":"view"},{"type":"function","name":"beneficiary","inputs":[],"outputs":[{"name":"","type":"address","internalType":"address"}],"stateMutability":"view"},{"type":"function","name":"deadline","inputs":[],"outputs":[{"name":"","type":"uint256","internalType":"uint256"}],"stateMutability":"view"},{"type":"function","name":"depositor","inputs":[],"outputs":[{"name":"","type":"address","internalType":"address"}],"stateMutability":"view"},{"type":"function","name":"getBalance","inputs":[],"outputs":[{"name":"","type":"uint256","internalType":"uint256"}],"stateMutability":"view"},{"type":"function","name":"reclaim","inputs":[],"outputs":[],"stateMutability":"nonpayable"},{"type":"function","name":"release","inputs":[],"outputs":[],"stateMutability":"nonpayable"}],"bytecode":{"object":"0x608060405260405161080838038061080883398181016040528101906100259190610155565b335f806101000a81548173ffffffffffffffffffffffffffffffffffffffff021916908373ffffffffffffffffffffffffffffffffffffffff1602179055508160015f6101000a81548173ffffffffffffffffffffffffffffffffffffffff021916908373ffffffffffffffffffffffffffffffffffffffff1602179055503460028190555080426100b791906101c0565b60038190555050506101f3565b5f80fd5b5f73ffffffffffffffffffffffffffffffffffffffff82169050919050565b5f6100f1826100c8565b9050919050565b610101816100e7565b811461010b575f80fd5b50565b5f8151905061011c816100f8565b92915050565b5f819050919050565b61013481610122565b811461013e575f80fd5b50565b5f8151905061014f8161012b565b92915050565b5f806040838503121561016b5761016a6100c4565b5b5f6101788582860161010e565b925050602061018985828601610141565b9150509250929050565b7f4e487b71000000000000000000000000000000000000000000000000000000005f52601160045260245ffd5b5f6101ca82610122565b91506101d583610122565b92508282019050808211156101ed576101ec610193565b5b92915050565b610608806102005f395ff3fe608060405234801561000f575f80fd5b506004361061007b575f3560e01c806380e9071b1161005957806380e9071b146100d957806386d1a69f146100e3578063aa8c217c146100ed578063c7c4ff461461010b5761007b565b806312065fe01461007f57806329dcb0cf1461009d57806338af3eed146100bb575b5f80fd5b610087610129565b60405161009491906103cd565b60405180910390f35b6100a5610130565b6040516100b291906103cd565b60405180910390f35b6100c3610136565b6040516100d09190610425565b60405180910390f35b6100e161015b565b005b6100eb610294565b005b6100f561038c565b60405161010291906103cd565b60405180910390f35b610113610392565b6040516101209190610425565b60405180910390f35b5f47905090565b60035481565b60015f9054906101000a900473ffffffffffffffffffffffffffffffffffffffff1681565b5f8054906101000a900473ffffffffffffffffffffffffffffffffffffffff1673ffffffffffffffffffffffffffffffffffffffff163373ffffffffffffffffffffffffffffffffffffffff16146101e8576040517f08c379a00000000000000000000000000000000000000000000000000000000081526004016101df906104be565b60405180910390fd5b60035442101561022d576040517f08c379a000000000000000000000000000000000000000000000000000000000815260040161022490610526565b60405180910390fd5b5f8054906101000a900473ffffffffffffffffffffffffffffffffffffffff1673ffffffffffffffffffffffffffffffffffffffff166108fc60025490811502906040515f60405180830381858888f19350505050158015610291573d5f803e3d5ffd5b50565b60015f9054906101000a900473ffffffffffffffffffffffffffffffffffffffff1673ffffffffffffffffffffffffffffffffffffffff163373ffffffffffffffffffffffffffffffffffffffff1614610323576040517f08c379a000000000000000000000000000000000000000000000000000000000815260040161031a906105b4565b60405180910390fd5b60015f9054906101000a900473ffffffffffffffffffffffffffffffffffffffff1673ffffffffffffffffffffffffffffffffffffffff166108fc60025490811502906040515f60405180830381858888f19350505050158015610389573d5f803e3d5ffd5b50565b60025481565b5f8054906101000a900473ffffffffffffffffffffffffffffffffffffffff1681565b5f819050919050565b6103c7816103b5565b82525050565b5f6020820190506103e05f8301846103be565b92915050565b5f73ffffffffffffffffffffffffffffffffffffffff82169050919050565b5f61040f826103e6565b9050919050565b61041f81610405565b82525050565b5f6020820190506104385f830184610416565b92915050565b5f82825260208201905092915050565b7f4f6e6c7920746865206465706f7369746f722063616e207265636c61696d20745f8201527f68652066756e64732e0000000000000000000000000000000000000000000000602082015250565b5f6104a860298361043e565b91506104b38261044e565b604082019050919050565b5f6020820190508181035f8301526104d58161049c565b9050919050565b7f54686520646561646c696e6520686173206e6f7420706173736564207965742e5f82015250565b5f61051060208361043e565b915061051b826104dc565b602082019050919050565b5f6020820190508181035f83015261053d81610504565b9050919050565b7f4f6e6c79207468652062656e65666963696172792063616e2072656c656173655f8201527f207468652066756e64732e000000000000000000000000000000000000000000602082015250565b5f61059e602b8361043e565b91506105a982610544565b604082019050919050565b5f6020820190508181035f8301526105cb81610592565b905091905056fea2646970667358221220c4d40da677076165c342e7e7c0ab931ad20d3ec915342cdccfbe88b24a7268b364736f6c63430008140033","linkReferences":{}},"methodIdentifiers":{"amount()":"aa8c217c","beneficiary()":"38af3eed","deadline()":"29dcb0cf","depositor()":"c7c4ff46","getBalance()":"12065fe0","reclaim()":"80e9071b","release()":"86d1a69f"},"id":4}