{
  "_format": "hh-sol-artifact-1",
  "contractName": "Guarded",
  "sourceName": "contracts/ReentrancyGuard.sol",
  "abi": [
    {
      "inputs": [
        {
          "internalType": "address",
          "name": "",
          "type": "address"
        }
      ],
      "name": "balances",
      "outputs": [
        {
          "internalType": "uint256",
          "name": "",
          "type": "uint256"
        }
      ],
      "stateMutability": "view",
      "type": "function"
    },
    {
      "inputs": [],
      "name": "deposit",
      "outputs": [],
      "stateMutability": "payable",
      "type": "function"
    },
    {
      "inputs": [
        {
          "internalType": "uint256",
          "name": "amount",
          "type": "uint256"
        }
      ],
      "name": "withdraw",
      "outputs": [],
      "stateMutability": "nonpayable",
      "type": "function"
    }
  ],
  "bytecode": "0x608060405234801561001057600080fd5b50600160008190555061068f806100286000396000f3fe6080604052600436106100345760003560e01c806327e235e3146100395780632e1a7d4d14610076578063d0e30db01461009f575b600080fd5b34801561004557600080fd5b50610060600480360381019061005b919061036d565b6100a9565b60405161006d91906103b3565b60405180910390f35b34801561008257600080fd5b5061009d600480360381019061009891906103fa565b6100c1565b005b6100a7610259565b005b60016020528060005260406000206000915090505481565b6100c96102b1565b80600160003373ffffffffffffffffffffffffffffffffffffffff1673ffffffffffffffffffffffffffffffffffffffff16815260200190815260200160002054101561014b576040517f08c379a000000000000000000000000000000000000000000000000000000000815260040161014290610484565b60405180910390fd5b80600160003373ffffffffffffffffffffffffffffffffffffffff1673ffffffffffffffffffffffffffffffffffffffff168152602001908152602001600020600082825461019a91906104d3565b9250508190555060003373ffffffffffffffffffffffffffffffffffffffff16826040516101c790610538565b60006040518083038185875af1925050503d8060008114610204576040519150601f19603f3d011682016040523d82523d6000602084013e610209565b606091505b505090508061024d576040517f08c379a000000000000000000000000000000000000000000000000000000000815260040161024490610599565b60405180910390fd5b50610256610300565b50565b34600160003373ffffffffffffffffffffffffffffffffffffffff1673ffffffffffffffffffffffffffffffffffffffff16815260200190815260200160002060008282546102a891906105b9565b92505081905550565b6002600054036102f6576040517f08c379a00000000000000000000000000000000000000000000000000000000081526004016102ed90610639565b60405180910390fd5b6002600081905550565b6001600081905550565b600080fd5b600073ffffffffffffffffffffffffffffffffffffffff82169050919050565b600061033a8261030f565b9050919050565b61034a8161032f565b811461035557600080fd5b50565b60008135905061036781610341565b92915050565b6000602082840312156103835761038261030a565b5b600061039184828501610358565b91505092915050565b6000819050919050565b6103ad8161039a565b82525050565b60006020820190506103c860008301846103a4565b92915050565b6103d78161039a565b81146103e257600080fd5b50565b6000813590506103f4816103ce565b92915050565b6000602082840312156104105761040f61030a565b5b600061041e848285016103e5565b91505092915050565b600082825260208201905092915050565b7f496e73756666696369656e742062616c616e63652e0000000000000000000000600082015250565b600061046e601583610427565b915061047982610438565b602082019050919050565b6000602082019050818103600083015261049d81610461565b9050919050565b7f4e487b7100000000000000000000000000000000000000000000000000000000600052601160045260246000fd5b60006104de8261039a565b91506104e98361039a565b9250828203905081811115610501576105006104a4565b5b92915050565b600081905092915050565b50565b6000610522600083610507565b915061052d82610512565b600082019050919050565b600061054382610515565b9150819050919050565b7f5472616e73666572206661696c65642e00000000000000000000000000000000600082015250565b6000610583601083610427565b915061058e8261054d565b602082019050919050565b600060208201905081810360008301526105b281610576565b9050919050565b60006105c48261039a565b91506105cf8361039a565b92508282019050808211156105e7576105e66104a4565b5b92915050565b7f5265656e7472616e637947756172643a207265656e7472616e742063616c6c00600082015250565b6000610623601f83610427565b915061062e826105ed565b602082019050919050565b6000602082019050818103600083015261065281610616565b905091905056fea26469706673582212204a15546f5c3d0aaa6f223b1cad3e0ed6c835830c069bc8e5c8537ade8294087b64736f6c63430008140033",
  "linkReferences": {},
  "deployedLinkReferences": {}
}