{"abi":[{"type":"constructor","inputs":[],"stateMutability":"nonpayable"},{"type":"function","name":"balances","inputs":[{"name":"","type":"address","internalType":"address"}],"outputs":[{"name":"","type":"uint256","internalType":"uint256"}],"stateMutability":"view"},{"type":"function","name":"deposit","inputs":[],"outputs":[],"stateMutability":"payable"},{"type":"function","name":"lockTime","inputs":[{"name":"","type":"address","internalType":"address"}],"outputs":[{"name":"","type":"uint256","internalType":"uint256"}],"stateMutability":"view"},{"type":"function","name":"owner","inputs":[],"outputs":[{"name":"","type":"address","internalType":"address"}],"stateMutability":"view"},{"type":"function","name":"renounceOwnership","inputs":[],"outputs":[],"stateMutability":"nonpayable"},{"type":"function","name":"setLockTime","inputs":[{"name":"user","type":"address","internalType":"address"},{"name":"newLockTime","type":"uint256","internalType":"uint256"}],"outputs":[],"stateMutability":"nonpayable"},{"type":"function","name":"transferOwnership","inputs":[{"name":"newOwner","type":"address","internalType":"address"}],"outputs":[],"stateMutability":"nonpayable"},{"type":"function","name":"withdraw","inputs":[],"outputs":[],"stateMutability":"nonpayable"},{"type":"event","name":"Deposit","inputs":[{"name":"user","type":"address","indexed":true,"internalType":"address"},{"name":"amount","type":"uint256","indexed":false,"internalType":"uint256"},{"name":"lockUntil","type":"uint256","indexed":false,"internalType":"uint256"}],"anonymous":false},{"type":"event","name":"OwnershipTransferred","inputs":[{"name":"previousOwner","type":"address","indexed":true,"internalType":"address"},{"name":"newOwner","type":"address","indexed":true,"internalType":"address"}],"anonymous":false},{"type":"event","name":"Withdraw","inputs":[{"name":"user","type":"address","indexed":true,"internalType":"address"},{"name":"amount","type":"uint256","indexed":false,"internalType":"uint256"}],"anonymous":false}],"bytecode":{"object":"0x608060405234801561000f575f80fd5b5061002c61002161003160201b60201c565b61003860201b60201c565b6100f9565b5f33905090565b5f805f9054906101000a900473ffffffffffffffffffffffffffffffffffffffff169050815f806101000a81548173ffffffffffffffffffffffffffffffffffffffff021916908373ffffffffffffffffffffffffffffffffffffffff1602179055508173ffffffffffffffffffffffffffffffffffffffff168173ffffffffffffffffffffffffffffffffffffffff167f8be0079c531659141344cd1fd0a4f28419497f9722a3daafe3b4186f6b6457e060405160405180910390a35050565b610c54806101065f395ff3fe60806040526004361061007a575f3560e01c8063a4beda631161004d578063a4beda6314610110578063d0e30db01461014c578063ebba564414610156578063f2fde38b1461017e5761007a565b806327e235e31461007e5780633ccfd60b146100ba578063715018a6146100d05780638da5cb5b146100e6575b5f80fd5b348015610089575f80fd5b506100a4600480360381019061009f919061082c565b6101a6565b6040516100b1919061086f565b60405180910390f35b3480156100c5575f80fd5b506100ce6101bb565b005b3480156100db575f80fd5b506100e4610437565b005b3480156100f1575f80fd5b506100fa61044a565b6040516101079190610897565b60405180910390f35b34801561011b575f80fd5b506101366004803603810190610131919061082c565b610471565b604051610143919061086f565b60405180910390f35b610154610486565b005b348015610161575f80fd5b5061017c600480360381019061017791906108da565b6105b8565b005b348015610189575f80fd5b506101a4600480360381019061019f919061082c565b610606565b005b6001602052805f5260405f205f915090505481565b5f60015f3373ffffffffffffffffffffffffffffffffffffffff1673ffffffffffffffffffffffffffffffffffffffff1681526020019081526020015f20541161023a576040517f08c379a000000000000000000000000000000000000000000000000000000000815260040161023190610972565b60405180910390fd5b60025f3373ffffffffffffffffffffffffffffffffffffffff1673ffffffffffffffffffffffffffffffffffffffff1681526020019081526020015f20544210156102ba576040517f08c379a00000000000000000000000000000000000000000000000000000000081526004016102b1906109da565b60405180910390fd5b5f60015f3373ffffffffffffffffffffffffffffffffffffffff1673ffffffffffffffffffffffffffffffffffffffff1681526020019081526020015f205490505f60015f3373ffffffffffffffffffffffffffffffffffffffff1673ffffffffffffffffffffffffffffffffffffffff1681526020019081526020015f20819055505f3373ffffffffffffffffffffffffffffffffffffffff168260405161036290610a25565b5f6040518083038185875af1925050503d805f811461039c576040519150601f19603f3d011682016040523d82523d5f602084013e6103a1565b606091505b50509050806103e5576040517f08c379a00000000000000000000000000000000000000000000000000000000081526004016103dc90610a83565b60405180910390fd5b3373ffffffffffffffffffffffffffffffffffffffff167f884edad9ce6fa2440d8a54cc123490eb96d2768479d49ff9c7366125a94243648360405161042b919061086f565b60405180910390a25050565b61043f610688565b6104485f610706565b565b5f805f9054906101000a900473ffffffffffffffffffffffffffffffffffffffff16905090565b6002602052805f5260405f205f915090505481565b3460015f3373ffffffffffffffffffffffffffffffffffffffff1673ffffffffffffffffffffffffffffffffffffffff1681526020019081526020015f205f8282546104d29190610ace565b9250508190555062093a80426104e89190610ace565b60025f3373ffffffffffffffffffffffffffffffffffffffff1673ffffffffffffffffffffffffffffffffffffffff1681526020019081526020015f20819055503373ffffffffffffffffffffffffffffffffffffffff167f90890809c654f11d6e72a28fa60149770a0d11ec6c92319d6ceb2bb0a4ea1a153460025f3373ffffffffffffffffffffffffffffffffffffffff1673ffffffffffffffffffffffffffffffffffffffff1681526020019081526020015f20546040516105ae929190610b01565b60405180910390a2565b6105c0610688565b8060025f8473ffffffffffffffffffffffffffffffffffffffff1673ffffffffffffffffffffffffffffffffffffffff1681526020019081526020015f20819055505050565b61060e610688565b5f73ffffffffffffffffffffffffffffffffffffffff168173ffffffffffffffffffffffffffffffffffffffff160361067c576040517f08c379a000000000000000000000000000000000000000000000000000000000815260040161067390610b98565b60405180910390fd5b61068581610706565b50565b6106906107c7565b73ffffffffffffffffffffffffffffffffffffffff166106ae61044a565b73ffffffffffffffffffffffffffffffffffffffff1614610704576040517f08c379a00000000000000000000000000000000000000000000000000000000081526004016106fb90610c00565b60405180910390fd5b565b5f805f9054906101000a900473ffffffffffffffffffffffffffffffffffffffff169050815f806101000a81548173ffffffffffffffffffffffffffffffffffffffff021916908373ffffffffffffffffffffffffffffffffffffffff1602179055508173ffffffffffffffffffffffffffffffffffffffff168173ffffffffffffffffffffffffffffffffffffffff167f8be0079c531659141344cd1fd0a4f28419497f9722a3daafe3b4186f6b6457e060405160405180910390a35050565b5f33905090565b5f80fd5b5f73ffffffffffffffffffffffffffffffffffffffff82169050919050565b5f6107fb826107d2565b9050919050565b61080b816107f1565b8114610815575f80fd5b50565b5f8135905061082681610802565b92915050565b5f60208284031215610841576108406107ce565b5b5f61084e84828501610818565b91505092915050565b5f819050919050565b61086981610857565b82525050565b5f6020820190506108825f830184610860565b92915050565b610891816107f1565b82525050565b5f6020820190506108aa5f830184610888565b92915050565b6108b981610857565b81146108c3575f80fd5b50565b5f813590506108d4816108b0565b92915050565b5f80604083850312156108f0576108ef6107ce565b5b5f6108fd85828601610818565b925050602061090e858286016108c6565b9150509250929050565b5f82825260208201905092915050565b7f4e6f2066756e647320746f2077697468647261770000000000000000000000005f82015250565b5f61095c601483610918565b915061096782610928565b602082019050919050565b5f6020820190508181035f83015261098981610950565b9050919050565b7f46756e647320617265207374696c6c206c6f636b6564000000000000000000005f82015250565b5f6109c4601683610918565b91506109cf82610990565b602082019050919050565b5f6020820190508181035f8301526109f1816109b8565b9050919050565b5f81905092915050565b50565b5f610a105f836109f8565b9150610a1b82610a02565b5f82019050919050565b5f610a2f82610a05565b9150819050919050565b7f5472616e73666572206661696c656400000000000000000000000000000000005f82015250565b5f610a6d600f83610918565b9150610a7882610a39565b602082019050919050565b5f6020820190508181035f830152610a9a81610a61565b9050919050565b7f4e487b71000000000000000000000000000000000000000000000000000000005f52601160045260245ffd5b5f610ad882610857565b9150610ae383610857565b9250828201905080821115610afb57610afa610aa1565b5b92915050565b5f604082019050610b145f830185610860565b610b216020830184610860565b9392505050565b7f4f776e61626c653a206e6577206f776e657220697320746865207a65726f20615f8201527f6464726573730000000000000000000000000000000000000000000000000000602082015250565b5f610b82602683610918565b9150610b8d82610b28565b604082019050919050565b5f6020820190508181035f830152610baf81610b76565b9050919050565b7f4f776e61626c653a2063616c6c6572206973206e6f7420746865206f776e65725f82015250565b5f610bea602083610918565b9150610bf582610bb6565b602082019050919050565b5f6020820190508181035f830152610c1781610bde565b905091905056fea2646970667358221220f21703b8495c83324a0fa4bca539d75bf2197afb4efbffdde536ace447b3dd2764736f6c63430008140033","linkReferences":{}},"methodIdentifiers":{"balances(address)":"27e235e3","deposit()":"d0e30db0","lockTime(address)":"a4beda63","owner()":"8da5cb5b","renounceOwnership()":"715018a6","setLockTime(address,uint256)":"ebba5644","transferOwnership(address)":"f2fde38b","withdraw()":"3ccfd60b"},"id":24}