{"abi":[{"type":"constructor","inputs":[],"stateMutability":"nonpayable"},{"type":"function","name":"createProposal","inputs":[{"name":"_name","type":"string","internalType":"string"}],"outputs":[],"stateMutability":"nonpayable"},{"type":"function","name":"getProposal","inputs":[{"name":"_proposalId","type":"uint256","internalType":"uint256"}],"outputs":[{"name":"id","type":"uint256","internalType":"uint256"},{"name":"name","type":"string","internalType":"string"},{"name":"voteCount","type":"uint256","internalType":"uint256"}],"stateMutability":"view"},{"type":"function","name":"hasVoted","inputs":[{"name":"","type":"address","internalType":"address"}],"outputs":[{"name":"","type":"bool","internalType":"bool"}],"stateMutability":"view"},{"type":"function","name":"nextProposalId","inputs":[],"outputs":[{"name":"","type":"uint256","internalType":"uint256"}],"stateMutability":"view"},{"type":"function","name":"owner","inputs":[],"outputs":[{"name":"","type":"address","internalType":"address"}],"stateMutability":"view"},{"type":"function","name":"proposals","inputs":[{"name":"","type":"uint256","internalType":"uint256"}],"outputs":[{"name":"id","type":"uint256","internalType":"uint256"},{"name":"name","type":"string","internalType":"string"},{"name":"voteCount","type":"uint256","internalType":"uint256"},{"name":"exists","type":"bool","internalType":"bool"}],"stateMutability":"view"},{"type":"function","name":"renounceOwnership","inputs":[],"outputs":[],"stateMutability":"nonpayable"},{"type":"function","name":"transferOwnership","inputs":[{"name":"newOwner","type":"address","internalType":"address"}],"outputs":[],"stateMutability":"nonpayable"},{"type":"function","name":"vote","inputs":[{"name":"_proposalId","type":"uint256","internalType":"uint256"}],"outputs":[],"stateMutability":"nonpayable"},{"type":"event","name":"OwnershipTransferred","inputs":[{"name":"previousOwner","type":"address","indexed":true,"internalType":"address"},{"name":"newOwner","type":"address","indexed":true,"internalType":"address"}],"anonymous":false},{"type":"event","name":"ProposalCreated","inputs":[{"name":"id","type":"uint256","indexed":true,"internalType":"uint256"},{"name":"name","type":"string","indexed":false,"internalType":"string"}],"anonymous":false},{"type":"event","name":"Voted","inputs":[{"name":"voter","type":"address","indexed":true,"internalType":"address"},{"name":"proposalId","type":"uint256","indexed":true,"internalType":"uint256"}],"anonymous":false}],"bytecode":{"object":"0x608060405234801561000f575f80fd5b5061002c61002161003860201b60201c565b61003f60201b60201c565b5f600181905550610100565b5f33905090565b5f805f9054906101000a900473ffffffffffffffffffffffffffffffffffffffff169050815f806101000a81548173ffffffffffffffffffffffffffffffffffffffff021916908373ffffffffffffffffffffffffffffffffffffffff1602179055508173ffffffffffffffffffffffffffffffffffffffff168173ffffffffffffffffffffffffffffffffffffffff167f8be0079c531659141344cd1fd0a4f28419497f9722a3daafe3b4186f6b6457e060405160405180910390a35050565b6111a58061010d5f395ff3fe608060405234801561000f575f80fd5b5060043610610091575f3560e01c806349c2a1a61161006457806349c2a1a614610132578063715018a61461014e5780638da5cb5b14610158578063c7f758a814610176578063f2fde38b146101a857610091565b80630121b93f14610095578063013cf08b146100b157806309eef43e146100e45780632ab09d1414610114575b5f80fd5b6100af60048036038101906100aa9190610896565b6101c4565b005b6100cb60048036038101906100c69190610896565b610373565b6040516100db9493929190610974565b60405180910390f35b6100fe60048036038101906100f99190610a18565b610431565b60405161010b9190610a43565b60405180910390f35b61011c61044e565b6040516101299190610a5c565b60405180910390f35b61014c60048036038101906101479190610ba1565b610454565b005b610156610533565b005b610160610546565b60405161016d9190610bf7565b60405180910390f35b610190600480360381019061018b9190610896565b61056d565b60405161019f93929190610c10565b60405180910390f35b6101c260048036038101906101bd9190610a18565b61068a565b005b60025f8281526020019081526020015f206003015f9054906101000a900460ff16610224576040517f08c379a000000000000000000000000000000000000000000000000000000000815260040161021b90610c96565b60405180910390fd5b60035f3373ffffffffffffffffffffffffffffffffffffffff1673ffffffffffffffffffffffffffffffffffffffff1681526020019081526020015f205f9054906101000a900460ff16156102ae576040517f08c379a00000000000000000000000000000000000000000000000000000000081526004016102a590610cfe565b60405180910390fd5b60025f8281526020019081526020015f206002015f8154809291906102d290610d49565b9190505550600160035f3373ffffffffffffffffffffffffffffffffffffffff1673ffffffffffffffffffffffffffffffffffffffff1681526020019081526020015f205f6101000a81548160ff021916908315150217905550803373ffffffffffffffffffffffffffffffffffffffff167f4d99b957a2bc29a30ebd96a7be8e68fe50a3c701db28a91436490b7d53870ca460405160405180910390a350565b6002602052805f5260405f205f91509050805f01549080600101805461039890610dbd565b80601f01602080910402602001604051908101604052809291908181526020018280546103c490610dbd565b801561040f5780601f106103e65761010080835404028352916020019161040f565b820191905f5260205f20905b8154815290600101906020018083116103f257829003601f168201915b505050505090806002015490806003015f9054906101000a900460ff16905084565b6003602052805f5260405f205f915054906101000a900460ff1681565b60015481565b61045c61070c565b604051806080016040528060015481526020018281526020015f81526020016001151581525060025f60015481526020019081526020015f205f820151815f015560208201518160010190816104b29190610f8a565b50604082015181600201556060820151816003015f6101000a81548160ff0219169083151502179055509050506001547f9c770c289ab5bf7e57cb1d23c8ceae993aea46eb64847072fd3d78ca60d3e432826040516105119190611059565b60405180910390a260015f81548092919061052b90610d49565b919050555050565b61053b61070c565b6105445f61078a565b565b5f805f9054906101000a900473ffffffffffffffffffffffffffffffffffffffff16905090565b5f60605f60025f8581526020019081526020015f206003015f9054906101000a900460ff166105d1576040517f08c379a00000000000000000000000000000000000000000000000000000000081526004016105c890610c96565b60405180910390fd5b5f60025f8681526020019081526020015f209050805f01548160010182600201548180546105fe90610dbd565b80601f016020809104026020016040519081016040528092919081815260200182805461062a90610dbd565b80156106755780601f1061064c57610100808354040283529160200191610675565b820191905f5260205f20905b81548152906001019060200180831161065857829003601f168201915b50505050509150935093509350509193909250565b61069261070c565b5f73ffffffffffffffffffffffffffffffffffffffff168173ffffffffffffffffffffffffffffffffffffffff1603610700576040517f08c379a00000000000000000000000000000000000000000000000000000000081526004016106f7906110e9565b60405180910390fd5b6107098161078a565b50565b61071461084b565b73ffffffffffffffffffffffffffffffffffffffff16610732610546565b73ffffffffffffffffffffffffffffffffffffffff1614610788576040517f08c379a000000000000000000000000000000000000000000000000000000000815260040161077f90611151565b60405180910390fd5b565b5f805f9054906101000a900473ffffffffffffffffffffffffffffffffffffffff169050815f806101000a81548173ffffffffffffffffffffffffffffffffffffffff021916908373ffffffffffffffffffffffffffffffffffffffff1602179055508173ffffffffffffffffffffffffffffffffffffffff168173ffffffffffffffffffffffffffffffffffffffff167f8be0079c531659141344cd1fd0a4f28419497f9722a3daafe3b4186f6b6457e060405160405180910390a35050565b5f33905090565b5f604051905090565b5f80fd5b5f80fd5b5f819050919050565b61087581610863565b811461087f575f80fd5b50565b5f813590506108908161086c565b92915050565b5f602082840312156108ab576108aa61085b565b5b5f6108b884828501610882565b91505092915050565b6108ca81610863565b82525050565b5f81519050919050565b5f82825260208201905092915050565b5f5b838110156109075780820151818401526020810190506108ec565b5f8484015250505050565b5f601f19601f8301169050919050565b5f61092c826108d0565b61093681856108da565b93506109468185602086016108ea565b61094f81610912565b840191505092915050565b5f8115159050919050565b61096e8161095a565b82525050565b5f6080820190506109875f8301876108c1565b81810360208301526109998186610922565b90506109a860408301856108c1565b6109b56060830184610965565b95945050505050565b5f73ffffffffffffffffffffffffffffffffffffffff82169050919050565b5f6109e7826109be565b9050919050565b6109f7816109dd565b8114610a01575f80fd5b50565b5f81359050610a12816109ee565b92915050565b5f60208284031215610a2d57610a2c61085b565b5b5f610a3a84828501610a04565b91505092915050565b5f602082019050610a565f830184610965565b92915050565b5f602082019050610a6f5f8301846108c1565b92915050565b5f80fd5b5f80fd5b7f4e487b71000000000000000000000000000000000000000000000000000000005f52604160045260245ffd5b610ab382610912565b810181811067ffffffffffffffff82111715610ad257610ad1610a7d565b5b80604052505050565b5f610ae4610852565b9050610af08282610aaa565b919050565b5f67ffffffffffffffff821115610b0f57610b0e610a7d565b5b610b1882610912565b9050602081019050919050565b828183375f83830152505050565b5f610b45610b4084610af5565b610adb565b905082815260208101848484011115610b6157610b60610a79565b5b610b6c848285610b25565b509392505050565b5f82601f830112610b8857610b87610a75565b5b8135610b98848260208601610b33565b91505092915050565b5f60208284031215610bb657610bb561085b565b5b5f82013567ffffffffffffffff811115610bd357610bd261085f565b5b610bdf84828501610b74565b91505092915050565b610bf1816109dd565b82525050565b5f602082019050610c0a5f830184610be8565b92915050565b5f606082019050610c235f8301866108c1565b8181036020830152610c358185610922565b9050610c4460408301846108c1565b949350505050565b7f50726f706f73616c20646f6573206e6f742065786973740000000000000000005f82015250565b5f610c806017836108da565b9150610c8b82610c4c565b602082019050919050565b5f6020820190508181035f830152610cad81610c74565b9050919050565b7f416c726561647920766f746564000000000000000000000000000000000000005f82015250565b5f610ce8600d836108da565b9150610cf382610cb4565b602082019050919050565b5f6020820190508181035f830152610d1581610cdc565b9050919050565b7f4e487b71000000000000000000000000000000000000000000000000000000005f52601160045260245ffd5b5f610d5382610863565b91507fffffffffffffffffffffffffffffffffffffffffffffffffffffffffffffffff8203610d8557610d84610d1c565b5b600182019050919050565b7f4e487b71000000000000000000000000000000000000000000000000000000005f52602260045260245ffd5b5f6002820490506001821680610dd457607f821691505b602082108103610de757610de6610d90565b5b50919050565b5f819050815f5260205f209050919050565b5f6020601f8301049050919050565b5f82821b905092915050565b5f60088302610e497fffffffffffffffffffffffffffffffffffffffffffffffffffffffffffffffff82610e0e565b610e538683610e0e565b95508019841693508086168417925050509392505050565b5f819050919050565b5f610e8e610e89610e8484610863565b610e6b565b610863565b9050919050565b5f819050919050565b610ea783610e74565b610ebb610eb382610e95565b848454610e1a565b825550505050565b5f90565b610ecf610ec3565b610eda818484610e9e565b505050565b5b81811015610efd57610ef25f82610ec7565b600181019050610ee0565b5050565b601f821115610f4257610f1381610ded565b610f1c84610dff565b81016020851015610f2b578190505b610f3f610f3785610dff565b830182610edf565b50505b505050565b5f82821c905092915050565b5f610f625f1984600802610f47565b1980831691505092915050565b5f610f7a8383610f53565b9150826002028217905092915050565b610f93826108d0565b67ffffffffffffffff811115610fac57610fab610a7d565b5b610fb68254610dbd565b610fc1828285610f01565b5f60209050601f831160018114610ff2575f8415610fe0578287015190505b610fea8582610f6f565b865550611051565b601f19841661100086610ded565b5f5b8281101561102757848901518255600182019150602085019450602081019050611002565b868310156110445784890151611040601f891682610f53565b8355505b6001600288020188555050505b505050505050565b5f6020820190508181035f8301526110718184610922565b905092915050565b7f4f776e61626c653a206e6577206f776e657220697320746865207a65726f20615f8201527f6464726573730000000000000000000000000000000000000000000000000000602082015250565b5f6110d36026836108da565b91506110de82611079565b604082019050919050565b5f6020820190508181035f830152611100816110c7565b9050919050565b7f4f776e61626c653a2063616c6c6572206973206e6f7420746865206f776e65725f82015250565b5f61113b6020836108da565b915061114682611107565b602082019050919050565b5f6020820190508181035f8301526111688161112f565b905091905056fea2646970667358221220ba1d06dd687d2f5961f532c86bda3fdc4b037503efa8cf01ef05bee59452e84164736f6c63430008140033","linkReferences":{}},"methodIdentifiers":{"createProposal(string)":"49c2a1a6","getProposal(uint256)":"c7f758a8","hasVoted(address)":"09eef43e","nextProposalId()":"2ab09d14","owner()":"8da5cb5b","proposals(uint256)":"013cf08b","renounceOwnership()":"715018a6","transferOwnership(address)":"f2fde38b","vote(uint256)":"0121b93f"},"id":24}