{"abi":[{"type":"constructor","inputs":[{"name":"proposalNames","type":"string[]","internalType":"string[]"}],"stateMutability":"nonpayable"},{"type":"function","name":"hasVoted","inputs":[{"name":"","type":"address","internalType":"address"}],"outputs":[{"name":"","type":"bool","internalType":"bool"}],"stateMutability":"view"},{"type":"function","name":"proposals","inputs":[{"name":"","type":"uint256","internalType":"uint256"}],"outputs":[{"name":"name","type":"string","internalType":"string"},{"name":"voteCount","type":"uint256","internalType":"uint256"}],"stateMutability":"view"},{"type":"function","name":"vote","inputs":[{"name":"proposalIndex","type":"uint256","internalType":"uint256"}],"outputs":[],"stateMutability":"nonpayable"},{"type":"function","name":"winningProposal","inputs":[],"outputs":[{"name":"winningProposal_","type":"uint256","internalType":"uint256"}],"stateMutability":"view"}],"bytecode":{"object":"0x608060405234801562000010575f80fd5b5060405162000f0a38038062000f0a833981810160405281019062000036919062000358565b5f5b8151811015620000d3575f6040518060400160405280848481518110620000645762000063620003a7565b5b602002602001015181526020015f815250908060018154018082558091505060019003905f5260205f2090600202015f909190919091505f820151815f019081620000b091906200060b565b506020820151816001015550508080620000ca906200071c565b91505062000038565b505062000768565b5f604051905090565b5f80fd5b5f80fd5b5f80fd5b5f601f19601f8301169050919050565b7f4e487b71000000000000000000000000000000000000000000000000000000005f52604160045260245ffd5b6200013882620000f0565b810181811067ffffffffffffffff821117156200015a576200015962000100565b5b80604052505050565b5f6200016e620000db565b90506200017c82826200012d565b919050565b5f67ffffffffffffffff8211156200019e576200019d62000100565b5b602082029050602081019050919050565b5f80fd5b5f80fd5b5f67ffffffffffffffff821115620001d457620001d362000100565b5b620001df82620000f0565b9050602081019050919050565b5f5b838110156200020b578082015181840152602081019050620001ee565b5f8484015250505050565b5f6200022c6200022684620001b7565b62000163565b9050828152602081018484840111156200024b576200024a620001b3565b5b62000258848285620001ec565b509392505050565b5f82601f830112620002775762000276620000ec565b5b81516200028984826020860162000216565b91505092915050565b5f620002a8620002a28462000181565b62000163565b90508083825260208201905060208402830185811115620002ce57620002cd620001af565b5b835b818110156200031c57805167ffffffffffffffff811115620002f757620002f6620000ec565b5b80860162000306898262000260565b85526020850194505050602081019050620002d0565b5050509392505050565b5f82601f8301126200033d576200033c620000ec565b5b81516200034f84826020860162000292565b91505092915050565b5f6020828403121562000370576200036f620000e4565b5b5f82015167ffffffffffffffff81111562000390576200038f620000e8565b5b6200039e8482850162000326565b91505092915050565b7f4e487b71000000000000000000000000000000000000000000000000000000005f52603260045260245ffd5b5f81519050919050565b7f4e487b71000000000000000000000000000000000000000000000000000000005f52602260045260245ffd5b5f60028204905060018216806200042357607f821691505b602082108103620004395762000438620003de565b5b50919050565b5f819050815f5260205f209050919050565b5f6020601f8301049050919050565b5f82821b905092915050565b5f600883026200049d7fffffffffffffffffffffffffffffffffffffffffffffffffffffffffffffffff8262000460565b620004a9868362000460565b95508019841693508086168417925050509392505050565b5f819050919050565b5f819050919050565b5f620004f3620004ed620004e784620004c1565b620004ca565b620004c1565b9050919050565b5f819050919050565b6200050e83620004d3565b620005266200051d82620004fa565b8484546200046c565b825550505050565b5f90565b6200053c6200052e565b6200054981848462000503565b505050565b5b818110156200057057620005645f8262000532565b6001810190506200054f565b5050565b601f821115620005bf5762000589816200043f565b620005948462000451565b81016020851015620005a4578190505b620005bc620005b38562000451565b8301826200054e565b50505b505050565b5f82821c905092915050565b5f620005e15f1984600802620005c4565b1980831691505092915050565b5f620005fb8383620005d0565b9150826002028217905092915050565b6200061682620003d4565b67ffffffffffffffff81111562000632576200063162000100565b5b6200063e82546200040b565b6200064b82828562000574565b5f60209050601f83116001811462000681575f84156200066c578287015190505b620006788582620005ee565b865550620006e7565b601f19841662000691866200043f565b5f5b82811015620006ba5784890151825560018201915060208501945060208101905062000693565b86831015620006da5784890151620006d6601f891682620005d0565b8355505b6001600288020188555050505b505050505050565b7f4e487b71000000000000000000000000000000000000000000000000000000005f52601160045260245ffd5b5f6200072882620004c1565b91507fffffffffffffffffffffffffffffffffffffffffffffffffffffffffffffffff82036200075d576200075c620006ef565b5b600182019050919050565b61079480620007765f395ff3fe608060405234801561000f575f80fd5b506004361061004a575f3560e01c80630121b93f1461004e578063013cf08b1461006a57806309eef43e1461009b578063609ff1bd146100cb575b5f80fd5b610068600480360381019061006391906103cd565b6100e9565b005b610084600480360381019061007f91906103cd565b610247565b604051610092929190610491565b60405180910390f35b6100b560048036038101906100b09190610519565b6102fb565b6040516100c2919061055e565b60405180910390f35b6100d3610318565b6040516100e09190610577565b60405180910390f35b60015f3373ffffffffffffffffffffffffffffffffffffffff1673ffffffffffffffffffffffffffffffffffffffff1681526020019081526020015f205f9054906101000a900460ff1615610173576040517f08c379a000000000000000000000000000000000000000000000000000000000815260040161016a906105da565b60405180910390fd5b5f8054905081106101b9576040517f08c379a00000000000000000000000000000000000000000000000000000000081526004016101b090610642565b60405180910390fd5b5f81815481106101cc576101cb610660565b5b905f5260205f2090600202016001015f8154809291906101eb906106ba565b91905055506001805f3373ffffffffffffffffffffffffffffffffffffffff1673ffffffffffffffffffffffffffffffffffffffff1681526020019081526020015f205f6101000a81548160ff02191690831515021790555050565b5f8181548110610255575f80fd5b905f5260205f2090600202015f91509050805f0180546102749061072e565b80601f01602080910402602001604051908101604052809291908181526020018280546102a09061072e565b80156102eb5780601f106102c2576101008083540402835291602001916102eb565b820191905f5260205f20905b8154815290600101906020018083116102ce57829003601f168201915b5050505050908060010154905082565b6001602052805f5260405f205f915054906101000a900460ff1681565b5f805f90505f5b5f8054905081101561039157815f828154811061033f5761033e610660565b5b905f5260205f20906002020160010154111561037e575f818154811061036857610367610660565b5b905f5260205f2090600202016001015491508092505b8080610389906106ba565b91505061031f565b505090565b5f80fd5b5f819050919050565b6103ac8161039a565b81146103b6575f80fd5b50565b5f813590506103c7816103a3565b92915050565b5f602082840312156103e2576103e1610396565b5b5f6103ef848285016103b9565b91505092915050565b5f81519050919050565b5f82825260208201905092915050565b5f5b8381101561042f578082015181840152602081019050610414565b5f8484015250505050565b5f601f19601f8301169050919050565b5f610454826103f8565b61045e8185610402565b935061046e818560208601610412565b6104778161043a565b840191505092915050565b61048b8161039a565b82525050565b5f6040820190508181035f8301526104a9818561044a565b90506104b86020830184610482565b9392505050565b5f73ffffffffffffffffffffffffffffffffffffffff82169050919050565b5f6104e8826104bf565b9050919050565b6104f8816104de565b8114610502575f80fd5b50565b5f81359050610513816104ef565b92915050565b5f6020828403121561052e5761052d610396565b5b5f61053b84828501610505565b91505092915050565b5f8115159050919050565b61055881610544565b82525050565b5f6020820190506105715f83018461054f565b92915050565b5f60208201905061058a5f830184610482565b92915050565b7f596f75206861766520616c726561647920766f7465642e0000000000000000005f82015250565b5f6105c4601783610402565b91506105cf82610590565b602082019050919050565b5f6020820190508181035f8301526105f1816105b8565b9050919050565b7f496e76616c69642070726f706f73616c2e0000000000000000000000000000005f82015250565b5f61062c601183610402565b9150610637826105f8565b602082019050919050565b5f6020820190508181035f83015261065981610620565b9050919050565b7f4e487b71000000000000000000000000000000000000000000000000000000005f52603260045260245ffd5b7f4e487b71000000000000000000000000000000000000000000000000000000005f52601160045260245ffd5b5f6106c48261039a565b91507fffffffffffffffffffffffffffffffffffffffffffffffffffffffffffffffff82036106f6576106f561068d565b5b600182019050919050565b7f4e487b71000000000000000000000000000000000000000000000000000000005f52602260045260245ffd5b5f600282049050600182168061074557607f821691505b60208210810361075857610757610701565b5b5091905056fea2646970667358221220fe188f036f0481d4594ad0d63bc03b9ccdf22c553654bd96734ab734a715c49864736f6c63430008140033","linkReferences":{}},"methodIdentifiers":{"hasVoted(address)":"09eef43e","proposals(uint256)":"013cf08b","vote(uint256)":"0121b93f","winningProposal()":"609ff1bd"},"id":21}