{"abi":[{"type":"constructor","inputs":[{"name":"_owners","type":"address[]","internalType":"address[]"},{"name":"_required","type":"uint256","internalType":"uint256"}],"stateMutability":"nonpayable"},{"type":"receive","stateMutability":"payable"},{"type":"function","name":"confirmTransaction","inputs":[{"name":"transactionId","type":"uint256","internalType":"uint256"}],"outputs":[],"stateMutability":"nonpayable"},{"type":"function","name":"confirmations","inputs":[{"name":"","type":"uint256","internalType":"uint256"},{"name":"","type":"address","internalType":"address"}],"outputs":[{"name":"","type":"bool","internalType":"bool"}],"stateMutability":"view"},{"type":"function","name":"executeTransaction","inputs":[{"name":"transactionId","type":"uint256","internalType":"uint256"}],"outputs":[],"stateMutability":"nonpayable"},{"type":"function","name":"getConfirmationCount","inputs":[{"name":"transactionId","type":"uint256","internalType":"uint256"}],"outputs":[{"name":"count","type":"uint256","internalType":"uint256"}],"stateMutability":"view"},{"type":"function","name":"getOwners","inputs":[],"outputs":[{"name":"","type":"address[]","internalType":"address[]"}],"stateMutability":"view"},{"type":"function","name":"isConfirmed","inputs":[{"name":"transactionId","type":"uint256","internalType":"uint256"}],"outputs":[{"name":"","type":"bool","internalType":"bool"}],"stateMutability":"view"},{"type":"function","name":"isOwner","inputs":[{"name":"","type":"address","internalType":"address"}],"outputs":[{"name":"","type":"bool","internalType":"bool"}],"stateMutability":"view"},{"type":"function","name":"owners","inputs":[{"name":"","type":"uint256","internalType":"uint256"}],"outputs":[{"name":"","type":"address","internalType":"address"}],"stateMutability":"view"},{"type":"function","name":"required","inputs":[],"outputs":[{"name":"","type":"uint256","internalType":"uint256"}],"stateMutability":"view"},{"type":"function","name":"submitTransaction","inputs":[{"name":"destination","type":"address","internalType":"address"},{"name":"value","type":"uint256","internalType":"uint256"},{"name":"data","type":"bytes","internalType":"bytes"}],"outputs":[{"name":"transactionId","type":"uint256","internalType":"uint256"}],"stateMutability":"nonpayable"},{"type":"function","name":"transactions","inputs":[{"name":"","type":"uint256","internalType":"uint256"}],"outputs":[{"name":"destination","type":"address","internalType":"address"},{"name":"value","type":"uint256","internalType":"uint256"},{"name":"data","type":"bytes","internalType":"bytes"},{"name":"executed","type":"bool","internalType":"bool"}],"stateMutability":"view"},{"type":"event","name":"Confirmation","inputs":[{"name":"sender","type":"address","indexed":true,"internalType":"address"},{"name":"transactionId","type":"uint256","indexed":true,"internalType":"uint256"}],"anonymous":false},{"type":"event","name":"Execution","inputs":[{"name":"transactionId","type":"uint256","indexed":true,"internalType":"uint256"}],"anonymous":false},{"type":"event","name":"ExecutionFailure","inputs":[{"name":"transactionId","type":"uint256","indexed":true,"internalType":"uint256"}],"anonymous":false},{"type":"event","name":"Submission","inputs":[{"name":"transactionId","type":"uint256","indexed":true,"internalType":"uint256"}],"anonymous":false}],"bytecode":{"object":"0x608060405234801561000f575f5ffd5b50604051611ef7380380611ef7833981810160405281019061003191906104a5565b5f825111610074576040517f08c379a000000000000000000000000000000000000000000000000000000000815260040161006b90610559565b60405180910390fd5b5f81118015610084575081518111155b6100c3576040517f08c379a00000000000000000000000000000000000000000000000000000000081526004016100ba906105e7565b60405180910390fd5b5f5f90505b82518110156101f05760015f8483815181106100e7576100e6610605565b5b602002602001015173ffffffffffffffffffffffffffffffffffffffff1673ffffffffffffffffffffffffffffffffffffffff1681526020019081526020015f205f9054906101000a900460ff1615610175576040517f08c379a000000000000000000000000000000000000000000000000000000000815260040161016c9061067c565b60405180910390fd5b6001805f85848151811061018c5761018b610605565b5b602002602001015173ffffffffffffffffffffffffffffffffffffffff1673ffffffffffffffffffffffffffffffffffffffff1681526020019081526020015f205f6101000a81548160ff02191690831515021790555080806001019150506100c8565b50815f9080519060200190610206929190610215565b5080600281905550505061069a565b828054828255905f5260205f2090810192821561028b579160200282015b8281111561028a578251825f6101000a81548173ffffffffffffffffffffffffffffffffffffffff021916908373ffffffffffffffffffffffffffffffffffffffff16021790555091602001919060010190610233565b5b509050610298919061029c565b5090565b5b808211156102b3575f815f90555060010161029d565b5090565b5f604051905090565b5f5ffd5b5f5ffd5b5f5ffd5b5f601f19601f8301169050919050565b7f4e487b71000000000000000000000000000000000000000000000000000000005f52604160045260245ffd5b610312826102cc565b810181811067ffffffffffffffff82111715610331576103306102dc565b5b80604052505050565b5f6103436102b7565b905061034f8282610309565b919050565b5f67ffffffffffffffff82111561036e5761036d6102dc565b5b602082029050602081019050919050565b5f5ffd5b5f73ffffffffffffffffffffffffffffffffffffffff82169050919050565b5f6103ac82610383565b9050919050565b6103bc816103a2565b81146103c6575f5ffd5b50565b5f815190506103d7816103b3565b92915050565b5f6103ef6103ea84610354565b61033a565b905080838252602082019050602084028301858111156104125761041161037f565b5b835b8181101561043b578061042788826103c9565b845260208401935050602081019050610414565b5050509392505050565b5f82601f830112610459576104586102c8565b5b81516104698482602086016103dd565b91505092915050565b5f819050919050565b61048481610472565b811461048e575f5ffd5b50565b5f8151905061049f8161047b565b92915050565b5f5f604083850312156104bb576104ba6102c0565b5b5f83015167ffffffffffffffff8111156104d8576104d76102c4565b5b6104e485828601610445565b92505060206104f585828601610491565b9150509250929050565b5f82825260208201905092915050565b7f4f776e6572732072657175697265642e000000000000000000000000000000005f82015250565b5f6105436010836104ff565b915061054e8261050f565b602082019050919050565b5f6020820190508181035f83015261057081610537565b9050919050565b7f496e76616c6964207265717569726564206e756d626572206f66206f776e65725f8201527f732e000000000000000000000000000000000000000000000000000000000000602082015250565b5f6105d16022836104ff565b91506105dc82610577565b604082019050919050565b5f6020820190508181035f8301526105fe816105c5565b9050919050565b7f4e487b71000000000000000000000000000000000000000000000000000000005f52603260045260245ffd5b7f4475706c6963617465206f776e65722e000000000000000000000000000000005f82015250565b5f6106666010836104ff565b915061067182610632565b602082019050919050565b5f6020820190508181035f8301526106938161065a565b9050919050565b611850806106a75f395ff3fe60806040526004361061009f575f3560e01c80639ace38c2116100635780639ace38c2146101d6578063a0e67e2b14610215578063c01a8c841461023f578063c642747414610267578063dc8452cd146102a3578063ee22610b146102cd576100a6565b8063025e7c27146100aa5780632f54bf6e146100e65780633411c81c14610122578063784547a71461015e5780638b51d13f1461019a576100a6565b366100a657005b5f5ffd5b3480156100b5575f5ffd5b506100d060048036038101906100cb9190610dd7565b6102f5565b6040516100dd9190610e41565b60405180910390f35b3480156100f1575f5ffd5b5061010c60048036038101906101079190610e84565b61032f565b6040516101199190610ec9565b60405180910390f35b34801561012d575f5ffd5b5061014860048036038101906101439190610ee2565b61034c565b6040516101559190610ec9565b60405180910390f35b348015610169575f5ffd5b50610184600480360381019061017f9190610dd7565b610376565b6040516101919190610ec9565b60405180910390f35b3480156101a5575f5ffd5b506101c060048036038101906101bb9190610dd7565b610460565b6040516101cd9190610f2f565b60405180910390f35b3480156101e1575f5ffd5b506101fc60048036038101906101f79190610dd7565b61052d565b60405161020c9493929190610fb8565b60405180910390f35b348015610220575f5ffd5b50610229610619565b60405161023691906110b9565b60405180910390f35b34801561024a575f5ffd5b5061026560048036038101906102609190610dd7565b6106a3565b005b348015610272575f5ffd5b5061028d60048036038101906102889190611205565b610936565b60405161029a9190610f2f565b60405180910390f35b3480156102ae575f5ffd5b506102b7610ae2565b6040516102c49190610f2f565b60405180910390f35b3480156102d8575f5ffd5b506102f360048036038101906102ee9190610dd7565b610ae8565b005b5f8181548110610303575f80fd5b905f5260205f20015f915054906101000a900473ffffffffffffffffffffffffffffffffffffffff1681565b6001602052805f5260405f205f915054906101000a900460ff1681565b6004602052815f5260405f20602052805f5260405f205f915091509054906101000a900460ff1681565b5f5f5f90505f5f90505b5f805490508110156104555760045f8581526020019081526020015f205f5f83815481106103b1576103b0611271565b5b905f5260205f20015f9054906101000a900473ffffffffffffffffffffffffffffffffffffffff1673ffffffffffffffffffffffffffffffffffffffff1673ffffffffffffffffffffffffffffffffffffffff1681526020019081526020015f205f9054906101000a900460ff16156104345760018261043191906112cb565b91505b60025482036104485760019250505061045b565b8080600101915050610380565b505f9150505b919050565b5f5f5f90505b5f805490508110156105275760045f8481526020019081526020015f205f5f838154811061049757610496611271565b5b905f5260205f20015f9054906101000a900473ffffffffffffffffffffffffffffffffffffffff1673ffffffffffffffffffffffffffffffffffffffff1673ffffffffffffffffffffffffffffffffffffffff1681526020019081526020015f205f9054906101000a900460ff161561051a5760018261051791906112cb565b91505b8080600101915050610466565b50919050565b6003818154811061053c575f80fd5b905f5260205f2090600402015f91509050805f015f9054906101000a900473ffffffffffffffffffffffffffffffffffffffff16908060010154908060020180546105869061132b565b80601f01602080910402602001604051908101604052809291908181526020018280546105b29061132b565b80156105fd5780601f106105d4576101008083540402835291602001916105fd565b820191905f5260205f20905b8154815290600101906020018083116105e057829003601f168201915b505050505090806003015f9054906101000a900460ff16905084565b60605f80548060200260200160405190810160405280929190818152602001828054801561069957602002820191905f5260205f20905b815f9054906101000a900473ffffffffffffffffffffffffffffffffffffffff1673ffffffffffffffffffffffffffffffffffffffff1681526020019060010190808311610650575b5050505050905090565b60015f3373ffffffffffffffffffffffffffffffffffffffff1673ffffffffffffffffffffffffffffffffffffffff1681526020019081526020015f205f9054906101000a900460ff1661072c576040517f08c379a0000000000000000000000000000000000000000000000000000000008152600401610723906113b5565b60405180910390fd5b806003805490508110610774576040517f08c379a000000000000000000000000000000000000000000000000000000000815260040161076b9061141d565b60405180910390fd5b816003818154811061078957610788611271565b5b905f5260205f2090600402016003015f9054906101000a900460ff16156107e5576040517f08c379a00000000000000000000000000000000000000000000000000000000081526004016107dc90611485565b60405180910390fd5b8260045f8281526020019081526020015f205f3373ffffffffffffffffffffffffffffffffffffffff1673ffffffffffffffffffffffffffffffffffffffff1681526020019081526020015f205f9054906101000a900460ff161561087f576040517f08c379a0000000000000000000000000000000000000000000000000000000008152600401610876906114ed565b60405180910390fd5b600160045f8681526020019081526020015f205f3373ffffffffffffffffffffffffffffffffffffffff1673ffffffffffffffffffffffffffffffffffffffff1681526020019081526020015f205f6101000a81548160ff021916908315150217905550833373ffffffffffffffffffffffffffffffffffffffff167f4a504a94899432a9846e1aa406dceb1bcfd538bb839071d49d1e5e23f5be30ef60405160405180910390a361093084610ae8565b50505050565b5f60015f3373ffffffffffffffffffffffffffffffffffffffff1673ffffffffffffffffffffffffffffffffffffffff1681526020019081526020015f205f9054906101000a900460ff166109c0576040517f08c379a00000000000000000000000000000000000000000000000000000000081526004016109b7906113b5565b60405180910390fd5b6003805490509050600360405180608001604052808673ffffffffffffffffffffffffffffffffffffffff1681526020018581526020018481526020015f1515815250908060018154018082558091505060019003905f5260205f2090600402015f909190919091505f820151815f015f6101000a81548173ffffffffffffffffffffffffffffffffffffffff021916908373ffffffffffffffffffffffffffffffffffffffff160217905550602082015181600101556040820151816002019081610a8c91906116ab565b506060820151816003015f6101000a81548160ff0219169083151502179055505050807fc0ba8fe4b176c1714197d43b9cc6bcf797a4a7461c5fe8d0ef6e184ae7601e5160405160405180910390a29392505050565b60025481565b60015f3373ffffffffffffffffffffffffffffffffffffffff1673ffffffffffffffffffffffffffffffffffffffff1681526020019081526020015f205f9054906101000a900460ff16610b71576040517f08c379a0000000000000000000000000000000000000000000000000000000008152600401610b68906113b5565b60405180910390fd5b806003805490508110610bb9576040517f08c379a0000000000000000000000000000000000000000000000000000000008152600401610bb09061141d565b60405180910390fd5b8160038181548110610bce57610bcd611271565b5b905f5260205f2090600402016003015f9054906101000a900460ff1615610c2a576040517f08c379a0000000000000000000000000000000000000000000000000000000008152600401610c2190611485565b60405180910390fd5b610c3383610376565b15610d8e575f60038481548110610c4d57610c4c611271565b5b905f5260205f20906004020190506001816003015f6101000a81548160ff0219169083151502179055505f815f015f9054906101000a900473ffffffffffffffffffffffffffffffffffffffff1673ffffffffffffffffffffffffffffffffffffffff16826001015483600201604051610cc79190611804565b5f6040518083038185875af1925050503d805f8114610d01576040519150601f19603f3d011682016040523d82523d5f602084013e610d06565b606091505b505090508015610d4257847f33e13ecb54c3076d8e8bb8c2881800a4d972b792045ffae98fdf46df365fed7560405160405180910390a2610d8b565b847f526441bb6c1aba3c9a4a6ca1d6545da9c2333c8c48343ef398eb858d72b7923660405160405180910390a25f826003015f6101000a81548160ff0219169083151502179055505b50505b505050565b5f604051905090565b5f5ffd5b5f5ffd5b5f819050919050565b610db681610da4565b8114610dc0575f5ffd5b50565b5f81359050610dd181610dad565b92915050565b5f60208284031215610dec57610deb610d9c565b5b5f610df984828501610dc3565b91505092915050565b5f73ffffffffffffffffffffffffffffffffffffffff82169050919050565b5f610e2b82610e02565b9050919050565b610e3b81610e21565b82525050565b5f602082019050610e545f830184610e32565b92915050565b610e6381610e21565b8114610e6d575f5ffd5b50565b5f81359050610e7e81610e5a565b92915050565b5f60208284031215610e9957610e98610d9c565b5b5f610ea684828501610e70565b91505092915050565b5f8115159050919050565b610ec381610eaf565b82525050565b5f602082019050610edc5f830184610eba565b92915050565b5f5f60408385031215610ef857610ef7610d9c565b5b5f610f0585828601610dc3565b9250506020610f1685828601610e70565b9150509250929050565b610f2981610da4565b82525050565b5f602082019050610f425f830184610f20565b92915050565b5f81519050919050565b5f82825260208201905092915050565b8281835e5f83830152505050565b5f601f19601f8301169050919050565b5f610f8a82610f48565b610f948185610f52565b9350610fa4818560208601610f62565b610fad81610f70565b840191505092915050565b5f608082019050610fcb5f830187610e32565b610fd86020830186610f20565b8181036040830152610fea8185610f80565b9050610ff96060830184610eba565b95945050505050565b5f81519050919050565b5f82825260208201905092915050565b5f819050602082019050919050565b61103481610e21565b82525050565b5f611045838361102b565b60208301905092915050565b5f602082019050919050565b5f61106782611002565b611071818561100c565b935061107c8361101c565b805f5b838110156110ac578151611093888261103a565b975061109e83611051565b92505060018101905061107f565b5085935050505092915050565b5f6020820190508181035f8301526110d1818461105d565b905092915050565b5f5ffd5b5f5ffd5b7f4e487b71000000000000000000000000000000000000000000000000000000005f52604160045260245ffd5b61111782610f70565b810181811067ffffffffffffffff82111715611136576111356110e1565b5b80604052505050565b5f611148610d93565b9050611154828261110e565b919050565b5f67ffffffffffffffff821115611173576111726110e1565b5b61117c82610f70565b9050602081019050919050565b828183375f83830152505050565b5f6111a96111a484611159565b61113f565b9050828152602081018484840111156111c5576111c46110dd565b5b6111d0848285611189565b509392505050565b5f82601f8301126111ec576111eb6110d9565b5b81356111fc848260208601611197565b91505092915050565b5f5f5f6060848603121561121c5761121b610d9c565b5b5f61122986828701610e70565b935050602061123a86828701610dc3565b925050604084013567ffffffffffffffff81111561125b5761125a610da0565b5b611267868287016111d8565b9150509250925092565b7f4e487b71000000000000000000000000000000000000000000000000000000005f52603260045260245ffd5b7f4e487b71000000000000000000000000000000000000000000000000000000005f52601160045260245ffd5b5f6112d582610da4565b91506112e083610da4565b92508282019050808211156112f8576112f761129e565b5b92915050565b7f4e487b71000000000000000000000000000000000000000000000000000000005f52602260045260245ffd5b5f600282049050600182168061134257607f821691505b602082108103611355576113546112fe565b5b50919050565b5f82825260208201905092915050565b7f4e6f7420616e206f776e65722e000000000000000000000000000000000000005f82015250565b5f61139f600d8361135b565b91506113aa8261136b565b602082019050919050565b5f6020820190508181035f8301526113cc81611393565b9050919050565b7f5472616e73616374696f6e20646f6573206e6f742065786973742e00000000005f82015250565b5f611407601b8361135b565b9150611412826113d3565b602082019050919050565b5f6020820190508181035f830152611434816113fb565b9050919050565b7f5472616e73616374696f6e20616c72656164792065786563757465642e0000005f82015250565b5f61146f601d8361135b565b915061147a8261143b565b602082019050919050565b5f6020820190508181035f83015261149c81611463565b9050919050565b7f5472616e73616374696f6e20616c726561647920636f6e6669726d65642e00005f82015250565b5f6114d7601e8361135b565b91506114e2826114a3565b602082019050919050565b5f6020820190508181035f830152611504816114cb565b9050919050565b5f819050815f5260205f209050919050565b5f6020601f8301049050919050565b5f82821b905092915050565b5f600883026115677fffffffffffffffffffffffffffffffffffffffffffffffffffffffffffffffff8261152c565b611571868361152c565b95508019841693508086168417925050509392505050565b5f819050919050565b5f6115ac6115a76115a284610da4565b611589565b610da4565b9050919050565b5f819050919050565b6115c583611592565b6115d96115d1826115b3565b848454611538565b825550505050565b5f5f905090565b6115f06115e1565b6115fb8184846115bc565b505050565b5b8181101561161e576116135f826115e8565b600181019050611601565b5050565b601f821115611663576116348161150b565b61163d8461151d565b8101602085101561164c578190505b6116606116588561151d565b830182611600565b50505b505050565b5f82821c905092915050565b5f6116835f1984600802611668565b1980831691505092915050565b5f61169b8383611674565b9150826002028217905092915050565b6116b482610f48565b67ffffffffffffffff8111156116cd576116cc6110e1565b5b6116d7825461132b565b6116e2828285611622565b5f60209050601f831160018114611713575f8415611701578287015190505b61170b8582611690565b865550611772565b601f1984166117218661150b565b5f5b8281101561174857848901518255600182019150602085019450602081019050611723565b868310156117655784890151611761601f891682611674565b8355505b6001600288020188555050505b505050505050565b5f81905092915050565b5f81546117908161132b565b61179a818661177a565b9450600182165f81146117b457600181146117c9576117fb565b60ff19831686528115158202860193506117fb565b6117d28561150b565b5f5b838110156117f3578154818901526001820191506020810190506117d4565b838801955050505b50505092915050565b5f61180f8284611784565b91508190509291505056fea2646970667358221220eecfb33693a57a8245147106b480354481cd8cf1748fb4dc6a33db470687a35d64736f6c634300081e0033","linkReferences":{}},"methodIdentifiers":{"confirmTransaction(uint256)":"c01a8c84","confirmations(uint256,address)":"3411c81c","executeTransaction(uint256)":"ee22610b","getConfirmationCount(uint256)":"8b51d13f","getOwners()":"a0e67e2b","isConfirmed(uint256)":"784547a7","isOwner(address)":"2f54bf6e","owners(uint256)":"025e7c27","required()":"dc8452cd","submitTransaction(address,uint256,bytes)":"c6427474","transactions(uint256)":"9ace38c2"},"id":8}