{
  "_format": "hh-sol-artifact-1",
  "contractName": "Faucet",
  "sourceName": "contracts/Faucet.sol",
  "abi": [
    {
      "inputs": [
        {
          "internalType": "address",
          "name": "tokenAddress",
          "type": "address"
        },
        {
          "internalType": "uint256",
          "name": "_withdrawalAmount",
          "type": "uint256"
        }
      ],
      "stateMutability": "nonpayable",
      "type": "constructor"
    },
    {
      "inputs": [
        {
          "internalType": "address",
          "name": "",
          "type": "address"
        }
      ],
      "name": "nextAccessTime",
      "outputs": [
        {
          "internalType": "uint256",
          "name": "",
          "type": "uint256"
        }
      ],
      "stateMutability": "view",
      "type": "function"
    },
    {
      "inputs": [],
      "name": "owner",
      "outputs": [
        {
          "internalType": "address",
          "name": "",
          "type": "address"
        }
      ],
      "stateMutability": "view",
      "type": "function"
    },
    {
      "inputs": [],
      "name": "requestTokens",
      "outputs": [],
      "stateMutability": "nonpayable",
      "type": "function"
    },
    {
      "inputs": [
        {
          "internalType": "uint256",
          "name": "newAmount",
          "type": "uint256"
        }
      ],
      "name": "setWithdrawalAmount",
      "outputs": [],
      "stateMutability": "nonpayable",
      "type": "function"
    },
    {
      "inputs": [],
      "name": "token",
      "outputs": [
        {
          "internalType": "contract IERC20",
          "name": "",
          "type": "address"
        }
      ],
      "stateMutability": "view",
      "type": "function"
    },
    {
      "inputs": [
        {
          "internalType": "address",
          "name": "newOwner",
          "type": "address"
        }
      ],
      "name": "transferOwnership",
      "outputs": [],
      "stateMutability": "nonpayable",
      "type": "function"
    },
    {
      "inputs": [],
      "name": "withdrawEther",
      "outputs": [],
      "stateMutability": "nonpayable",
      "type": "function"
    },
    {
      "inputs": [],
      "name": "withdrawTokens",
      "outputs": [],
      "stateMutability": "nonpayable",
      "type": "function"
    },
    {
      "inputs": [],
      "name": "withdrawalAmount",
      "outputs": [
        {
          "internalType": "uint256",
          "name": "",
          "type": "uint256"
        }
      ],
      "stateMutability": "view",
      "type": "function"
    },
    {
      "stateMutability": "payable",
      "type": "receive"
    }
  ],
  "bytecode": "0x60806040523480156200001157600080fd5b5060405162000ff038038062000ff083398181016040528101906200003791906200016c565b336000806101000a81548173ffffffffffffffffffffffffffffffffffffffff021916908373ffffffffffffffffffffffffffffffffffffffff16021790555081600160006101000a81548173ffffffffffffffffffffffffffffffffffffffff021916908373ffffffffffffffffffffffffffffffffffffffff160217905550806002819055505050620001b3565b600080fd5b600073ffffffffffffffffffffffffffffffffffffffff82169050919050565b6000620000f982620000cc565b9050919050565b6200010b81620000ec565b81146200011757600080fd5b50565b6000815190506200012b8162000100565b92915050565b6000819050919050565b620001468162000131565b81146200015257600080fd5b50565b60008151905062000166816200013b565b92915050565b60008060408385031215620001865762000185620000c7565b5b600062000196858286016200011a565b9250506020620001a98582860162000155565b9150509250929050565b610e2d80620001c36000396000f3fe60806040526004361061008a5760003560e01c80638d8f2adb116100595780638d8f2adb1461012a5780638da5cb5b14610141578063e6e268f41461016c578063f2fde38b14610197578063fc0c546a146101c057610091565b8063168ee33a14610096578063359cf2b7146100bf578063516fad0a146100d65780637362377b1461011357610091565b3661009157005b600080fd5b3480156100a257600080fd5b506100bd60048036038101906100b89190610853565b6101eb565b005b3480156100cb57600080fd5b506100d4610283565b005b3480156100e257600080fd5b506100fd60048036038101906100f891906108de565b6103fc565b60405161010a919061091a565b60405180910390f35b34801561011f57600080fd5b50610128610414565b005b34801561013657600080fd5b5061013f61050b565b005b34801561014d57600080fd5b506101566106f7565b6040516101639190610944565b60405180910390f35b34801561017857600080fd5b5061018161071b565b60405161018e919061091a565b60405180910390f35b3480156101a357600080fd5b506101be60048036038101906101b991906108de565b610721565b005b3480156101cc57600080fd5b506101d56107f2565b6040516101e291906109be565b60405180910390f35b60008054906101000a900473ffffffffffffffffffffffffffffffffffffffff1673ffffffffffffffffffffffffffffffffffffffff163373ffffffffffffffffffffffffffffffffffffffff1614610279576040517f08c379a000000000000000000000000000000000000000000000000000000000815260040161027090610a5c565b60405180910390fd5b8060028190555050565b600360003373ffffffffffffffffffffffffffffffffffffffff1673ffffffffffffffffffffffffffffffffffffffff16815260200190815260200160002054421015610305576040517f08c379a00000000000000000000000000000000000000000000000000000000081526004016102fc90610aee565b60405180910390fd5b600160009054906101000a900473ffffffffffffffffffffffffffffffffffffffff1673ffffffffffffffffffffffffffffffffffffffff1663a9059cbb336002546040518363ffffffff1660e01b8152600401610364929190610b0e565b6020604051808303816000875af1158015610383573d6000803e3d6000fd5b505050506040513d601f19601f820116820180604052508101906103a79190610b6f565b5062015180426103b79190610bcb565b600360003373ffffffffffffffffffffffffffffffffffffffff1673ffffffffffffffffffffffffffffffffffffffff16815260200190815260200160002081905550565b60036020528060005260406000206000915090505481565b60008054906101000a900473ffffffffffffffffffffffffffffffffffffffff1673ffffffffffffffffffffffffffffffffffffffff163373ffffffffffffffffffffffffffffffffffffffff16146104a2576040517f08c379a000000000000000000000000000000000000000000000000000000000815260040161049990610c71565b60405180910390fd5b60008054906101000a900473ffffffffffffffffffffffffffffffffffffffff1673ffffffffffffffffffffffffffffffffffffffff166108fc479081150290604051600060405180830381858888f19350505050158015610508573d6000803e3d6000fd5b50565b60008054906101000a900473ffffffffffffffffffffffffffffffffffffffff1673ffffffffffffffffffffffffffffffffffffffff163373ffffffffffffffffffffffffffffffffffffffff1614610599576040517f08c379a000000000000000000000000000000000000000000000000000000000815260040161059090610d03565b60405180910390fd5b600160009054906101000a900473ffffffffffffffffffffffffffffffffffffffff1673ffffffffffffffffffffffffffffffffffffffff1663a9059cbb60008054906101000a900473ffffffffffffffffffffffffffffffffffffffff16600160009054906101000a900473ffffffffffffffffffffffffffffffffffffffff1673ffffffffffffffffffffffffffffffffffffffff166370a08231306040518263ffffffff1660e01b81526004016106539190610944565b602060405180830381865afa158015610670573d6000803e3d6000fd5b505050506040513d601f19601f820116820180604052508101906106949190610d38565b6040518363ffffffff1660e01b81526004016106b1929190610b0e565b6020604051808303816000875af11580156106d0573d6000803e3d6000fd5b505050506040513d601f19601f820116820180604052508101906106f49190610b6f565b50565b60008054906101000a900473ffffffffffffffffffffffffffffffffffffffff1681565b60025481565b60008054906101000a900473ffffffffffffffffffffffffffffffffffffffff1673ffffffffffffffffffffffffffffffffffffffff163373ffffffffffffffffffffffffffffffffffffffff16146107af576040517f08c379a00000000000000000000000000000000000000000000000000000000081526004016107a690610dd7565b60405180910390fd5b806000806101000a81548173ffffffffffffffffffffffffffffffffffffffff021916908373ffffffffffffffffffffffffffffffffffffffff16021790555050565b600160009054906101000a900473ffffffffffffffffffffffffffffffffffffffff1681565b600080fd5b6000819050919050565b6108308161081d565b811461083b57600080fd5b50565b60008135905061084d81610827565b92915050565b60006020828403121561086957610868610818565b5b60006108778482850161083e565b91505092915050565b600073ffffffffffffffffffffffffffffffffffffffff82169050919050565b60006108ab82610880565b9050919050565b6108bb816108a0565b81146108c657600080fd5b50565b6000813590506108d8816108b2565b92915050565b6000602082840312156108f4576108f3610818565b5b6000610902848285016108c9565b91505092915050565b6109148161081d565b82525050565b600060208201905061092f600083018461090b565b92915050565b61093e816108a0565b82525050565b60006020820190506109596000830184610935565b92915050565b6000819050919050565b600061098461097f61097a84610880565b61095f565b610880565b9050919050565b600061099682610969565b9050919050565b60006109a88261098b565b9050919050565b6109b88161099d565b82525050565b60006020820190506109d360008301846109af565b92915050565b600082825260208201905092915050565b7f4f6e6c7920746865206f776e65722063616e207365742074686520776974686460008201527f726177616c20616d6f756e742e00000000000000000000000000000000000000602082015250565b6000610a46602d836109d9565b9150610a51826109ea565b604082019050919050565b60006020820190508181036000830152610a7581610a39565b9050919050565b7f596f75206861766520616c72656164792072657175657374656420746f6b656e60008201527f7320726563656e746c792e000000000000000000000000000000000000000000602082015250565b6000610ad8602b836109d9565b9150610ae382610a7c565b604082019050919050565b60006020820190508181036000830152610b0781610acb565b9050919050565b6000604082019050610b236000830185610935565b610b30602083018461090b565b9392505050565b60008115159050919050565b610b4c81610b37565b8114610b5757600080fd5b50565b600081519050610b6981610b43565b92915050565b600060208284031215610b8557610b84610818565b5b6000610b9384828501610b5a565b91505092915050565b7f4e487b7100000000000000000000000000000000000000000000000000000000600052601160045260246000fd5b6000610bd68261081d565b9150610be18361081d565b9250828201905080821115610bf957610bf8610b9c565b5b92915050565b7f4f6e6c7920746865206f776e65722063616e207769746864726177206574686560008201527f722e000000000000000000000000000000000000000000000000000000000000602082015250565b6000610c5b6022836109d9565b9150610c6682610bff565b604082019050919050565b60006020820190508181036000830152610c8a81610c4e565b9050919050565b7f4f6e6c7920746865206f776e65722063616e207769746864726177207468652060008201527f72656d61696e696e6720746f6b656e732e000000000000000000000000000000602082015250565b6000610ced6031836109d9565b9150610cf882610c91565b604082019050919050565b60006020820190508181036000830152610d1c81610ce0565b9050919050565b600081519050610d3281610827565b92915050565b600060208284031215610d4e57610d4d610818565b5b6000610d5c84828501610d23565b91505092915050565b7f4f6e6c7920746865206f776e65722063616e207472616e73666572206f776e6560008201527f72736869702e0000000000000000000000000000000000000000000000000000602082015250565b6000610dc16026836109d9565b9150610dcc82610d65565b604082019050919050565b60006020820190508181036000830152610df081610db4565b905091905056fea2646970667358221220e7107df0a874b5dfc0b2c2dd597d26d5fb55623f4179e19a07e9eb92df802dde64736f6c63430008140033",
  "linkReferences": {},
  "deployedLinkReferences": {}
}