{
  "_format": "hh-sol-artifact-1",
  "contractName": "Faucet",
  "sourceName": "contracts/Faucet.sol",
  "abi": [
    {
      "inputs": [
        {
          "internalType": "address",
          "name": "tokenAddress",
          "type": "address"
        },
        {
          "internalType": "uint256",
          "name": "_withdrawalAmount",
          "type": "uint256"
        }
      ],
      "stateMutability": "nonpayable",
      "type": "constructor"
    },
    {
      "inputs": [
        {
          "internalType": "address",
          "name": "",
          "type": "address"
        }
      ],
      "name": "nextAccessTime",
      "outputs": [
        {
          "internalType": "uint256",
          "name": "",
          "type": "uint256"
        }
      ],
      "stateMutability": "view",
      "type": "function"
    },
    {
      "inputs": [],
      "name": "owner",
      "outputs": [
        {
          "internalType": "address",
          "name": "",
          "type": "address"
        }
      ],
      "stateMutability": "view",
      "type": "function"
    },
    {
      "inputs": [],
      "name": "requestTokens",
      "outputs": [],
      "stateMutability": "nonpayable",
      "type": "function"
    },
    {
      "inputs": [
        {
          "internalType": "uint256",
          "name": "newAmount",
          "type": "uint256"
        }
      ],
      "name": "setWithdrawalAmount",
      "outputs": [],
      "stateMutability": "nonpayable",
      "type": "function"
    },
    {
      "inputs": [],
      "name": "token",
      "outputs": [
        {
          "internalType": "contract IERC20",
          "name": "",
          "type": "address"
        }
      ],
      "stateMutability": "view",
      "type": "function"
    },
    {
      "inputs": [],
      "name": "withdrawalAmount",
      "outputs": [
        {
          "internalType": "uint256",
          "name": "",
          "type": "uint256"
        }
      ],
      "stateMutability": "view",
      "type": "function"
    },
    {
      "stateMutability": "payable",
      "type": "receive"
    }
  ],
  "bytecode": "0x608060405234801561001057600080fd5b506040516109a23803806109a28339818101604052810190610032919061015a565b336000806101000a81548173ffffffffffffffffffffffffffffffffffffffff021916908373ffffffffffffffffffffffffffffffffffffffff16021790555081600160006101000a81548173ffffffffffffffffffffffffffffffffffffffff021916908373ffffffffffffffffffffffffffffffffffffffff16021790555080600281905550505061019a565b600080fd5b600073ffffffffffffffffffffffffffffffffffffffff82169050919050565b60006100f1826100c6565b9050919050565b610101816100e6565b811461010c57600080fd5b50565b60008151905061011e816100f8565b92915050565b6000819050919050565b61013781610124565b811461014257600080fd5b50565b6000815190506101548161012e565b92915050565b60008060408385031215610171576101706100c1565b5b600061017f8582860161010f565b925050602061019085828601610145565b9150509250929050565b6107f9806101a96000396000f3fe6080604052600436106100595760003560e01c8063168ee33a14610065578063359cf2b71461008e578063516fad0a146100a55780638da5cb5b146100e2578063e6e268f41461010d578063fc0c546a1461013857610060565b3661006057005b600080fd5b34801561007157600080fd5b5061008c60048036038101906100879190610417565b610163565b005b34801561009a57600080fd5b506100a36101fb565b005b3480156100b157600080fd5b506100cc60048036038101906100c791906104a2565b610374565b6040516100d991906104de565b60405180910390f35b3480156100ee57600080fd5b506100f761038c565b6040516101049190610508565b60405180910390f35b34801561011957600080fd5b506101226103b0565b60405161012f91906104de565b60405180910390f35b34801561014457600080fd5b5061014d6103b6565b60405161015a9190610582565b60405180910390f35b60008054906101000a900473ffffffffffffffffffffffffffffffffffffffff1673ffffffffffffffffffffffffffffffffffffffff163373ffffffffffffffffffffffffffffffffffffffff16146101f1576040517f08c379a00000000000000000000000000000000000000000000000000000000081526004016101e890610620565b60405180910390fd5b8060028190555050565b600360003373ffffffffffffffffffffffffffffffffffffffff1673ffffffffffffffffffffffffffffffffffffffff1681526020019081526020016000205442101561027d576040517f08c379a0000000000000000000000000000000000000000000000000000000008152600401610274906106b2565b60405180910390fd5b600160009054906101000a900473ffffffffffffffffffffffffffffffffffffffff1673ffffffffffffffffffffffffffffffffffffffff1663a9059cbb336002546040518363ffffffff1660e01b81526004016102dc9291906106d2565b6020604051808303816000875af11580156102fb573d6000803e3d6000fd5b505050506040513d601f19601f8201168201806040525081019061031f9190610733565b50620151804261032f919061078f565b600360003373ffffffffffffffffffffffffffffffffffffffff1673ffffffffffffffffffffffffffffffffffffffff16815260200190815260200160002081905550565b60036020528060005260406000206000915090505481565b60008054906101000a900473ffffffffffffffffffffffffffffffffffffffff1681565b60025481565b600160009054906101000a900473ffffffffffffffffffffffffffffffffffffffff1681565b600080fd5b6000819050919050565b6103f4816103e1565b81146103ff57600080fd5b50565b600081359050610411816103eb565b92915050565b60006020828403121561042d5761042c6103dc565b5b600061043b84828501610402565b91505092915050565b600073ffffffffffffffffffffffffffffffffffffffff82169050919050565b600061046f82610444565b9050919050565b61047f81610464565b811461048a57600080fd5b50565b60008135905061049c81610476565b92915050565b6000602082840312156104b8576104b76103dc565b5b60006104c68482850161048d565b91505092915050565b6104d8816103e1565b82525050565b60006020820190506104f360008301846104cf565b92915050565b61050281610464565b82525050565b600060208201905061051d60008301846104f9565b92915050565b6000819050919050565b600061054861054361053e84610444565b610523565b610444565b9050919050565b600061055a8261052d565b9050919050565b600061056c8261054f565b9050919050565b61057c81610561565b82525050565b60006020820190506105976000830184610573565b92915050565b600082825260208201905092915050565b7f4f6e6c7920746865206f776e65722063616e207365742074686520776974686460008201527f726177616c20616d6f756e742e00000000000000000000000000000000000000602082015250565b600061060a602d8361059d565b9150610615826105ae565b604082019050919050565b60006020820190508181036000830152610639816105fd565b9050919050565b7f596f75206861766520616c72656164792072657175657374656420746f6b656e60008201527f7320726563656e746c792e000000000000000000000000000000000000000000602082015250565b600061069c602b8361059d565b91506106a782610640565b604082019050919050565b600060208201905081810360008301526106cb8161068f565b9050919050565b60006040820190506106e760008301856104f9565b6106f460208301846104cf565b9392505050565b60008115159050919050565b610710816106fb565b811461071b57600080fd5b50565b60008151905061072d81610707565b92915050565b600060208284031215610749576107486103dc565b5b60006107578482850161071e565b91505092915050565b7f4e487b7100000000000000000000000000000000000000000000000000000000600052601160045260246000fd5b600061079a826103e1565b91506107a5836103e1565b92508282019050808211156107bd576107bc610760565b5b9291505056fea264697066735822122003f43b32868f800bf9fe0ca24950a608b66336e3af8a5a2c018887de8cd2a42c64736f6c63430008140033",
  "linkReferences": {},
  "deployedLinkReferences": {}
}