{
  "_format": "hh-sol-artifact-1",
  "contractName": "PausableContract",
  "sourceName": "contracts/Pausable.sol",
  "abi": [
    {
      "inputs": [],
      "stateMutability": "nonpayable",
      "type": "constructor"
    },
    {
      "anonymous": false,
      "inputs": [
        {
          "indexed": true,
          "internalType": "address",
          "name": "previousOwner",
          "type": "address"
        },
        {
          "indexed": true,
          "internalType": "address",
          "name": "newOwner",
          "type": "address"
        }
      ],
      "name": "OwnershipTransferred",
      "type": "event"
    },
    {
      "anonymous": false,
      "inputs": [
        {
          "indexed": false,
          "internalType": "address",
          "name": "account",
          "type": "address"
        }
      ],
      "name": "Paused",
      "type": "event"
    },
    {
      "anonymous": false,
      "inputs": [
        {
          "indexed": false,
          "internalType": "address",
          "name": "account",
          "type": "address"
        }
      ],
      "name": "Unpaused",
      "type": "event"
    },
    {
      "inputs": [],
      "name": "emergencyFunction",
      "outputs": [],
      "stateMutability": "view",
      "type": "function"
    },
    {
      "inputs": [],
      "name": "normalFunction",
      "outputs": [],
      "stateMutability": "view",
      "type": "function"
    },
    {
      "inputs": [],
      "name": "owner",
      "outputs": [
        {
          "internalType": "address",
          "name": "",
          "type": "address"
        }
      ],
      "stateMutability": "view",
      "type": "function"
    },
    {
      "inputs": [],
      "name": "pause",
      "outputs": [],
      "stateMutability": "nonpayable",
      "type": "function"
    },
    {
      "inputs": [],
      "name": "paused",
      "outputs": [
        {
          "internalType": "bool",
          "name": "",
          "type": "bool"
        }
      ],
      "stateMutability": "view",
      "type": "function"
    },
    {
      "inputs": [],
      "name": "renounceOwnership",
      "outputs": [],
      "stateMutability": "nonpayable",
      "type": "function"
    },
    {
      "inputs": [
        {
          "internalType": "address",
          "name": "newOwner",
          "type": "address"
        }
      ],
      "name": "transferOwnership",
      "outputs": [],
      "stateMutability": "nonpayable",
      "type": "function"
    },
    {
      "inputs": [],
      "name": "unpause",
      "outputs": [],
      "stateMutability": "nonpayable",
      "type": "function"
    }
  ],
  "bytecode": "0x608060405234801561001057600080fd5b5060008060006101000a81548160ff02191690831515021790555061004761003c61004c60201b60201c565b61005460201b60201c565b610119565b600033905090565b60008060019054906101000a900473ffffffffffffffffffffffffffffffffffffffff16905081600060016101000a81548173ffffffffffffffffffffffffffffffffffffffff021916908373ffffffffffffffffffffffffffffffffffffffff1602179055508173ffffffffffffffffffffffffffffffffffffffff168173ffffffffffffffffffffffffffffffffffffffff167f8be0079c531659141344cd1fd0a4f28419497f9722a3daafe3b4186f6b6457e060405160405180910390a35050565b6107cc806101286000396000f3fe608060405234801561001057600080fd5b50600436106100885760003560e01c80638456cb591161005b5780638456cb59146100c95780638da5cb5b146100d3578063d67e4b84146100f1578063f2fde38b146100fb57610088565b80633f4ba83a1461008d57806341d5bd25146100975780635c975abb146100a1578063715018a6146100bf575b600080fd5b610095610117565b005b61009f610129565b005b6100a961012b565b6040516100b691906104da565b60405180910390f35b6100c7610141565b005b6100d1610155565b005b6100db610167565b6040516100e89190610536565b60405180910390f35b6100f9610190565b005b61011560048036038101906101109190610582565b61019a565b005b61011f61021d565b61012761029b565b565b565b60008060009054906101000a900460ff16905090565b61014961021d565b61015360006102fd565b565b61015d61021d565b6101656103c2565b565b60008060019054906101000a900473ffffffffffffffffffffffffffffffffffffffff16905090565b610198610424565b565b6101a261021d565b600073ffffffffffffffffffffffffffffffffffffffff168173ffffffffffffffffffffffffffffffffffffffff1603610211576040517f08c379a000000000000000000000000000000000000000000000000000000000815260040161020890610632565b60405180910390fd5b61021a816102fd565b50565b61022561046e565b73ffffffffffffffffffffffffffffffffffffffff16610243610167565b73ffffffffffffffffffffffffffffffffffffffff1614610299576040517f08c379a00000000000000000000000000000000000000000000000000000000081526004016102909061069e565b60405180910390fd5b565b6102a3610476565b60008060006101000a81548160ff0219169083151502179055507f5db9ee0a495bf2e6ff9c91a7834c1ba4fdd244a5e8aa4e537bd38aeae4b073aa6102e661046e565b6040516102f39190610536565b60405180910390a1565b60008060019054906101000a900473ffffffffffffffffffffffffffffffffffffffff16905081600060016101000a81548173ffffffffffffffffffffffffffffffffffffffff021916908373ffffffffffffffffffffffffffffffffffffffff1602179055508173ffffffffffffffffffffffffffffffffffffffff168173ffffffffffffffffffffffffffffffffffffffff167f8be0079c531659141344cd1fd0a4f28419497f9722a3daafe3b4186f6b6457e060405160405180910390a35050565b6103ca610424565b60016000806101000a81548160ff0219169083151502179055507f62e78cea01bee320cd4e420270b5ea74000d11b0c9f74754ebdbfc544b05a25861040d61046e565b60405161041a9190610536565b60405180910390a1565b61042c61012b565b1561046c576040517f08c379a00000000000000000000000000000000000000000000000000000000081526004016104639061070a565b60405180910390fd5b565b600033905090565b61047e61012b565b6104bd576040517f08c379a00000000000000000000000000000000000000000000000000000000081526004016104b490610776565b60405180910390fd5b565b60008115159050919050565b6104d4816104bf565b82525050565b60006020820190506104ef60008301846104cb565b92915050565b600073ffffffffffffffffffffffffffffffffffffffff82169050919050565b6000610520826104f5565b9050919050565b61053081610515565b82525050565b600060208201905061054b6000830184610527565b92915050565b600080fd5b61055f81610515565b811461056a57600080fd5b50565b60008135905061057c81610556565b92915050565b60006020828403121561059857610597610551565b5b60006105a68482850161056d565b91505092915050565b600082825260208201905092915050565b7f4f776e61626c653a206e6577206f776e657220697320746865207a65726f206160008201527f6464726573730000000000000000000000000000000000000000000000000000602082015250565b600061061c6026836105af565b9150610627826105c0565b604082019050919050565b6000602082019050818103600083015261064b8161060f565b9050919050565b7f4f776e61626c653a2063616c6c6572206973206e6f7420746865206f776e6572600082015250565b60006106886020836105af565b915061069382610652565b602082019050919050565b600060208201905081810360008301526106b78161067b565b9050919050565b7f5061757361626c653a2070617573656400000000000000000000000000000000600082015250565b60006106f46010836105af565b91506106ff826106be565b602082019050919050565b60006020820190508181036000830152610723816106e7565b9050919050565b7f5061757361626c653a206e6f7420706175736564000000000000000000000000600082015250565b60006107606014836105af565b915061076b8261072a565b602082019050919050565b6000602082019050818103600083015261078f81610753565b905091905056fea26469706673582212200f33a013eec45cf212cf0138b41d72ab1d3c33b48cff1bd5c3e98fd46665358464736f6c63430008140033",
  "linkReferences": {},
  "deployedLinkReferences": {}
}