{"abi":[{"type":"constructor","inputs":[{"name":"_rate","type":"uint256","internalType":"uint256"},{"name":"_token","type":"address","internalType":"address"},{"name":"_cap","type":"uint256","internalType":"uint256"}],"stateMutability":"nonpayable"},{"type":"receive","stateMutability":"payable"},{"type":"function","name":"buyTokens","inputs":[{"name":"beneficiary","type":"address","internalType":"address"}],"outputs":[],"stateMutability":"payable"},{"type":"function","name":"cap","inputs":[],"outputs":[{"name":"","type":"uint256","internalType":"uint256"}],"stateMutability":"view"},{"type":"function","name":"owner","inputs":[],"outputs":[{"name":"","type":"address","internalType":"address"}],"stateMutability":"view"},{"type":"function","name":"rate","inputs":[],"outputs":[{"name":"","type":"uint256","internalType":"uint256"}],"stateMutability":"view"},{"type":"function","name":"renounceOwnership","inputs":[],"outputs":[],"stateMutability":"nonpayable"},{"type":"function","name":"token","inputs":[],"outputs":[{"name":"","type":"address","internalType":"contract ERC20"}],"stateMutability":"view"},{"type":"function","name":"transferOwnership","inputs":[{"name":"newOwner","type":"address","internalType":"address"}],"outputs":[],"stateMutability":"nonpayable"},{"type":"function","name":"weiRaised","inputs":[],"outputs":[{"name":"","type":"uint256","internalType":"uint256"}],"stateMutability":"view"},{"type":"function","name":"withdrawFunds","inputs":[],"outputs":[],"stateMutability":"nonpayable"},{"type":"event","name":"OwnershipTransferred","inputs":[{"name":"previousOwner","type":"address","indexed":true,"internalType":"address"},{"name":"newOwner","type":"address","indexed":true,"internalType":"address"}],"anonymous":false},{"type":"event","name":"TokensPurchased","inputs":[{"name":"purchaser","type":"address","indexed":true,"internalType":"address"},{"name":"beneficiary","type":"address","indexed":true,"internalType":"address"},{"name":"value","type":"uint256","indexed":false,"internalType":"uint256"},{"name":"amount","type":"uint256","indexed":false,"internalType":"uint256"}],"anonymous":false}],"bytecode":{"object":"0x608060405234801561000f575f5ffd5b506040516110af3803806110af833981810160405281019061003191906102ee565b61004d61004261019560201b60201c565b61019c60201b60201c565b5f831161008f576040517f08c379a000000000000000000000000000000000000000000000000000000000815260040161008690610398565b60405180910390fd5b5f73ffffffffffffffffffffffffffffffffffffffff168273ffffffffffffffffffffffffffffffffffffffff16036100fd576040517f08c379a00000000000000000000000000000000000000000000000000000000081526004016100f490610426565b60405180910390fd5b5f811161013f576040517f08c379a00000000000000000000000000000000000000000000000000000000081526004016101369061048e565b60405180910390fd5b826002819055508160015f6101000a81548173ffffffffffffffffffffffffffffffffffffffff021916908373ffffffffffffffffffffffffffffffffffffffff160217905550806003819055505050506104ac565b5f33905090565b5f5f5f9054906101000a900473ffffffffffffffffffffffffffffffffffffffff169050815f5f6101000a81548173ffffffffffffffffffffffffffffffffffffffff021916908373ffffffffffffffffffffffffffffffffffffffff1602179055508173ffffffffffffffffffffffffffffffffffffffff168173ffffffffffffffffffffffffffffffffffffffff167f8be0079c531659141344cd1fd0a4f28419497f9722a3daafe3b4186f6b6457e060405160405180910390a35050565b5f5ffd5b5f819050919050565b61027381610261565b811461027d575f5ffd5b50565b5f8151905061028e8161026a565b92915050565b5f73ffffffffffffffffffffffffffffffffffffffff82169050919050565b5f6102bd82610294565b9050919050565b6102cd816102b3565b81146102d7575f5ffd5b50565b5f815190506102e8816102c4565b92915050565b5f5f5f606084860312156103055761030461025d565b5b5f61031286828701610280565b9350506020610323868287016102da565b925050604061033486828701610280565b9150509250925092565b5f82825260208201905092915050565b7f43726f776473616c653a207261746520697320300000000000000000000000005f82015250565b5f61038260148361033e565b915061038d8261034e565b602082019050919050565b5f6020820190508181035f8301526103af81610376565b9050919050565b7f43726f776473616c653a20746f6b656e20697320746865207a65726f206164645f8201527f7265737300000000000000000000000000000000000000000000000000000000602082015250565b5f61041060248361033e565b915061041b826103b6565b604082019050919050565b5f6020820190508181035f83015261043d81610404565b9050919050565b7f43726f776473616c653a206361702069732030000000000000000000000000005f82015250565b5f61047860138361033e565b915061048382610444565b602082019050919050565b5f6020820190508181035f8301526104a58161046c565b9050919050565b610bf6806104b95f395ff3fe608060405260043610610089575f3560e01c8063715018a611610058578063715018a6146101315780638da5cb5b14610147578063ec8ac4d814610171578063f2fde38b1461018d578063fc0c546a146101b557610099565b806324600fc31461009d5780632c4e722e146100b3578063355274ea146100dd5780634042b66f1461010757610099565b3661009957610097336101df565b005b5f5ffd5b3480156100a8575f5ffd5b506100b16103a9565b005b3480156100be575f5ffd5b506100c7610463565b6040516100d491906106b4565b60405180910390f35b3480156100e8575f5ffd5b506100f1610469565b6040516100fe91906106b4565b60405180910390f35b348015610112575f5ffd5b5061011b61046f565b60405161012891906106b4565b60405180910390f35b34801561013c575f5ffd5b50610145610475565b005b348015610152575f5ffd5b5061015b610488565b604051610168919061070c565b60405180910390f35b61018b60048036038101906101869190610753565b6101df565b005b348015610198575f5ffd5b506101b360048036038101906101ae9190610753565b6104af565b005b3480156101c0575f5ffd5b506101c9610531565b6040516101d691906107d9565b60405180910390f35b5f3490505f8111610225576040517f08c379a000000000000000000000000000000000000000000000000000000000815260040161021c9061084c565b60405180910390fd5b600354816004546102369190610897565b1115610277576040517f08c379a000000000000000000000000000000000000000000000000000000000815260040161026e90610914565b60405180910390fd5b5f600254826102869190610932565b90508160045f8282546102999190610897565b9250508190555060015f9054906101000a900473ffffffffffffffffffffffffffffffffffffffff1673ffffffffffffffffffffffffffffffffffffffff1663a9059cbb84836040518363ffffffff1660e01b81526004016102fc929190610973565b6020604051808303815f875af1158015610318573d5f5f3e3d5ffd5b505050506040513d601f19601f8201168201806040525081019061033c91906109cf565b508273ffffffffffffffffffffffffffffffffffffffff163373ffffffffffffffffffffffffffffffffffffffff167f6faf93231a456e552dbc9961f58d9713ee4f2e69d15f1975b050ef0911053a7b848460405161039c9291906109fa565b60405180910390a3505050565b6103b1610556565b5f6103ba610488565b73ffffffffffffffffffffffffffffffffffffffff16476040516103dd90610a4e565b5f6040518083038185875af1925050503d805f8114610417576040519150601f19603f3d011682016040523d82523d5f602084013e61041c565b606091505b5050905080610460576040517f08c379a000000000000000000000000000000000000000000000000000000000815260040161045790610aac565b60405180910390fd5b50565b60025481565b60035481565b60045481565b61047d610556565b6104865f6105d4565b565b5f5f5f9054906101000a900473ffffffffffffffffffffffffffffffffffffffff16905090565b6104b7610556565b5f73ffffffffffffffffffffffffffffffffffffffff168173ffffffffffffffffffffffffffffffffffffffff1603610525576040517f08c379a000000000000000000000000000000000000000000000000000000000815260040161051c90610b3a565b60405180910390fd5b61052e816105d4565b50565b60015f9054906101000a900473ffffffffffffffffffffffffffffffffffffffff1681565b61055e610695565b73ffffffffffffffffffffffffffffffffffffffff1661057c610488565b73ffffffffffffffffffffffffffffffffffffffff16146105d2576040517f08c379a00000000000000000000000000000000000000000000000000000000081526004016105c990610ba2565b60405180910390fd5b565b5f5f5f9054906101000a900473ffffffffffffffffffffffffffffffffffffffff169050815f5f6101000a81548173ffffffffffffffffffffffffffffffffffffffff021916908373ffffffffffffffffffffffffffffffffffffffff1602179055508173ffffffffffffffffffffffffffffffffffffffff168173ffffffffffffffffffffffffffffffffffffffff167f8be0079c531659141344cd1fd0a4f28419497f9722a3daafe3b4186f6b6457e060405160405180910390a35050565b5f33905090565b5f819050919050565b6106ae8161069c565b82525050565b5f6020820190506106c75f8301846106a5565b92915050565b5f73ffffffffffffffffffffffffffffffffffffffff82169050919050565b5f6106f6826106cd565b9050919050565b610706816106ec565b82525050565b5f60208201905061071f5f8301846106fd565b92915050565b5f5ffd5b610732816106ec565b811461073c575f5ffd5b50565b5f8135905061074d81610729565b92915050565b5f6020828403121561076857610767610725565b5b5f6107758482850161073f565b91505092915050565b5f819050919050565b5f6107a161079c610797846106cd565b61077e565b6106cd565b9050919050565b5f6107b282610787565b9050919050565b5f6107c3826107a8565b9050919050565b6107d3816107b9565b82525050565b5f6020820190506107ec5f8301846107ca565b92915050565b5f82825260208201905092915050565b7f43726f776473616c653a20776569416d6f756e742069732030000000000000005f82015250565b5f6108366019836107f2565b915061084182610802565b602082019050919050565b5f6020820190508181035f8301526108638161082a565b9050919050565b7f4e487b71000000000000000000000000000000000000000000000000000000005f52601160045260245ffd5b5f6108a18261069c565b91506108ac8361069c565b92508282019050808211156108c4576108c361086a565b5b92915050565b7f43726f776473616c653a206361702065786365656465640000000000000000005f82015250565b5f6108fe6017836107f2565b9150610909826108ca565b602082019050919050565b5f6020820190508181035f83015261092b816108f2565b9050919050565b5f61093c8261069c565b91506109478361069c565b92508282026109558161069c565b9150828204841483151761096c5761096b61086a565b5b5092915050565b5f6040820190506109865f8301856106fd565b61099360208301846106a5565b9392505050565b5f8115159050919050565b6109ae8161099a565b81146109b8575f5ffd5b50565b5f815190506109c9816109a5565b92915050565b5f602082840312156109e4576109e3610725565b5b5f6109f1848285016109bb565b91505092915050565b5f604082019050610a0d5f8301856106a5565b610a1a60208301846106a5565b9392505050565b5f81905092915050565b50565b5f610a395f83610a21565b9150610a4482610a2b565b5f82019050919050565b5f610a5882610a2e565b9150819050919050565b7f5769746864726177616c206661696c65640000000000000000000000000000005f82015250565b5f610a966011836107f2565b9150610aa182610a62565b602082019050919050565b5f6020820190508181035f830152610ac381610a8a565b9050919050565b7f4f776e61626c653a206e6577206f776e657220697320746865207a65726f20615f8201527f6464726573730000000000000000000000000000000000000000000000000000602082015250565b5f610b246026836107f2565b9150610b2f82610aca565b604082019050919050565b5f6020820190508181035f830152610b5181610b18565b9050919050565b7f4f776e61626c653a2063616c6c6572206973206e6f7420746865206f776e65725f82015250565b5f610b8c6020836107f2565b9150610b9782610b58565b602082019050919050565b5f6020820190508181035f830152610bb981610b80565b905091905056fea2646970667358221220033fea0d164dc78e0ede81ec4392e34f5eb48ef9a9fbd80ee0fc6df8a383b89b64736f6c634300081e0033","linkReferences":{}},"methodIdentifiers":{"buyTokens(address)":"ec8ac4d8","cap()":"355274ea","owner()":"8da5cb5b","rate()":"2c4e722e","renounceOwnership()":"715018a6","token()":"fc0c546a","transferOwnership(address)":"f2fde38b","weiRaised()":"4042b66f","withdrawFunds()":"24600fc3"},"id":3}