{
  "_format": "hh-sol-artifact-1",
  "contractName": "Voting",
  "sourceName": "contracts/Voting.sol",
  "abi": [
    {
      "inputs": [
        {
          "internalType": "string[]",
          "name": "proposalNames",
          "type": "string[]"
        }
      ],
      "stateMutability": "nonpayable",
      "type": "constructor"
    },
    {
      "inputs": [
        {
          "internalType": "address",
          "name": "",
          "type": "address"
        }
      ],
      "name": "hasVoted",
      "outputs": [
        {
          "internalType": "bool",
          "name": "",
          "type": "bool"
        }
      ],
      "stateMutability": "view",
      "type": "function"
    },
    {
      "inputs": [
        {
          "internalType": "uint256",
          "name": "",
          "type": "uint256"
        }
      ],
      "name": "proposals",
      "outputs": [
        {
          "internalType": "string",
          "name": "name",
          "type": "string"
        },
        {
          "internalType": "uint256",
          "name": "voteCount",
          "type": "uint256"
        }
      ],
      "stateMutability": "view",
      "type": "function"
    },
    {
      "inputs": [
        {
          "internalType": "uint256",
          "name": "proposalIndex",
          "type": "uint256"
        }
      ],
      "name": "vote",
      "outputs": [],
      "stateMutability": "nonpayable",
      "type": "function"
    },
    {
      "inputs": [],
      "name": "winningProposal",
      "outputs": [
        {
          "internalType": "uint256",
          "name": "winningProposal_",
          "type": "uint256"
        }
      ],
      "stateMutability": "view",
      "type": "function"
    }
  ],
  "bytecode": "0x60806040523480156200001157600080fd5b5060405162000f9138038062000f91833981810160405281019062000037919062000373565b60005b8151811015620000dc5760006040518060400160405280848481518110620000675762000066620003c4565b5b60200260200101518152602001600081525090806001815401808255809150506001900390600052602060002090600202016000909190919091506000820151816000019081620000b991906200063e565b506020820151816001015550508080620000d39062000754565b9150506200003a565b5050620007a1565b6000604051905090565b600080fd5b600080fd5b600080fd5b6000601f19601f8301169050919050565b7f4e487b7100000000000000000000000000000000000000000000000000000000600052604160045260246000fd5b6200014882620000fd565b810181811067ffffffffffffffff821117156200016a57620001696200010e565b5b80604052505050565b60006200017f620000e4565b90506200018d82826200013d565b919050565b600067ffffffffffffffff821115620001b057620001af6200010e565b5b602082029050602081019050919050565b600080fd5b600080fd5b600067ffffffffffffffff821115620001e957620001e86200010e565b5b620001f482620000fd565b9050602081019050919050565b60005b838110156200022157808201518184015260208101905062000204565b60008484015250505050565b6000620002446200023e84620001cb565b62000173565b905082815260208101848484011115620002635762000262620001c6565b5b6200027084828562000201565b509392505050565b600082601f83011262000290576200028f620000f8565b5b8151620002a28482602086016200022d565b91505092915050565b6000620002c2620002bc8462000192565b62000173565b90508083825260208201905060208402830185811115620002e857620002e7620001c1565b5b835b818110156200033657805167ffffffffffffffff811115620003115762000310620000f8565b5b80860162000320898262000278565b85526020850194505050602081019050620002ea565b5050509392505050565b600082601f830112620003585762000357620000f8565b5b81516200036a848260208601620002ab565b91505092915050565b6000602082840312156200038c576200038b620000ee565b5b600082015167ffffffffffffffff811115620003ad57620003ac620000f3565b5b620003bb8482850162000340565b91505092915050565b7f4e487b7100000000000000000000000000000000000000000000000000000000600052603260045260246000fd5b600081519050919050565b7f4e487b7100000000000000000000000000000000000000000000000000000000600052602260045260246000fd5b600060028204905060018216806200044657607f821691505b6020821081036200045c576200045b620003fe565b5b50919050565b60008190508160005260206000209050919050565b60006020601f8301049050919050565b600082821b905092915050565b600060088302620004c67fffffffffffffffffffffffffffffffffffffffffffffffffffffffffffffffff8262000487565b620004d2868362000487565b95508019841693508086168417925050509392505050565b6000819050919050565b6000819050919050565b60006200051f620005196200051384620004ea565b620004f4565b620004ea565b9050919050565b6000819050919050565b6200053b83620004fe565b620005536200054a8262000526565b84845462000494565b825550505050565b600090565b6200056a6200055b565b6200057781848462000530565b505050565b5b818110156200059f576200059360008262000560565b6001810190506200057d565b5050565b601f821115620005ee57620005b88162000462565b620005c38462000477565b81016020851015620005d3578190505b620005eb620005e28562000477565b8301826200057c565b50505b505050565b600082821c905092915050565b60006200061360001984600802620005f3565b1980831691505092915050565b60006200062e838362000600565b9150826002028217905092915050565b6200064982620003f3565b67ffffffffffffffff8111156200066557620006646200010e565b5b6200067182546200042d565b6200067e828285620005a3565b600060209050601f831160018114620006b65760008415620006a1578287015190505b620006ad858262000620565b8655506200071d565b601f198416620006c68662000462565b60005b82811015620006f057848901518255600182019150602085019450602081019050620006c9565b868310156200071057848901516200070c601f89168262000600565b8355505b6001600288020188555050505b505050505050565b7f4e487b7100000000000000000000000000000000000000000000000000000000600052601160045260246000fd5b60006200076182620004ea565b91507fffffffffffffffffffffffffffffffffffffffffffffffffffffffffffffffff820362000796576200079562000725565b5b600182019050919050565b6107e080620007b16000396000f3fe608060405234801561001057600080fd5b506004361061004c5760003560e01c80630121b93f14610051578063013cf08b1461006d57806309eef43e1461009e578063609ff1bd146100ce575b600080fd5b61006b600480360381019061006691906103f4565b6100ec565b005b610087600480360381019061008291906103f4565b610255565b6040516100959291906104c0565b60405180910390f35b6100b860048036038101906100b3919061054e565b610311565b6040516100c59190610596565b60405180910390f35b6100d6610331565b6040516100e391906105b1565b60405180910390f35b600160003373ffffffffffffffffffffffffffffffffffffffff1673ffffffffffffffffffffffffffffffffffffffff16815260200190815260200160002060009054906101000a900460ff1615610179576040517f08c379a000000000000000000000000000000000000000000000000000000000815260040161017090610618565b60405180910390fd5b60008054905081106101c0576040517f08c379a00000000000000000000000000000000000000000000000000000000081526004016101b790610684565b60405180910390fd5b600081815481106101d4576101d36106a4565b5b906000526020600020906002020160010160008154809291906101f690610702565b919050555060018060003373ffffffffffffffffffffffffffffffffffffffff1673ffffffffffffffffffffffffffffffffffffffff16815260200190815260200160002060006101000a81548160ff02191690831515021790555050565b6000818154811061026557600080fd5b906000526020600020906002020160009150905080600001805461028890610779565b80601f01602080910402602001604051908101604052809291908181526020018280546102b490610779565b80156103015780601f106102d657610100808354040283529160200191610301565b820191906000526020600020905b8154815290600101906020018083116102e457829003601f168201915b5050505050908060010154905082565b60016020528060005260406000206000915054906101000a900460ff1681565b6000806000905060005b6000805490508110156103b457816000828154811061035d5761035c6106a4565b5b90600052602060002090600202016001015411156103a15760008181548110610389576103886106a4565b5b90600052602060002090600202016001015491508092505b80806103ac90610702565b91505061033b565b505090565b600080fd5b6000819050919050565b6103d1816103be565b81146103dc57600080fd5b50565b6000813590506103ee816103c8565b92915050565b60006020828403121561040a576104096103b9565b5b6000610418848285016103df565b91505092915050565b600081519050919050565b600082825260208201905092915050565b60005b8381101561045b578082015181840152602081019050610440565b60008484015250505050565b6000601f19601f8301169050919050565b600061048382610421565b61048d818561042c565b935061049d81856020860161043d565b6104a681610467565b840191505092915050565b6104ba816103be565b82525050565b600060408201905081810360008301526104da8185610478565b90506104e960208301846104b1565b9392505050565b600073ffffffffffffffffffffffffffffffffffffffff82169050919050565b600061051b826104f0565b9050919050565b61052b81610510565b811461053657600080fd5b50565b60008135905061054881610522565b92915050565b600060208284031215610564576105636103b9565b5b600061057284828501610539565b91505092915050565b60008115159050919050565b6105908161057b565b82525050565b60006020820190506105ab6000830184610587565b92915050565b60006020820190506105c660008301846104b1565b92915050565b7f596f75206861766520616c726561647920766f7465642e000000000000000000600082015250565b600061060260178361042c565b915061060d826105cc565b602082019050919050565b60006020820190508181036000830152610631816105f5565b9050919050565b7f496e76616c69642070726f706f73616c2e000000000000000000000000000000600082015250565b600061066e60118361042c565b915061067982610638565b602082019050919050565b6000602082019050818103600083015261069d81610661565b9050919050565b7f4e487b7100000000000000000000000000000000000000000000000000000000600052603260045260246000fd5b7f4e487b7100000000000000000000000000000000000000000000000000000000600052601160045260246000fd5b600061070d826103be565b91507fffffffffffffffffffffffffffffffffffffffffffffffffffffffffffffffff820361073f5761073e6106d3565b5b600182019050919050565b7f4e487b7100000000000000000000000000000000000000000000000000000000600052602260045260246000fd5b6000600282049050600182168061079157607f821691505b6020821081036107a4576107a361074a565b5b5091905056fea2646970667358221220c1e0598e65cbf3a73bf4e0ebf84af210d64e8e7394b6f8589f4024088c8f0d7c64736f6c63430008140033",
  "linkReferences": {},
  "deployedLinkReferences": {}
}