{"abi":[{"type":"constructor","inputs":[],"stateMutability":"nonpayable"},{"type":"function","name":"getLastUpdatedTimestamp","inputs":[],"outputs":[{"name":"","type":"uint256","internalType":"uint256"}],"stateMutability":"view"},{"type":"function","name":"getLatestPrice","inputs":[],"outputs":[{"name":"","type":"uint256","internalType":"uint256"}],"stateMutability":"view"},{"type":"function","name":"lastUpdatedTimestamp","inputs":[],"outputs":[{"name":"","type":"uint256","internalType":"uint256"}],"stateMutability":"view"},{"type":"function","name":"latestPrice","inputs":[],"outputs":[{"name":"","type":"uint256","internalType":"uint256"}],"stateMutability":"view"},{"type":"function","name":"owner","inputs":[],"outputs":[{"name":"","type":"address","internalType":"address"}],"stateMutability":"view"},{"type":"function","name":"renounceOwnership","inputs":[],"outputs":[],"stateMutability":"nonpayable"},{"type":"function","name":"transferOwnership","inputs":[{"name":"newOwner","type":"address","internalType":"address"}],"outputs":[],"stateMutability":"nonpayable"},{"type":"function","name":"updatePrice","inputs":[{"name":"_newPrice","type":"uint256","internalType":"uint256"}],"outputs":[],"stateMutability":"nonpayable"},{"type":"event","name":"OwnershipTransferred","inputs":[{"name":"previousOwner","type":"address","indexed":true,"internalType":"address"},{"name":"newOwner","type":"address","indexed":true,"internalType":"address"}],"anonymous":false},{"type":"event","name":"PriceUpdated","inputs":[{"name":"newPrice","type":"uint256","indexed":false,"internalType":"uint256"},{"name":"timestamp","type":"uint256","indexed":false,"internalType":"uint256"}],"anonymous":false}],"bytecode":{"object":"0x608060405234801561000f575f5ffd5b5061002c61002161003160201b60201c565b61003860201b60201c565b6100f9565b5f33905090565b5f5f5f9054906101000a900473ffffffffffffffffffffffffffffffffffffffff169050815f5f6101000a81548173ffffffffffffffffffffffffffffffffffffffff021916908373ffffffffffffffffffffffffffffffffffffffff1602179055508173ffffffffffffffffffffffffffffffffffffffff168173ffffffffffffffffffffffffffffffffffffffff167f8be0079c531659141344cd1fd0a4f28419497f9722a3daafe3b4186f6b6457e060405160405180910390a35050565b61066e806101065f395ff3fe608060405234801561000f575f5ffd5b5060043610610086575f3560e01c8063a3e6ba9411610059578063a3e6ba94146100ec578063a626d2c01461010a578063f2fde38b14610128578063fbaf894c1461014457610086565b8063715018a61461008a5780638d6cc56d146100945780638da5cb5b146100b05780638e15f473146100ce575b5f5ffd5b610092610162565b005b6100ae60048036038101906100a9919061040b565b610175565b005b6100b86101c7565b6040516100c59190610475565b60405180910390f35b6100d66101ee565b6040516100e3919061049d565b60405180910390f35b6100f46101f7565b604051610101919061049d565b60405180910390f35b6101126101fd565b60405161011f919061049d565b60405180910390f35b610142600480360381019061013d91906104e0565b610206565b005b61014c610288565b604051610159919061049d565b60405180910390f35b61016a61028e565b6101735f61030c565b565b61017d61028e565b80600181905550426002819055507f945c1c4e99aa89f648fbfe3df471b916f719e16d960fcec0737d4d56bd69683881426040516101bc92919061050b565b60405180910390a150565b5f5f5f9054906101000a900473ffffffffffffffffffffffffffffffffffffffff16905090565b5f600154905090565b60015481565b5f600254905090565b61020e61028e565b5f73ffffffffffffffffffffffffffffffffffffffff168173ffffffffffffffffffffffffffffffffffffffff160361027c576040517f08c379a0000000000000000000000000000000000000000000000000000000008152600401610273906105b2565b60405180910390fd5b6102858161030c565b50565b60025481565b6102966103cd565b73ffffffffffffffffffffffffffffffffffffffff166102b46101c7565b73ffffffffffffffffffffffffffffffffffffffff161461030a576040517f08c379a00000000000000000000000000000000000000000000000000000000081526004016103019061061a565b60405180910390fd5b565b5f5f5f9054906101000a900473ffffffffffffffffffffffffffffffffffffffff169050815f5f6101000a81548173ffffffffffffffffffffffffffffffffffffffff021916908373ffffffffffffffffffffffffffffffffffffffff1602179055508173ffffffffffffffffffffffffffffffffffffffff168173ffffffffffffffffffffffffffffffffffffffff167f8be0079c531659141344cd1fd0a4f28419497f9722a3daafe3b4186f6b6457e060405160405180910390a35050565b5f33905090565b5f5ffd5b5f819050919050565b6103ea816103d8565b81146103f4575f5ffd5b50565b5f81359050610405816103e1565b92915050565b5f602082840312156104205761041f6103d4565b5b5f61042d848285016103f7565b91505092915050565b5f73ffffffffffffffffffffffffffffffffffffffff82169050919050565b5f61045f82610436565b9050919050565b61046f81610455565b82525050565b5f6020820190506104885f830184610466565b92915050565b610497816103d8565b82525050565b5f6020820190506104b05f83018461048e565b92915050565b6104bf81610455565b81146104c9575f5ffd5b50565b5f813590506104da816104b6565b92915050565b5f602082840312156104f5576104f46103d4565b5b5f610502848285016104cc565b91505092915050565b5f60408201905061051e5f83018561048e565b61052b602083018461048e565b9392505050565b5f82825260208201905092915050565b7f4f776e61626c653a206e6577206f776e657220697320746865207a65726f20615f8201527f6464726573730000000000000000000000000000000000000000000000000000602082015250565b5f61059c602683610532565b91506105a782610542565b604082019050919050565b5f6020820190508181035f8301526105c981610590565b9050919050565b7f4f776e61626c653a2063616c6c6572206973206e6f7420746865206f776e65725f82015250565b5f610604602083610532565b915061060f826105d0565b602082019050919050565b5f6020820190508181035f830152610631816105f8565b905091905056fea26469706673582212209de291a027bbc51a4216e10f2697d26443d60e64aa10b86a35201941de72088f64736f6c634300081e0033","linkReferences":{}},"methodIdentifiers":{"getLastUpdatedTimestamp()":"a626d2c0","getLatestPrice()":"8e15f473","lastUpdatedTimestamp()":"fbaf894c","latestPrice()":"a3e6ba94","owner()":"8da5cb5b","renounceOwnership()":"715018a6","transferOwnership(address)":"f2fde38b","updatePrice(uint256)":"8d6cc56d"},"id":22}