{
  "_format": "hh-sol-artifact-1",
  "contractName": "Escrow",
  "sourceName": "contracts/Escrow.sol",
  "abi": [
    {
      "inputs": [
        {
          "internalType": "address",
          "name": "_beneficiary",
          "type": "address"
        },
        {
          "internalType": "uint256",
          "name": "_deadline",
          "type": "uint256"
        }
      ],
      "stateMutability": "payable",
      "type": "constructor"
    },
    {
      "inputs": [],
      "name": "amount",
      "outputs": [
        {
          "internalType": "uint256",
          "name": "",
          "type": "uint256"
        }
      ],
      "stateMutability": "view",
      "type": "function"
    },
    {
      "inputs": [],
      "name": "beneficiary",
      "outputs": [
        {
          "internalType": "address",
          "name": "",
          "type": "address"
        }
      ],
      "stateMutability": "view",
      "type": "function"
    },
    {
      "inputs": [],
      "name": "deadline",
      "outputs": [
        {
          "internalType": "uint256",
          "name": "",
          "type": "uint256"
        }
      ],
      "stateMutability": "view",
      "type": "function"
    },
    {
      "inputs": [],
      "name": "depositor",
      "outputs": [
        {
          "internalType": "address",
          "name": "",
          "type": "address"
        }
      ],
      "stateMutability": "view",
      "type": "function"
    },
    {
      "inputs": [],
      "name": "getBalance",
      "outputs": [
        {
          "internalType": "uint256",
          "name": "",
          "type": "uint256"
        }
      ],
      "stateMutability": "view",
      "type": "function"
    },
    {
      "inputs": [],
      "name": "reclaim",
      "outputs": [],
      "stateMutability": "nonpayable",
      "type": "function"
    },
    {
      "inputs": [],
      "name": "release",
      "outputs": [],
      "stateMutability": "nonpayable",
      "type": "function"
    }
  ],
  "bytecode": "0x608060405260405161083d38038061083d8339818101604052810190610025919061015f565b336000806101000a81548173ffffffffffffffffffffffffffffffffffffffff021916908373ffffffffffffffffffffffffffffffffffffffff16021790555081600160006101000a81548173ffffffffffffffffffffffffffffffffffffffff021916908373ffffffffffffffffffffffffffffffffffffffff1602179055503460028190555080426100b991906101ce565b6003819055505050610202565b600080fd5b600073ffffffffffffffffffffffffffffffffffffffff82169050919050565b60006100f6826100cb565b9050919050565b610106816100eb565b811461011157600080fd5b50565b600081519050610123816100fd565b92915050565b6000819050919050565b61013c81610129565b811461014757600080fd5b50565b60008151905061015981610133565b92915050565b60008060408385031215610176576101756100c6565b5b600061018485828601610114565b92505060206101958582860161014a565b9150509250929050565b7f4e487b7100000000000000000000000000000000000000000000000000000000600052601160045260246000fd5b60006101d982610129565b91506101e483610129565b92508282019050808211156101fc576101fb61019f565b5b92915050565b61062c806102116000396000f3fe608060405234801561001057600080fd5b506004361061007d5760003560e01c806380e9071b1161005b57806380e9071b146100dc57806386d1a69f146100e6578063aa8c217c146100f0578063c7c4ff461461010e5761007d565b806312065fe01461008257806329dcb0cf146100a057806338af3eed146100be575b600080fd5b61008a61012c565b60405161009791906103de565b60405180910390f35b6100a8610134565b6040516100b591906103de565b60405180910390f35b6100c661013a565b6040516100d3919061043a565b60405180910390f35b6100e4610160565b005b6100ee61029e565b005b6100f861039b565b60405161010591906103de565b60405180910390f35b6101166103a1565b604051610123919061043a565b60405180910390f35b600047905090565b60035481565b600160009054906101000a900473ffffffffffffffffffffffffffffffffffffffff1681565b60008054906101000a900473ffffffffffffffffffffffffffffffffffffffff1673ffffffffffffffffffffffffffffffffffffffff163373ffffffffffffffffffffffffffffffffffffffff16146101ee576040517f08c379a00000000000000000000000000000000000000000000000000000000081526004016101e5906104d8565b60405180910390fd5b600354421015610233576040517f08c379a000000000000000000000000000000000000000000000000000000000815260040161022a90610544565b60405180910390fd5b60008054906101000a900473ffffffffffffffffffffffffffffffffffffffff1673ffffffffffffffffffffffffffffffffffffffff166108fc6002549081150290604051600060405180830381858888f1935050505015801561029b573d6000803e3d6000fd5b50565b600160009054906101000a900473ffffffffffffffffffffffffffffffffffffffff1673ffffffffffffffffffffffffffffffffffffffff163373ffffffffffffffffffffffffffffffffffffffff161461032e576040517f08c379a0000000000000000000000000000000000000000000000000000000008152600401610325906105d6565b60405180910390fd5b600160009054906101000a900473ffffffffffffffffffffffffffffffffffffffff1673ffffffffffffffffffffffffffffffffffffffff166108fc6002549081150290604051600060405180830381858888f19350505050158015610398573d6000803e3d6000fd5b50565b60025481565b60008054906101000a900473ffffffffffffffffffffffffffffffffffffffff1681565b6000819050919050565b6103d8816103c5565b82525050565b60006020820190506103f360008301846103cf565b92915050565b600073ffffffffffffffffffffffffffffffffffffffff82169050919050565b6000610424826103f9565b9050919050565b61043481610419565b82525050565b600060208201905061044f600083018461042b565b92915050565b600082825260208201905092915050565b7f4f6e6c7920746865206465706f7369746f722063616e207265636c61696d207460008201527f68652066756e64732e0000000000000000000000000000000000000000000000602082015250565b60006104c2602983610455565b91506104cd82610466565b604082019050919050565b600060208201905081810360008301526104f1816104b5565b9050919050565b7f54686520646561646c696e6520686173206e6f7420706173736564207965742e600082015250565b600061052e602083610455565b9150610539826104f8565b602082019050919050565b6000602082019050818103600083015261055d81610521565b9050919050565b7f4f6e6c79207468652062656e65666963696172792063616e2072656c6561736560008201527f207468652066756e64732e000000000000000000000000000000000000000000602082015250565b60006105c0602b83610455565b91506105cb82610564565b604082019050919050565b600060208201905081810360008301526105ef816105b3565b905091905056fea26469706673582212201ebeb2c955bb22e8218a67630a51fd8af1238cc399708f4cb0fddcfe1aec110864736f6c63430008140033",
  "linkReferences": {},
  "deployedLinkReferences": {}
}