{
  "_format": "hh-sol-artifact-1",
  "contractName": "Escrow",
  "sourceName": "contracts/Escrow.sol",
  "abi": [
    {
      "inputs": [
        {
          "internalType": "address",
          "name": "_beneficiary",
          "type": "address"
        }
      ],
      "stateMutability": "payable",
      "type": "constructor"
    },
    {
      "inputs": [],
      "name": "amount",
      "outputs": [
        {
          "internalType": "uint256",
          "name": "",
          "type": "uint256"
        }
      ],
      "stateMutability": "view",
      "type": "function"
    },
    {
      "inputs": [],
      "name": "beneficiary",
      "outputs": [
        {
          "internalType": "address",
          "name": "",
          "type": "address"
        }
      ],
      "stateMutability": "view",
      "type": "function"
    },
    {
      "inputs": [],
      "name": "depositor",
      "outputs": [
        {
          "internalType": "address",
          "name": "",
          "type": "address"
        }
      ],
      "stateMutability": "view",
      "type": "function"
    },
    {
      "inputs": [],
      "name": "release",
      "outputs": [],
      "stateMutability": "nonpayable",
      "type": "function"
    }
  ],
  "bytecode": "0x60806040526040516104bd3803806104bd83398181016040528101906100259190610116565b336000806101000a81548173ffffffffffffffffffffffffffffffffffffffff021916908373ffffffffffffffffffffffffffffffffffffffff16021790555080600160006101000a81548173ffffffffffffffffffffffffffffffffffffffff021916908373ffffffffffffffffffffffffffffffffffffffff1602179055503460028190555050610143565b600080fd5b600073ffffffffffffffffffffffffffffffffffffffff82169050919050565b60006100e3826100b8565b9050919050565b6100f3816100d8565b81146100fe57600080fd5b50565b600081519050610110816100ea565b92915050565b60006020828403121561012c5761012b6100b3565b5b600061013a84828501610101565b91505092915050565b61036b806101526000396000f3fe608060405234801561001057600080fd5b506004361061004c5760003560e01c806338af3eed1461005157806386d1a69f1461006f578063aa8c217c14610079578063c7c4ff4614610097575b600080fd5b6100596100b5565b6040516100669190610243565b60405180910390f35b6100776100db565b005b6100816101d8565b60405161008e9190610277565b60405180910390f35b61009f6101de565b6040516100ac9190610243565b60405180910390f35b600160009054906101000a900473ffffffffffffffffffffffffffffffffffffffff1681565b600160009054906101000a900473ffffffffffffffffffffffffffffffffffffffff1673ffffffffffffffffffffffffffffffffffffffff163373ffffffffffffffffffffffffffffffffffffffff161461016b576040517f08c379a000000000000000000000000000000000000000000000000000000000815260040161016290610315565b60405180910390fd5b600160009054906101000a900473ffffffffffffffffffffffffffffffffffffffff1673ffffffffffffffffffffffffffffffffffffffff166108fc6002549081150290604051600060405180830381858888f193505050501580156101d5573d6000803e3d6000fd5b50565b60025481565b60008054906101000a900473ffffffffffffffffffffffffffffffffffffffff1681565b600073ffffffffffffffffffffffffffffffffffffffff82169050919050565b600061022d82610202565b9050919050565b61023d81610222565b82525050565b60006020820190506102586000830184610234565b92915050565b6000819050919050565b6102718161025e565b82525050565b600060208201905061028c6000830184610268565b92915050565b600082825260208201905092915050565b7f4f6e6c79207468652062656e65666963696172792063616e2072656c6561736560008201527f207468652066756e64732e000000000000000000000000000000000000000000602082015250565b60006102ff602b83610292565b915061030a826102a3565b604082019050919050565b6000602082019050818103600083015261032e816102f2565b905091905056fea2646970667358221220c7928a2f7e40b1218e822f0898acaf4a3cd1060075cadc3d414b9d2874e2e6ab64736f6c63430008140033",
  "linkReferences": {},
  "deployedLinkReferences": {}
}