{
  "_format": "hh-sol-artifact-1",
  "contractName": "BoxV2",
  "sourceName": "contracts/BoxV2.sol",
  "abi": [
    {
      "anonymous": false,
      "inputs": [
        {
          "indexed": false,
          "internalType": "address",
          "name": "previousAdmin",
          "type": "address"
        },
        {
          "indexed": false,
          "internalType": "address",
          "name": "newAdmin",
          "type": "address"
        }
      ],
      "name": "AdminChanged",
      "type": "event"
    },
    {
      "anonymous": false,
      "inputs": [
        {
          "indexed": true,
          "internalType": "address",
          "name": "beacon",
          "type": "address"
        }
      ],
      "name": "BeaconUpgraded",
      "type": "event"
    },
    {
      "anonymous": false,
      "inputs": [
        {
          "indexed": false,
          "internalType": "uint8",
          "name": "version",
          "type": "uint8"
        }
      ],
      "name": "Initialized",
      "type": "event"
    },
    {
      "anonymous": false,
      "inputs": [
        {
          "indexed": true,
          "internalType": "address",
          "name": "previousOwner",
          "type": "address"
        },
        {
          "indexed": true,
          "internalType": "address",
          "name": "newOwner",
          "type": "address"
        }
      ],
      "name": "OwnershipTransferred",
      "type": "event"
    },
    {
      "anonymous": false,
      "inputs": [
        {
          "indexed": true,
          "internalType": "address",
          "name": "implementation",
          "type": "address"
        }
      ],
      "name": "Upgraded",
      "type": "event"
    },
    {
      "inputs": [],
      "name": "increment",
      "outputs": [],
      "stateMutability": "nonpayable",
      "type": "function"
    },
    {
      "inputs": [
        {
          "internalType": "uint256",
          "name": "_value",
          "type": "uint256"
        }
      ],
      "name": "initialize",
      "outputs": [],
      "stateMutability": "nonpayable",
      "type": "function"
    },
    {
      "inputs": [],
      "name": "owner",
      "outputs": [
        {
          "internalType": "address",
          "name": "",
          "type": "address"
        }
      ],
      "stateMutability": "view",
      "type": "function"
    },
    {
      "inputs": [],
      "name": "proxiableUUID",
      "outputs": [
        {
          "internalType": "bytes32",
          "name": "",
          "type": "bytes32"
        }
      ],
      "stateMutability": "view",
      "type": "function"
    },
    {
      "inputs": [],
      "name": "renounceOwnership",
      "outputs": [],
      "stateMutability": "nonpayable",
      "type": "function"
    },
    {
      "inputs": [
        {
          "internalType": "address",
          "name": "newOwner",
          "type": "address"
        }
      ],
      "name": "transferOwnership",
      "outputs": [],
      "stateMutability": "nonpayable",
      "type": "function"
    },
    {
      "inputs": [
        {
          "internalType": "address",
          "name": "newImplementation",
          "type": "address"
        }
      ],
      "name": "upgradeTo",
      "outputs": [],
      "stateMutability": "nonpayable",
      "type": "function"
    },
    {
      "inputs": [
        {
          "internalType": "address",
          "name": "newImplementation",
          "type": "address"
        },
        {
          "internalType": "bytes",
          "name": "data",
          "type": "bytes"
        }
      ],
      "name": "upgradeToAndCall",
      "outputs": [],
      "stateMutability": "payable",
      "type": "function"
    },
    {
      "inputs": [],
      "name": "value",
      "outputs": [
        {
          "internalType": "uint256",
          "name": "",
          "type": "uint256"
        }
      ],
      "stateMutability": "view",
      "type": "function"
    }
  ],
  "bytecode": "0x60a06040523073ffffffffffffffffffffffffffffffffffffffff1660809073ffffffffffffffffffffffffffffffffffffffff168152503480156200004457600080fd5b50620000556200005b60201b60201c565b62000205565b600060019054906101000a900460ff1615620000ae576040517f08c379a0000000000000000000000000000000000000000000000000000000008152600401620000a590620001a8565b60405180910390fd5b60ff801660008054906101000a900460ff1660ff16146200011f5760ff6000806101000a81548160ff021916908360ff1602179055507f7f26b83ff96e1f2b6a682f133852f6798a09c465da95921460cefb384740249860ff604051620001169190620001e8565b60405180910390a15b565b600082825260208201905092915050565b7f496e697469616c697a61626c653a20636f6e747261637420697320696e69746960008201527f616c697a696e6700000000000000000000000000000000000000000000000000602082015250565b60006200019060278362000121565b91506200019d8262000132565b604082019050919050565b60006020820190508181036000830152620001c38162000181565b9050919050565b600060ff82169050919050565b620001e281620001ca565b82525050565b6000602082019050620001ff6000830184620001d7565b92915050565b6080516119d66200023d600039600081816101d30152818161026101528181610361015281816103ef015261049f01526119d66000f3fe6080604052600436106100865760003560e01c8063715018a611610059578063715018a6146101265780638da5cb5b1461013d578063d09de08a14610168578063f2fde38b1461017f578063fe4b84df146101a857610086565b80633659cfe61461008b5780633fa4f245146100b45780634f1ef286146100df57806352d1902d146100fb575b600080fd5b34801561009757600080fd5b506100b260048036038101906100ad9190610e9d565b6101d1565b005b3480156100c057600080fd5b506100c9610359565b6040516100d69190610ee3565b60405180910390f35b6100f960048036038101906100f49190611044565b61035f565b005b34801561010757600080fd5b5061011061049b565b60405161011d91906110b9565b60405180910390f35b34801561013257600080fd5b5061013b610554565b005b34801561014957600080fd5b50610152610568565b60405161015f91906110e3565b60405180910390f35b34801561017457600080fd5b5061017d610592565b005b34801561018b57600080fd5b506101a660048036038101906101a19190610e9d565b6105a9565b005b3480156101b457600080fd5b506101cf60048036038101906101ca919061112a565b61062c565b005b7f000000000000000000000000000000000000000000000000000000000000000073ffffffffffffffffffffffffffffffffffffffff163073ffffffffffffffffffffffffffffffffffffffff160361025f576040517f08c379a0000000000000000000000000000000000000000000000000000000008152600401610256906111da565b60405180910390fd5b7f000000000000000000000000000000000000000000000000000000000000000073ffffffffffffffffffffffffffffffffffffffff1661029e610772565b73ffffffffffffffffffffffffffffffffffffffff16146102f4576040517f08c379a00000000000000000000000000000000000000000000000000000000081526004016102eb9061126c565b60405180910390fd5b6102fd816107c9565b61035681600067ffffffffffffffff81111561031c5761031b610f19565b5b6040519080825280601f01601f19166020018201604052801561034e5781602001600182028036833780820191505090505b5060006107d4565b50565b60c95481565b7f000000000000000000000000000000000000000000000000000000000000000073ffffffffffffffffffffffffffffffffffffffff163073ffffffffffffffffffffffffffffffffffffffff16036103ed576040517f08c379a00000000000000000000000000000000000000000000000000000000081526004016103e4906111da565b60405180910390fd5b7f000000000000000000000000000000000000000000000000000000000000000073ffffffffffffffffffffffffffffffffffffffff1661042c610772565b73ffffffffffffffffffffffffffffffffffffffff1614610482576040517f08c379a00000000000000000000000000000000000000000000000000000000081526004016104799061126c565b60405180910390fd5b61048b826107c9565b610497828260016107d4565b5050565b60007f000000000000000000000000000000000000000000000000000000000000000073ffffffffffffffffffffffffffffffffffffffff163073ffffffffffffffffffffffffffffffffffffffff161461052b576040517f08c379a0000000000000000000000000000000000000000000000000000000008152600401610522906112fe565b60405180910390fd5b7f360894a13ba1a3210667c828492db98dca3e2076cc3735a920a3ca505d382bbc60001b905090565b61055c610942565b61056660006109c0565b565b6000609760009054906101000a900473ffffffffffffffffffffffffffffffffffffffff16905090565b600160c9546105a1919061134d565b60c981905550565b6105b1610942565b600073ffffffffffffffffffffffffffffffffffffffff168173ffffffffffffffffffffffffffffffffffffffff1603610620576040517f08c379a0000000000000000000000000000000000000000000000000000000008152600401610617906113f3565b60405180910390fd5b610629816109c0565b50565b60008060019054906101000a900460ff1615905080801561065d5750600160008054906101000a900460ff1660ff16105b8061068a575061066c30610a86565b1580156106895750600160008054906101000a900460ff1660ff16145b5b6106c9576040517f08c379a00000000000000000000000000000000000000000000000000000000081526004016106c090611485565b60405180910390fd5b60016000806101000a81548160ff021916908360ff1602179055508015610706576001600060016101000a81548160ff0219169083151502179055505b8160c981905550610715610aa9565b801561076e5760008060016101000a81548160ff0219169083151502179055507f7f26b83ff96e1f2b6a682f133852f6798a09c465da95921460cefb3847402498600160405161076591906114f7565b60405180910390a15b5050565b60006107a07f360894a13ba1a3210667c828492db98dca3e2076cc3735a920a3ca505d382bbc60001b610b02565b60000160009054906101000a900473ffffffffffffffffffffffffffffffffffffffff16905090565b6107d1610942565b50565b6108007f4910fdfa16fed3260ed0e7147f7cc6da11a60208b5b9406d12a635614ffd914360001b610b0c565b60000160009054906101000a900460ff16156108245761081f83610b16565b61093d565b8273ffffffffffffffffffffffffffffffffffffffff166352d1902d6040518163ffffffff1660e01b8152600401602060405180830381865afa92505050801561088c57506040513d601f19601f82011682018060405250810190610889919061153e565b60015b6108cb576040517f08c379a00000000000000000000000000000000000000000000000000000000081526004016108c2906115dd565b60405180910390fd5b7f360894a13ba1a3210667c828492db98dca3e2076cc3735a920a3ca505d382bbc60001b8114610930576040517f08c379a00000000000000000000000000000000000000000000000000000000081526004016109279061166f565b60405180910390fd5b5061093c838383610bcf565b5b505050565b61094a610bfb565b73ffffffffffffffffffffffffffffffffffffffff16610968610568565b73ffffffffffffffffffffffffffffffffffffffff16146109be576040517f08c379a00000000000000000000000000000000000000000000000000000000081526004016109b5906116db565b60405180910390fd5b565b6000609760009054906101000a900473ffffffffffffffffffffffffffffffffffffffff16905081609760006101000a81548173ffffffffffffffffffffffffffffffffffffffff021916908373ffffffffffffffffffffffffffffffffffffffff1602179055508173ffffffffffffffffffffffffffffffffffffffff168173ffffffffffffffffffffffffffffffffffffffff167f8be0079c531659141344cd1fd0a4f28419497f9722a3daafe3b4186f6b6457e060405160405180910390a35050565b6000808273ffffffffffffffffffffffffffffffffffffffff163b119050919050565b600060019054906101000a900460ff16610af8576040517f08c379a0000000000000000000000000000000000000000000000000000000008152600401610aef9061176d565b60405180910390fd5b610b00610c03565b565b6000819050919050565b6000819050919050565b610b1f81610a86565b610b5e576040517f08c379a0000000000000000000000000000000000000000000000000000000008152600401610b55906117ff565b60405180910390fd5b80610b8b7f360894a13ba1a3210667c828492db98dca3e2076cc3735a920a3ca505d382bbc60001b610b02565b60000160006101000a81548173ffffffffffffffffffffffffffffffffffffffff021916908373ffffffffffffffffffffffffffffffffffffffff16021790555050565b610bd883610c64565b600082511180610be55750805b15610bf657610bf48383610cb3565b505b505050565b600033905090565b600060019054906101000a900460ff16610c52576040517f08c379a0000000000000000000000000000000000000000000000000000000008152600401610c499061176d565b60405180910390fd5b610c62610c5d610bfb565b6109c0565b565b610c6d81610b16565b8073ffffffffffffffffffffffffffffffffffffffff167fbc7cd75a20ee27fd9adebab32041f755214dbc6bffa90cc0225b39da2e5c2d3b60405160405180910390a250565b6060610cd8838360405180606001604052806027815260200161197a60279139610ce0565b905092915050565b60606000808573ffffffffffffffffffffffffffffffffffffffff1685604051610d0a9190611890565b600060405180830381855af49150503d8060008114610d45576040519150601f19603f3d011682016040523d82523d6000602084013e610d4a565b606091505b5091509150610d5b86838387610d66565b925050509392505050565b60608315610dc8576000835103610dc057610d8085610a86565b610dbf576040517f08c379a0000000000000000000000000000000000000000000000000000000008152600401610db6906118f3565b60405180910390fd5b5b829050610dd3565b610dd28383610ddb565b5b949350505050565b600082511115610dee5781518083602001fd5b806040517f08c379a0000000000000000000000000000000000000000000000000000000008152600401610e229190611957565b60405180910390fd5b6000604051905090565b600080fd5b600080fd5b600073ffffffffffffffffffffffffffffffffffffffff82169050919050565b6000610e6a82610e3f565b9050919050565b610e7a81610e5f565b8114610e8557600080fd5b50565b600081359050610e9781610e71565b92915050565b600060208284031215610eb357610eb2610e35565b5b6000610ec184828501610e88565b91505092915050565b6000819050919050565b610edd81610eca565b82525050565b6000602082019050610ef86000830184610ed4565b92915050565b600080fd5b600080fd5b6000601f19601f8301169050919050565b7f4e487b7100000000000000000000000000000000000000000000000000000000600052604160045260246000fd5b610f5182610f08565b810181811067ffffffffffffffff82111715610f7057610f6f610f19565b5b80604052505050565b6000610f83610e2b565b9050610f8f8282610f48565b919050565b600067ffffffffffffffff821115610faf57610fae610f19565b5b610fb882610f08565b9050602081019050919050565b82818337600083830152505050565b6000610fe7610fe284610f94565b610f79565b90508281526020810184848401111561100357611002610f03565b5b61100e848285610fc5565b509392505050565b600082601f83011261102b5761102a610efe565b5b813561103b848260208601610fd4565b91505092915050565b6000806040838503121561105b5761105a610e35565b5b600061106985828601610e88565b925050602083013567ffffffffffffffff81111561108a57611089610e3a565b5b61109685828601611016565b9150509250929050565b6000819050919050565b6110b3816110a0565b82525050565b60006020820190506110ce60008301846110aa565b92915050565b6110dd81610e5f565b82525050565b60006020820190506110f860008301846110d4565b92915050565b61110781610eca565b811461111257600080fd5b50565b600081359050611124816110fe565b92915050565b6000602082840312156111405761113f610e35565b5b600061114e84828501611115565b91505092915050565b600082825260208201905092915050565b7f46756e6374696f6e206d7573742062652063616c6c6564207468726f7567682060008201527f64656c656761746563616c6c0000000000000000000000000000000000000000602082015250565b60006111c4602c83611157565b91506111cf82611168565b604082019050919050565b600060208201905081810360008301526111f3816111b7565b9050919050565b7f46756e6374696f6e206d7573742062652063616c6c6564207468726f7567682060008201527f6163746976652070726f78790000000000000000000000000000000000000000602082015250565b6000611256602c83611157565b9150611261826111fa565b604082019050919050565b6000602082019050818103600083015261128581611249565b9050919050565b7f555550535570677261646561626c653a206d757374206e6f742062652063616c60008201527f6c6564207468726f7567682064656c656761746563616c6c0000000000000000602082015250565b60006112e8603883611157565b91506112f38261128c565b604082019050919050565b60006020820190508181036000830152611317816112db565b9050919050565b7f4e487b7100000000000000000000000000000000000000000000000000000000600052601160045260246000fd5b600061135882610eca565b915061136383610eca565b925082820190508082111561137b5761137a61131e565b5b92915050565b7f4f776e61626c653a206e6577206f776e657220697320746865207a65726f206160008201527f6464726573730000000000000000000000000000000000000000000000000000602082015250565b60006113dd602683611157565b91506113e882611381565b604082019050919050565b6000602082019050818103600083015261140c816113d0565b9050919050565b7f496e697469616c697a61626c653a20636f6e747261637420697320616c72656160008201527f647920696e697469616c697a6564000000000000000000000000000000000000602082015250565b600061146f602e83611157565b915061147a82611413565b604082019050919050565b6000602082019050818103600083015261149e81611462565b9050919050565b6000819050919050565b600060ff82169050919050565b6000819050919050565b60006114e16114dc6114d7846114a5565b6114bc565b6114af565b9050919050565b6114f1816114c6565b82525050565b600060208201905061150c60008301846114e8565b92915050565b61151b816110a0565b811461152657600080fd5b50565b60008151905061153881611512565b92915050565b60006020828403121561155457611553610e35565b5b600061156284828501611529565b91505092915050565b7f45524331393637557067726164653a206e657720696d706c656d656e7461746960008201527f6f6e206973206e6f742055555053000000000000000000000000000000000000602082015250565b60006115c7602e83611157565b91506115d28261156b565b604082019050919050565b600060208201905081810360008301526115f6816115ba565b9050919050565b7f45524331393637557067726164653a20756e737570706f727465642070726f7860008201527f6961626c65555549440000000000000000000000000000000000000000000000602082015250565b6000611659602983611157565b9150611664826115fd565b604082019050919050565b600060208201905081810360008301526116888161164c565b9050919050565b7f4f776e61626c653a2063616c6c6572206973206e6f7420746865206f776e6572600082015250565b60006116c5602083611157565b91506116d08261168f565b602082019050919050565b600060208201905081810360008301526116f4816116b8565b9050919050565b7f496e697469616c697a61626c653a20636f6e7472616374206973206e6f74206960008201527f6e697469616c697a696e67000000000000000000000000000000000000000000602082015250565b6000611757602b83611157565b9150611762826116fb565b604082019050919050565b600060208201905081810360008301526117868161174a565b9050919050565b7f455243313936373a206e657720696d706c656d656e746174696f6e206973206e60008201527f6f74206120636f6e747261637400000000000000000000000000000000000000602082015250565b60006117e9602d83611157565b91506117f48261178d565b604082019050919050565b60006020820190508181036000830152611818816117dc565b9050919050565b600081519050919050565b600081905092915050565b60005b83811015611853578082015181840152602081019050611838565b60008484015250505050565b600061186a8261181f565b611874818561182a565b9350611884818560208601611835565b80840191505092915050565b600061189c828461185f565b915081905092915050565b7f416464726573733a2063616c6c20746f206e6f6e2d636f6e7472616374000000600082015250565b60006118dd601d83611157565b91506118e8826118a7565b602082019050919050565b6000602082019050818103600083015261190c816118d0565b9050919050565b600081519050919050565b600061192982611913565b6119338185611157565b9350611943818560208601611835565b61194c81610f08565b840191505092915050565b60006020820190508181036000830152611971818461191e565b90509291505056fe416464726573733a206c6f772d6c6576656c2064656c65676174652063616c6c206661696c6564a2646970667358221220551a74b2740469e84a0a74209207a52c7303621030d5132c5d5ecb44fe401b2f64736f6c63430008140033",
  "linkReferences": {},
  "deployedLinkReferences": {}
}