{"abi":[{"type":"constructor","inputs":[],"stateMutability":"nonpayable"},{"type":"function","name":"logMessage","inputs":[{"name":"_message","type":"string","internalType":"string"}],"outputs":[],"stateMutability":"nonpayable"},{"type":"function","name":"logValue","inputs":[{"name":"_value","type":"uint256","internalType":"uint256"}],"outputs":[],"stateMutability":"nonpayable"},{"type":"function","name":"owner","inputs":[],"outputs":[{"name":"","type":"address","internalType":"address"}],"stateMutability":"view"},{"type":"function","name":"renounceOwnership","inputs":[],"outputs":[],"stateMutability":"nonpayable"},{"type":"function","name":"transferOwnership","inputs":[{"name":"newOwner","type":"address","internalType":"address"}],"outputs":[],"stateMutability":"nonpayable"},{"type":"event","name":"LogMessage","inputs":[{"name":"sender","type":"address","indexed":true,"internalType":"address"},{"name":"message","type":"string","indexed":false,"internalType":"string"},{"name":"timestamp","type":"uint256","indexed":false,"internalType":"uint256"}],"anonymous":false},{"type":"event","name":"LogValue","inputs":[{"name":"sender","type":"address","indexed":true,"internalType":"address"},{"name":"value","type":"uint256","indexed":false,"internalType":"uint256"},{"name":"timestamp","type":"uint256","indexed":false,"internalType":"uint256"}],"anonymous":false},{"type":"event","name":"OwnershipTransferred","inputs":[{"name":"previousOwner","type":"address","indexed":true,"internalType":"address"},{"name":"newOwner","type":"address","indexed":true,"internalType":"address"}],"anonymous":false}],"bytecode":{"object":"0x608060405234801561000f575f80fd5b5061002c61002161003160201b60201c565b61003860201b60201c565b6100f9565b5f33905090565b5f805f9054906101000a900473ffffffffffffffffffffffffffffffffffffffff169050815f806101000a81548173ffffffffffffffffffffffffffffffffffffffff021916908373ffffffffffffffffffffffffffffffffffffffff1602179055508173ffffffffffffffffffffffffffffffffffffffff168173ffffffffffffffffffffffffffffffffffffffff167f8be0079c531659141344cd1fd0a4f28419497f9722a3daafe3b4186f6b6457e060405160405180910390a35050565b610826806101065f395ff3fe608060405234801561000f575f80fd5b5060043610610055575f3560e01c8063715018a6146100595780637c990052146100635780638da5cb5b1461007f578063f2fde38b1461009d578063fc8a475f146100b9575b5f80fd5b6100616100d5565b005b61007d600480360381019061007891906104ca565b6100e8565b005b61008761013b565b6040516100949190610550565b60405180910390f35b6100b760048036038101906100b29190610593565b610162565b005b6100d360048036038101906100ce91906105f1565b6101e4565b005b6100dd610237565b6100e65f6102b5565b565b3373ffffffffffffffffffffffffffffffffffffffff167f48e0bad32e808d60724259c1b17e81793c5b12c147bea07e23a81b29285df06682426040516101309291906106a5565b60405180910390a250565b5f805f9054906101000a900473ffffffffffffffffffffffffffffffffffffffff16905090565b61016a610237565b5f73ffffffffffffffffffffffffffffffffffffffff168173ffffffffffffffffffffffffffffffffffffffff16036101d8576040517f08c379a00000000000000000000000000000000000000000000000000000000081526004016101cf90610743565b60405180910390fd5b6101e1816102b5565b50565b3373ffffffffffffffffffffffffffffffffffffffff167fd0112bc293deaf7bb0537d75f882b5acaa8d847f3bacc3a165f151813d17668f824260405161022c929190610761565b60405180910390a250565b61023f610376565b73ffffffffffffffffffffffffffffffffffffffff1661025d61013b565b73ffffffffffffffffffffffffffffffffffffffff16146102b3576040517f08c379a00000000000000000000000000000000000000000000000000000000081526004016102aa906107d2565b60405180910390fd5b565b5f805f9054906101000a900473ffffffffffffffffffffffffffffffffffffffff169050815f806101000a81548173ffffffffffffffffffffffffffffffffffffffff021916908373ffffffffffffffffffffffffffffffffffffffff1602179055508173ffffffffffffffffffffffffffffffffffffffff168173ffffffffffffffffffffffffffffffffffffffff167f8be0079c531659141344cd1fd0a4f28419497f9722a3daafe3b4186f6b6457e060405160405180910390a35050565b5f33905090565b5f604051905090565b5f80fd5b5f80fd5b5f80fd5b5f80fd5b5f601f19601f8301169050919050565b7f4e487b71000000000000000000000000000000000000000000000000000000005f52604160045260245ffd5b6103dc82610396565b810181811067ffffffffffffffff821117156103fb576103fa6103a6565b5b80604052505050565b5f61040d61037d565b905061041982826103d3565b919050565b5f67ffffffffffffffff821115610438576104376103a6565b5b61044182610396565b9050602081019050919050565b828183375f83830152505050565b5f61046e6104698461041e565b610404565b90508281526020810184848401111561048a57610489610392565b5b61049584828561044e565b509392505050565b5f82601f8301126104b1576104b061038e565b5b81356104c184826020860161045c565b91505092915050565b5f602082840312156104df576104de610386565b5b5f82013567ffffffffffffffff8111156104fc576104fb61038a565b5b6105088482850161049d565b91505092915050565b5f73ffffffffffffffffffffffffffffffffffffffff82169050919050565b5f61053a82610511565b9050919050565b61054a81610530565b82525050565b5f6020820190506105635f830184610541565b92915050565b61057281610530565b811461057c575f80fd5b50565b5f8135905061058d81610569565b92915050565b5f602082840312156105a8576105a7610386565b5b5f6105b58482850161057f565b91505092915050565b5f819050919050565b6105d0816105be565b81146105da575f80fd5b50565b5f813590506105eb816105c7565b92915050565b5f6020828403121561060657610605610386565b5b5f610613848285016105dd565b91505092915050565b5f81519050919050565b5f82825260208201905092915050565b5f5b83811015610653578082015181840152602081019050610638565b5f8484015250505050565b5f6106688261061c565b6106728185610626565b9350610682818560208601610636565b61068b81610396565b840191505092915050565b61069f816105be565b82525050565b5f6040820190508181035f8301526106bd818561065e565b90506106cc6020830184610696565b9392505050565b7f4f776e61626c653a206e6577206f776e657220697320746865207a65726f20615f8201527f6464726573730000000000000000000000000000000000000000000000000000602082015250565b5f61072d602683610626565b9150610738826106d3565b604082019050919050565b5f6020820190508181035f83015261075a81610721565b9050919050565b5f6040820190506107745f830185610696565b6107816020830184610696565b9392505050565b7f4f776e61626c653a2063616c6c6572206973206e6f7420746865206f776e65725f82015250565b5f6107bc602083610626565b91506107c782610788565b602082019050919050565b5f6020820190508181035f8301526107e9816107b0565b905091905056fea264697066735822122074931d41402502b983870f4ea872407843ebbae14cdab843cd5b6509951ef5a064736f6c63430008140033","linkReferences":{}},"methodIdentifiers":{"logMessage(string)":"7c990052","logValue(uint256)":"fc8a475f","owner()":"8da5cb5b","renounceOwnership()":"715018a6","transferOwnership(address)":"f2fde38b"},"id":5}