{"abi":[{"type":"constructor","inputs":[],"stateMutability":"nonpayable"},{"type":"function","name":"TOKEN_ID_1","inputs":[],"outputs":[{"name":"","type":"uint256","internalType":"uint256"}],"stateMutability":"view"},{"type":"function","name":"TOKEN_ID_2","inputs":[],"outputs":[{"name":"","type":"uint256","internalType":"uint256"}],"stateMutability":"view"},{"type":"function","name":"balanceOf","inputs":[{"name":"account","type":"address","internalType":"address"},{"name":"id","type":"uint256","internalType":"uint256"}],"outputs":[{"name":"","type":"uint256","internalType":"uint256"}],"stateMutability":"view"},{"type":"function","name":"balanceOfBatch","inputs":[{"name":"accounts","type":"address[]","internalType":"address[]"},{"name":"ids","type":"uint256[]","internalType":"uint256[]"}],"outputs":[{"name":"","type":"uint256[]","internalType":"uint256[]"}],"stateMutability":"view"},{"type":"function","name":"burn","inputs":[{"name":"account","type":"address","internalType":"address"},{"name":"id","type":"uint256","internalType":"uint256"},{"name":"amount","type":"uint256","internalType":"uint256"}],"outputs":[],"stateMutability":"nonpayable"},{"type":"function","name":"burnBatch","inputs":[{"name":"account","type":"address","internalType":"address"},{"name":"ids","type":"uint256[]","internalType":"uint256[]"},{"name":"amounts","type":"uint256[]","internalType":"uint256[]"}],"outputs":[],"stateMutability":"nonpayable"},{"type":"function","name":"isApprovedForAll","inputs":[{"name":"account","type":"address","internalType":"address"},{"name":"operator","type":"address","internalType":"address"}],"outputs":[{"name":"","type":"bool","internalType":"bool"}],"stateMutability":"view"},{"type":"function","name":"mint","inputs":[{"name":"account","type":"address","internalType":"address"},{"name":"id","type":"uint256","internalType":"uint256"},{"name":"amount","type":"uint256","internalType":"uint256"},{"name":"data","type":"bytes","internalType":"bytes"}],"outputs":[],"stateMutability":"nonpayable"},{"type":"function","name":"mintBatch","inputs":[{"name":"account","type":"address","internalType":"address"},{"name":"ids","type":"uint256[]","internalType":"uint256[]"},{"name":"amounts","type":"uint256[]","internalType":"uint256[]"},{"name":"data","type":"bytes","internalType":"bytes"}],"outputs":[],"stateMutability":"nonpayable"},{"type":"function","name":"owner","inputs":[],"outputs":[{"name":"","type":"address","internalType":"address"}],"stateMutability":"view"},{"type":"function","name":"renounceOwnership","inputs":[],"outputs":[],"stateMutability":"nonpayable"},{"type":"function","name":"safeBatchTransferFrom","inputs":[{"name":"from","type":"address","internalType":"address"},{"name":"to","type":"address","internalType":"address"},{"name":"ids","type":"uint256[]","internalType":"uint256[]"},{"name":"amounts","type":"uint256[]","internalType":"uint256[]"},{"name":"data","type":"bytes","internalType":"bytes"}],"outputs":[],"stateMutability":"nonpayable"},{"type":"function","name":"safeTransferFrom","inputs":[{"name":"from","type":"address","internalType":"address"},{"name":"to","type":"address","internalType":"address"},{"name":"id","type":"uint256","internalType":"uint256"},{"name":"amount","type":"uint256","internalType":"uint256"},{"name":"data","type":"bytes","internalType":"bytes"}],"outputs":[],"stateMutability":"nonpayable"},{"type":"function","name":"setApprovalForAll","inputs":[{"name":"operator","type":"address","internalType":"address"},{"name":"approved","type":"bool","internalType":"bool"}],"outputs":[],"stateMutability":"nonpayable"},{"type":"function","name":"supportsInterface","inputs":[{"name":"interfaceId","type":"bytes4","internalType":"bytes4"}],"outputs":[{"name":"","type":"bool","internalType":"bool"}],"stateMutability":"view"},{"type":"function","name":"transferOwnership","inputs":[{"name":"newOwner","type":"address","internalType":"address"}],"outputs":[],"stateMutability":"nonpayable"},{"type":"function","name":"uri","inputs":[{"name":"","type":"uint256","internalType":"uint256"}],"outputs":[{"name":"","type":"string","internalType":"string"}],"stateMutability":"view"},{"type":"event","name":"ApprovalForAll","inputs":[{"name":"account","type":"address","indexed":true,"internalType":"address"},{"name":"operator","type":"address","indexed":true,"internalType":"address"},{"name":"approved","type":"bool","indexed":false,"internalType":"bool"}],"anonymous":false},{"type":"event","name":"OwnershipTransferred","inputs":[{"name":"previousOwner","type":"address","indexed":true,"internalType":"address"},{"name":"newOwner","type":"address","indexed":true,"internalType":"address"}],"anonymous":false},{"type":"event","name":"TransferBatch","inputs":[{"name":"operator","type":"address","indexed":true,"internalType":"address"},{"name":"from","type":"address","indexed":true,"internalType":"address"},{"name":"to","type":"address","indexed":true,"internalType":"address"},{"name":"ids","type":"uint256[]","indexed":false,"internalType":"uint256[]"},{"name":"values","type":"uint256[]","indexed":false,"internalType":"uint256[]"}],"anonymous":false},{"type":"event","name":"TransferSingle","inputs":[{"name":"operator","type":"address","indexed":true,"internalType":"address"},{"name":"from","type":"address","indexed":true,"internalType":"address"},{"name":"to","type":"address","indexed":true,"internalType":"address"},{"name":"id","type":"uint256","indexed":false,"internalType":"uint256"},{"name":"value","type":"uint256","indexed":false,"internalType":"uint256"}],"anonymous":false},{"type":"event","name":"URI","inputs":[{"name":"value","type":"string","indexed":false,"internalType":"string"},{"name":"id","type":"uint256","indexed":true,"internalType":"uint256"}],"anonymous":false}],"bytecode":{"object":"0x608060405234801562000010575f80fd5b50604051806060016040528060228152602001620044d7602291396200003c81620000aa60201b60201c565b506200005d62000051620000bf60201b60201c565b620000c660201b60201c565b62000080335f606460405180602001604052805f8152506200018960201b60201c565b620000a433600160c860405180602001604052805f8152506200018960201b60201c565b62000f1b565b8060029081620000bb91906200086b565b5050565b5f33905090565b5f60035f9054906101000a900473ffffffffffffffffffffffffffffffffffffffff1690508160035f6101000a81548173ffffffffffffffffffffffffffffffffffffffff021916908373ffffffffffffffffffffffffffffffffffffffff1602179055508173ffffffffffffffffffffffffffffffffffffffff168173ffffffffffffffffffffffffffffffffffffffff167f8be0079c531659141344cd1fd0a4f28419497f9722a3daafe3b4186f6b6457e060405160405180910390a35050565b5f73ffffffffffffffffffffffffffffffffffffffff168473ffffffffffffffffffffffffffffffffffffffff1603620001fa576040517f08c379a0000000000000000000000000000000000000000000000000000000008152600401620001f190620009d3565b60405180910390fd5b5f6200020b620000bf60201b60201c565b90505f6200021f856200036360201b60201c565b90505f62000233856200036360201b60201c565b90506200024b835f89858589620003e260201b60201c565b845f808881526020019081526020015f205f8973ffffffffffffffffffffffffffffffffffffffff1673ffffffffffffffffffffffffffffffffffffffff1681526020019081526020015f205f828254620002a7919062000a20565b925050819055508673ffffffffffffffffffffffffffffffffffffffff165f73ffffffffffffffffffffffffffffffffffffffff168473ffffffffffffffffffffffffffffffffffffffff167fc3d58168c5ae7397731d063d5bbf3d657854427343f4c083240f7aacaa2d0f6289896040516200032692919062000a6b565b60405180910390a462000344835f89858589620003ea60201b60201c565b6200035a835f89898989620003f260201b60201c565b50505050505050565b60605f600167ffffffffffffffff81111562000384576200038362000611565b5b604051908082528060200260200182016040528015620003b35781602001602082028036833780820191505090505b50905082815f81518110620003cd57620003cc62000a96565b5b60200260200101818152505080915050919050565b505050505050565b505050505050565b620004198473ffffffffffffffffffffffffffffffffffffffff16620005e560201b60201c565b15620005dd578373ffffffffffffffffffffffffffffffffffffffff1663f23a6e6187878686866040518663ffffffff1660e01b81526004016200046295949392919062000b9a565b6020604051808303815f875af1925050508015620004a057506040513d601f19601f820116820180604052508101906200049d919062000c63565b60015b6200055157620004af62000c9f565b806308c379a003620005125750620004c662000cf7565b80620004d3575062000514565b806040517f08c379a000000000000000000000000000000000000000000000000000000000815260040162000509919062000dd1565b60405180910390fd5b505b6040517f08c379a0000000000000000000000000000000000000000000000000000000008152600401620005489062000e67565b60405180910390fd5b63f23a6e6160e01b7bffffffffffffffffffffffffffffffffffffffffffffffffffffffff1916817bffffffffffffffffffffffffffffffffffffffffffffffffffffffff191614620005db576040517f08c379a0000000000000000000000000000000000000000000000000000000008152600401620005d29062000efb565b60405180910390fd5b505b505050505050565b5f808273ffffffffffffffffffffffffffffffffffffffff163b119050919050565b5f81519050919050565b7f4e487b71000000000000000000000000000000000000000000000000000000005f52604160045260245ffd5b7f4e487b71000000000000000000000000000000000000000000000000000000005f52602260045260245ffd5b5f60028204905060018216806200068357607f821691505b6020821081036200069957620006986200063e565b5b50919050565b5f819050815f5260205f209050919050565b5f6020601f8301049050919050565b5f82821b905092915050565b5f60088302620006fd7fffffffffffffffffffffffffffffffffffffffffffffffffffffffffffffffff82620006c0565b620007098683620006c0565b95508019841693508086168417925050509392505050565b5f819050919050565b5f819050919050565b5f620007536200074d620007478462000721565b6200072a565b62000721565b9050919050565b5f819050919050565b6200076e8362000733565b620007866200077d826200075a565b848454620006cc565b825550505050565b5f90565b6200079c6200078e565b620007a981848462000763565b505050565b5b81811015620007d057620007c45f8262000792565b600181019050620007af565b5050565b601f8211156200081f57620007e9816200069f565b620007f484620006b1565b8101602085101562000804578190505b6200081c6200081385620006b1565b830182620007ae565b50505b505050565b5f82821c905092915050565b5f620008415f198460080262000824565b1980831691505092915050565b5f6200085b838362000830565b9150826002028217905092915050565b620008768262000607565b67ffffffffffffffff81111562000892576200089162000611565b5b6200089e82546200066b565b620008ab828285620007d4565b5f60209050601f831160018114620008e1575f8415620008cc578287015190505b620008d885826200084e565b86555062000947565b601f198416620008f1866200069f565b5f5b828110156200091a57848901518255600182019150602085019450602081019050620008f3565b868310156200093a578489015162000936601f89168262000830565b8355505b6001600288020188555050505b505050505050565b5f82825260208201905092915050565b7f455243313135353a206d696e7420746f20746865207a65726f206164647265735f8201527f7300000000000000000000000000000000000000000000000000000000000000602082015250565b5f620009bb6021836200094f565b9150620009c8826200095f565b604082019050919050565b5f6020820190508181035f830152620009ec81620009ad565b9050919050565b7f4e487b71000000000000000000000000000000000000000000000000000000005f52601160045260245ffd5b5f62000a2c8262000721565b915062000a398362000721565b925082820190508082111562000a545762000a53620009f3565b5b92915050565b62000a658162000721565b82525050565b5f60408201905062000a805f83018562000a5a565b62000a8f602083018462000a5a565b9392505050565b7f4e487b71000000000000000000000000000000000000000000000000000000005f52603260045260245ffd5b5f73ffffffffffffffffffffffffffffffffffffffff82169050919050565b5f62000aee8262000ac3565b9050919050565b62000b008162000ae2565b82525050565b5f81519050919050565b5f82825260208201905092915050565b5f5b8381101562000b3f57808201518184015260208101905062000b22565b5f8484015250505050565b5f601f19601f8301169050919050565b5f62000b668262000b06565b62000b72818562000b10565b935062000b8481856020860162000b20565b62000b8f8162000b4a565b840191505092915050565b5f60a08201905062000baf5f83018862000af5565b62000bbe602083018762000af5565b62000bcd604083018662000a5a565b62000bdc606083018562000a5a565b818103608083015262000bf0818462000b5a565b90509695505050505050565b5f604051905090565b5f80fd5b5f7fffffffff0000000000000000000000000000000000000000000000000000000082169050919050565b62000c3f8162000c09565b811462000c4a575f80fd5b50565b5f8151905062000c5d8162000c34565b92915050565b5f6020828403121562000c7b5762000c7a62000c05565b5b5f62000c8a8482850162000c4d565b91505092915050565b5f8160e01c9050919050565b5f60033d111562000cbe5760045f803e62000cbb5f5162000c93565b90505b90565b62000ccc8262000b4a565b810181811067ffffffffffffffff8211171562000cee5762000ced62000611565b5b80604052505050565b5f60443d1062000d8e5762000d0b62000bfc565b60043d036004823e80513d602482011167ffffffffffffffff8211171562000d3557505062000d8e565b808201805167ffffffffffffffff81111562000d55575050505062000d8e565b80602083010160043d03850181111562000d7457505050505062000d8e565b62000d858260200185018662000cc1565b82955050505050505b90565b5f62000d9d8262000607565b62000da981856200094f565b935062000dbb81856020860162000b20565b62000dc68162000b4a565b840191505092915050565b5f6020820190508181035f83015262000deb818462000d91565b905092915050565b7f455243313135353a207472616e7366657220746f206e6f6e2d455243313135355f8201527f526563656976657220696d706c656d656e746572000000000000000000000000602082015250565b5f62000e4f6034836200094f565b915062000e5c8262000df3565b604082019050919050565b5f6020820190508181035f83015262000e808162000e41565b9050919050565b7f455243313135353a204552433131353552656365697665722072656a656374655f8201527f6420746f6b656e73000000000000000000000000000000000000000000000000602082015250565b5f62000ee36028836200094f565b915062000ef08262000e87565b604082019050919050565b5f6020820190508181035f83015262000f148162000ed5565b9050919050565b6135ae8062000f295f395ff3fe608060405234801561000f575f80fd5b5060043610610108575f3560e01c80636b20c454116100a0578063a22cb4651161006f578063a22cb465146102a0578063e985e9c5146102bc578063f242432a146102ec578063f2fde38b14610308578063f5298aca1461032457610108565b80636b20c45414610240578063715018a61461025c578063731133e9146102665780638da5cb5b1461028257610108565b80632eb2c2d6116100dc5780632eb2c2d6146101b85780634e1273f4146101d457806367dde6d5146102045780636ad9e4b51461022257610108565b8062fdd58e1461010c57806301ffc9a71461013c5780630e89341c1461016c5780631f7fdffa1461019c575b5f80fd5b61012660048036038101906101219190611ff2565b610340565b604051610133919061203f565b60405180910390f35b610156600480360381019061015191906120ad565b610403565b60405161016391906120f2565b60405180910390f35b6101866004803603810190610181919061210b565b6104e4565b60405161019391906121c0565b60405180910390f35b6101b660048036038101906101b191906123d0565b610576565b005b6101d260048036038101906101cd9190612488565b610590565b005b6101ee60048036038101906101e99190612613565b610631565b6040516101fb9190612740565b60405180910390f35b61020c610748565b604051610219919061203f565b60405180910390f35b61022a61074d565b604051610237919061203f565b60405180910390f35b61025a60048036038101906102559190612760565b610751565b005b610264610769565b005b610280600480360381019061027b91906127e8565b61077c565b005b61028a610796565b6040516102979190612877565b60405180910390f35b6102ba60048036038101906102b591906128ba565b6107be565b005b6102d660048036038101906102d191906128f8565b6107d4565b6040516102e391906120f2565b60405180910390f35b61030660048036038101906103019190612936565b610862565b005b610322600480360381019061031d91906129c9565b610903565b005b61033e600480360381019061033991906129f4565b610985565b005b5f8073ffffffffffffffffffffffffffffffffffffffff168373ffffffffffffffffffffffffffffffffffffffff16036103af576040517f08c379a00000000000000000000000000000000000000000000000000000000081526004016103a690612ab4565b60405180910390fd5b5f808381526020019081526020015f205f8473ffffffffffffffffffffffffffffffffffffffff1673ffffffffffffffffffffffffffffffffffffffff1681526020019081526020015f2054905092915050565b5f7fd9b67a26000000000000000000000000000000000000000000000000000000007bffffffffffffffffffffffffffffffffffffffffffffffffffffffff1916827bffffffffffffffffffffffffffffffffffffffffffffffffffffffff191614806104cd57507f0e89341c000000000000000000000000000000000000000000000000000000007bffffffffffffffffffffffffffffffffffffffffffffffffffffffff1916827bffffffffffffffffffffffffffffffffffffffffffffffffffffffff1916145b806104dd57506104dc8261099d565b5b9050919050565b6060600280546104f390612aff565b80601f016020809104026020016040519081016040528092919081815260200182805461051f90612aff565b801561056a5780601f106105415761010080835404028352916020019161056a565b820191905f5260205f20905b81548152906001019060200180831161054d57829003601f168201915b50505050509050919050565b61057e610a06565b61058a84848484610a84565b50505050565b610598610ca4565b73ffffffffffffffffffffffffffffffffffffffff168573ffffffffffffffffffffffffffffffffffffffff1614806105de57506105dd856105d8610ca4565b6107d4565b5b61061d576040517f08c379a000000000000000000000000000000000000000000000000000000000815260040161061490612b9f565b60405180910390fd5b61062a8585858585610cab565b5050505050565b60608151835114610677576040517f08c379a000000000000000000000000000000000000000000000000000000000815260040161066e90612c2d565b60405180910390fd5b5f835167ffffffffffffffff811115610693576106926121e4565b5b6040519080825280602002602001820160405280156106c15781602001602082028036833780820191505090505b5090505f5b845181101561073d5761070d8582815181106106e5576106e4612c4b565b5b6020026020010151858381518110610700576106ff612c4b565b5b6020026020010151610340565b8282815181106107205761071f612c4b565b5b6020026020010181815250508061073690612ca5565b90506106c6565b508091505092915050565b600181565b5f81565b610759610a06565b610764838383610fb9565b505050565b610771610a06565b61077a5f611274565b565b610784610a06565b61079084848484611337565b50505050565b5f60035f9054906101000a900473ffffffffffffffffffffffffffffffffffffffff16905090565b6107d06107c9610ca4565b83836114da565b5050565b5f60015f8473ffffffffffffffffffffffffffffffffffffffff1673ffffffffffffffffffffffffffffffffffffffff1681526020019081526020015f205f8373ffffffffffffffffffffffffffffffffffffffff1673ffffffffffffffffffffffffffffffffffffffff1681526020019081526020015f205f9054906101000a900460ff16905092915050565b61086a610ca4565b73ffffffffffffffffffffffffffffffffffffffff168573ffffffffffffffffffffffffffffffffffffffff1614806108b057506108af856108aa610ca4565b6107d4565b5b6108ef576040517f08c379a00000000000000000000000000000000000000000000000000000000081526004016108e690612b9f565b60405180910390fd5b6108fc8585858585611641565b5050505050565b61090b610a06565b5f73ffffffffffffffffffffffffffffffffffffffff168173ffffffffffffffffffffffffffffffffffffffff1603610979576040517f08c379a000000000000000000000000000000000000000000000000000000000815260040161097090612d5c565b60405180910390fd5b61098281611274565b50565b61098d610a06565b6109988383836118ca565b505050565b5f7f01ffc9a7000000000000000000000000000000000000000000000000000000007bffffffffffffffffffffffffffffffffffffffffffffffffffffffff1916827bffffffffffffffffffffffffffffffffffffffffffffffffffffffff1916149050919050565b610a0e610ca4565b73ffffffffffffffffffffffffffffffffffffffff16610a2c610796565b73ffffffffffffffffffffffffffffffffffffffff1614610a82576040517f08c379a0000000000000000000000000000000000000000000000000000000008152600401610a7990612dc4565b60405180910390fd5b565b5f73ffffffffffffffffffffffffffffffffffffffff168473ffffffffffffffffffffffffffffffffffffffff1603610af2576040517f08c379a0000000000000000000000000000000000000000000000000000000008152600401610ae990612e52565b60405180910390fd5b8151835114610b36576040517f08c379a0000000000000000000000000000000000000000000000000000000008152600401610b2d90612ee0565b60405180910390fd5b5f610b3f610ca4565b9050610b4f815f87878787611afe565b5f5b8451811015610c0257838181518110610b6d57610b6c612c4b565b5b60200260200101515f80878481518110610b8a57610b89612c4b565b5b602002602001015181526020019081526020015f205f8873ffffffffffffffffffffffffffffffffffffffff1673ffffffffffffffffffffffffffffffffffffffff1681526020019081526020015f205f828254610be89190612efe565b925050819055508080610bfa90612ca5565b915050610b51565b508473ffffffffffffffffffffffffffffffffffffffff165f73ffffffffffffffffffffffffffffffffffffffff168273ffffffffffffffffffffffffffffffffffffffff167f4a39dc06d4c0dbc64b70af90fd698a233a518aa5d07e595d983b8c0526c8f7fb8787604051610c79929190612f31565b60405180910390a4610c8f815f87878787611b06565b610c9d815f87878787611b0e565b5050505050565b5f33905090565b8151835114610cef576040517f08c379a0000000000000000000000000000000000000000000000000000000008152600401610ce690612ee0565b60405180910390fd5b5f73ffffffffffffffffffffffffffffffffffffffff168473ffffffffffffffffffffffffffffffffffffffff1603610d5d576040517f08c379a0000000000000000000000000000000000000000000000000000000008152600401610d5490612fd6565b60405180910390fd5b5f610d66610ca4565b9050610d76818787878787611afe565b5f5b8451811015610f16575f858281518110610d9557610d94612c4b565b5b602002602001015190505f858381518110610db357610db2612c4b565b5b602002602001015190505f805f8481526020019081526020015f205f8b73ffffffffffffffffffffffffffffffffffffffff1673ffffffffffffffffffffffffffffffffffffffff1681526020019081526020015f2054905081811015610e4f576040517f08c379a0000000000000000000000000000000000000000000000000000000008152600401610e4690613064565b60405180910390fd5b8181035f808581526020019081526020015f205f8c73ffffffffffffffffffffffffffffffffffffffff1673ffffffffffffffffffffffffffffffffffffffff1681526020019081526020015f2081905550815f808581526020019081526020015f205f8b73ffffffffffffffffffffffffffffffffffffffff1673ffffffffffffffffffffffffffffffffffffffff1681526020019081526020015f205f828254610efb9190612efe565b9250508190555050505080610f0f90612ca5565b9050610d78565b508473ffffffffffffffffffffffffffffffffffffffff168673ffffffffffffffffffffffffffffffffffffffff168273ffffffffffffffffffffffffffffffffffffffff167f4a39dc06d4c0dbc64b70af90fd698a233a518aa5d07e595d983b8c0526c8f7fb8787604051610f8d929190612f31565b60405180910390a4610fa3818787878787611b06565b610fb1818787878787611b0e565b505050505050565b5f73ffffffffffffffffffffffffffffffffffffffff168373ffffffffffffffffffffffffffffffffffffffff1603611027576040517f08c379a000000000000000000000000000000000000000000000000000000000815260040161101e906130f2565b60405180910390fd5b805182511461106b576040517f08c379a000000000000000000000000000000000000000000000000000000000815260040161106290612ee0565b60405180910390fd5b5f611074610ca4565b905061109281855f868660405180602001604052805f815250611afe565b5f5b83518110156111d3575f8482815181106110b1576110b0612c4b565b5b602002602001015190505f8483815181106110cf576110ce612c4b565b5b602002602001015190505f805f8481526020019081526020015f205f8973ffffffffffffffffffffffffffffffffffffffff1673ffffffffffffffffffffffffffffffffffffffff1681526020019081526020015f205490508181101561116b576040517f08c379a000000000000000000000000000000000000000000000000000000000815260040161116290613180565b60405180910390fd5b8181035f808581526020019081526020015f205f8a73ffffffffffffffffffffffffffffffffffffffff1673ffffffffffffffffffffffffffffffffffffffff1681526020019081526020015f208190555050505080806111cb90612ca5565b915050611094565b505f73ffffffffffffffffffffffffffffffffffffffff168473ffffffffffffffffffffffffffffffffffffffff168273ffffffffffffffffffffffffffffffffffffffff167f4a39dc06d4c0dbc64b70af90fd698a233a518aa5d07e595d983b8c0526c8f7fb868660405161124a929190612f31565b60405180910390a461126e81855f868660405180602001604052805f815250611b06565b50505050565b5f60035f9054906101000a900473ffffffffffffffffffffffffffffffffffffffff1690508160035f6101000a81548173ffffffffffffffffffffffffffffffffffffffff021916908373ffffffffffffffffffffffffffffffffffffffff1602179055508173ffffffffffffffffffffffffffffffffffffffff168173ffffffffffffffffffffffffffffffffffffffff167f8be0079c531659141344cd1fd0a4f28419497f9722a3daafe3b4186f6b6457e060405160405180910390a35050565b5f73ffffffffffffffffffffffffffffffffffffffff168473ffffffffffffffffffffffffffffffffffffffff16036113a5576040517f08c379a000000000000000000000000000000000000000000000000000000000815260040161139c90612e52565b60405180910390fd5b5f6113ae610ca4565b90505f6113ba85611ce4565b90505f6113c685611ce4565b90506113d6835f89858589611afe565b845f808881526020019081526020015f205f8973ffffffffffffffffffffffffffffffffffffffff1673ffffffffffffffffffffffffffffffffffffffff1681526020019081526020015f205f8282546114309190612efe565b925050819055508673ffffffffffffffffffffffffffffffffffffffff165f73ffffffffffffffffffffffffffffffffffffffff168473ffffffffffffffffffffffffffffffffffffffff167fc3d58168c5ae7397731d063d5bbf3d657854427343f4c083240f7aacaa2d0f6289896040516114ad92919061319e565b60405180910390a46114c3835f89858589611b06565b6114d1835f89898989611d5c565b50505050505050565b8173ffffffffffffffffffffffffffffffffffffffff168373ffffffffffffffffffffffffffffffffffffffff1603611548576040517f08c379a000000000000000000000000000000000000000000000000000000000815260040161153f90613235565b60405180910390fd5b8060015f8573ffffffffffffffffffffffffffffffffffffffff1673ffffffffffffffffffffffffffffffffffffffff1681526020019081526020015f205f8473ffffffffffffffffffffffffffffffffffffffff1673ffffffffffffffffffffffffffffffffffffffff1681526020019081526020015f205f6101000a81548160ff0219169083151502179055508173ffffffffffffffffffffffffffffffffffffffff168373ffffffffffffffffffffffffffffffffffffffff167f17307eab39ab6107e8899845ad3d59bd9653f200f220920489ca2b5937696c318360405161163491906120f2565b60405180910390a3505050565b5f73ffffffffffffffffffffffffffffffffffffffff168473ffffffffffffffffffffffffffffffffffffffff16036116af576040517f08c379a00000000000000000000000000000000000000000000000000000000081526004016116a690612fd6565b60405180910390fd5b5f6116b8610ca4565b90505f6116c485611ce4565b90505f6116d085611ce4565b90506116e0838989858589611afe565b5f805f8881526020019081526020015f205f8a73ffffffffffffffffffffffffffffffffffffffff1673ffffffffffffffffffffffffffffffffffffffff1681526020019081526020015f2054905085811015611772576040517f08c379a000000000000000000000000000000000000000000000000000000000815260040161176990613064565b60405180910390fd5b8581035f808981526020019081526020015f205f8b73ffffffffffffffffffffffffffffffffffffffff1673ffffffffffffffffffffffffffffffffffffffff1681526020019081526020015f2081905550855f808981526020019081526020015f205f8a73ffffffffffffffffffffffffffffffffffffffff1673ffffffffffffffffffffffffffffffffffffffff1681526020019081526020015f205f82825461181e9190612efe565b925050819055508773ffffffffffffffffffffffffffffffffffffffff168973ffffffffffffffffffffffffffffffffffffffff168573ffffffffffffffffffffffffffffffffffffffff167fc3d58168c5ae7397731d063d5bbf3d657854427343f4c083240f7aacaa2d0f628a8a60405161189b92919061319e565b60405180910390a46118b1848a8a86868a611b06565b6118bf848a8a8a8a8a611d5c565b505050505050505050565b5f73ffffffffffffffffffffffffffffffffffffffff168373ffffffffffffffffffffffffffffffffffffffff1603611938576040517f08c379a000000000000000000000000000000000000000000000000000000000815260040161192f906130f2565b60405180910390fd5b5f611941610ca4565b90505f61194d84611ce4565b90505f61195984611ce4565b905061197783875f858560405180602001604052805f815250611afe565b5f805f8781526020019081526020015f205f8873ffffffffffffffffffffffffffffffffffffffff1673ffffffffffffffffffffffffffffffffffffffff1681526020019081526020015f2054905084811015611a09576040517f08c379a0000000000000000000000000000000000000000000000000000000008152600401611a0090613180565b60405180910390fd5b8481035f808881526020019081526020015f205f8973ffffffffffffffffffffffffffffffffffffffff1673ffffffffffffffffffffffffffffffffffffffff1681526020019081526020015f20819055505f73ffffffffffffffffffffffffffffffffffffffff168773ffffffffffffffffffffffffffffffffffffffff168573ffffffffffffffffffffffffffffffffffffffff167fc3d58168c5ae7397731d063d5bbf3d657854427343f4c083240f7aacaa2d0f628989604051611ad192919061319e565b60405180910390a4611af584885f868660405180602001604052805f815250611b06565b50505050505050565b505050505050565b505050505050565b611b2d8473ffffffffffffffffffffffffffffffffffffffff16611f32565b15611cdc578373ffffffffffffffffffffffffffffffffffffffff1663bc197c8187878686866040518663ffffffff1660e01b8152600401611b739594939291906132a5565b6020604051808303815f875af1925050508015611bae57506040513d601f19601f82011682018060405250810190611bab919061331f565b60015b611c5357611bba613356565b806308c379a003611c165750611bce613375565b80611bd95750611c18565b806040517f08c379a0000000000000000000000000000000000000000000000000000000008152600401611c0d91906121c0565b60405180910390fd5b505b6040517f08c379a0000000000000000000000000000000000000000000000000000000008152600401611c4a90613474565b60405180910390fd5b63bc197c8160e01b7bffffffffffffffffffffffffffffffffffffffffffffffffffffffff1916817bffffffffffffffffffffffffffffffffffffffffffffffffffffffff191614611cda576040517f08c379a0000000000000000000000000000000000000000000000000000000008152600401611cd190613502565b60405180910390fd5b505b505050505050565b60605f600167ffffffffffffffff811115611d0257611d016121e4565b5b604051908082528060200260200182016040528015611d305781602001602082028036833780820191505090505b50905082815f81518110611d4757611d46612c4b565b5b60200260200101818152505080915050919050565b611d7b8473ffffffffffffffffffffffffffffffffffffffff16611f32565b15611f2a578373ffffffffffffffffffffffffffffffffffffffff1663f23a6e6187878686866040518663ffffffff1660e01b8152600401611dc1959493929190613520565b6020604051808303815f875af1925050508015611dfc57506040513d601f19601f82011682018060405250810190611df9919061331f565b60015b611ea157611e08613356565b806308c379a003611e645750611e1c613375565b80611e275750611e66565b806040517f08c379a0000000000000000000000000000000000000000000000000000000008152600401611e5b91906121c0565b60405180910390fd5b505b6040517f08c379a0000000000000000000000000000000000000000000000000000000008152600401611e9890613474565b60405180910390fd5b63f23a6e6160e01b7bffffffffffffffffffffffffffffffffffffffffffffffffffffffff1916817bffffffffffffffffffffffffffffffffffffffffffffffffffffffff191614611f28576040517f08c379a0000000000000000000000000000000000000000000000000000000008152600401611f1f90613502565b60405180910390fd5b505b505050505050565b5f808273ffffffffffffffffffffffffffffffffffffffff163b119050919050565b5f604051905090565b5f80fd5b5f80fd5b5f73ffffffffffffffffffffffffffffffffffffffff82169050919050565b5f611f8e82611f65565b9050919050565b611f9e81611f84565b8114611fa8575f80fd5b50565b5f81359050611fb981611f95565b92915050565b5f819050919050565b611fd181611fbf565b8114611fdb575f80fd5b50565b5f81359050611fec81611fc8565b92915050565b5f806040838503121561200857612007611f5d565b5b5f61201585828601611fab565b925050602061202685828601611fde565b9150509250929050565b61203981611fbf565b82525050565b5f6020820190506120525f830184612030565b92915050565b5f7fffffffff0000000000000000000000000000000000000000000000000000000082169050919050565b61208c81612058565b8114612096575f80fd5b50565b5f813590506120a781612083565b92915050565b5f602082840312156120c2576120c1611f5d565b5b5f6120cf84828501612099565b91505092915050565b5f8115159050919050565b6120ec816120d8565b82525050565b5f6020820190506121055f8301846120e3565b92915050565b5f602082840312156121205761211f611f5d565b5b5f61212d84828501611fde565b91505092915050565b5f81519050919050565b5f82825260208201905092915050565b5f5b8381101561216d578082015181840152602081019050612152565b5f8484015250505050565b5f601f19601f8301169050919050565b5f61219282612136565b61219c8185612140565b93506121ac818560208601612150565b6121b581612178565b840191505092915050565b5f6020820190508181035f8301526121d88184612188565b905092915050565b5f80fd5b7f4e487b71000000000000000000000000000000000000000000000000000000005f52604160045260245ffd5b61221a82612178565b810181811067ffffffffffffffff82111715612239576122386121e4565b5b80604052505050565b5f61224b611f54565b90506122578282612211565b919050565b5f67ffffffffffffffff821115612276576122756121e4565b5b602082029050602081019050919050565b5f80fd5b5f61229d6122988461225c565b612242565b905080838252602082019050602084028301858111156122c0576122bf612287565b5b835b818110156122e957806122d58882611fde565b8452602084019350506020810190506122c2565b5050509392505050565b5f82601f830112612307576123066121e0565b5b813561231784826020860161228b565b91505092915050565b5f80fd5b5f67ffffffffffffffff82111561233e5761233d6121e4565b5b61234782612178565b9050602081019050919050565b828183375f83830152505050565b5f61237461236f84612324565b612242565b9050828152602081018484840111156123905761238f612320565b5b61239b848285612354565b509392505050565b5f82601f8301126123b7576123b66121e0565b5b81356123c7848260208601612362565b91505092915050565b5f805f80608085870312156123e8576123e7611f5d565b5b5f6123f587828801611fab565b945050602085013567ffffffffffffffff81111561241657612415611f61565b5b612422878288016122f3565b935050604085013567ffffffffffffffff81111561244357612442611f61565b5b61244f878288016122f3565b925050606085013567ffffffffffffffff8111156124705761246f611f61565b5b61247c878288016123a3565b91505092959194509250565b5f805f805f60a086880312156124a1576124a0611f5d565b5b5f6124ae88828901611fab565b95505060206124bf88828901611fab565b945050604086013567ffffffffffffffff8111156124e0576124df611f61565b5b6124ec888289016122f3565b935050606086013567ffffffffffffffff81111561250d5761250c611f61565b5b612519888289016122f3565b925050608086013567ffffffffffffffff81111561253a57612539611f61565b5b612546888289016123a3565b9150509295509295909350565b5f67ffffffffffffffff82111561256d5761256c6121e4565b5b602082029050602081019050919050565b5f61259061258b84612553565b612242565b905080838252602082019050602084028301858111156125b3576125b2612287565b5b835b818110156125dc57806125c88882611fab565b8452602084019350506020810190506125b5565b5050509392505050565b5f82601f8301126125fa576125f96121e0565b5b813561260a84826020860161257e565b91505092915050565b5f806040838503121561262957612628611f5d565b5b5f83013567ffffffffffffffff81111561264657612645611f61565b5b612652858286016125e6565b925050602083013567ffffffffffffffff81111561267357612672611f61565b5b61267f858286016122f3565b9150509250929050565b5f81519050919050565b5f82825260208201905092915050565b5f819050602082019050919050565b6126bb81611fbf565b82525050565b5f6126cc83836126b2565b60208301905092915050565b5f602082019050919050565b5f6126ee82612689565b6126f88185612693565b9350612703836126a3565b805f5b8381101561273357815161271a88826126c1565b9750612725836126d8565b925050600181019050612706565b5085935050505092915050565b5f6020820190508181035f83015261275881846126e4565b905092915050565b5f805f6060848603121561277757612776611f5d565b5b5f61278486828701611fab565b935050602084013567ffffffffffffffff8111156127a5576127a4611f61565b5b6127b1868287016122f3565b925050604084013567ffffffffffffffff8111156127d2576127d1611f61565b5b6127de868287016122f3565b9150509250925092565b5f805f8060808587031215612800576127ff611f5d565b5b5f61280d87828801611fab565b945050602061281e87828801611fde565b935050604061282f87828801611fde565b925050606085013567ffffffffffffffff8111156128505761284f611f61565b5b61285c878288016123a3565b91505092959194509250565b61287181611f84565b82525050565b5f60208201905061288a5f830184612868565b92915050565b612899816120d8565b81146128a3575f80fd5b50565b5f813590506128b481612890565b92915050565b5f80604083850312156128d0576128cf611f5d565b5b5f6128dd85828601611fab565b92505060206128ee858286016128a6565b9150509250929050565b5f806040838503121561290e5761290d611f5d565b5b5f61291b85828601611fab565b925050602061292c85828601611fab565b9150509250929050565b5f805f805f60a0868803121561294f5761294e611f5d565b5b5f61295c88828901611fab565b955050602061296d88828901611fab565b945050604061297e88828901611fde565b935050606061298f88828901611fde565b925050608086013567ffffffffffffffff8111156129b0576129af611f61565b5b6129bc888289016123a3565b9150509295509295909350565b5f602082840312156129de576129dd611f5d565b5b5f6129eb84828501611fab565b91505092915050565b5f805f60608486031215612a0b57612a0a611f5d565b5b5f612a1886828701611fab565b9350506020612a2986828701611fde565b9250506040612a3a86828701611fde565b9150509250925092565b7f455243313135353a2061646472657373207a65726f206973206e6f74206120765f8201527f616c6964206f776e657200000000000000000000000000000000000000000000602082015250565b5f612a9e602a83612140565b9150612aa982612a44565b604082019050919050565b5f6020820190508181035f830152612acb81612a92565b9050919050565b7f4e487b71000000000000000000000000000000000000000000000000000000005f52602260045260245ffd5b5f6002820490506001821680612b1657607f821691505b602082108103612b2957612b28612ad2565b5b50919050565b7f455243313135353a2063616c6c6572206973206e6f7420746f6b656e206f776e5f8201527f6572206f7220617070726f766564000000000000000000000000000000000000602082015250565b5f612b89602e83612140565b9150612b9482612b2f565b604082019050919050565b5f6020820190508181035f830152612bb681612b7d565b9050919050565b7f455243313135353a206163636f756e747320616e6420696473206c656e6774685f8201527f206d69736d617463680000000000000000000000000000000000000000000000602082015250565b5f612c17602983612140565b9150612c2282612bbd565b604082019050919050565b5f6020820190508181035f830152612c4481612c0b565b9050919050565b7f4e487b71000000000000000000000000000000000000000000000000000000005f52603260045260245ffd5b7f4e487b71000000000000000000000000000000000000000000000000000000005f52601160045260245ffd5b5f612caf82611fbf565b91507fffffffffffffffffffffffffffffffffffffffffffffffffffffffffffffffff8203612ce157612ce0612c78565b5b600182019050919050565b7f4f776e61626c653a206e6577206f776e657220697320746865207a65726f20615f8201527f6464726573730000000000000000000000000000000000000000000000000000602082015250565b5f612d46602683612140565b9150612d5182612cec565b604082019050919050565b5f6020820190508181035f830152612d7381612d3a565b9050919050565b7f4f776e61626c653a2063616c6c6572206973206e6f7420746865206f776e65725f82015250565b5f612dae602083612140565b9150612db982612d7a565b602082019050919050565b5f6020820190508181035f830152612ddb81612da2565b9050919050565b7f455243313135353a206d696e7420746f20746865207a65726f206164647265735f8201527f7300000000000000000000000000000000000000000000000000000000000000602082015250565b5f612e3c602183612140565b9150612e4782612de2565b604082019050919050565b5f6020820190508181035f830152612e6981612e30565b9050919050565b7f455243313135353a2069647320616e6420616d6f756e7473206c656e677468205f8201527f6d69736d61746368000000000000000000000000000000000000000000000000602082015250565b5f612eca602883612140565b9150612ed582612e70565b604082019050919050565b5f6020820190508181035f830152612ef781612ebe565b9050919050565b5f612f0882611fbf565b9150612f1383611fbf565b9250828201905080821115612f2b57612f2a612c78565b5b92915050565b5f6040820190508181035f830152612f4981856126e4565b90508181036020830152612f5d81846126e4565b90509392505050565b7f455243313135353a207472616e7366657220746f20746865207a65726f2061645f8201527f6472657373000000000000000000000000000000000000000000000000000000602082015250565b5f612fc0602583612140565b9150612fcb82612f66565b604082019050919050565b5f6020820190508181035f830152612fed81612fb4565b9050919050565b7f455243313135353a20696e73756666696369656e742062616c616e636520666f5f8201527f72207472616e7366657200000000000000000000000000000000000000000000602082015250565b5f61304e602a83612140565b915061305982612ff4565b604082019050919050565b5f6020820190508181035f83015261307b81613042565b9050919050565b7f455243313135353a206275726e2066726f6d20746865207a65726f20616464725f8201527f6573730000000000000000000000000000000000000000000000000000000000602082015250565b5f6130dc602383612140565b91506130e782613082565b604082019050919050565b5f6020820190508181035f830152613109816130d0565b9050919050565b7f455243313135353a206275726e20616d6f756e7420657863656564732062616c5f8201527f616e636500000000000000000000000000000000000000000000000000000000602082015250565b5f61316a602483612140565b915061317582613110565b604082019050919050565b5f6020820190508181035f8301526131978161315e565b9050919050565b5f6040820190506131b15f830185612030565b6131be6020830184612030565b9392505050565b7f455243313135353a2073657474696e6720617070726f76616c207374617475735f8201527f20666f722073656c660000000000000000000000000000000000000000000000602082015250565b5f61321f602983612140565b915061322a826131c5565b604082019050919050565b5f6020820190508181035f83015261324c81613213565b9050919050565b5f81519050919050565b5f82825260208201905092915050565b5f61327782613253565b613281818561325d565b9350613291818560208601612150565b61329a81612178565b840191505092915050565b5f60a0820190506132b85f830188612868565b6132c56020830187612868565b81810360408301526132d781866126e4565b905081810360608301526132eb81856126e4565b905081810360808301526132ff818461326d565b90509695505050505050565b5f8151905061331981612083565b92915050565b5f6020828403121561333457613333611f5d565b5b5f6133418482850161330b565b91505092915050565b5f8160e01c9050919050565b5f60033d11156133725760045f803e61336f5f5161334a565b90505b90565b5f60443d1061340157613386611f54565b60043d036004823e80513d602482011167ffffffffffffffff821117156133ae575050613401565b808201805167ffffffffffffffff8111156133cc5750505050613401565b80602083010160043d0385018111156133e9575050505050613401565b6133f882602001850186612211565b82955050505050505b90565b7f455243313135353a207472616e7366657220746f206e6f6e2d455243313135355f8201527f526563656976657220696d706c656d656e746572000000000000000000000000602082015250565b5f61345e603483612140565b915061346982613404565b604082019050919050565b5f6020820190508181035f83015261348b81613452565b9050919050565b7f455243313135353a204552433131353552656365697665722072656a656374655f8201527f6420746f6b656e73000000000000000000000000000000000000000000000000602082015250565b5f6134ec602883612140565b91506134f782613492565b604082019050919050565b5f6020820190508181035f830152613519816134e0565b9050919050565b5f60a0820190506135335f830188612868565b6135406020830187612868565b61354d6040830186612030565b61355a6060830185612030565b818103608083015261356c818461326d565b9050969550505050505056fea2646970667358221220ae5e1a2a79b9feab82b3a71ea09560d0b3afdb2dc88678beb0ce094106aad15b64736f6c6343000814003368747470733a2f2f6d792d746f6b656e2d7572692e636f6d2f7b69647d2e6a736f6e","linkReferences":{}},"methodIdentifiers":{"TOKEN_ID_1()":"6ad9e4b5","TOKEN_ID_2()":"67dde6d5","balanceOf(address,uint256)":"00fdd58e","balanceOfBatch(address[],uint256[])":"4e1273f4","burn(address,uint256,uint256)":"f5298aca","burnBatch(address,uint256[],uint256[])":"6b20c454","isApprovedForAll(address,address)":"e985e9c5","mint(address,uint256,uint256,bytes)":"731133e9","mintBatch(address,uint256[],uint256[],bytes)":"1f7fdffa","owner()":"8da5cb5b","renounceOwnership()":"715018a6","safeBatchTransferFrom(address,address,uint256[],uint256[],bytes)":"2eb2c2d6","safeTransferFrom(address,address,uint256,uint256,bytes)":"f242432a","setApprovalForAll(address,bool)":"a22cb465","supportsInterface(bytes4)":"01ffc9a7","transferOwnership(address)":"f2fde38b","uri(uint256)":"0e89341c"},"id":7}