{"abi":[{"type":"constructor","inputs":[],"stateMutability":"nonpayable"},{"type":"function","name":"TOKEN_ID_1","inputs":[],"outputs":[{"name":"","type":"uint256","internalType":"uint256"}],"stateMutability":"view"},{"type":"function","name":"TOKEN_ID_2","inputs":[],"outputs":[{"name":"","type":"uint256","internalType":"uint256"}],"stateMutability":"view"},{"type":"function","name":"balanceOf","inputs":[{"name":"account","type":"address","internalType":"address"},{"name":"id","type":"uint256","internalType":"uint256"}],"outputs":[{"name":"","type":"uint256","internalType":"uint256"}],"stateMutability":"view"},{"type":"function","name":"balanceOfBatch","inputs":[{"name":"accounts","type":"address[]","internalType":"address[]"},{"name":"ids","type":"uint256[]","internalType":"uint256[]"}],"outputs":[{"name":"","type":"uint256[]","internalType":"uint256[]"}],"stateMutability":"view"},{"type":"function","name":"burn","inputs":[{"name":"account","type":"address","internalType":"address"},{"name":"id","type":"uint256","internalType":"uint256"},{"name":"amount","type":"uint256","internalType":"uint256"}],"outputs":[],"stateMutability":"nonpayable"},{"type":"function","name":"burnBatch","inputs":[{"name":"account","type":"address","internalType":"address"},{"name":"ids","type":"uint256[]","internalType":"uint256[]"},{"name":"amounts","type":"uint256[]","internalType":"uint256[]"}],"outputs":[],"stateMutability":"nonpayable"},{"type":"function","name":"isApprovedForAll","inputs":[{"name":"account","type":"address","internalType":"address"},{"name":"operator","type":"address","internalType":"address"}],"outputs":[{"name":"","type":"bool","internalType":"bool"}],"stateMutability":"view"},{"type":"function","name":"mint","inputs":[{"name":"account","type":"address","internalType":"address"},{"name":"id","type":"uint256","internalType":"uint256"},{"name":"amount","type":"uint256","internalType":"uint256"},{"name":"data","type":"bytes","internalType":"bytes"}],"outputs":[],"stateMutability":"nonpayable"},{"type":"function","name":"mintBatch","inputs":[{"name":"account","type":"address","internalType":"address"},{"name":"ids","type":"uint256[]","internalType":"uint256[]"},{"name":"amounts","type":"uint256[]","internalType":"uint256[]"},{"name":"data","type":"bytes","internalType":"bytes"}],"outputs":[],"stateMutability":"nonpayable"},{"type":"function","name":"owner","inputs":[],"outputs":[{"name":"","type":"address","internalType":"address"}],"stateMutability":"view"},{"type":"function","name":"renounceOwnership","inputs":[],"outputs":[],"stateMutability":"nonpayable"},{"type":"function","name":"safeBatchTransferFrom","inputs":[{"name":"from","type":"address","internalType":"address"},{"name":"to","type":"address","internalType":"address"},{"name":"ids","type":"uint256[]","internalType":"uint256[]"},{"name":"amounts","type":"uint256[]","internalType":"uint256[]"},{"name":"data","type":"bytes","internalType":"bytes"}],"outputs":[],"stateMutability":"nonpayable"},{"type":"function","name":"safeTransferFrom","inputs":[{"name":"from","type":"address","internalType":"address"},{"name":"to","type":"address","internalType":"address"},{"name":"id","type":"uint256","internalType":"uint256"},{"name":"amount","type":"uint256","internalType":"uint256"},{"name":"data","type":"bytes","internalType":"bytes"}],"outputs":[],"stateMutability":"nonpayable"},{"type":"function","name":"setApprovalForAll","inputs":[{"name":"operator","type":"address","internalType":"address"},{"name":"approved","type":"bool","internalType":"bool"}],"outputs":[],"stateMutability":"nonpayable"},{"type":"function","name":"supportsInterface","inputs":[{"name":"interfaceId","type":"bytes4","internalType":"bytes4"}],"outputs":[{"name":"","type":"bool","internalType":"bool"}],"stateMutability":"view"},{"type":"function","name":"transferOwnership","inputs":[{"name":"newOwner","type":"address","internalType":"address"}],"outputs":[],"stateMutability":"nonpayable"},{"type":"function","name":"uri","inputs":[{"name":"","type":"uint256","internalType":"uint256"}],"outputs":[{"name":"","type":"string","internalType":"string"}],"stateMutability":"view"},{"type":"event","name":"ApprovalForAll","inputs":[{"name":"account","type":"address","indexed":true,"internalType":"address"},{"name":"operator","type":"address","indexed":true,"internalType":"address"},{"name":"approved","type":"bool","indexed":false,"internalType":"bool"}],"anonymous":false},{"type":"event","name":"OwnershipTransferred","inputs":[{"name":"previousOwner","type":"address","indexed":true,"internalType":"address"},{"name":"newOwner","type":"address","indexed":true,"internalType":"address"}],"anonymous":false},{"type":"event","name":"TransferBatch","inputs":[{"name":"operator","type":"address","indexed":true,"internalType":"address"},{"name":"from","type":"address","indexed":true,"internalType":"address"},{"name":"to","type":"address","indexed":true,"internalType":"address"},{"name":"ids","type":"uint256[]","indexed":false,"internalType":"uint256[]"},{"name":"values","type":"uint256[]","indexed":false,"internalType":"uint256[]"}],"anonymous":false},{"type":"event","name":"TransferSingle","inputs":[{"name":"operator","type":"address","indexed":true,"internalType":"address"},{"name":"from","type":"address","indexed":true,"internalType":"address"},{"name":"to","type":"address","indexed":true,"internalType":"address"},{"name":"id","type":"uint256","indexed":false,"internalType":"uint256"},{"name":"value","type":"uint256","indexed":false,"internalType":"uint256"}],"anonymous":false},{"type":"event","name":"URI","inputs":[{"name":"value","type":"string","indexed":false,"internalType":"string"},{"name":"id","type":"uint256","indexed":true,"internalType":"uint256"}],"anonymous":false}],"bytecode":{"object":"0x608060405234801561000f575f5ffd5b50604051806060016040528060228152602001614375602291396100388161009d60201b60201c565b5061005561004a6100b060201b60201c565b6100b760201b60201c565b610076335f606460405180602001604052805f81525061017a60201b60201c565b61009833600160c860405180602001604052805f81525061017a60201b60201c565b610e27565b80600290816100ac9190610804565b5050565b5f33905090565b5f60035f9054906101000a900473ffffffffffffffffffffffffffffffffffffffff1690508160035f6101000a81548173ffffffffffffffffffffffffffffffffffffffff021916908373ffffffffffffffffffffffffffffffffffffffff1602179055508173ffffffffffffffffffffffffffffffffffffffff168173ffffffffffffffffffffffffffffffffffffffff167f8be0079c531659141344cd1fd0a4f28419497f9722a3daafe3b4186f6b6457e060405160405180910390a35050565b5f73ffffffffffffffffffffffffffffffffffffffff168473ffffffffffffffffffffffffffffffffffffffff16036101e8576040517f08c379a00000000000000000000000000000000000000000000000000000000081526004016101df90610953565b60405180910390fd5b5f6101f76100b060201b60201c565b90505f6102098561034160201b60201c565b90505f61021b8561034160201b60201c565b9050610231835f898585896103b960201b60201c565b845f5f8881526020019081526020015f205f8973ffffffffffffffffffffffffffffffffffffffff1673ffffffffffffffffffffffffffffffffffffffff1681526020019081526020015f205f82825461028b919061099e565b925050819055508673ffffffffffffffffffffffffffffffffffffffff165f73ffffffffffffffffffffffffffffffffffffffff168473ffffffffffffffffffffffffffffffffffffffff167fc3d58168c5ae7397731d063d5bbf3d657854427343f4c083240f7aacaa2d0f6289896040516103089291906109e0565b60405180910390a4610324835f898585896103c160201b60201c565b610338835f898989896103c960201b60201c565b50505050505050565b60605f600167ffffffffffffffff81111561035f5761035e6105d1565b5b60405190808252806020026020018201604052801561038d5781602001602082028036833780820191505090505b50905082815f815181106103a4576103a3610a07565b5b60200260200101818152505080915050919050565b505050505050565b505050505050565b6103ee8473ffffffffffffffffffffffffffffffffffffffff166105a560201b60201c565b1561059d578373ffffffffffffffffffffffffffffffffffffffff1663f23a6e6187878686866040518663ffffffff1660e01b8152600401610434959493929190610ae3565b6020604051808303815f875af192505050801561046f57506040513d601f19601f8201168201806040525081019061046c9190610b9d565b60015b6105145761047b610bd4565b806308c379a0036104d7575061048f610c24565b8061049a57506104d9565b806040517f08c379a00000000000000000000000000000000000000000000000000000000081526004016104ce9190610ceb565b60405180910390fd5b505b6040517f08c379a000000000000000000000000000000000000000000000000000000000815260040161050b90610d7b565b60405180910390fd5b63f23a6e6160e01b7bffffffffffffffffffffffffffffffffffffffffffffffffffffffff1916817bffffffffffffffffffffffffffffffffffffffffffffffffffffffff19161461059b576040517f08c379a000000000000000000000000000000000000000000000000000000000815260040161059290610e09565b60405180910390fd5b505b505050505050565b5f5f8273ffffffffffffffffffffffffffffffffffffffff163b119050919050565b5f81519050919050565b7f4e487b71000000000000000000000000000000000000000000000000000000005f52604160045260245ffd5b7f4e487b71000000000000000000000000000000000000000000000000000000005f52602260045260245ffd5b5f600282049050600182168061064257607f821691505b602082108103610655576106546105fe565b5b50919050565b5f819050815f5260205f209050919050565b5f6020601f8301049050919050565b5f82821b905092915050565b5f600883026106b77fffffffffffffffffffffffffffffffffffffffffffffffffffffffffffffffff8261067c565b6106c1868361067c565b95508019841693508086168417925050509392505050565b5f819050919050565b5f819050919050565b5f6107056107006106fb846106d9565b6106e2565b6106d9565b9050919050565b5f819050919050565b61071e836106eb565b61073261072a8261070c565b848454610688565b825550505050565b5f5f905090565b61074961073a565b610754818484610715565b505050565b5b818110156107775761076c5f82610741565b60018101905061075a565b5050565b601f8211156107bc5761078d8161065b565b6107968461066d565b810160208510156107a5578190505b6107b96107b18561066d565b830182610759565b50505b505050565b5f82821c905092915050565b5f6107dc5f19846008026107c1565b1980831691505092915050565b5f6107f483836107cd565b9150826002028217905092915050565b61080d826105c7565b67ffffffffffffffff811115610826576108256105d1565b5b610830825461062b565b61083b82828561077b565b5f60209050601f83116001811461086c575f841561085a578287015190505b61086485826107e9565b8655506108cb565b601f19841661087a8661065b565b5f5b828110156108a15784890151825560018201915060208501945060208101905061087c565b868310156108be57848901516108ba601f8916826107cd565b8355505b6001600288020188555050505b505050505050565b5f82825260208201905092915050565b7f455243313135353a206d696e7420746f20746865207a65726f206164647265735f8201527f7300000000000000000000000000000000000000000000000000000000000000602082015250565b5f61093d6021836108d3565b9150610948826108e3565b604082019050919050565b5f6020820190508181035f83015261096a81610931565b9050919050565b7f4e487b71000000000000000000000000000000000000000000000000000000005f52601160045260245ffd5b5f6109a8826106d9565b91506109b3836106d9565b92508282019050808211156109cb576109ca610971565b5b92915050565b6109da816106d9565b82525050565b5f6040820190506109f35f8301856109d1565b610a0060208301846109d1565b9392505050565b7f4e487b71000000000000000000000000000000000000000000000000000000005f52603260045260245ffd5b5f73ffffffffffffffffffffffffffffffffffffffff82169050919050565b5f610a5d82610a34565b9050919050565b610a6d81610a53565b82525050565b5f81519050919050565b5f82825260208201905092915050565b8281835e5f83830152505050565b5f601f19601f8301169050919050565b5f610ab582610a73565b610abf8185610a7d565b9350610acf818560208601610a8d565b610ad881610a9b565b840191505092915050565b5f60a082019050610af65f830188610a64565b610b036020830187610a64565b610b1060408301866109d1565b610b1d60608301856109d1565b8181036080830152610b2f8184610aab565b90509695505050505050565b5f604051905090565b5f5ffd5b5f7fffffffff0000000000000000000000000000000000000000000000000000000082169050919050565b610b7c81610b48565b8114610b86575f5ffd5b50565b5f81519050610b9781610b73565b92915050565b5f60208284031215610bb257610bb1610b44565b5b5f610bbf84828501610b89565b91505092915050565b5f8160e01c9050919050565b5f60033d1115610bf05760045f5f3e610bed5f51610bc8565b90505b90565b610bfc82610a9b565b810181811067ffffffffffffffff82111715610c1b57610c1a6105d1565b5b80604052505050565b5f60443d10610cb057610c35610b3b565b60043d036004823e80513d602482011167ffffffffffffffff82111715610c5d575050610cb0565b808201805167ffffffffffffffff811115610c7b5750505050610cb0565b80602083010160043d038501811115610c98575050505050610cb0565b610ca782602001850186610bf3565b82955050505050505b90565b5f610cbd826105c7565b610cc781856108d3565b9350610cd7818560208601610a8d565b610ce081610a9b565b840191505092915050565b5f6020820190508181035f830152610d038184610cb3565b905092915050565b7f455243313135353a207472616e7366657220746f206e6f6e2d455243313135355f8201527f526563656976657220696d706c656d656e746572000000000000000000000000602082015250565b5f610d656034836108d3565b9150610d7082610d0b565b604082019050919050565b5f6020820190508181035f830152610d9281610d59565b9050919050565b7f455243313135353a204552433131353552656365697665722072656a656374655f8201527f6420746f6b656e73000000000000000000000000000000000000000000000000602082015250565b5f610df36028836108d3565b9150610dfe82610d99565b604082019050919050565b5f6020820190508181035f830152610e2081610de7565b9050919050565b61354180610e345f395ff3fe608060405234801561000f575f5ffd5b5060043610610108575f3560e01c80636b20c454116100a0578063a22cb4651161006f578063a22cb465146102a0578063e985e9c5146102bc578063f242432a146102ec578063f2fde38b14610308578063f5298aca1461032457610108565b80636b20c45414610240578063715018a61461025c578063731133e9146102665780638da5cb5b1461028257610108565b80632eb2c2d6116100dc5780632eb2c2d6146101b85780634e1273f4146101d457806367dde6d5146102045780636ad9e4b51461022257610108565b8062fdd58e1461010c57806301ffc9a71461013c5780630e89341c1461016c5780631f7fdffa1461019c575b5f5ffd5b61012660048036038101906101219190611fe6565b610340565b6040516101339190612033565b60405180910390f35b610156600480360381019061015191906120a1565b610403565b60405161016391906120e6565b60405180910390f35b610186600480360381019061018191906120ff565b6104e4565b604051610193919061219a565b60405180910390f35b6101b660048036038101906101b191906123aa565b610576565b005b6101d260048036038101906101cd9190612462565b610590565b005b6101ee60048036038101906101e991906125ed565b610631565b6040516101fb919061271a565b60405180910390f35b61020c610745565b6040516102199190612033565b60405180910390f35b61022a61074a565b6040516102379190612033565b60405180910390f35b61025a6004803603810190610255919061273a565b61074e565b005b610264610766565b005b610280600480360381019061027b91906127c2565b610779565b005b61028a610793565b6040516102979190612851565b60405180910390f35b6102ba60048036038101906102b59190612894565b6107bb565b005b6102d660048036038101906102d191906128d2565b6107d1565b6040516102e391906120e6565b60405180910390f35b61030660048036038101906103019190612910565b61085f565b005b610322600480360381019061031d91906129a3565b610900565b005b61033e600480360381019061033991906129ce565b610982565b005b5f5f73ffffffffffffffffffffffffffffffffffffffff168373ffffffffffffffffffffffffffffffffffffffff16036103af576040517f08c379a00000000000000000000000000000000000000000000000000000000081526004016103a690612a8e565b60405180910390fd5b5f5f8381526020019081526020015f205f8473ffffffffffffffffffffffffffffffffffffffff1673ffffffffffffffffffffffffffffffffffffffff1681526020019081526020015f2054905092915050565b5f7fd9b67a26000000000000000000000000000000000000000000000000000000007bffffffffffffffffffffffffffffffffffffffffffffffffffffffff1916827bffffffffffffffffffffffffffffffffffffffffffffffffffffffff191614806104cd57507f0e89341c000000000000000000000000000000000000000000000000000000007bffffffffffffffffffffffffffffffffffffffffffffffffffffffff1916827bffffffffffffffffffffffffffffffffffffffffffffffffffffffff1916145b806104dd57506104dc8261099a565b5b9050919050565b6060600280546104f390612ad9565b80601f016020809104026020016040519081016040528092919081815260200182805461051f90612ad9565b801561056a5780601f106105415761010080835404028352916020019161056a565b820191905f5260205f20905b81548152906001019060200180831161054d57829003601f168201915b50505050509050919050565b61057e610a03565b61058a84848484610a81565b50505050565b610598610c9e565b73ffffffffffffffffffffffffffffffffffffffff168573ffffffffffffffffffffffffffffffffffffffff1614806105de57506105dd856105d8610c9e565b6107d1565b5b61061d576040517f08c379a000000000000000000000000000000000000000000000000000000000815260040161061490612b79565b60405180910390fd5b61062a8585858585610ca5565b5050505050565b60608151835114610677576040517f08c379a000000000000000000000000000000000000000000000000000000000815260040161066e90612c07565b60405180910390fd5b5f835167ffffffffffffffff811115610693576106926121be565b5b6040519080825280602002602001820160405280156106c15781602001602082028036833780820191505090505b5090505f5f90505b845181101561073a576107108582815181106106e8576106e7612c25565b5b602002602001015185838151811061070357610702612c25565b5b6020026020010151610340565b82828151811061072357610722612c25565b5b6020026020010181815250508060010190506106c9565b508091505092915050565b600181565b5f81565b610756610a03565b610761838383610fb0565b505050565b61076e610a03565b6107775f611268565b565b610781610a03565b61078d8484848461132b565b50505050565b5f60035f9054906101000a900473ffffffffffffffffffffffffffffffffffffffff16905090565b6107cd6107c6610c9e565b83836114ce565b5050565b5f60015f8473ffffffffffffffffffffffffffffffffffffffff1673ffffffffffffffffffffffffffffffffffffffff1681526020019081526020015f205f8373ffffffffffffffffffffffffffffffffffffffff1673ffffffffffffffffffffffffffffffffffffffff1681526020019081526020015f205f9054906101000a900460ff16905092915050565b610867610c9e565b73ffffffffffffffffffffffffffffffffffffffff168573ffffffffffffffffffffffffffffffffffffffff1614806108ad57506108ac856108a7610c9e565b6107d1565b5b6108ec576040517f08c379a00000000000000000000000000000000000000000000000000000000081526004016108e390612b79565b60405180910390fd5b6108f98585858585611635565b5050505050565b610908610a03565b5f73ffffffffffffffffffffffffffffffffffffffff168173ffffffffffffffffffffffffffffffffffffffff1603610976576040517f08c379a000000000000000000000000000000000000000000000000000000000815260040161096d90612cc2565b60405180910390fd5b61097f81611268565b50565b61098a610a03565b6109958383836118be565b505050565b5f7f01ffc9a7000000000000000000000000000000000000000000000000000000007bffffffffffffffffffffffffffffffffffffffffffffffffffffffff1916827bffffffffffffffffffffffffffffffffffffffffffffffffffffffff1916149050919050565b610a0b610c9e565b73ffffffffffffffffffffffffffffffffffffffff16610a29610793565b73ffffffffffffffffffffffffffffffffffffffff1614610a7f576040517f08c379a0000000000000000000000000000000000000000000000000000000008152600401610a7690612d2a565b60405180910390fd5b565b5f73ffffffffffffffffffffffffffffffffffffffff168473ffffffffffffffffffffffffffffffffffffffff1603610aef576040517f08c379a0000000000000000000000000000000000000000000000000000000008152600401610ae690612db8565b60405180910390fd5b8151835114610b33576040517f08c379a0000000000000000000000000000000000000000000000000000000008152600401610b2a90612e46565b60405180910390fd5b5f610b3c610c9e565b9050610b4c815f87878787611af2565b5f5f90505b8451811015610bfc57838181518110610b6d57610b6c612c25565b5b60200260200101515f5f878481518110610b8a57610b89612c25565b5b602002602001015181526020019081526020015f205f8873ffffffffffffffffffffffffffffffffffffffff1673ffffffffffffffffffffffffffffffffffffffff1681526020019081526020015f205f828254610be89190612e91565b925050819055508080600101915050610b51565b508473ffffffffffffffffffffffffffffffffffffffff165f73ffffffffffffffffffffffffffffffffffffffff168273ffffffffffffffffffffffffffffffffffffffff167f4a39dc06d4c0dbc64b70af90fd698a233a518aa5d07e595d983b8c0526c8f7fb8787604051610c73929190612ec4565b60405180910390a4610c89815f87878787611afa565b610c97815f87878787611b02565b5050505050565b5f33905090565b8151835114610ce9576040517f08c379a0000000000000000000000000000000000000000000000000000000008152600401610ce090612e46565b60405180910390fd5b5f73ffffffffffffffffffffffffffffffffffffffff168473ffffffffffffffffffffffffffffffffffffffff1603610d57576040517f08c379a0000000000000000000000000000000000000000000000000000000008152600401610d4e90612f69565b60405180910390fd5b5f610d60610c9e565b9050610d70818787878787611af2565b5f5f90505b8451811015610f0d575f858281518110610d9257610d91612c25565b5b602002602001015190505f858381518110610db057610daf612c25565b5b602002602001015190505f5f5f8481526020019081526020015f205f8b73ffffffffffffffffffffffffffffffffffffffff1673ffffffffffffffffffffffffffffffffffffffff1681526020019081526020015f2054905081811015610e4c576040517f08c379a0000000000000000000000000000000000000000000000000000000008152600401610e4390612ff7565b60405180910390fd5b8181035f5f8581526020019081526020015f205f8c73ffffffffffffffffffffffffffffffffffffffff1673ffffffffffffffffffffffffffffffffffffffff1681526020019081526020015f2081905550815f5f8581526020019081526020015f205f8b73ffffffffffffffffffffffffffffffffffffffff1673ffffffffffffffffffffffffffffffffffffffff1681526020019081526020015f205f828254610ef89190612e91565b92505081905550505050806001019050610d75565b508473ffffffffffffffffffffffffffffffffffffffff168673ffffffffffffffffffffffffffffffffffffffff168273ffffffffffffffffffffffffffffffffffffffff167f4a39dc06d4c0dbc64b70af90fd698a233a518aa5d07e595d983b8c0526c8f7fb8787604051610f84929190612ec4565b60405180910390a4610f9a818787878787611afa565b610fa8818787878787611b02565b505050505050565b5f73ffffffffffffffffffffffffffffffffffffffff168373ffffffffffffffffffffffffffffffffffffffff160361101e576040517f08c379a000000000000000000000000000000000000000000000000000000000815260040161101590613085565b60405180910390fd5b8051825114611062576040517f08c379a000000000000000000000000000000000000000000000000000000000815260040161105990612e46565b60405180910390fd5b5f61106b610c9e565b905061108981855f868660405180602001604052805f815250611af2565b5f5f90505b83518110156111c7575f8482815181106110ab576110aa612c25565b5b602002602001015190505f8483815181106110c9576110c8612c25565b5b602002602001015190505f5f5f8481526020019081526020015f205f8973ffffffffffffffffffffffffffffffffffffffff1673ffffffffffffffffffffffffffffffffffffffff1681526020019081526020015f2054905081811015611165576040517f08c379a000000000000000000000000000000000000000000000000000000000815260040161115c90613113565b60405180910390fd5b8181035f5f8581526020019081526020015f205f8a73ffffffffffffffffffffffffffffffffffffffff1673ffffffffffffffffffffffffffffffffffffffff1681526020019081526020015f2081905550505050808060010191505061108e565b505f73ffffffffffffffffffffffffffffffffffffffff168473ffffffffffffffffffffffffffffffffffffffff168273ffffffffffffffffffffffffffffffffffffffff167f4a39dc06d4c0dbc64b70af90fd698a233a518aa5d07e595d983b8c0526c8f7fb868660405161123e929190612ec4565b60405180910390a461126281855f868660405180602001604052805f815250611afa565b50505050565b5f60035f9054906101000a900473ffffffffffffffffffffffffffffffffffffffff1690508160035f6101000a81548173ffffffffffffffffffffffffffffffffffffffff021916908373ffffffffffffffffffffffffffffffffffffffff1602179055508173ffffffffffffffffffffffffffffffffffffffff168173ffffffffffffffffffffffffffffffffffffffff167f8be0079c531659141344cd1fd0a4f28419497f9722a3daafe3b4186f6b6457e060405160405180910390a35050565b5f73ffffffffffffffffffffffffffffffffffffffff168473ffffffffffffffffffffffffffffffffffffffff1603611399576040517f08c379a000000000000000000000000000000000000000000000000000000000815260040161139090612db8565b60405180910390fd5b5f6113a2610c9e565b90505f6113ae85611cd8565b90505f6113ba85611cd8565b90506113ca835f89858589611af2565b845f5f8881526020019081526020015f205f8973ffffffffffffffffffffffffffffffffffffffff1673ffffffffffffffffffffffffffffffffffffffff1681526020019081526020015f205f8282546114249190612e91565b925050819055508673ffffffffffffffffffffffffffffffffffffffff165f73ffffffffffffffffffffffffffffffffffffffff168473ffffffffffffffffffffffffffffffffffffffff167fc3d58168c5ae7397731d063d5bbf3d657854427343f4c083240f7aacaa2d0f6289896040516114a1929190613131565b60405180910390a46114b7835f89858589611afa565b6114c5835f89898989611d50565b50505050505050565b8173ffffffffffffffffffffffffffffffffffffffff168373ffffffffffffffffffffffffffffffffffffffff160361153c576040517f08c379a0000000000000000000000000000000000000000000000000000000008152600401611533906131c8565b60405180910390fd5b8060015f8573ffffffffffffffffffffffffffffffffffffffff1673ffffffffffffffffffffffffffffffffffffffff1681526020019081526020015f205f8473ffffffffffffffffffffffffffffffffffffffff1673ffffffffffffffffffffffffffffffffffffffff1681526020019081526020015f205f6101000a81548160ff0219169083151502179055508173ffffffffffffffffffffffffffffffffffffffff168373ffffffffffffffffffffffffffffffffffffffff167f17307eab39ab6107e8899845ad3d59bd9653f200f220920489ca2b5937696c318360405161162891906120e6565b60405180910390a3505050565b5f73ffffffffffffffffffffffffffffffffffffffff168473ffffffffffffffffffffffffffffffffffffffff16036116a3576040517f08c379a000000000000000000000000000000000000000000000000000000000815260040161169a90612f69565b60405180910390fd5b5f6116ac610c9e565b90505f6116b885611cd8565b90505f6116c485611cd8565b90506116d4838989858589611af2565b5f5f5f8881526020019081526020015f205f8a73ffffffffffffffffffffffffffffffffffffffff1673ffffffffffffffffffffffffffffffffffffffff1681526020019081526020015f2054905085811015611766576040517f08c379a000000000000000000000000000000000000000000000000000000000815260040161175d90612ff7565b60405180910390fd5b8581035f5f8981526020019081526020015f205f8b73ffffffffffffffffffffffffffffffffffffffff1673ffffffffffffffffffffffffffffffffffffffff1681526020019081526020015f2081905550855f5f8981526020019081526020015f205f8a73ffffffffffffffffffffffffffffffffffffffff1673ffffffffffffffffffffffffffffffffffffffff1681526020019081526020015f205f8282546118129190612e91565b925050819055508773ffffffffffffffffffffffffffffffffffffffff168973ffffffffffffffffffffffffffffffffffffffff168573ffffffffffffffffffffffffffffffffffffffff167fc3d58168c5ae7397731d063d5bbf3d657854427343f4c083240f7aacaa2d0f628a8a60405161188f929190613131565b60405180910390a46118a5848a8a86868a611afa565b6118b3848a8a8a8a8a611d50565b505050505050505050565b5f73ffffffffffffffffffffffffffffffffffffffff168373ffffffffffffffffffffffffffffffffffffffff160361192c576040517f08c379a000000000000000000000000000000000000000000000000000000000815260040161192390613085565b60405180910390fd5b5f611935610c9e565b90505f61194184611cd8565b90505f61194d84611cd8565b905061196b83875f858560405180602001604052805f815250611af2565b5f5f5f8781526020019081526020015f205f8873ffffffffffffffffffffffffffffffffffffffff1673ffffffffffffffffffffffffffffffffffffffff1681526020019081526020015f20549050848110156119fd576040517f08c379a00000000000000000000000000000000000000000000000000000000081526004016119f490613113565b60405180910390fd5b8481035f5f8881526020019081526020015f205f8973ffffffffffffffffffffffffffffffffffffffff1673ffffffffffffffffffffffffffffffffffffffff1681526020019081526020015f20819055505f73ffffffffffffffffffffffffffffffffffffffff168773ffffffffffffffffffffffffffffffffffffffff168573ffffffffffffffffffffffffffffffffffffffff167fc3d58168c5ae7397731d063d5bbf3d657854427343f4c083240f7aacaa2d0f628989604051611ac5929190613131565b60405180910390a4611ae984885f868660405180602001604052805f815250611afa565b50505050505050565b505050505050565b505050505050565b611b218473ffffffffffffffffffffffffffffffffffffffff16611f26565b15611cd0578373ffffffffffffffffffffffffffffffffffffffff1663bc197c8187878686866040518663ffffffff1660e01b8152600401611b67959493929190613238565b6020604051808303815f875af1925050508015611ba257506040513d601f19601f82011682018060405250810190611b9f91906132b2565b60015b611c4757611bae6132e9565b806308c379a003611c0a5750611bc2613308565b80611bcd5750611c0c565b806040517f08c379a0000000000000000000000000000000000000000000000000000000008152600401611c01919061219a565b60405180910390fd5b505b6040517f08c379a0000000000000000000000000000000000000000000000000000000008152600401611c3e90613407565b60405180910390fd5b63bc197c8160e01b7bffffffffffffffffffffffffffffffffffffffffffffffffffffffff1916817bffffffffffffffffffffffffffffffffffffffffffffffffffffffff191614611cce576040517f08c379a0000000000000000000000000000000000000000000000000000000008152600401611cc590613495565b60405180910390fd5b505b505050505050565b60605f600167ffffffffffffffff811115611cf657611cf56121be565b5b604051908082528060200260200182016040528015611d245781602001602082028036833780820191505090505b50905082815f81518110611d3b57611d3a612c25565b5b60200260200101818152505080915050919050565b611d6f8473ffffffffffffffffffffffffffffffffffffffff16611f26565b15611f1e578373ffffffffffffffffffffffffffffffffffffffff1663f23a6e6187878686866040518663ffffffff1660e01b8152600401611db59594939291906134b3565b6020604051808303815f875af1925050508015611df057506040513d601f19601f82011682018060405250810190611ded91906132b2565b60015b611e9557611dfc6132e9565b806308c379a003611e585750611e10613308565b80611e1b5750611e5a565b806040517f08c379a0000000000000000000000000000000000000000000000000000000008152600401611e4f919061219a565b60405180910390fd5b505b6040517f08c379a0000000000000000000000000000000000000000000000000000000008152600401611e8c90613407565b60405180910390fd5b63f23a6e6160e01b7bffffffffffffffffffffffffffffffffffffffffffffffffffffffff1916817bffffffffffffffffffffffffffffffffffffffffffffffffffffffff191614611f1c576040517f08c379a0000000000000000000000000000000000000000000000000000000008152600401611f1390613495565b60405180910390fd5b505b505050505050565b5f5f8273ffffffffffffffffffffffffffffffffffffffff163b119050919050565b5f604051905090565b5f5ffd5b5f5ffd5b5f73ffffffffffffffffffffffffffffffffffffffff82169050919050565b5f611f8282611f59565b9050919050565b611f9281611f78565b8114611f9c575f5ffd5b50565b5f81359050611fad81611f89565b92915050565b5f819050919050565b611fc581611fb3565b8114611fcf575f5ffd5b50565b5f81359050611fe081611fbc565b92915050565b5f5f60408385031215611ffc57611ffb611f51565b5b5f61200985828601611f9f565b925050602061201a85828601611fd2565b9150509250929050565b61202d81611fb3565b82525050565b5f6020820190506120465f830184612024565b92915050565b5f7fffffffff0000000000000000000000000000000000000000000000000000000082169050919050565b6120808161204c565b811461208a575f5ffd5b50565b5f8135905061209b81612077565b92915050565b5f602082840312156120b6576120b5611f51565b5b5f6120c38482850161208d565b91505092915050565b5f8115159050919050565b6120e0816120cc565b82525050565b5f6020820190506120f95f8301846120d7565b92915050565b5f6020828403121561211457612113611f51565b5b5f61212184828501611fd2565b91505092915050565b5f81519050919050565b5f82825260208201905092915050565b8281835e5f83830152505050565b5f601f19601f8301169050919050565b5f61216c8261212a565b6121768185612134565b9350612186818560208601612144565b61218f81612152565b840191505092915050565b5f6020820190508181035f8301526121b28184612162565b905092915050565b5f5ffd5b7f4e487b71000000000000000000000000000000000000000000000000000000005f52604160045260245ffd5b6121f482612152565b810181811067ffffffffffffffff82111715612213576122126121be565b5b80604052505050565b5f612225611f48565b905061223182826121eb565b919050565b5f67ffffffffffffffff8211156122505761224f6121be565b5b602082029050602081019050919050565b5f5ffd5b5f61227761227284612236565b61221c565b9050808382526020820190506020840283018581111561229a57612299612261565b5b835b818110156122c357806122af8882611fd2565b84526020840193505060208101905061229c565b5050509392505050565b5f82601f8301126122e1576122e06121ba565b5b81356122f1848260208601612265565b91505092915050565b5f5ffd5b5f67ffffffffffffffff821115612318576123176121be565b5b61232182612152565b9050602081019050919050565b828183375f83830152505050565b5f61234e612349846122fe565b61221c565b90508281526020810184848401111561236a576123696122fa565b5b61237584828561232e565b509392505050565b5f82601f830112612391576123906121ba565b5b81356123a184826020860161233c565b91505092915050565b5f5f5f5f608085870312156123c2576123c1611f51565b5b5f6123cf87828801611f9f565b945050602085013567ffffffffffffffff8111156123f0576123ef611f55565b5b6123fc878288016122cd565b935050604085013567ffffffffffffffff81111561241d5761241c611f55565b5b612429878288016122cd565b925050606085013567ffffffffffffffff81111561244a57612449611f55565b5b6124568782880161237d565b91505092959194509250565b5f5f5f5f5f60a0868803121561247b5761247a611f51565b5b5f61248888828901611f9f565b955050602061249988828901611f9f565b945050604086013567ffffffffffffffff8111156124ba576124b9611f55565b5b6124c6888289016122cd565b935050606086013567ffffffffffffffff8111156124e7576124e6611f55565b5b6124f3888289016122cd565b925050608086013567ffffffffffffffff81111561251457612513611f55565b5b6125208882890161237d565b9150509295509295909350565b5f67ffffffffffffffff821115612547576125466121be565b5b602082029050602081019050919050565b5f61256a6125658461252d565b61221c565b9050808382526020820190506020840283018581111561258d5761258c612261565b5b835b818110156125b657806125a28882611f9f565b84526020840193505060208101905061258f565b5050509392505050565b5f82601f8301126125d4576125d36121ba565b5b81356125e4848260208601612558565b91505092915050565b5f5f6040838503121561260357612602611f51565b5b5f83013567ffffffffffffffff8111156126205761261f611f55565b5b61262c858286016125c0565b925050602083013567ffffffffffffffff81111561264d5761264c611f55565b5b612659858286016122cd565b9150509250929050565b5f81519050919050565b5f82825260208201905092915050565b5f819050602082019050919050565b61269581611fb3565b82525050565b5f6126a6838361268c565b60208301905092915050565b5f602082019050919050565b5f6126c882612663565b6126d2818561266d565b93506126dd8361267d565b805f5b8381101561270d5781516126f4888261269b565b97506126ff836126b2565b9250506001810190506126e0565b5085935050505092915050565b5f6020820190508181035f83015261273281846126be565b905092915050565b5f5f5f6060848603121561275157612750611f51565b5b5f61275e86828701611f9f565b935050602084013567ffffffffffffffff81111561277f5761277e611f55565b5b61278b868287016122cd565b925050604084013567ffffffffffffffff8111156127ac576127ab611f55565b5b6127b8868287016122cd565b9150509250925092565b5f5f5f5f608085870312156127da576127d9611f51565b5b5f6127e787828801611f9f565b94505060206127f887828801611fd2565b935050604061280987828801611fd2565b925050606085013567ffffffffffffffff81111561282a57612829611f55565b5b6128368782880161237d565b91505092959194509250565b61284b81611f78565b82525050565b5f6020820190506128645f830184612842565b92915050565b612873816120cc565b811461287d575f5ffd5b50565b5f8135905061288e8161286a565b92915050565b5f5f604083850312156128aa576128a9611f51565b5b5f6128b785828601611f9f565b92505060206128c885828601612880565b9150509250929050565b5f5f604083850312156128e8576128e7611f51565b5b5f6128f585828601611f9f565b925050602061290685828601611f9f565b9150509250929050565b5f5f5f5f5f60a0868803121561292957612928611f51565b5b5f61293688828901611f9f565b955050602061294788828901611f9f565b945050604061295888828901611fd2565b935050606061296988828901611fd2565b925050608086013567ffffffffffffffff81111561298a57612989611f55565b5b6129968882890161237d565b9150509295509295909350565b5f602082840312156129b8576129b7611f51565b5b5f6129c584828501611f9f565b91505092915050565b5f5f5f606084860312156129e5576129e4611f51565b5b5f6129f286828701611f9f565b9350506020612a0386828701611fd2565b9250506040612a1486828701611fd2565b9150509250925092565b7f455243313135353a2061646472657373207a65726f206973206e6f74206120765f8201527f616c6964206f776e657200000000000000000000000000000000000000000000602082015250565b5f612a78602a83612134565b9150612a8382612a1e565b604082019050919050565b5f6020820190508181035f830152612aa581612a6c565b9050919050565b7f4e487b71000000000000000000000000000000000000000000000000000000005f52602260045260245ffd5b5f6002820490506001821680612af057607f821691505b602082108103612b0357612b02612aac565b5b50919050565b7f455243313135353a2063616c6c6572206973206e6f7420746f6b656e206f776e5f8201527f6572206f7220617070726f766564000000000000000000000000000000000000602082015250565b5f612b63602e83612134565b9150612b6e82612b09565b604082019050919050565b5f6020820190508181035f830152612b9081612b57565b9050919050565b7f455243313135353a206163636f756e747320616e6420696473206c656e6774685f8201527f206d69736d617463680000000000000000000000000000000000000000000000602082015250565b5f612bf1602983612134565b9150612bfc82612b97565b604082019050919050565b5f6020820190508181035f830152612c1e81612be5565b9050919050565b7f4e487b71000000000000000000000000000000000000000000000000000000005f52603260045260245ffd5b7f4f776e61626c653a206e6577206f776e657220697320746865207a65726f20615f8201527f6464726573730000000000000000000000000000000000000000000000000000602082015250565b5f612cac602683612134565b9150612cb782612c52565b604082019050919050565b5f6020820190508181035f830152612cd981612ca0565b9050919050565b7f4f776e61626c653a2063616c6c6572206973206e6f7420746865206f776e65725f82015250565b5f612d14602083612134565b9150612d1f82612ce0565b602082019050919050565b5f6020820190508181035f830152612d4181612d08565b9050919050565b7f455243313135353a206d696e7420746f20746865207a65726f206164647265735f8201527f7300000000000000000000000000000000000000000000000000000000000000602082015250565b5f612da2602183612134565b9150612dad82612d48565b604082019050919050565b5f6020820190508181035f830152612dcf81612d96565b9050919050565b7f455243313135353a2069647320616e6420616d6f756e7473206c656e677468205f8201527f6d69736d61746368000000000000000000000000000000000000000000000000602082015250565b5f612e30602883612134565b9150612e3b82612dd6565b604082019050919050565b5f6020820190508181035f830152612e5d81612e24565b9050919050565b7f4e487b71000000000000000000000000000000000000000000000000000000005f52601160045260245ffd5b5f612e9b82611fb3565b9150612ea683611fb3565b9250828201905080821115612ebe57612ebd612e64565b5b92915050565b5f6040820190508181035f830152612edc81856126be565b90508181036020830152612ef081846126be565b90509392505050565b7f455243313135353a207472616e7366657220746f20746865207a65726f2061645f8201527f6472657373000000000000000000000000000000000000000000000000000000602082015250565b5f612f53602583612134565b9150612f5e82612ef9565b604082019050919050565b5f6020820190508181035f830152612f8081612f47565b9050919050565b7f455243313135353a20696e73756666696369656e742062616c616e636520666f5f8201527f72207472616e7366657200000000000000000000000000000000000000000000602082015250565b5f612fe1602a83612134565b9150612fec82612f87565b604082019050919050565b5f6020820190508181035f83015261300e81612fd5565b9050919050565b7f455243313135353a206275726e2066726f6d20746865207a65726f20616464725f8201527f6573730000000000000000000000000000000000000000000000000000000000602082015250565b5f61306f602383612134565b915061307a82613015565b604082019050919050565b5f6020820190508181035f83015261309c81613063565b9050919050565b7f455243313135353a206275726e20616d6f756e7420657863656564732062616c5f8201527f616e636500000000000000000000000000000000000000000000000000000000602082015250565b5f6130fd602483612134565b9150613108826130a3565b604082019050919050565b5f6020820190508181035f83015261312a816130f1565b9050919050565b5f6040820190506131445f830185612024565b6131516020830184612024565b9392505050565b7f455243313135353a2073657474696e6720617070726f76616c207374617475735f8201527f20666f722073656c660000000000000000000000000000000000000000000000602082015250565b5f6131b2602983612134565b91506131bd82613158565b604082019050919050565b5f6020820190508181035f8301526131df816131a6565b9050919050565b5f81519050919050565b5f82825260208201905092915050565b5f61320a826131e6565b61321481856131f0565b9350613224818560208601612144565b61322d81612152565b840191505092915050565b5f60a08201905061324b5f830188612842565b6132586020830187612842565b818103604083015261326a81866126be565b9050818103606083015261327e81856126be565b905081810360808301526132928184613200565b90509695505050505050565b5f815190506132ac81612077565b92915050565b5f602082840312156132c7576132c6611f51565b5b5f6132d48482850161329e565b91505092915050565b5f8160e01c9050919050565b5f60033d11156133055760045f5f3e6133025f516132dd565b90505b90565b5f60443d1061339457613319611f48565b60043d036004823e80513d602482011167ffffffffffffffff82111715613341575050613394565b808201805167ffffffffffffffff81111561335f5750505050613394565b80602083010160043d03850181111561337c575050505050613394565b61338b826020018501866121eb565b82955050505050505b90565b7f455243313135353a207472616e7366657220746f206e6f6e2d455243313135355f8201527f526563656976657220696d706c656d656e746572000000000000000000000000602082015250565b5f6133f1603483612134565b91506133fc82613397565b604082019050919050565b5f6020820190508181035f83015261341e816133e5565b9050919050565b7f455243313135353a204552433131353552656365697665722072656a656374655f8201527f6420746f6b656e73000000000000000000000000000000000000000000000000602082015250565b5f61347f602883612134565b915061348a82613425565b604082019050919050565b5f6020820190508181035f8301526134ac81613473565b9050919050565b5f60a0820190506134c65f830188612842565b6134d36020830187612842565b6134e06040830186612024565b6134ed6060830185612024565b81810360808301526134ff8184613200565b9050969550505050505056fea26469706673582212206888556175561c75fff7cc48e33afe53635d3c2830a2e9bea864b138041984a464736f6c634300081e003368747470733a2f2f6d792d746f6b656e2d7572692e636f6d2f7b69647d2e6a736f6e","linkReferences":{}},"methodIdentifiers":{"TOKEN_ID_1()":"6ad9e4b5","TOKEN_ID_2()":"67dde6d5","balanceOf(address,uint256)":"00fdd58e","balanceOfBatch(address[],uint256[])":"4e1273f4","burn(address,uint256,uint256)":"f5298aca","burnBatch(address,uint256[],uint256[])":"6b20c454","isApprovedForAll(address,address)":"e985e9c5","mint(address,uint256,uint256,bytes)":"731133e9","mintBatch(address,uint256[],uint256[],bytes)":"1f7fdffa","owner()":"8da5cb5b","renounceOwnership()":"715018a6","safeBatchTransferFrom(address,address,uint256[],uint256[],bytes)":"2eb2c2d6","safeTransferFrom(address,address,uint256,uint256,bytes)":"f242432a","setApprovalForAll(address,bool)":"a22cb465","supportsInterface(bytes4)":"01ffc9a7","transferOwnership(address)":"f2fde38b","uri(uint256)":"0e89341c"},"id":10}