{"abi":[{"type":"constructor","inputs":[],"stateMutability":"nonpayable"},{"type":"function","name":"message","inputs":[],"outputs":[{"name":"","type":"string","internalType":"string"}],"stateMutability":"view"},{"type":"function","name":"owner","inputs":[],"outputs":[{"name":"","type":"address","internalType":"address"}],"stateMutability":"view"},{"type":"function","name":"renounceOwnership","inputs":[],"outputs":[],"stateMutability":"nonpayable"},{"type":"function","name":"setMessage","inputs":[{"name":"newMessage","type":"string","internalType":"string"}],"outputs":[],"stateMutability":"nonpayable"},{"type":"function","name":"transferOwnership","inputs":[{"name":"newOwner","type":"address","internalType":"address"}],"outputs":[],"stateMutability":"nonpayable"},{"type":"event","name":"OwnershipTransferred","inputs":[{"name":"previousOwner","type":"address","indexed":true,"internalType":"address"},{"name":"newOwner","type":"address","indexed":true,"internalType":"address"}],"anonymous":false}],"bytecode":{"object":"0x608060405234801561000f575f5ffd5b5061002c61002161003160201b60201c565b61003860201b60201c565b6100f9565b5f33905090565b5f5f5f9054906101000a900473ffffffffffffffffffffffffffffffffffffffff169050815f5f6101000a81548173ffffffffffffffffffffffffffffffffffffffff021916908373ffffffffffffffffffffffffffffffffffffffff1602179055508173ffffffffffffffffffffffffffffffffffffffff168173ffffffffffffffffffffffffffffffffffffffff167f8be0079c531659141344cd1fd0a4f28419497f9722a3daafe3b4186f6b6457e060405160405180910390a35050565b610a42806101065f395ff3fe608060405234801561000f575f5ffd5b5060043610610055575f3560e01c8063368b877214610059578063715018a6146100755780638da5cb5b1461007f578063e21f37ce1461009d578063f2fde38b146100bb575b5f5ffd5b610073600480360381019061006e91906104cd565b6100d7565b005b61007d6100f2565b005b610087610105565b6040516100949190610553565b60405180910390f35b6100a561012c565b6040516100b291906105cc565b60405180910390f35b6100d560048036038101906100d09190610616565b6101b8565b005b6100df61023a565b80600190816100ee9190610847565b5050565b6100fa61023a565b6101035f6102b8565b565b5f5f5f9054906101000a900473ffffffffffffffffffffffffffffffffffffffff16905090565b600180546101399061066e565b80601f01602080910402602001604051908101604052809291908181526020018280546101659061066e565b80156101b05780601f10610187576101008083540402835291602001916101b0565b820191905f5260205f20905b81548152906001019060200180831161019357829003601f168201915b505050505081565b6101c061023a565b5f73ffffffffffffffffffffffffffffffffffffffff168173ffffffffffffffffffffffffffffffffffffffff160361022e576040517f08c379a000000000000000000000000000000000000000000000000000000000815260040161022590610986565b60405180910390fd5b610237816102b8565b50565b610242610379565b73ffffffffffffffffffffffffffffffffffffffff16610260610105565b73ffffffffffffffffffffffffffffffffffffffff16146102b6576040517f08c379a00000000000000000000000000000000000000000000000000000000081526004016102ad906109ee565b60405180910390fd5b565b5f5f5f9054906101000a900473ffffffffffffffffffffffffffffffffffffffff169050815f5f6101000a81548173ffffffffffffffffffffffffffffffffffffffff021916908373ffffffffffffffffffffffffffffffffffffffff1602179055508173ffffffffffffffffffffffffffffffffffffffff168173ffffffffffffffffffffffffffffffffffffffff167f8be0079c531659141344cd1fd0a4f28419497f9722a3daafe3b4186f6b6457e060405160405180910390a35050565b5f33905090565b5f604051905090565b5f5ffd5b5f5ffd5b5f5ffd5b5f5ffd5b5f601f19601f8301169050919050565b7f4e487b71000000000000000000000000000000000000000000000000000000005f52604160045260245ffd5b6103df82610399565b810181811067ffffffffffffffff821117156103fe576103fd6103a9565b5b80604052505050565b5f610410610380565b905061041c82826103d6565b919050565b5f67ffffffffffffffff82111561043b5761043a6103a9565b5b61044482610399565b9050602081019050919050565b828183375f83830152505050565b5f61047161046c84610421565b610407565b90508281526020810184848401111561048d5761048c610395565b5b610498848285610451565b509392505050565b5f82601f8301126104b4576104b3610391565b5b81356104c484826020860161045f565b91505092915050565b5f602082840312156104e2576104e1610389565b5b5f82013567ffffffffffffffff8111156104ff576104fe61038d565b5b61050b848285016104a0565b91505092915050565b5f73ffffffffffffffffffffffffffffffffffffffff82169050919050565b5f61053d82610514565b9050919050565b61054d81610533565b82525050565b5f6020820190506105665f830184610544565b92915050565b5f81519050919050565b5f82825260208201905092915050565b8281835e5f83830152505050565b5f61059e8261056c565b6105a88185610576565b93506105b8818560208601610586565b6105c181610399565b840191505092915050565b5f6020820190508181035f8301526105e48184610594565b905092915050565b6105f581610533565b81146105ff575f5ffd5b50565b5f81359050610610816105ec565b92915050565b5f6020828403121561062b5761062a610389565b5b5f61063884828501610602565b91505092915050565b7f4e487b71000000000000000000000000000000000000000000000000000000005f52602260045260245ffd5b5f600282049050600182168061068557607f821691505b60208210810361069857610697610641565b5b50919050565b5f819050815f5260205f209050919050565b5f6020601f8301049050919050565b5f82821b905092915050565b5f600883026106fa7fffffffffffffffffffffffffffffffffffffffffffffffffffffffffffffffff826106bf565b61070486836106bf565b95508019841693508086168417925050509392505050565b5f819050919050565b5f819050919050565b5f61074861074361073e8461071c565b610725565b61071c565b9050919050565b5f819050919050565b6107618361072e565b61077561076d8261074f565b8484546106cb565b825550505050565b5f5f905090565b61078c61077d565b610797818484610758565b505050565b5b818110156107ba576107af5f82610784565b60018101905061079d565b5050565b601f8211156107ff576107d08161069e565b6107d9846106b0565b810160208510156107e8578190505b6107fc6107f4856106b0565b83018261079c565b50505b505050565b5f82821c905092915050565b5f61081f5f1984600802610804565b1980831691505092915050565b5f6108378383610810565b9150826002028217905092915050565b6108508261056c565b67ffffffffffffffff811115610869576108686103a9565b5b610873825461066e565b61087e8282856107be565b5f60209050601f8311600181146108af575f841561089d578287015190505b6108a7858261082c565b86555061090e565b601f1984166108bd8661069e565b5f5b828110156108e4578489015182556001820191506020850194506020810190506108bf565b8683101561090157848901516108fd601f891682610810565b8355505b6001600288020188555050505b505050505050565b7f4f776e61626c653a206e6577206f776e657220697320746865207a65726f20615f8201527f6464726573730000000000000000000000000000000000000000000000000000602082015250565b5f610970602683610576565b915061097b82610916565b604082019050919050565b5f6020820190508181035f83015261099d81610964565b9050919050565b7f4f776e61626c653a2063616c6c6572206973206e6f7420746865206f776e65725f82015250565b5f6109d8602083610576565b91506109e3826109a4565b602082019050919050565b5f6020820190508181035f830152610a05816109cc565b905091905056fea2646970667358221220b9571b80a4a199427bd432484e364efd6b859c70c9b353d94cd20b36e6684a8664736f6c634300081e0033","linkReferences":{}},"methodIdentifiers":{"message()":"e21f37ce","owner()":"8da5cb5b","renounceOwnership()":"715018a6","setMessage(string)":"368b8772","transferOwnership(address)":"f2fde38b"},"id":13}