{"abi":[{"type":"constructor","inputs":[],"stateMutability":"nonpayable"},{"type":"function","name":"message","inputs":[],"outputs":[{"name":"","type":"string","internalType":"string"}],"stateMutability":"view"},{"type":"function","name":"owner","inputs":[],"outputs":[{"name":"","type":"address","internalType":"address"}],"stateMutability":"view"},{"type":"function","name":"renounceOwnership","inputs":[],"outputs":[],"stateMutability":"nonpayable"},{"type":"function","name":"setMessage","inputs":[{"name":"newMessage","type":"string","internalType":"string"}],"outputs":[],"stateMutability":"nonpayable"},{"type":"function","name":"transferOwnership","inputs":[{"name":"newOwner","type":"address","internalType":"address"}],"outputs":[],"stateMutability":"nonpayable"},{"type":"event","name":"OwnershipTransferred","inputs":[{"name":"previousOwner","type":"address","indexed":true,"internalType":"address"},{"name":"newOwner","type":"address","indexed":true,"internalType":"address"}],"anonymous":false}],"bytecode":{"object":"0x608060405234801561000f575f80fd5b5061002c61002161003160201b60201c565b61003860201b60201c565b6100f9565b5f33905090565b5f805f9054906101000a900473ffffffffffffffffffffffffffffffffffffffff169050815f806101000a81548173ffffffffffffffffffffffffffffffffffffffff021916908373ffffffffffffffffffffffffffffffffffffffff1602179055508173ffffffffffffffffffffffffffffffffffffffff168173ffffffffffffffffffffffffffffffffffffffff167f8be0079c531659141344cd1fd0a4f28419497f9722a3daafe3b4186f6b6457e060405160405180910390a35050565b610a59806101065f395ff3fe608060405234801561000f575f80fd5b5060043610610055575f3560e01c8063368b877214610059578063715018a6146100755780638da5cb5b1461007f578063e21f37ce1461009d578063f2fde38b146100bb575b5f80fd5b610073600480360381019061006e91906104cd565b6100d7565b005b61007d6100f2565b005b610087610105565b6040516100949190610553565b60405180910390f35b6100a561012c565b6040516100b291906105e6565b60405180910390f35b6100d560048036038101906100d09190610630565b6101b8565b005b6100df61023a565b80600190816100ee919061085e565b5050565b6100fa61023a565b6101035f6102b8565b565b5f805f9054906101000a900473ffffffffffffffffffffffffffffffffffffffff16905090565b6001805461013990610688565b80601f016020809104026020016040519081016040528092919081815260200182805461016590610688565b80156101b05780601f10610187576101008083540402835291602001916101b0565b820191905f5260205f20905b81548152906001019060200180831161019357829003601f168201915b505050505081565b6101c061023a565b5f73ffffffffffffffffffffffffffffffffffffffff168173ffffffffffffffffffffffffffffffffffffffff160361022e576040517f08c379a00000000000000000000000000000000000000000000000000000000081526004016102259061099d565b60405180910390fd5b610237816102b8565b50565b610242610379565b73ffffffffffffffffffffffffffffffffffffffff16610260610105565b73ffffffffffffffffffffffffffffffffffffffff16146102b6576040517f08c379a00000000000000000000000000000000000000000000000000000000081526004016102ad90610a05565b60405180910390fd5b565b5f805f9054906101000a900473ffffffffffffffffffffffffffffffffffffffff169050815f806101000a81548173ffffffffffffffffffffffffffffffffffffffff021916908373ffffffffffffffffffffffffffffffffffffffff1602179055508173ffffffffffffffffffffffffffffffffffffffff168173ffffffffffffffffffffffffffffffffffffffff167f8be0079c531659141344cd1fd0a4f28419497f9722a3daafe3b4186f6b6457e060405160405180910390a35050565b5f33905090565b5f604051905090565b5f80fd5b5f80fd5b5f80fd5b5f80fd5b5f601f19601f8301169050919050565b7f4e487b71000000000000000000000000000000000000000000000000000000005f52604160045260245ffd5b6103df82610399565b810181811067ffffffffffffffff821117156103fe576103fd6103a9565b5b80604052505050565b5f610410610380565b905061041c82826103d6565b919050565b5f67ffffffffffffffff82111561043b5761043a6103a9565b5b61044482610399565b9050602081019050919050565b828183375f83830152505050565b5f61047161046c84610421565b610407565b90508281526020810184848401111561048d5761048c610395565b5b610498848285610451565b509392505050565b5f82601f8301126104b4576104b3610391565b5b81356104c484826020860161045f565b91505092915050565b5f602082840312156104e2576104e1610389565b5b5f82013567ffffffffffffffff8111156104ff576104fe61038d565b5b61050b848285016104a0565b91505092915050565b5f73ffffffffffffffffffffffffffffffffffffffff82169050919050565b5f61053d82610514565b9050919050565b61054d81610533565b82525050565b5f6020820190506105665f830184610544565b92915050565b5f81519050919050565b5f82825260208201905092915050565b5f5b838110156105a3578082015181840152602081019050610588565b5f8484015250505050565b5f6105b88261056c565b6105c28185610576565b93506105d2818560208601610586565b6105db81610399565b840191505092915050565b5f6020820190508181035f8301526105fe81846105ae565b905092915050565b61060f81610533565b8114610619575f80fd5b50565b5f8135905061062a81610606565b92915050565b5f6020828403121561064557610644610389565b5b5f6106528482850161061c565b91505092915050565b7f4e487b71000000000000000000000000000000000000000000000000000000005f52602260045260245ffd5b5f600282049050600182168061069f57607f821691505b6020821081036106b2576106b161065b565b5b50919050565b5f819050815f5260205f209050919050565b5f6020601f8301049050919050565b5f82821b905092915050565b5f600883026107147fffffffffffffffffffffffffffffffffffffffffffffffffffffffffffffffff826106d9565b61071e86836106d9565b95508019841693508086168417925050509392505050565b5f819050919050565b5f819050919050565b5f61076261075d61075884610736565b61073f565b610736565b9050919050565b5f819050919050565b61077b83610748565b61078f61078782610769565b8484546106e5565b825550505050565b5f90565b6107a3610797565b6107ae818484610772565b505050565b5b818110156107d1576107c65f8261079b565b6001810190506107b4565b5050565b601f821115610816576107e7816106b8565b6107f0846106ca565b810160208510156107ff578190505b61081361080b856106ca565b8301826107b3565b50505b505050565b5f82821c905092915050565b5f6108365f198460080261081b565b1980831691505092915050565b5f61084e8383610827565b9150826002028217905092915050565b6108678261056c565b67ffffffffffffffff8111156108805761087f6103a9565b5b61088a8254610688565b6108958282856107d5565b5f60209050601f8311600181146108c6575f84156108b4578287015190505b6108be8582610843565b865550610925565b601f1984166108d4866106b8565b5f5b828110156108fb578489015182556001820191506020850194506020810190506108d6565b868310156109185784890151610914601f891682610827565b8355505b6001600288020188555050505b505050505050565b7f4f776e61626c653a206e6577206f776e657220697320746865207a65726f20615f8201527f6464726573730000000000000000000000000000000000000000000000000000602082015250565b5f610987602683610576565b91506109928261092d565b604082019050919050565b5f6020820190508181035f8301526109b48161097b565b9050919050565b7f4f776e61626c653a2063616c6c6572206973206e6f7420746865206f776e65725f82015250565b5f6109ef602083610576565b91506109fa826109bb565b602082019050919050565b5f6020820190508181035f830152610a1c816109e3565b905091905056fea2646970667358221220371becf8390a089bc65dbbef93b4aa5985818a5d6f4cf288e449a7138939731964736f6c63430008140033","linkReferences":{}},"methodIdentifiers":{"message()":"e21f37ce","owner()":"8da5cb5b","renounceOwnership()":"715018a6","setMessage(string)":"368b8772","transferOwnership(address)":"f2fde38b"},"id":11}