{"abi":[{"type":"constructor","inputs":[],"stateMutability":"nonpayable"},{"type":"function","name":"emergencyFunction","inputs":[],"outputs":[],"stateMutability":"view"},{"type":"function","name":"normalFunction","inputs":[],"outputs":[],"stateMutability":"view"},{"type":"function","name":"owner","inputs":[],"outputs":[{"name":"","type":"address","internalType":"address"}],"stateMutability":"view"},{"type":"function","name":"pause","inputs":[],"outputs":[],"stateMutability":"nonpayable"},{"type":"function","name":"paused","inputs":[],"outputs":[{"name":"","type":"bool","internalType":"bool"}],"stateMutability":"view"},{"type":"function","name":"renounceOwnership","inputs":[],"outputs":[],"stateMutability":"nonpayable"},{"type":"function","name":"transferOwnership","inputs":[{"name":"newOwner","type":"address","internalType":"address"}],"outputs":[],"stateMutability":"nonpayable"},{"type":"function","name":"unpause","inputs":[],"outputs":[],"stateMutability":"nonpayable"},{"type":"event","name":"OwnershipTransferred","inputs":[{"name":"previousOwner","type":"address","indexed":true,"internalType":"address"},{"name":"newOwner","type":"address","indexed":true,"internalType":"address"}],"anonymous":false},{"type":"event","name":"Paused","inputs":[{"name":"account","type":"address","indexed":false,"internalType":"address"}],"anonymous":false},{"type":"event","name":"Unpaused","inputs":[{"name":"account","type":"address","indexed":false,"internalType":"address"}],"anonymous":false}],"bytecode":{"object":"0x608060405234801561000f575f80fd5b505f805f6101000a81548160ff02191690831515021790555061004461003961004960201b60201c565b61005060201b60201c565b610113565b5f33905090565b5f8060019054906101000a900473ffffffffffffffffffffffffffffffffffffffff169050815f60016101000a81548173ffffffffffffffffffffffffffffffffffffffff021916908373ffffffffffffffffffffffffffffffffffffffff1602179055508173ffffffffffffffffffffffffffffffffffffffff168173ffffffffffffffffffffffffffffffffffffffff167f8be0079c531659141344cd1fd0a4f28419497f9722a3daafe3b4186f6b6457e060405160405180910390a35050565b6107a1806101205f395ff3fe608060405234801561000f575f80fd5b5060043610610086575f3560e01c80638456cb59116100595780638456cb59146100c65780638da5cb5b146100d0578063d67e4b84146100ee578063f2fde38b146100f857610086565b80633f4ba83a1461008a57806341d5bd25146100945780635c975abb1461009e578063715018a6146100bc575b5f80fd5b610092610114565b005b61009c610126565b005b6100a6610128565b6040516100b391906104cb565b60405180910390f35b6100c461013c565b005b6100ce61014f565b005b6100d8610161565b6040516100e59190610523565b60405180910390f35b6100f6610189565b005b610112600480360381019061010d919061056a565b610193565b005b61011c610215565b610124610293565b565b565b5f805f9054906101000a900460ff16905090565b610144610215565b61014d5f6102f3565b565b610157610215565b61015f6103b6565b565b5f8060019054906101000a900473ffffffffffffffffffffffffffffffffffffffff16905090565b610191610417565b565b61019b610215565b5f73ffffffffffffffffffffffffffffffffffffffff168173ffffffffffffffffffffffffffffffffffffffff1603610209576040517f08c379a000000000000000000000000000000000000000000000000000000000815260040161020090610615565b60405180910390fd5b610212816102f3565b50565b61021d610461565b73ffffffffffffffffffffffffffffffffffffffff1661023b610161565b73ffffffffffffffffffffffffffffffffffffffff1614610291576040517f08c379a00000000000000000000000000000000000000000000000000000000081526004016102889061067d565b60405180910390fd5b565b61029b610468565b5f805f6101000a81548160ff0219169083151502179055507f5db9ee0a495bf2e6ff9c91a7834c1ba4fdd244a5e8aa4e537bd38aeae4b073aa6102dc610461565b6040516102e99190610523565b60405180910390a1565b5f8060019054906101000a900473ffffffffffffffffffffffffffffffffffffffff169050815f60016101000a81548173ffffffffffffffffffffffffffffffffffffffff021916908373ffffffffffffffffffffffffffffffffffffffff1602179055508173ffffffffffffffffffffffffffffffffffffffff168173ffffffffffffffffffffffffffffffffffffffff167f8be0079c531659141344cd1fd0a4f28419497f9722a3daafe3b4186f6b6457e060405160405180910390a35050565b6103be610417565b60015f806101000a81548160ff0219169083151502179055507f62e78cea01bee320cd4e420270b5ea74000d11b0c9f74754ebdbfc544b05a258610400610461565b60405161040d9190610523565b60405180910390a1565b61041f610128565b1561045f576040517f08c379a0000000000000000000000000000000000000000000000000000000008152600401610456906106e5565b60405180910390fd5b565b5f33905090565b610470610128565b6104af576040517f08c379a00000000000000000000000000000000000000000000000000000000081526004016104a69061074d565b60405180910390fd5b565b5f8115159050919050565b6104c5816104b1565b82525050565b5f6020820190506104de5f8301846104bc565b92915050565b5f73ffffffffffffffffffffffffffffffffffffffff82169050919050565b5f61050d826104e4565b9050919050565b61051d81610503565b82525050565b5f6020820190506105365f830184610514565b92915050565b5f80fd5b61054981610503565b8114610553575f80fd5b50565b5f8135905061056481610540565b92915050565b5f6020828403121561057f5761057e61053c565b5b5f61058c84828501610556565b91505092915050565b5f82825260208201905092915050565b7f4f776e61626c653a206e6577206f776e657220697320746865207a65726f20615f8201527f6464726573730000000000000000000000000000000000000000000000000000602082015250565b5f6105ff602683610595565b915061060a826105a5565b604082019050919050565b5f6020820190508181035f83015261062c816105f3565b9050919050565b7f4f776e61626c653a2063616c6c6572206973206e6f7420746865206f776e65725f82015250565b5f610667602083610595565b915061067282610633565b602082019050919050565b5f6020820190508181035f8301526106948161065b565b9050919050565b7f5061757361626c653a20706175736564000000000000000000000000000000005f82015250565b5f6106cf601083610595565b91506106da8261069b565b602082019050919050565b5f6020820190508181035f8301526106fc816106c3565b9050919050565b7f5061757361626c653a206e6f74207061757365640000000000000000000000005f82015250565b5f610737601483610595565b915061074282610703565b602082019050919050565b5f6020820190508181035f8301526107648161072b565b905091905056fea264697066735822122086a0ffa6635f2e77e88691e82a6665d75f94e4feacc6b1f1611c4cc317223f1964736f6c63430008140033","linkReferences":{}},"methodIdentifiers":{"emergencyFunction()":"41d5bd25","normalFunction()":"d67e4b84","owner()":"8da5cb5b","pause()":"8456cb59","paused()":"5c975abb","renounceOwnership()":"715018a6","transferOwnership(address)":"f2fde38b","unpause()":"3f4ba83a"},"id":12}