{
  "_format": "hh-sol-artifact-1",
  "contractName": "Counter",
  "sourceName": "contracts/Counter.sol",
  "abi": [
    {
      "inputs": [],
      "name": "count",
      "outputs": [
        {
          "internalType": "uint256",
          "name": "",
          "type": "uint256"
        }
      ],
      "stateMutability": "view",
      "type": "function"
    },
    {
      "inputs": [],
      "name": "decrement",
      "outputs": [],
      "stateMutability": "nonpayable",
      "type": "function"
    },
    {
      "inputs": [],
      "name": "getCount",
      "outputs": [
        {
          "internalType": "uint256",
          "name": "",
          "type": "uint256"
        }
      ],
      "stateMutability": "view",
      "type": "function"
    },
    {
      "inputs": [],
      "name": "increment",
      "outputs": [],
      "stateMutability": "nonpayable",
      "type": "function"
    },
    {
      "inputs": [
        {
          "internalType": "uint256",
          "name": "_count",
          "type": "uint256"
        }
      ],
      "name": "setCount",
      "outputs": [],
      "stateMutability": "nonpayable",
      "type": "function"
    }
  ],
  "bytecode": "0x608060405234801561001057600080fd5b50610276806100206000396000f3fe608060405234801561001057600080fd5b50600436106100575760003560e01c806306661abd1461005c5780632baeceb71461007a578063a87d942c14610084578063d09de08a146100a2578063d14e62b8146100ac575b600080fd5b6100646100c8565b6040516100719190610130565b60405180910390f35b6100826100ce565b005b61008c6100e9565b6040516100999190610130565b60405180910390f35b6100aa6100f2565b005b6100c660048036038101906100c1919061017c565b61010d565b005b60005481565b60016000808282546100e091906101d8565b92505081905550565b60008054905090565b6001600080828254610104919061020c565b92505081905550565b8060008190555050565b6000819050919050565b61012a81610117565b82525050565b60006020820190506101456000830184610121565b92915050565b600080fd5b61015981610117565b811461016457600080fd5b50565b60008135905061017681610150565b92915050565b6000602082840312156101925761019161014b565b5b60006101a084828501610167565b91505092915050565b7f4e487b7100000000000000000000000000000000000000000000000000000000600052601160045260246000fd5b60006101e382610117565b91506101ee83610117565b9250828203905081811115610206576102056101a9565b5b92915050565b600061021782610117565b915061022283610117565b925082820190508082111561023a576102396101a9565b5b9291505056fea264697066735822122008c7a50921c4cec05f0658341f8dd30bedbb69661affeb7c59d2266d248567c664736f6c63430008140033",
  "linkReferences": {},
  "deployedLinkReferences": {}
}