{"abi":[{"type":"constructor","inputs":[],"stateMutability":"nonpayable"},{"type":"function","name":"buyNFT","inputs":[{"name":"_nftContract","type":"address","internalType":"address"},{"name":"_tokenId","type":"uint256","internalType":"uint256"}],"outputs":[],"stateMutability":"payable"},{"type":"function","name":"listNFT","inputs":[{"name":"_nftContract","type":"address","internalType":"address"},{"name":"_tokenId","type":"uint256","internalType":"uint256"},{"name":"_price","type":"uint256","internalType":"uint256"}],"outputs":[],"stateMutability":"nonpayable"},{"type":"function","name":"listings","inputs":[{"name":"","type":"address","internalType":"address"},{"name":"","type":"uint256","internalType":"uint256"}],"outputs":[{"name":"price","type":"uint256","internalType":"uint256"},{"name":"seller","type":"address","internalType":"address"},{"name":"active","type":"bool","internalType":"bool"}],"stateMutability":"view"},{"type":"function","name":"owner","inputs":[],"outputs":[{"name":"","type":"address","internalType":"address"}],"stateMutability":"view"},{"type":"function","name":"renounceOwnership","inputs":[],"outputs":[],"stateMutability":"nonpayable"},{"type":"function","name":"transferOwnership","inputs":[{"name":"newOwner","type":"address","internalType":"address"}],"outputs":[],"stateMutability":"nonpayable"},{"type":"function","name":"unlistNFT","inputs":[{"name":"_nftContract","type":"address","internalType":"address"},{"name":"_tokenId","type":"uint256","internalType":"uint256"}],"outputs":[],"stateMutability":"nonpayable"},{"type":"event","name":"NFTBought","inputs":[{"name":"nftContract","type":"address","indexed":true,"internalType":"address"},{"name":"tokenId","type":"uint256","indexed":true,"internalType":"uint256"},{"name":"price","type":"uint256","indexed":false,"internalType":"uint256"},{"name":"buyer","type":"address","indexed":false,"internalType":"address"},{"name":"seller","type":"address","indexed":true,"internalType":"address"}],"anonymous":false},{"type":"event","name":"NFTListed","inputs":[{"name":"nftContract","type":"address","indexed":true,"internalType":"address"},{"name":"tokenId","type":"uint256","indexed":true,"internalType":"uint256"},{"name":"price","type":"uint256","indexed":false,"internalType":"uint256"},{"name":"seller","type":"address","indexed":true,"internalType":"address"}],"anonymous":false},{"type":"event","name":"NFTUnlisted","inputs":[{"name":"nftContract","type":"address","indexed":true,"internalType":"address"},{"name":"tokenId","type":"uint256","indexed":true,"internalType":"uint256"}],"anonymous":false},{"type":"event","name":"OwnershipTransferred","inputs":[{"name":"previousOwner","type":"address","indexed":true,"internalType":"address"},{"name":"newOwner","type":"address","indexed":true,"internalType":"address"}],"anonymous":false}],"bytecode":{"object":"0x608060405234801561000f575f5ffd5b5061002c61002161003160201b60201c565b61003860201b60201c565b6100f9565b5f33905090565b5f5f5f9054906101000a900473ffffffffffffffffffffffffffffffffffffffff169050815f5f6101000a81548173ffffffffffffffffffffffffffffffffffffffff021916908373ffffffffffffffffffffffffffffffffffffffff1602179055508173ffffffffffffffffffffffffffffffffffffffff168173ffffffffffffffffffffffffffffffffffffffff167f8be0079c531659141344cd1fd0a4f28419497f9722a3daafe3b4186f6b6457e060405160405180910390a35050565b6114f4806101065f395ff3fe60806040526004361061006e575f3560e01c80638da5cb5b1161004d5780638da5cb5b146100ee578063a82ba76f14610118578063ad05f1b414610134578063f2fde38b1461015c5761006e565b806207df3014610072578063715018a6146100b05780637fc27efd146100c6575b5f5ffd5b34801561007d575f5ffd5b5061009860048036038101906100939190610d30565b610184565b6040516100a793929190610da6565b60405180910390f35b3480156100bb575f5ffd5b506100c46101e1565b005b3480156100d1575f5ffd5b506100ec60048036038101906100e79190610d30565b6101f4565b005b3480156100f9575f5ffd5b5061010261038a565b60405161010f9190610ddb565b60405180910390f35b610132600480360381019061012d9190610d30565b6103b1565b005b34801561013f575f5ffd5b5061015a60048036038101906101559190610df4565b61076a565b005b348015610167575f5ffd5b50610182600480360381019061017d9190610e44565b610ad7565b005b6001602052815f5260405f20602052805f5260405f205f9150915050805f015490806001015f9054906101000a900473ffffffffffffffffffffffffffffffffffffffff16908060010160149054906101000a900460ff16905083565b6101e9610b59565b6101f25f610bd7565b565b5f60015f8473ffffffffffffffffffffffffffffffffffffffff1673ffffffffffffffffffffffffffffffffffffffff1681526020019081526020015f205f8381526020019081526020015f2090508060010160149054906101000a900460ff16610294576040517f08c379a000000000000000000000000000000000000000000000000000000000815260040161028b90610ec9565b60405180910390fd5b3373ffffffffffffffffffffffffffffffffffffffff16816001015f9054906101000a900473ffffffffffffffffffffffffffffffffffffffff1673ffffffffffffffffffffffffffffffffffffffff1614610325576040517f08c379a000000000000000000000000000000000000000000000000000000000815260040161031c90610f57565b60405180910390fd5b5f8160010160146101000a81548160ff021916908315150217905550818373ffffffffffffffffffffffffffffffffffffffff167f8a7922f72dc2a50a632acdde12b7d222aefa2fdb7f3ca1364b419734569d0e8060405160405180910390a3505050565b5f5f5f9054906101000a900473ffffffffffffffffffffffffffffffffffffffff16905090565b5f60015f8473ffffffffffffffffffffffffffffffffffffffff1673ffffffffffffffffffffffffffffffffffffffff1681526020019081526020015f205f8381526020019081526020015f2090508060010160149054906101000a900460ff16610451576040517f08c379a000000000000000000000000000000000000000000000000000000000815260040161044890610fbf565b60405180910390fd5b805f0154341015610497576040517f08c379a000000000000000000000000000000000000000000000000000000000815260040161048e90611027565b60405180910390fd5b5f8390505f826001015f9054906101000a900473ffffffffffffffffffffffffffffffffffffffff1673ffffffffffffffffffffffffffffffffffffffff16835f01546040516104e690611072565b5f6040518083038185875af1925050503d805f8114610520576040519150601f19603f3d011682016040523d82523d5f602084013e610525565b606091505b5050905080610569576040517f08c379a0000000000000000000000000000000000000000000000000000000008152600401610560906110d0565b60405180910390fd5b8173ffffffffffffffffffffffffffffffffffffffff166323b872dd846001015f9054906101000a900473ffffffffffffffffffffffffffffffffffffffff1633876040518463ffffffff1660e01b81526004016105c9939291906110ee565b5f604051808303815f87803b1580156105e0575f5ffd5b505af11580156105f2573d5f5f3e3d5ffd5b505050505f8360010160146101000a81548160ff021916908315150217905550826001015f9054906101000a900473ffffffffffffffffffffffffffffffffffffffff1673ffffffffffffffffffffffffffffffffffffffff16848673ffffffffffffffffffffffffffffffffffffffff167f52fc3e4cf7db949b4fbbc79afbdfd9c7042d466b6befb122ee32ad13bb7de6cd865f015433604051610698929190611123565b60405180910390a4825f0154341115610763573373ffffffffffffffffffffffffffffffffffffffff16835f0154346106d19190611177565b6040516106dd90611072565b5f6040518083038185875af1925050503d805f8114610717576040519150601f19603f3d011682016040523d82523d5f602084013e61071c565b606091505b50508091505080610762576040517f08c379a0000000000000000000000000000000000000000000000000000000008152600401610759906111f4565b60405180910390fd5b5b5050505050565b5f81116107ac576040517f08c379a00000000000000000000000000000000000000000000000000000000081526004016107a39061125c565b60405180910390fd5b5f8390503373ffffffffffffffffffffffffffffffffffffffff168173ffffffffffffffffffffffffffffffffffffffff16636352211e856040518263ffffffff1660e01b8152600401610800919061127a565b602060405180830381865afa15801561081b573d5f5f3e3d5ffd5b505050506040513d601f19601f8201168201806040525081019061083f91906112a7565b73ffffffffffffffffffffffffffffffffffffffff1614610895576040517f08c379a000000000000000000000000000000000000000000000000000000000815260040161088c9061131c565b60405180910390fd5b3073ffffffffffffffffffffffffffffffffffffffff168173ffffffffffffffffffffffffffffffffffffffff1663081812fc856040518263ffffffff1660e01b81526004016108e5919061127a565b602060405180830381865afa158015610900573d5f5f3e3d5ffd5b505050506040513d601f19601f8201168201806040525081019061092491906112a7565b73ffffffffffffffffffffffffffffffffffffffff161461097a576040517f08c379a0000000000000000000000000000000000000000000000000000000008152600401610971906113aa565b60405180910390fd5b60405180606001604052808381526020013373ffffffffffffffffffffffffffffffffffffffff1681526020016001151581525060015f8673ffffffffffffffffffffffffffffffffffffffff1673ffffffffffffffffffffffffffffffffffffffff1681526020019081526020015f205f8581526020019081526020015f205f820151815f01556020820151816001015f6101000a81548173ffffffffffffffffffffffffffffffffffffffff021916908373ffffffffffffffffffffffffffffffffffffffff16021790555060408201518160010160146101000a81548160ff0219169083151502179055509050503373ffffffffffffffffffffffffffffffffffffffff16838573ffffffffffffffffffffffffffffffffffffffff167f5ba0ddd8e72e3c5c274414bd1ef0dec9ae5220e0f6f534d859043e2a52f0319f85604051610ac9919061127a565b60405180910390a450505050565b610adf610b59565b5f73ffffffffffffffffffffffffffffffffffffffff168173ffffffffffffffffffffffffffffffffffffffff1603610b4d576040517f08c379a0000000000000000000000000000000000000000000000000000000008152600401610b4490611438565b60405180910390fd5b610b5681610bd7565b50565b610b61610c98565b73ffffffffffffffffffffffffffffffffffffffff16610b7f61038a565b73ffffffffffffffffffffffffffffffffffffffff1614610bd5576040517f08c379a0000000000000000000000000000000000000000000000000000000008152600401610bcc906114a0565b60405180910390fd5b565b5f5f5f9054906101000a900473ffffffffffffffffffffffffffffffffffffffff169050815f5f6101000a81548173ffffffffffffffffffffffffffffffffffffffff021916908373ffffffffffffffffffffffffffffffffffffffff1602179055508173ffffffffffffffffffffffffffffffffffffffff168173ffffffffffffffffffffffffffffffffffffffff167f8be0079c531659141344cd1fd0a4f28419497f9722a3daafe3b4186f6b6457e060405160405180910390a35050565b5f33905090565b5f5ffd5b5f73ffffffffffffffffffffffffffffffffffffffff82169050919050565b5f610ccc82610ca3565b9050919050565b610cdc81610cc2565b8114610ce6575f5ffd5b50565b5f81359050610cf781610cd3565b92915050565b5f819050919050565b610d0f81610cfd565b8114610d19575f5ffd5b50565b5f81359050610d2a81610d06565b92915050565b5f5f60408385031215610d4657610d45610c9f565b5b5f610d5385828601610ce9565b9250506020610d6485828601610d1c565b9150509250929050565b610d7781610cfd565b82525050565b610d8681610cc2565b82525050565b5f8115159050919050565b610da081610d8c565b82525050565b5f606082019050610db95f830186610d6e565b610dc66020830185610d7d565b610dd36040830184610d97565b949350505050565b5f602082019050610dee5f830184610d7d565b92915050565b5f5f5f60608486031215610e0b57610e0a610c9f565b5b5f610e1886828701610ce9565b9350506020610e2986828701610d1c565b9250506040610e3a86828701610d1c565b9150509250925092565b5f60208284031215610e5957610e58610c9f565b5b5f610e6684828501610ce9565b91505092915050565b5f82825260208201905092915050565b7f4e4654206e6f74206c69737465640000000000000000000000000000000000005f82015250565b5f610eb3600e83610e6f565b9150610ebe82610e7f565b602082019050919050565b5f6020820190508181035f830152610ee081610ea7565b9050919050565b7f596f7520617265206e6f74207468652073656c6c6572206f662074686973204e5f8201527f4654000000000000000000000000000000000000000000000000000000000000602082015250565b5f610f41602283610e6f565b9150610f4c82610ee7565b604082019050919050565b5f6020820190508181035f830152610f6e81610f35565b9050919050565b7f4e4654206e6f74206c6973746564206f7220616c726561647920736f6c6400005f82015250565b5f610fa9601e83610e6f565b9150610fb482610f75565b602082019050919050565b5f6020820190508181035f830152610fd681610f9d565b9050919050565b7f496e73756666696369656e74204554482070726f7669646564000000000000005f82015250565b5f611011601983610e6f565b915061101c82610fdd565b602082019050919050565b5f6020820190508181035f83015261103e81611005565b9050919050565b5f81905092915050565b50565b5f61105d5f83611045565b91506110688261104f565b5f82019050919050565b5f61107c82611052565b9150819050919050565b7f455448207472616e73666572206661696c6564000000000000000000000000005f82015250565b5f6110ba601383610e6f565b91506110c582611086565b602082019050919050565b5f6020820190508181035f8301526110e7816110ae565b9050919050565b5f6060820190506111015f830186610d7d565b61110e6020830185610d7d565b61111b6040830184610d6e565b949350505050565b5f6040820190506111365f830185610d6e565b6111436020830184610d7d565b9392505050565b7f4e487b71000000000000000000000000000000000000000000000000000000005f52601160045260245ffd5b5f61118182610cfd565b915061118c83610cfd565b92508282039050818111156111a4576111a361114a565b5b92915050565b7f45544820726566756e64206661696c65640000000000000000000000000000005f82015250565b5f6111de601183610e6f565b91506111e9826111aa565b602082019050919050565b5f6020820190508181035f83015261120b816111d2565b9050919050565b7f5072696365206d7573742062652067726561746572207468616e2030000000005f82015250565b5f611246601c83610e6f565b915061125182611212565b602082019050919050565b5f6020820190508181035f8301526112738161123a565b9050919050565b5f60208201905061128d5f830184610d6e565b92915050565b5f815190506112a181610cd3565b92915050565b5f602082840312156112bc576112bb610c9f565b5b5f6112c984828501611293565b91505092915050565b7f596f7520646f206e6f74206f776e2074686973204e46540000000000000000005f82015250565b5f611306601783610e6f565b9150611311826112d2565b602082019050919050565b5f6020820190508181035f830152611333816112fa565b9050919050565b7f4d61726b6574706c616365206e6f7420617070726f76656420746f207472616e5f8201527f73666572204e4654000000000000000000000000000000000000000000000000602082015250565b5f611394602883610e6f565b915061139f8261133a565b604082019050919050565b5f6020820190508181035f8301526113c181611388565b9050919050565b7f4f776e61626c653a206e6577206f776e657220697320746865207a65726f20615f8201527f6464726573730000000000000000000000000000000000000000000000000000602082015250565b5f611422602683610e6f565b915061142d826113c8565b604082019050919050565b5f6020820190508181035f83015261144f81611416565b9050919050565b7f4f776e61626c653a2063616c6c6572206973206e6f7420746865206f776e65725f82015250565b5f61148a602083610e6f565b915061149582611456565b602082019050919050565b5f6020820190508181035f8301526114b78161147e565b905091905056fea264697066735822122093dc2989ea89dec4fc03a18456ab619a5156245731bb5e79b21ea080e39a2e2064736f6c634300081e0033","linkReferences":{}},"methodIdentifiers":{"buyNFT(address,uint256)":"a82ba76f","listNFT(address,uint256,uint256)":"ad05f1b4","listings(address,uint256)":"0007df30","owner()":"8da5cb5b","renounceOwnership()":"715018a6","transferOwnership(address)":"f2fde38b","unlistNFT(address,uint256)":"7fc27efd"},"id":13}