{"abi":[{"type":"function","name":"create","inputs":[{"name":"_text","type":"string","internalType":"string"}],"outputs":[],"stateMutability":"nonpayable"},{"type":"function","name":"getTodo","inputs":[{"name":"_index","type":"uint256","internalType":"uint256"}],"outputs":[{"name":"","type":"string","internalType":"string"},{"name":"","type":"bool","internalType":"bool"}],"stateMutability":"view"},{"type":"function","name":"getTodoCount","inputs":[],"outputs":[{"name":"","type":"uint256","internalType":"uint256"}],"stateMutability":"view"},{"type":"function","name":"todos","inputs":[{"name":"","type":"uint256","internalType":"uint256"}],"outputs":[{"name":"text","type":"string","internalType":"string"},{"name":"completed","type":"bool","internalType":"bool"}],"stateMutability":"view"},{"type":"function","name":"toggleCompleted","inputs":[{"name":"_index","type":"uint256","internalType":"uint256"}],"outputs":[],"stateMutability":"nonpayable"}],"bytecode":{"object":"0x6080604052348015600e575f5ffd5b506109948061001c5f395ff3fe608060405234801561000f575f5ffd5b5060043610610055575f3560e01c8063104a7cd814610059578063455f502414610077578063b6a46b3b14610093578063bc8bc2b4146100af578063dd68afb6146100e0575b5f5ffd5b610061610111565b60405161006e91906103bb565b60405180910390f35b610091600480360381019061008c919061040f565b61011c565b005b6100ad60048036038101906100a89190610576565b610187565b005b6100c960048036038101906100c4919061040f565b6101fd565b6040516100d7929190610637565b60405180910390f35b6100fa60048036038101906100f5919061040f565b6102bd565b604051610108929190610637565b60405180910390f35b5f5f80549050905090565b5f818154811061012f5761012e610665565b5b905f5260205f2090600202016001015f9054906101000a900460ff16155f828154811061015f5761015e610665565b5b905f5260205f2090600202016001015f6101000a81548160ff02191690831515021790555050565b5f60405180604001604052808381526020015f1515815250908060018154018082558091505060019003905f5260205f2090600202015f909190919091505f820151815f0190816101d8919061088f565b506020820151816001015f6101000a81548160ff021916908315150217905550505050565b5f818154811061020b575f80fd5b905f5260205f2090600202015f91509050805f01805461022a906106bf565b80601f0160208091040260200160405190810160405280929190818152602001828054610256906106bf565b80156102a15780601f10610278576101008083540402835291602001916102a1565b820191905f5260205f20905b81548152906001019060200180831161028457829003601f168201915b505050505090806001015f9054906101000a900460ff16905082565b60605f5f83815481106102d3576102d2610665565b5b905f5260205f2090600202015f015f84815481106102f4576102f3610665565b5b905f5260205f2090600202016001015f9054906101000a900460ff1681805461031c906106bf565b80601f0160208091040260200160405190810160405280929190818152602001828054610348906106bf565b80156103935780601f1061036a57610100808354040283529160200191610393565b820191905f5260205f20905b81548152906001019060200180831161037657829003601f168201915b5050505050915091509150915091565b5f819050919050565b6103b5816103a3565b82525050565b5f6020820190506103ce5f8301846103ac565b92915050565b5f604051905090565b5f5ffd5b5f5ffd5b6103ee816103a3565b81146103f8575f5ffd5b50565b5f81359050610409816103e5565b92915050565b5f60208284031215610424576104236103dd565b5b5f610431848285016103fb565b91505092915050565b5f5ffd5b5f5ffd5b5f601f19601f8301169050919050565b7f4e487b71000000000000000000000000000000000000000000000000000000005f52604160045260245ffd5b61048882610442565b810181811067ffffffffffffffff821117156104a7576104a6610452565b5b80604052505050565b5f6104b96103d4565b90506104c5828261047f565b919050565b5f67ffffffffffffffff8211156104e4576104e3610452565b5b6104ed82610442565b9050602081019050919050565b828183375f83830152505050565b5f61051a610515846104ca565b6104b0565b9050828152602081018484840111156105365761053561043e565b5b6105418482856104fa565b509392505050565b5f82601f83011261055d5761055c61043a565b5b813561056d848260208601610508565b91505092915050565b5f6020828403121561058b5761058a6103dd565b5b5f82013567ffffffffffffffff8111156105a8576105a76103e1565b5b6105b484828501610549565b91505092915050565b5f81519050919050565b5f82825260208201905092915050565b8281835e5f83830152505050565b5f6105ef826105bd565b6105f981856105c7565b93506106098185602086016105d7565b61061281610442565b840191505092915050565b5f8115159050919050565b6106318161061d565b82525050565b5f6040820190508181035f83015261064f81856105e5565b905061065e6020830184610628565b9392505050565b7f4e487b71000000000000000000000000000000000000000000000000000000005f52603260045260245ffd5b7f4e487b71000000000000000000000000000000000000000000000000000000005f52602260045260245ffd5b5f60028204905060018216806106d657607f821691505b6020821081036106e9576106e8610692565b5b50919050565b5f819050815f5260205f209050919050565b5f6020601f8301049050919050565b5f82821b905092915050565b5f6008830261074b7fffffffffffffffffffffffffffffffffffffffffffffffffffffffffffffffff82610710565b6107558683610710565b95508019841693508086168417925050509392505050565b5f819050919050565b5f61079061078b610786846103a3565b61076d565b6103a3565b9050919050565b5f819050919050565b6107a983610776565b6107bd6107b582610797565b84845461071c565b825550505050565b5f5f905090565b6107d46107c5565b6107df8184846107a0565b505050565b5b81811015610802576107f75f826107cc565b6001810190506107e5565b5050565b601f82111561084757610818816106ef565b61082184610701565b81016020851015610830578190505b61084461083c85610701565b8301826107e4565b50505b505050565b5f82821c905092915050565b5f6108675f198460080261084c565b1980831691505092915050565b5f61087f8383610858565b9150826002028217905092915050565b610898826105bd565b67ffffffffffffffff8111156108b1576108b0610452565b5b6108bb82546106bf565b6108c6828285610806565b5f60209050601f8311600181146108f7575f84156108e5578287015190505b6108ef8582610874565b865550610956565b601f198416610905866106ef565b5f5b8281101561092c57848901518255600182019150602085019450602081019050610907565b868310156109495784890151610945601f891682610858565b8355505b6001600288020188555050505b50505050505056fea264697066735822122053ee641f461b45bf291b0c8b805263e9c340fff91a3dbfdaa624b7f7ba1a0f9664736f6c634300081e0033","linkReferences":{}},"methodIdentifiers":{"create(string)":"b6a46b3b","getTodo(uint256)":"dd68afb6","getTodoCount()":"104a7cd8","todos(uint256)":"bc8bc2b4","toggleCompleted(uint256)":"455f5024"},"id":27}