{"abi":[{"type":"constructor","inputs":[{"name":"_stakingToken","type":"address","internalType":"address"},{"name":"_rewardsToken","type":"address","internalType":"address"}],"stateMutability":"nonpayable"},{"type":"function","name":"distributeRewards","inputs":[{"name":"amount","type":"uint256","internalType":"uint256"}],"outputs":[],"stateMutability":"nonpayable"},{"type":"function","name":"earned","inputs":[{"name":"account","type":"address","internalType":"address"}],"outputs":[{"name":"","type":"uint256","internalType":"uint256"}],"stateMutability":"view"},{"type":"function","name":"getReward","inputs":[],"outputs":[],"stateMutability":"nonpayable"},{"type":"function","name":"lastUpdateTime","inputs":[],"outputs":[{"name":"","type":"uint256","internalType":"uint256"}],"stateMutability":"view"},{"type":"function","name":"owner","inputs":[],"outputs":[{"name":"","type":"address","internalType":"address"}],"stateMutability":"view"},{"type":"function","name":"renounceOwnership","inputs":[],"outputs":[],"stateMutability":"nonpayable"},{"type":"function","name":"rewardPerToken","inputs":[],"outputs":[{"name":"","type":"uint256","internalType":"uint256"}],"stateMutability":"view"},{"type":"function","name":"rewardPerTokenStored","inputs":[],"outputs":[{"name":"","type":"uint256","internalType":"uint256"}],"stateMutability":"view"},{"type":"function","name":"rewardRate","inputs":[],"outputs":[{"name":"","type":"uint256","internalType":"uint256"}],"stateMutability":"view"},{"type":"function","name":"rewards","inputs":[{"name":"","type":"address","internalType":"address"}],"outputs":[{"name":"","type":"uint256","internalType":"uint256"}],"stateMutability":"view"},{"type":"function","name":"rewardsToken","inputs":[],"outputs":[{"name":"","type":"address","internalType":"contract IERC20"}],"stateMutability":"view"},{"type":"function","name":"setRewardRate","inputs":[{"name":"_rewardRate","type":"uint256","internalType":"uint256"}],"outputs":[],"stateMutability":"nonpayable"},{"type":"function","name":"stake","inputs":[{"name":"amount","type":"uint256","internalType":"uint256"}],"outputs":[],"stateMutability":"nonpayable"},{"type":"function","name":"stakedAmount","inputs":[{"name":"","type":"address","internalType":"address"}],"outputs":[{"name":"","type":"uint256","internalType":"uint256"}],"stateMutability":"view"},{"type":"function","name":"stakingToken","inputs":[],"outputs":[{"name":"","type":"address","internalType":"contract IERC20"}],"stateMutability":"view"},{"type":"function","name":"transferOwnership","inputs":[{"name":"newOwner","type":"address","internalType":"address"}],"outputs":[],"stateMutability":"nonpayable"},{"type":"function","name":"userRewardPerTokenPaid","inputs":[{"name":"","type":"address","internalType":"address"}],"outputs":[{"name":"","type":"uint256","internalType":"uint256"}],"stateMutability":"view"},{"type":"function","name":"withdraw","inputs":[{"name":"amount","type":"uint256","internalType":"uint256"}],"outputs":[],"stateMutability":"nonpayable"},{"type":"event","name":"OwnershipTransferred","inputs":[{"name":"previousOwner","type":"address","indexed":true,"internalType":"address"},{"name":"newOwner","type":"address","indexed":true,"internalType":"address"}],"anonymous":false},{"type":"event","name":"RewardPaid","inputs":[{"name":"user","type":"address","indexed":true,"internalType":"address"},{"name":"reward","type":"uint256","indexed":false,"internalType":"uint256"}],"anonymous":false},{"type":"event","name":"RewardsDistributed","inputs":[{"name":"amount","type":"uint256","indexed":false,"internalType":"uint256"}],"anonymous":false},{"type":"event","name":"Staked","inputs":[{"name":"user","type":"address","indexed":true,"internalType":"address"},{"name":"amount","type":"uint256","indexed":false,"internalType":"uint256"}],"anonymous":false},{"type":"event","name":"Withdrawn","inputs":[{"name":"user","type":"address","indexed":true,"internalType":"address"},{"name":"amount","type":"uint256","indexed":false,"internalType":"uint256"}],"anonymous":false}],"bytecode":{"object":"0x608060405234801562000010575f80fd5b506040516200172d3803806200172d83398181016040528101906200003691906200020b565b620000566200004a620000de60201b60201c565b620000e560201b60201c565b8160015f6101000a81548173ffffffffffffffffffffffffffffffffffffffff021916908373ffffffffffffffffffffffffffffffffffffffff1602179055508060025f6101000a81548173ffffffffffffffffffffffffffffffffffffffff021916908373ffffffffffffffffffffffffffffffffffffffff160217905550505062000250565b5f33905090565b5f805f9054906101000a900473ffffffffffffffffffffffffffffffffffffffff169050815f806101000a81548173ffffffffffffffffffffffffffffffffffffffff021916908373ffffffffffffffffffffffffffffffffffffffff1602179055508173ffffffffffffffffffffffffffffffffffffffff168173ffffffffffffffffffffffffffffffffffffffff167f8be0079c531659141344cd1fd0a4f28419497f9722a3daafe3b4186f6b6457e060405160405180910390a35050565b5f80fd5b5f73ffffffffffffffffffffffffffffffffffffffff82169050919050565b5f620001d582620001aa565b9050919050565b620001e781620001c9565b8114620001f2575f80fd5b50565b5f815190506200020581620001dc565b92915050565b5f8060408385031215620002245762000223620001a6565b5b5f6200023385828601620001f5565b92505060206200024685828601620001f5565b9150509250929050565b6114cf806200025e5f395ff3fe608060405234801561000f575f80fd5b5060043610610113575f3560e01c80638da5cb5b116100a0578063cd3daf9d1161006f578063cd3daf9d146102a3578063d1af0c7d146102c1578063df136d65146102df578063f2fde38b146102fd578063f99318551461031957610113565b80638da5cb5b1461022f5780639e447fc61461024d578063a694fc3a14610269578063c8f33c911461028557610113565b806359974e38116100e757806359974e381461019d578063715018a6146101b957806372f702f3146101c35780637b0a47ee146101e15780638b876347146101ff57610113565b80628cc262146101175780630700037d146101475780632e1a7d4d146101775780633d18b91214610193575b5f80fd5b610131600480360381019061012c9190610f4a565b610349565b60405161013e9190610f8d565b60405180910390f35b610161600480360381019061015c9190610f4a565b610444565b60405161016e9190610f8d565b60405180910390f35b610191600480360381019061018c9190610fd0565b610459565b005b61019b610672565b005b6101b760048036038101906101b29190610fd0565b6107bf565b005b6101c16108a0565b005b6101cb6108b3565b6040516101d89190611056565b60405180910390f35b6101e96108d8565b6040516101f69190610f8d565b60405180910390f35b61021960048036038101906102149190610f4a565b6108de565b6040516102269190610f8d565b60405180910390f35b6102376108f3565b604051610244919061107e565b60405180910390f35b61026760048036038101906102629190610fd0565b61091a565b005b610283600480360381019061027e9190610fd0565b610934565b005b61028d610b4f565b60405161029a9190610f8d565b60405180910390f35b6102ab610b55565b6040516102b89190610f8d565b60405180910390f35b6102c9610ccd565b6040516102d69190611056565b60405180910390f35b6102e7610cf2565b6040516102f49190610f8d565b60405180910390f35b61031760048036038101906103129190610f4a565b610cf8565b005b610333600480360381019061032e9190610f4a565b610d7a565b6040516103409190610f8d565b60405180910390f35b5f60075f8373ffffffffffffffffffffffffffffffffffffffff1673ffffffffffffffffffffffffffffffffffffffff1681526020019081526020015f2054670de0b6b3a764000060065f8573ffffffffffffffffffffffffffffffffffffffff1673ffffffffffffffffffffffffffffffffffffffff1681526020019081526020015f20546103d7610b55565b6103e191906110c4565b60085f8673ffffffffffffffffffffffffffffffffffffffff1673ffffffffffffffffffffffffffffffffffffffff1681526020019081526020015f205461042991906110f7565b6104339190611165565b61043d9190611195565b9050919050565b6007602052805f5260405f205f915090505481565b5f811161049b576040517f08c379a000000000000000000000000000000000000000000000000000000000815260040161049290611222565b60405180910390fd5b6104a3610d8f565b6104ac33610349565b60075f3373ffffffffffffffffffffffffffffffffffffffff1673ffffffffffffffffffffffffffffffffffffffff1681526020019081526020015f208190555060055460065f3373ffffffffffffffffffffffffffffffffffffffff1673ffffffffffffffffffffffffffffffffffffffff1681526020019081526020015f20819055508060085f3373ffffffffffffffffffffffffffffffffffffffff1673ffffffffffffffffffffffffffffffffffffffff1681526020019081526020015f205f82825461057d91906110c4565b9250508190555060015f9054906101000a900473ffffffffffffffffffffffffffffffffffffffff1673ffffffffffffffffffffffffffffffffffffffff1663a9059cbb33836040518363ffffffff1660e01b81526004016105e0929190611240565b6020604051808303815f875af11580156105fc573d5f803e3d5ffd5b505050506040513d601f19601f82011682018060405250810190610620919061129c565b503373ffffffffffffffffffffffffffffffffffffffff167f7084f5476618d8e60b11ef0d7d3f06914655adb8793e28ff7f018d4c76d505d5826040516106679190610f8d565b60405180910390a250565b61067a610d8f565b5f61068433610349565b90505f8111156107bc575f60075f3373ffffffffffffffffffffffffffffffffffffffff1673ffffffffffffffffffffffffffffffffffffffff1681526020019081526020015f208190555060025f9054906101000a900473ffffffffffffffffffffffffffffffffffffffff1673ffffffffffffffffffffffffffffffffffffffff1663a9059cbb33836040518363ffffffff1660e01b815260040161072c929190611240565b6020604051808303815f875af1158015610748573d5f803e3d5ffd5b505050506040513d601f19601f8201168201806040525081019061076c919061129c565b503373ffffffffffffffffffffffffffffffffffffffff167fe2403640ba68fed3a2f88b7557551d1993f84b99bb10ff833f0cf8db0c5e0486826040516107b39190610f8d565b60405180910390a25b50565b6107c7610da6565b60025f9054906101000a900473ffffffffffffffffffffffffffffffffffffffff1673ffffffffffffffffffffffffffffffffffffffff166323b872dd3330846040518463ffffffff1660e01b8152600401610825939291906112c7565b6020604051808303815f875af1158015610841573d5f803e3d5ffd5b505050506040513d601f19601f82011682018060405250810190610865919061129c565b507f6d1c76d614228b523baa4dcd9539e2c713b54ff4ab3ff2d1627e7f6cd32be442816040516108959190610f8d565b60405180910390a150565b6108a8610da6565b6108b15f610e24565b565b60015f9054906101000a900473ffffffffffffffffffffffffffffffffffffffff1681565b60035481565b6006602052805f5260405f205f915090505481565b5f805f9054906101000a900473ffffffffffffffffffffffffffffffffffffffff16905090565b610922610da6565b61092a610d8f565b8060038190555050565b5f8111610976576040517f08c379a000000000000000000000000000000000000000000000000000000000815260040161096d90611346565b60405180910390fd5b61097e610d8f565b61098733610349565b60075f3373ffffffffffffffffffffffffffffffffffffffff1673ffffffffffffffffffffffffffffffffffffffff1681526020019081526020015f208190555060055460065f3373ffffffffffffffffffffffffffffffffffffffff1673ffffffffffffffffffffffffffffffffffffffff1681526020019081526020015f20819055508060085f3373ffffffffffffffffffffffffffffffffffffffff1673ffffffffffffffffffffffffffffffffffffffff1681526020019081526020015f205f828254610a589190611195565b9250508190555060015f9054906101000a900473ffffffffffffffffffffffffffffffffffffffff1673ffffffffffffffffffffffffffffffffffffffff166323b872dd3330846040518463ffffffff1660e01b8152600401610abd939291906112c7565b6020604051808303815f875af1158015610ad9573d5f803e3d5ffd5b505050506040513d601f19601f82011682018060405250810190610afd919061129c565b503373ffffffffffffffffffffffffffffffffffffffff167f9e71bc8eea02a63969f509818f2dafb9254532904319f9dbda79b67bd34a5f3d82604051610b449190610f8d565b60405180910390a250565b60045481565b5f8060015f9054906101000a900473ffffffffffffffffffffffffffffffffffffffff1673ffffffffffffffffffffffffffffffffffffffff166318160ddd6040518163ffffffff1660e01b8152600401602060405180830381865afa158015610bc1573d5f803e3d5ffd5b505050506040513d601f19601f82011682018060405250810190610be59190611378565b03610bf4576005549050610cca565b60015f9054906101000a900473ffffffffffffffffffffffffffffffffffffffff1673ffffffffffffffffffffffffffffffffffffffff166318160ddd6040518163ffffffff1660e01b8152600401602060405180830381865afa158015610c5e573d5f803e3d5ffd5b505050506040513d601f19601f82011682018060405250810190610c829190611378565b670de0b6b3a764000060045442610c9991906110c4565b600354610ca691906110f7565b610cb091906110f7565b610cba9190611165565b600554610cc79190611195565b90505b90565b60025f9054906101000a900473ffffffffffffffffffffffffffffffffffffffff1681565b60055481565b610d00610da6565b5f73ffffffffffffffffffffffffffffffffffffffff168173ffffffffffffffffffffffffffffffffffffffff1603610d6e576040517f08c379a0000000000000000000000000000000000000000000000000000000008152600401610d6590611413565b60405180910390fd5b610d7781610e24565b50565b6008602052805f5260405f205f915090505481565b610d97610b55565b60058190555042600481905550565b610dae610ee5565b73ffffffffffffffffffffffffffffffffffffffff16610dcc6108f3565b73ffffffffffffffffffffffffffffffffffffffff1614610e22576040517f08c379a0000000000000000000000000000000000000000000000000000000008152600401610e199061147b565b60405180910390fd5b565b5f805f9054906101000a900473ffffffffffffffffffffffffffffffffffffffff169050815f806101000a81548173ffffffffffffffffffffffffffffffffffffffff021916908373ffffffffffffffffffffffffffffffffffffffff1602179055508173ffffffffffffffffffffffffffffffffffffffff168173ffffffffffffffffffffffffffffffffffffffff167f8be0079c531659141344cd1fd0a4f28419497f9722a3daafe3b4186f6b6457e060405160405180910390a35050565b5f33905090565b5f80fd5b5f73ffffffffffffffffffffffffffffffffffffffff82169050919050565b5f610f1982610ef0565b9050919050565b610f2981610f0f565b8114610f33575f80fd5b50565b5f81359050610f4481610f20565b92915050565b5f60208284031215610f5f57610f5e610eec565b5b5f610f6c84828501610f36565b91505092915050565b5f819050919050565b610f8781610f75565b82525050565b5f602082019050610fa05f830184610f7e565b92915050565b610faf81610f75565b8114610fb9575f80fd5b50565b5f81359050610fca81610fa6565b92915050565b5f60208284031215610fe557610fe4610eec565b5b5f610ff284828501610fbc565b91505092915050565b5f819050919050565b5f61101e61101961101484610ef0565b610ffb565b610ef0565b9050919050565b5f61102f82611004565b9050919050565b5f61104082611025565b9050919050565b61105081611036565b82525050565b5f6020820190506110695f830184611047565b92915050565b61107881610f0f565b82525050565b5f6020820190506110915f83018461106f565b92915050565b7f4e487b71000000000000000000000000000000000000000000000000000000005f52601160045260245ffd5b5f6110ce82610f75565b91506110d983610f75565b92508282039050818111156110f1576110f0611097565b5b92915050565b5f61110182610f75565b915061110c83610f75565b925082820261111a81610f75565b9150828204841483151761113157611130611097565b5b5092915050565b7f4e487b71000000000000000000000000000000000000000000000000000000005f52601260045260245ffd5b5f61116f82610f75565b915061117a83610f75565b92508261118a57611189611138565b5b828204905092915050565b5f61119f82610f75565b91506111aa83610f75565b92508282019050808211156111c2576111c1611097565b5b92915050565b5f82825260208201905092915050565b7f43616e6e6f7420776974686472617720300000000000000000000000000000005f82015250565b5f61120c6011836111c8565b9150611217826111d8565b602082019050919050565b5f6020820190508181035f83015261123981611200565b9050919050565b5f6040820190506112535f83018561106f565b6112606020830184610f7e565b9392505050565b5f8115159050919050565b61127b81611267565b8114611285575f80fd5b50565b5f8151905061129681611272565b92915050565b5f602082840312156112b1576112b0610eec565b5b5f6112be84828501611288565b91505092915050565b5f6060820190506112da5f83018661106f565b6112e7602083018561106f565b6112f46040830184610f7e565b949350505050565b7f43616e6e6f74207374616b6520300000000000000000000000000000000000005f82015250565b5f611330600e836111c8565b915061133b826112fc565b602082019050919050565b5f6020820190508181035f83015261135d81611324565b9050919050565b5f8151905061137281610fa6565b92915050565b5f6020828403121561138d5761138c610eec565b5b5f61139a84828501611364565b91505092915050565b7f4f776e61626c653a206e6577206f776e657220697320746865207a65726f20615f8201527f6464726573730000000000000000000000000000000000000000000000000000602082015250565b5f6113fd6026836111c8565b9150611408826113a3565b604082019050919050565b5f6020820190508181035f83015261142a816113f1565b9050919050565b7f4f776e61626c653a2063616c6c6572206973206e6f7420746865206f776e65725f82015250565b5f6114656020836111c8565b915061147082611431565b602082019050919050565b5f6020820190508181035f83015261149281611459565b905091905056fea26469706673582212209e1030a3a75c4e56a830dc0fd54ed9c6b41df22766eb803de5628e0077d191ff64736f6c63430008140033","linkReferences":{}},"methodIdentifiers":{"distributeRewards(uint256)":"59974e38","earned(address)":"008cc262","getReward()":"3d18b912","lastUpdateTime()":"c8f33c91","owner()":"8da5cb5b","renounceOwnership()":"715018a6","rewardPerToken()":"cd3daf9d","rewardPerTokenStored()":"df136d65","rewardRate()":"7b0a47ee","rewards(address)":"0700037d","rewardsToken()":"d1af0c7d","setRewardRate(uint256)":"9e447fc6","stake(uint256)":"a694fc3a","stakedAmount(address)":"f9931855","stakingToken()":"72f702f3","transferOwnership(address)":"f2fde38b","userRewardPerTokenPaid(address)":"8b876347","withdraw(uint256)":"2e1a7d4d"},"id":2}