{"abi":[{"type":"constructor","inputs":[{"name":"_ticketPrice","type":"uint256","internalType":"uint256"}],"stateMutability":"nonpayable"},{"type":"function","name":"enter","inputs":[],"outputs":[],"stateMutability":"payable"},{"type":"function","name":"getPlayers","inputs":[],"outputs":[{"name":"","type":"address[]","internalType":"address[]"}],"stateMutability":"view"},{"type":"function","name":"lotteryId","inputs":[],"outputs":[{"name":"","type":"uint256","internalType":"uint256"}],"stateMutability":"view"},{"type":"function","name":"owner","inputs":[],"outputs":[{"name":"","type":"address","internalType":"address"}],"stateMutability":"view"},{"type":"function","name":"pickWinner","inputs":[],"outputs":[],"stateMutability":"nonpayable"},{"type":"function","name":"players","inputs":[{"name":"","type":"uint256","internalType":"uint256"}],"outputs":[{"name":"","type":"address","internalType":"address"}],"stateMutability":"view"},{"type":"function","name":"recentWinner","inputs":[],"outputs":[{"name":"","type":"address","internalType":"address"}],"stateMutability":"view"},{"type":"function","name":"renounceOwnership","inputs":[],"outputs":[],"stateMutability":"nonpayable"},{"type":"function","name":"ticketPrice","inputs":[],"outputs":[{"name":"","type":"uint256","internalType":"uint256"}],"stateMutability":"view"},{"type":"function","name":"transferOwnership","inputs":[{"name":"newOwner","type":"address","internalType":"address"}],"outputs":[],"stateMutability":"nonpayable"},{"type":"event","name":"LotteryEnded","inputs":[{"name":"winner","type":"address","indexed":false,"internalType":"address"},{"name":"amount","type":"uint256","indexed":false,"internalType":"uint256"}],"anonymous":false},{"type":"event","name":"OwnershipTransferred","inputs":[{"name":"previousOwner","type":"address","indexed":true,"internalType":"address"},{"name":"newOwner","type":"address","indexed":true,"internalType":"address"}],"anonymous":false}],"bytecode":{"object":"0x608060405234801561000f575f5ffd5b506040516111c23803806111c283398181016040528101906100319190610160565b61004d61004261006160201b60201c565b61006860201b60201c565b806004819055505f6002819055505061018b565b5f33905090565b5f5f5f9054906101000a900473ffffffffffffffffffffffffffffffffffffffff169050815f5f6101000a81548173ffffffffffffffffffffffffffffffffffffffff021916908373ffffffffffffffffffffffffffffffffffffffff1602179055508173ffffffffffffffffffffffffffffffffffffffff168173ffffffffffffffffffffffffffffffffffffffff167f8be0079c531659141344cd1fd0a4f28419497f9722a3daafe3b4186f6b6457e060405160405180910390a35050565b5f5ffd5b5f819050919050565b61013f8161012d565b8114610149575f5ffd5b50565b5f8151905061015a81610136565b92915050565b5f6020828403121561017557610174610129565b5b5f6101828482850161014c565b91505092915050565b61102a806101985f395ff3fe608060405260043610610090575f3560e01c80638da5cb5b116100585780638da5cb5b1461013e578063e580f47b14610168578063e97dcb6214610192578063f2fde38b1461019c578063f71d96cb146101c457610090565b80631209b1f6146100945780634f8c70cf146100be5780635d495aea146100e8578063715018a6146100fe5780638b5b9ccc14610114575b5f5ffd5b34801561009f575f5ffd5b506100a8610200565b6040516100b591906108c5565b60405180910390f35b3480156100c9575f5ffd5b506100d2610206565b6040516100df919061091d565b60405180910390f35b3480156100f3575f5ffd5b506100fc61022b565b005b348015610109575f5ffd5b50610112610496565b005b34801561011f575f5ffd5b506101286104a9565b60405161013591906109ed565b60405180910390f35b348015610149575f5ffd5b50610152610534565b60405161015f919061091d565b60405180910390f35b348015610173575f5ffd5b5061017c61055b565b60405161018991906108c5565b60405180910390f35b61019a610561565b005b3480156101a7575f5ffd5b506101c260048036038101906101bd9190610a3b565b610608565b005b3480156101cf575f5ffd5b506101ea60048036038101906101e59190610a90565b61068a565b6040516101f7919061091d565b60405180910390f35b60045481565b60035f9054906101000a900473ffffffffffffffffffffffffffffffffffffffff1681565b6102336106c5565b5f6001805490501161027a576040517f08c379a000000000000000000000000000000000000000000000000000000000815260040161027190610b15565b60405180910390fd5b5f6001805490504244600160405160200161029793929190610c63565b604051602081830303815290604052805190602001205f1c6102b99190610cc8565b90505f600182815481106102d0576102cf610cf8565b5b905f5260205f20015f9054906101000a900473ffffffffffffffffffffffffffffffffffffffff1690505f8173ffffffffffffffffffffffffffffffffffffffff164760405161031f90610d52565b5f6040518083038185875af1925050503d805f8114610359576040519150601f19603f3d011682016040523d82523d5f602084013e61035e565b606091505b50509050806103a2576040517f08c379a000000000000000000000000000000000000000000000000000000000815260040161039990610db0565b60405180910390fd5b7fa49efdde740c1e6a0e4eeb9e7b2c5f9305ca78fc5f61c672be3688209feade1b82476040516103d3929190610dce565b60405180910390a15f67ffffffffffffffff8111156103f5576103f4610df5565b5b6040519080825280602002602001820160405280156104235781602001602082028036833780820191505090505b506001908051906020019061043992919061080b565b5060025f81548092919061044c90610e4f565b91905055508160035f6101000a81548173ffffffffffffffffffffffffffffffffffffffff021916908373ffffffffffffffffffffffffffffffffffffffff160217905550505050565b61049e6106c5565b6104a75f610743565b565b6060600180548060200260200160405190810160405280929190818152602001828054801561052a57602002820191905f5260205f20905b815f9054906101000a900473ffffffffffffffffffffffffffffffffffffffff1673ffffffffffffffffffffffffffffffffffffffff16815260200190600101908083116104e1575b5050505050905090565b5f5f5f9054906101000a900473ffffffffffffffffffffffffffffffffffffffff16905090565b60025481565b6004543410156105a6576040517f08c379a000000000000000000000000000000000000000000000000000000000815260040161059d90610ee0565b60405180910390fd5b600133908060018154018082558091505060019003905f5260205f20015f9091909190916101000a81548173ffffffffffffffffffffffffffffffffffffffff021916908373ffffffffffffffffffffffffffffffffffffffff160217905550565b6106106106c5565b5f73ffffffffffffffffffffffffffffffffffffffff168173ffffffffffffffffffffffffffffffffffffffff160361067e576040517f08c379a000000000000000000000000000000000000000000000000000000000815260040161067590610f6e565b60405180910390fd5b61068781610743565b50565b60018181548110610699575f80fd5b905f5260205f20015f915054906101000a900473ffffffffffffffffffffffffffffffffffffffff1681565b6106cd610804565b73ffffffffffffffffffffffffffffffffffffffff166106eb610534565b73ffffffffffffffffffffffffffffffffffffffff1614610741576040517f08c379a000000000000000000000000000000000000000000000000000000000815260040161073890610fd6565b60405180910390fd5b565b5f5f5f9054906101000a900473ffffffffffffffffffffffffffffffffffffffff169050815f5f6101000a81548173ffffffffffffffffffffffffffffffffffffffff021916908373ffffffffffffffffffffffffffffffffffffffff1602179055508173ffffffffffffffffffffffffffffffffffffffff168173ffffffffffffffffffffffffffffffffffffffff167f8be0079c531659141344cd1fd0a4f28419497f9722a3daafe3b4186f6b6457e060405160405180910390a35050565b5f33905090565b828054828255905f5260205f20908101928215610881579160200282015b82811115610880578251825f6101000a81548173ffffffffffffffffffffffffffffffffffffffff021916908373ffffffffffffffffffffffffffffffffffffffff16021790555091602001919060010190610829565b5b50905061088e9190610892565b5090565b5b808211156108a9575f815f905550600101610893565b5090565b5f819050919050565b6108bf816108ad565b82525050565b5f6020820190506108d85f8301846108b6565b92915050565b5f73ffffffffffffffffffffffffffffffffffffffff82169050919050565b5f610907826108de565b9050919050565b610917816108fd565b82525050565b5f6020820190506109305f83018461090e565b92915050565b5f81519050919050565b5f82825260208201905092915050565b5f819050602082019050919050565b610968816108fd565b82525050565b5f610979838361095f565b60208301905092915050565b5f602082019050919050565b5f61099b82610936565b6109a58185610940565b93506109b083610950565b805f5b838110156109e05781516109c7888261096e565b97506109d283610985565b9250506001810190506109b3565b5085935050505092915050565b5f6020820190508181035f830152610a058184610991565b905092915050565b5f5ffd5b610a1a816108fd565b8114610a24575f5ffd5b50565b5f81359050610a3581610a11565b92915050565b5f60208284031215610a5057610a4f610a0d565b5b5f610a5d84828501610a27565b91505092915050565b610a6f816108ad565b8114610a79575f5ffd5b50565b5f81359050610a8a81610a66565b92915050565b5f60208284031215610aa557610aa4610a0d565b5b5f610ab284828501610a7c565b91505092915050565b5f82825260208201905092915050565b7f4e6f20706c617965727320696e20746865206c6f7474657279000000000000005f82015250565b5f610aff601983610abb565b9150610b0a82610acb565b602082019050919050565b5f6020820190508181035f830152610b2c81610af3565b9050919050565b5f819050919050565b610b4d610b48826108ad565b610b33565b82525050565b5f81549050919050565b5f81905092915050565b5f819050815f5260205f209050919050565b610b82816108fd565b82525050565b5f610b938383610b79565b60208301905092915050565b5f815f1c9050919050565b5f73ffffffffffffffffffffffffffffffffffffffff82169050919050565b5f610bdb610bd683610b9f565b610baa565b9050919050565b5f610bed8254610bc9565b9050919050565b5f600182019050919050565b5f610c0a82610b53565b610c148185610b5d565b9350610c1f83610b67565b805f5b83811015610c5657610c3382610be2565b610c3d8882610b88565b9750610c4883610bf4565b925050600181019050610c22565b5085935050505092915050565b5f610c6e8286610b3c565b602082019150610c7e8285610b3c565b602082019150610c8e8284610c00565b9150819050949350505050565b7f4e487b71000000000000000000000000000000000000000000000000000000005f52601260045260245ffd5b5f610cd2826108ad565b9150610cdd836108ad565b925082610ced57610cec610c9b565b5b828206905092915050565b7f4e487b71000000000000000000000000000000000000000000000000000000005f52603260045260245ffd5b5f81905092915050565b50565b5f610d3d5f83610d25565b9150610d4882610d2f565b5f82019050919050565b5f610d5c82610d32565b9150819050919050565b7f5472616e73666572206661696c65642e000000000000000000000000000000005f82015250565b5f610d9a601083610abb565b9150610da582610d66565b602082019050919050565b5f6020820190508181035f830152610dc781610d8e565b9050919050565b5f604082019050610de15f83018561090e565b610dee60208301846108b6565b9392505050565b7f4e487b71000000000000000000000000000000000000000000000000000000005f52604160045260245ffd5b7f4e487b71000000000000000000000000000000000000000000000000000000005f52601160045260245ffd5b5f610e59826108ad565b91507fffffffffffffffffffffffffffffffffffffffffffffffffffffffffffffffff8203610e8b57610e8a610e22565b5b600182019050919050565b7f4e6f7420656e6f75676820457468657220746f20656e746572000000000000005f82015250565b5f610eca601983610abb565b9150610ed582610e96565b602082019050919050565b5f6020820190508181035f830152610ef781610ebe565b9050919050565b7f4f776e61626c653a206e6577206f776e657220697320746865207a65726f20615f8201527f6464726573730000000000000000000000000000000000000000000000000000602082015250565b5f610f58602683610abb565b9150610f6382610efe565b604082019050919050565b5f6020820190508181035f830152610f8581610f4c565b9050919050565b7f4f776e61626c653a2063616c6c6572206973206e6f7420746865206f776e65725f82015250565b5f610fc0602083610abb565b9150610fcb82610f8c565b602082019050919050565b5f6020820190508181035f830152610fed81610fb4565b905091905056fea2646970667358221220bce4d86ff188055d99dcc73b454ed797fcfb454cbbf3af06642ac5315e77385164736f6c634300081e0033","linkReferences":{}},"methodIdentifiers":{"enter()":"e97dcb62","getPlayers()":"8b5b9ccc","lotteryId()":"e580f47b","owner()":"8da5cb5b","pickWinner()":"5d495aea","players(uint256)":"f71d96cb","recentWinner()":"4f8c70cf","renounceOwnership()":"715018a6","ticketPrice()":"1209b1f6","transferOwnership(address)":"f2fde38b"},"id":8}